{
  "address": "0xB39A777c6E3AE43e630621bC144Ce9bd6DcC344e",
  "abi": [
    {
      "anonymous": false,
      "inputs": [
        {
          "indexed": true,
          "internalType": "address",
          "name": "owner",
          "type": "address"
        },
        {
          "indexed": true,
          "internalType": "address",
          "name": "approved",
          "type": "address"
        },
        {
          "indexed": true,
          "internalType": "uint256",
          "name": "tokenId",
          "type": "uint256"
        }
      ],
      "name": "Approval",
      "type": "event"
    },
    {
      "anonymous": false,
      "inputs": [
        {
          "indexed": true,
          "internalType": "address",
          "name": "owner",
          "type": "address"
        },
        {
          "indexed": true,
          "internalType": "address",
          "name": "operator",
          "type": "address"
        },
        {
          "indexed": false,
          "internalType": "bool",
          "name": "approved",
          "type": "bool"
        }
      ],
      "name": "ApprovalForAll",
      "type": "event"
    },
    {
      "anonymous": false,
      "inputs": [
        {
          "indexed": true,
          "internalType": "uint256",
          "name": "eventId",
          "type": "uint256"
        },
        {
          "indexed": true,
          "internalType": "address",
          "name": "minter",
          "type": "address"
        },
        {
          "indexed": true,
          "internalType": "bytes32",
          "name": "role",
          "type": "bytes32"
        }
      ],
      "name": "EventAdded",
      "type": "event"
    },
    {
      "anonymous": false,
      "inputs": [
        {
          "indexed": true,
          "internalType": "uint256",
          "name": "eventId",
          "type": "uint256"
        },
        {
          "indexed": true,
          "internalType": "address",
          "name": "account",
          "type": "address"
        }
      ],
      "name": "EventMinterAdded",
      "type": "event"
    },
    {
      "anonymous": false,
      "inputs": [
        {
          "indexed": true,
          "internalType": "uint256",
          "name": "eventId",
          "type": "uint256"
        },
        {
          "indexed": true,
          "internalType": "address",
          "name": "account",
          "type": "address"
        }
      ],
      "name": "EventMinterRemoved",
      "type": "event"
    },
    {
      "anonymous": false,
      "inputs": [
        {
          "indexed": false,
          "internalType": "uint256",
          "name": "eventId",
          "type": "uint256"
        },
        {
          "indexed": false,
          "internalType": "uint256",
          "name": "tokenId",
          "type": "uint256"
        }
      ],
      "name": "EventToken",
      "type": "event"
    },
    {
      "anonymous": false,
      "inputs": [
        {
          "indexed": true,
          "internalType": "address",
          "name": "account",
          "type": "address"
        }
      ],
      "name": "GovernorAdded",
      "type": "event"
    },
    {
      "anonymous": false,
      "inputs": [
        {
          "indexed": true,
          "internalType": "address",
          "name": "account",
          "type": "address"
        }
      ],
      "name": "GovernorRemoved",
      "type": "event"
    },
    {
      "anonymous": false,
      "inputs": [
        {
          "indexed": false,
          "internalType": "address",
          "name": "account",
          "type": "address"
        }
      ],
      "name": "Paused",
      "type": "event"
    },
    {
      "anonymous": false,
      "inputs": [
        {
          "indexed": true,
          "internalType": "bytes32",
          "name": "role",
          "type": "bytes32"
        },
        {
          "indexed": true,
          "internalType": "bytes32",
          "name": "previousAdminRole",
          "type": "bytes32"
        },
        {
          "indexed": true,
          "internalType": "bytes32",
          "name": "newAdminRole",
          "type": "bytes32"
        }
      ],
      "name": "RoleAdminChanged",
      "type": "event"
    },
    {
      "anonymous": false,
      "inputs": [
        {
          "indexed": true,
          "internalType": "bytes32",
          "name": "role",
          "type": "bytes32"
        },
        {
          "indexed": true,
          "internalType": "address",
          "name": "account",
          "type": "address"
        },
        {
          "indexed": true,
          "internalType": "address",
          "name": "sender",
          "type": "address"
        }
      ],
      "name": "RoleGranted",
      "type": "event"
    },
    {
      "anonymous": false,
      "inputs": [
        {
          "indexed": true,
          "internalType": "bytes32",
          "name": "role",
          "type": "bytes32"
        },
        {
          "indexed": true,
          "internalType": "address",
          "name": "account",
          "type": "address"
        },
        {
          "indexed": true,
          "internalType": "address",
          "name": "sender",
          "type": "address"
        }
      ],
      "name": "RoleRevoked",
      "type": "event"
    },
    {
      "anonymous": false,
      "inputs": [
        {
          "indexed": true,
          "internalType": "address",
          "name": "drop",
          "type": "address"
        }
      ],
      "name": "SwayDropAddressUpdated",
      "type": "event"
    },
    {
      "anonymous": false,
      "inputs": [
        {
          "indexed": true,
          "internalType": "address",
          "name": "from",
          "type": "address"
        },
        {
          "indexed": true,
          "internalType": "address",
          "name": "to",
          "type": "address"
        },
        {
          "indexed": true,
          "internalType": "uint256",
          "name": "tokenId",
          "type": "uint256"
        }
      ],
      "name": "Transfer",
      "type": "event"
    },
    {
      "anonymous": false,
      "inputs": [
        {
          "indexed": false,
          "internalType": "address",
          "name": "account",
          "type": "address"
        }
      ],
      "name": "Unpaused",
      "type": "event"
    },
    {
      "inputs": [],
      "name": "DEFAULT_ADMIN_ROLE",
      "outputs": [
        {
          "internalType": "bytes32",
          "name": "",
          "type": "bytes32"
        }
      ],
      "stateMutability": "view",
      "type": "function"
    },
    {
      "inputs": [],
      "name": "GOVERNOR_ROLE",
      "outputs": [
        {
          "internalType": "bytes32",
          "name": "",
          "type": "bytes32"
        }
      ],
      "stateMutability": "view",
      "type": "function"
    },
    {
      "inputs": [
        {
          "internalType": "uint256",
          "name": "eventId",
          "type": "uint256"
        },
        {
          "internalType": "bytes32",
          "name": "rootHash",
          "type": "bytes32"
        }
      ],
      "name": "addEventDrop",
      "outputs": [],
      "stateMutability": "nonpayable",
      "type": "function"
    },
    {
      "inputs": [
        {
          "internalType": "uint256",
          "name": "eventId",
          "type": "uint256"
        },
        {
          "internalType": "address",
          "name": "account",
          "type": "address"
        }
      ],
      "name": "addEventMinter",
      "outputs": [],
      "stateMutability": "nonpayable",
      "type": "function"
    },
    {
      "inputs": [
        {
          "internalType": "address",
          "name": "account",
          "type": "address"
        }
      ],
      "name": "addGovernor",
      "outputs": [],
      "stateMutability": "nonpayable",
      "type": "function"
    },
    {
      "inputs": [
        {
          "internalType": "address",
          "name": "to",
          "type": "address"
        },
        {
          "internalType": "uint256",
          "name": "tokenId",
          "type": "uint256"
        }
      ],
      "name": "approve",
      "outputs": [],
      "stateMutability": "nonpayable",
      "type": "function"
    },
    {
      "inputs": [
        {
          "internalType": "address",
          "name": "owner",
          "type": "address"
        }
      ],
      "name": "balanceOf",
      "outputs": [
        {
          "internalType": "uint256",
          "name": "",
          "type": "uint256"
        }
      ],
      "stateMutability": "view",
      "type": "function"
    },
    {
      "inputs": [
        {
          "internalType": "uint256",
          "name": "tokenId",
          "type": "uint256"
        }
      ],
      "name": "burn",
      "outputs": [],
      "stateMutability": "nonpayable",
      "type": "function"
    },
    {
      "inputs": [
        {
          "internalType": "address",
          "name": "minter",
          "type": "address"
        }
      ],
      "name": "createEvent",
      "outputs": [],
      "stateMutability": "nonpayable",
      "type": "function"
    },
    {
      "inputs": [],
      "name": "drop",
      "outputs": [
        {
          "internalType": "address",
          "name": "",
          "type": "address"
        }
      ],
      "stateMutability": "view",
      "type": "function"
    },
    {
      "inputs": [
        {
          "internalType": "uint256",
          "name": "",
          "type": "uint256"
        }
      ],
      "name": "eventRoleMapping",
      "outputs": [
        {
          "internalType": "bytes32",
          "name": "",
          "type": "bytes32"
        }
      ],
      "stateMutability": "view",
      "type": "function"
    },
    {
      "inputs": [
        {
          "internalType": "uint256",
          "name": "tokenId",
          "type": "uint256"
        }
      ],
      "name": "getApproved",
      "outputs": [
        {
          "internalType": "address",
          "name": "",
          "type": "address"
        }
      ],
      "stateMutability": "view",
      "type": "function"
    },
    {
      "inputs": [
        {
          "internalType": "bytes32",
          "name": "role",
          "type": "bytes32"
        }
      ],
      "name": "getRoleAdmin",
      "outputs": [
        {
          "internalType": "bytes32",
          "name": "",
          "type": "bytes32"
        }
      ],
      "stateMutability": "view",
      "type": "function"
    },
    {
      "inputs": [
        {
          "internalType": "bytes32",
          "name": "role",
          "type": "bytes32"
        },
        {
          "internalType": "uint256",
          "name": "index",
          "type": "uint256"
        }
      ],
      "name": "getRoleMember",
      "outputs": [
        {
          "internalType": "address",
          "name": "",
          "type": "address"
        }
      ],
      "stateMutability": "view",
      "type": "function"
    },
    {
      "inputs": [
        {
          "internalType": "bytes32",
          "name": "role",
          "type": "bytes32"
        }
      ],
      "name": "getRoleMemberCount",
      "outputs": [
        {
          "internalType": "uint256",
          "name": "",
          "type": "uint256"
        }
      ],
      "stateMutability": "view",
      "type": "function"
    },
    {
      "inputs": [
        {
          "internalType": "bytes32",
          "name": "role",
          "type": "bytes32"
        },
        {
          "internalType": "address",
          "name": "account",
          "type": "address"
        }
      ],
      "name": "grantRole",
      "outputs": [],
      "stateMutability": "nonpayable",
      "type": "function"
    },
    {
      "inputs": [
        {
          "internalType": "bytes32",
          "name": "role",
          "type": "bytes32"
        },
        {
          "internalType": "address",
          "name": "account",
          "type": "address"
        }
      ],
      "name": "hasRole",
      "outputs": [
        {
          "internalType": "bool",
          "name": "",
          "type": "bool"
        }
      ],
      "stateMutability": "view",
      "type": "function"
    },
    {
      "inputs": [
        {
          "internalType": "string",
          "name": "__name",
          "type": "string"
        },
        {
          "internalType": "string",
          "name": "__symbol",
          "type": "string"
        },
        {
          "internalType": "string",
          "name": "__baseURI",
          "type": "string"
        },
        {
          "internalType": "string",
          "name": "__baseURIExtension",
          "type": "string"
        },
        {
          "internalType": "address",
          "name": "governor",
          "type": "address"
        }
      ],
      "name": "initialize",
      "outputs": [],
      "stateMutability": "nonpayable",
      "type": "function"
    },
    {
      "inputs": [
        {
          "internalType": "address",
          "name": "owner",
          "type": "address"
        },
        {
          "internalType": "address",
          "name": "operator",
          "type": "address"
        }
      ],
      "name": "isApprovedForAll",
      "outputs": [
        {
          "internalType": "bool",
          "name": "",
          "type": "bool"
        }
      ],
      "stateMutability": "view",
      "type": "function"
    },
    {
      "inputs": [
        {
          "internalType": "uint256",
          "name": "eventId",
          "type": "uint256"
        },
        {
          "internalType": "address",
          "name": "_addr",
          "type": "address"
        }
      ],
      "name": "isEventMinter",
      "outputs": [
        {
          "internalType": "bool",
          "name": "",
          "type": "bool"
        }
      ],
      "stateMutability": "view",
      "type": "function"
    },
    {
      "inputs": [
        {
          "internalType": "address",
          "name": "_addr",
          "type": "address"
        }
      ],
      "name": "isGovernor",
      "outputs": [
        {
          "internalType": "bool",
          "name": "",
          "type": "bool"
        }
      ],
      "stateMutability": "view",
      "type": "function"
    },
    {
      "inputs": [],
      "name": "lastEventId",
      "outputs": [
        {
          "internalType": "uint256",
          "name": "",
          "type": "uint256"
        }
      ],
      "stateMutability": "view",
      "type": "function"
    },
    {
      "inputs": [
        {
          "internalType": "uint256",
          "name": "eventId",
          "type": "uint256"
        },
        {
          "internalType": "address",
          "name": "to",
          "type": "address"
        }
      ],
      "name": "mintToken",
      "outputs": [
        {
          "internalType": "bool",
          "name": "",
          "type": "bool"
        }
      ],
      "stateMutability": "nonpayable",
      "type": "function"
    },
    {
      "inputs": [
        {
          "internalType": "uint256",
          "name": "eventId",
          "type": "uint256"
        },
        {
          "internalType": "uint256",
          "name": "tokenId",
          "type": "uint256"
        },
        {
          "internalType": "address",
          "name": "to",
          "type": "address"
        }
      ],
      "name": "mintToken",
      "outputs": [
        {
          "internalType": "bool",
          "name": "",
          "type": "bool"
        }
      ],
      "stateMutability": "nonpayable",
      "type": "function"
    },
    {
      "inputs": [],
      "name": "name",
      "outputs": [
        {
          "internalType": "string",
          "name": "",
          "type": "string"
        }
      ],
      "stateMutability": "view",
      "type": "function"
    },
    {
      "inputs": [
        {
          "internalType": "uint256",
          "name": "tokenId",
          "type": "uint256"
        }
      ],
      "name": "ownerOf",
      "outputs": [
        {
          "internalType": "address",
          "name": "",
          "type": "address"
        }
      ],
      "stateMutability": "view",
      "type": "function"
    },
    {
      "inputs": [],
      "name": "pause",
      "outputs": [],
      "stateMutability": "nonpayable",
      "type": "function"
    },
    {
      "inputs": [],
      "name": "paused",
      "outputs": [
        {
          "internalType": "bool",
          "name": "",
          "type": "bool"
        }
      ],
      "stateMutability": "view",
      "type": "function"
    },
    {
      "inputs": [
        {
          "internalType": "uint256",
          "name": "eventId",
          "type": "uint256"
        },
        {
          "internalType": "address",
          "name": "account",
          "type": "address"
        }
      ],
      "name": "removeEventMinter",
      "outputs": [],
      "stateMutability": "nonpayable",
      "type": "function"
    },
    {
      "inputs": [
        {
          "internalType": "address",
          "name": "account",
          "type": "address"
        }
      ],
      "name": "removeGovernor",
      "outputs": [],
      "stateMutability": "nonpayable",
      "type": "function"
    },
    {
      "inputs": [
        {
          "internalType": "bytes32",
          "name": "role",
          "type": "bytes32"
        },
        {
          "internalType": "address",
          "name": "account",
          "type": "address"
        }
      ],
      "name": "renounceRole",
      "outputs": [],
      "stateMutability": "nonpayable",
      "type": "function"
    },
    {
      "inputs": [
        {
          "internalType": "bytes32",
          "name": "role",
          "type": "bytes32"
        },
        {
          "internalType": "address",
          "name": "account",
          "type": "address"
        }
      ],
      "name": "revokeRole",
      "outputs": [],
      "stateMutability": "nonpayable",
      "type": "function"
    },
    {
      "inputs": [
        {
          "internalType": "address",
          "name": "from",
          "type": "address"
        },
        {
          "internalType": "address",
          "name": "to",
          "type": "address"
        },
        {
          "internalType": "uint256",
          "name": "tokenId",
          "type": "uint256"
        }
      ],
      "name": "safeTransferFrom",
      "outputs": [],
      "stateMutability": "nonpayable",
      "type": "function"
    },
    {
      "inputs": [
        {
          "internalType": "address",
          "name": "from",
          "type": "address"
        },
        {
          "internalType": "address",
          "name": "to",
          "type": "address"
        },
        {
          "internalType": "uint256",
          "name": "tokenId",
          "type": "uint256"
        },
        {
          "internalType": "bytes",
          "name": "_data",
          "type": "bytes"
        }
      ],
      "name": "safeTransferFrom",
      "outputs": [],
      "stateMutability": "nonpayable",
      "type": "function"
    },
    {
      "inputs": [
        {
          "internalType": "address",
          "name": "operator",
          "type": "address"
        },
        {
          "internalType": "bool",
          "name": "approved",
          "type": "bool"
        }
      ],
      "name": "setApprovalForAll",
      "outputs": [],
      "stateMutability": "nonpayable",
      "type": "function"
    },
    {
      "inputs": [
        {
          "internalType": "string",
          "name": "baseURI",
          "type": "string"
        }
      ],
      "name": "setBaseURI",
      "outputs": [],
      "stateMutability": "nonpayable",
      "type": "function"
    },
    {
      "inputs": [
        {
          "internalType": "string",
          "name": "baseURIExtension",
          "type": "string"
        }
      ],
      "name": "setBaseURIExtension",
      "outputs": [],
      "stateMutability": "nonpayable",
      "type": "function"
    },
    {
      "inputs": [
        {
          "internalType": "address",
          "name": "_drop",
          "type": "address"
        }
      ],
      "name": "setDrop",
      "outputs": [],
      "stateMutability": "nonpayable",
      "type": "function"
    },
    {
      "inputs": [
        {
          "internalType": "bytes4",
          "name": "interfaceId",
          "type": "bytes4"
        }
      ],
      "name": "supportsInterface",
      "outputs": [
        {
          "internalType": "bool",
          "name": "",
          "type": "bool"
        }
      ],
      "stateMutability": "view",
      "type": "function"
    },
    {
      "inputs": [],
      "name": "symbol",
      "outputs": [
        {
          "internalType": "string",
          "name": "",
          "type": "string"
        }
      ],
      "stateMutability": "view",
      "type": "function"
    },
    {
      "inputs": [
        {
          "internalType": "uint256",
          "name": "index",
          "type": "uint256"
        }
      ],
      "name": "tokenByIndex",
      "outputs": [
        {
          "internalType": "uint256",
          "name": "",
          "type": "uint256"
        }
      ],
      "stateMutability": "view",
      "type": "function"
    },
    {
      "inputs": [
        {
          "internalType": "address",
          "name": "owner",
          "type": "address"
        },
        {
          "internalType": "uint256",
          "name": "index",
          "type": "uint256"
        }
      ],
      "name": "tokenDetailsOfOwnerByIndex",
      "outputs": [
        {
          "internalType": "uint256",
          "name": "tokenId",
          "type": "uint256"
        },
        {
          "internalType": "uint256",
          "name": "eventId",
          "type": "uint256"
        }
      ],
      "stateMutability": "view",
      "type": "function"
    },
    {
      "inputs": [
        {
          "internalType": "uint256",
          "name": "",
          "type": "uint256"
        }
      ],
      "name": "tokenEvent",
      "outputs": [
        {
          "internalType": "uint256",
          "name": "",
          "type": "uint256"
        }
      ],
      "stateMutability": "view",
      "type": "function"
    },
    {
      "inputs": [
        {
          "internalType": "address",
          "name": "owner",
          "type": "address"
        },
        {
          "internalType": "uint256",
          "name": "index",
          "type": "uint256"
        }
      ],
      "name": "tokenOfOwnerByIndex",
      "outputs": [
        {
          "internalType": "uint256",
          "name": "",
          "type": "uint256"
        }
      ],
      "stateMutability": "view",
      "type": "function"
    },
    {
      "inputs": [
        {
          "internalType": "uint256",
          "name": "tokenId",
          "type": "uint256"
        }
      ],
      "name": "tokenURI",
      "outputs": [
        {
          "internalType": "string",
          "name": "",
          "type": "string"
        }
      ],
      "stateMutability": "view",
      "type": "function"
    },
    {
      "inputs": [],
      "name": "totalSupply",
      "outputs": [
        {
          "internalType": "uint256",
          "name": "",
          "type": "uint256"
        }
      ],
      "stateMutability": "view",
      "type": "function"
    },
    {
      "inputs": [
        {
          "internalType": "address",
          "name": "from",
          "type": "address"
        },
        {
          "internalType": "address",
          "name": "to",
          "type": "address"
        },
        {
          "internalType": "uint256",
          "name": "tokenId",
          "type": "uint256"
        }
      ],
      "name": "transferFrom",
      "outputs": [],
      "stateMutability": "nonpayable",
      "type": "function"
    },
    {
      "inputs": [],
      "name": "unpause",
      "outputs": [],
      "stateMutability": "nonpayable",
      "type": "function"
    }
  ],
  "transactionHash": "0xc908cf7bbcee787b107c8e27b55e7d51e3d5592fd334d7ee192a2e4236900f68",
  "args": [],
  "numDeployments": 1,
  "solcInputHash": "2d554deb4d95906ff7db4f3811fbde8e",
  "bytecode": "0x608060405234801561001057600080fd5b50613667806100206000396000f3fe608060405234801561001057600080fd5b50600436106102a05760003560e01c80636352211e11610167578063b2c50b12116100ce578063d890c8e211610087578063d890c8e2146105fe578063e43581b814610611578063e985e9c514610624578063eecdac8814610660578063f751cd8f14610673578063f8b246261461068757600080fd5b8063b2c50b121461057c578063b88d4fde1461059d578063c87b56dd146105b0578063ca15c873146105c3578063ccc57490146105d6578063d547741f146105eb57600080fd5b806391d148541161012057806391d148541461052057806395d89b41146105335780639cd3cad61461053b578063a140ae231461054e578063a217fddf14610561578063a22cb4651461056957600080fd5b80636352211e146104a457806367e971ce146104b757806370a08231146104df578063787b8d47146104f25780638456cb59146105055780639010d07c1461050d57600080fd5b80632e6400241161020b57806342842e0e116101c457806342842e0e1461043957806342966c681461044c578063467de36c1461045f5780634f6ccce71461047257806355f804b3146104855780635c975abb1461049857600080fd5b80632e640024146103d25780632f2ff15d146103e55780632f745c59146103f857806336568abe1461040b5780633c4a25d01461041e5780633f4ba83a1461043157600080fd5b8063166c4b051161025d578063166c4b051461035b57806318160ddd1461036e57806323b872dd14610376578063240f61a114610389578063248a9ca31461039c57806328db38b4146103bf57600080fd5b806301ffc9a7146102a5578063054e9507146102cd57806306fdde03146102e5578063081812fc146102fa578063095ea7b314610325578063127a52981461033a575b600080fd5b6102b86102b3366004612f21565b61069a565b60405190151581526020015b60405180910390f35b6102d76101615481565b6040519081526020016102c4565b6102ed6106ba565b6040516102c49190613259565b61030d610308366004612ec6565b61074c565b6040516001600160a01b0390911681526020016102c4565b610338610333366004612e9d565b6107e6565b005b6102d7610348366004612ec6565b6101656020526000908152604090205481565b610338610369366004612ede565b6108fc565b6099546102d7565b610338610384366004612daf565b61092f565b610338610397366004612f00565b610961565b6102d76103aa366004612ec6565b600090815260c9602052604090206001015490565b6102b86103cd366004612ede565b610ae0565b6103386103e0366004612f8c565b610b10565b6103386103f3366004612ede565b610bcc565b6102d7610406366004612e9d565b610bf2565b610338610419366004612ede565b610c88565b61033861042c366004612d63565b610d02565b610338610d33565b610338610447366004612daf565b610dac565b61033861045a366004612ec6565b610dc7565b61033861046d366004612f59565b610e34565b6102d7610480366004612ec6565b610e91565b610338610493366004612f59565b610f32565b61012d5460ff166102b8565b61030d6104b2366004612ec6565b610f8f565b6104ca6104c5366004612e9d565b611006565b604080519283526020830191909152016102c4565b6102d76104ed366004612d63565b61102e565b610338610500366004612d63565b6110b5565b6103386110e3565b61030d61051b366004612f00565b611134565b6102b861052e366004612ede565b61114c565b6102ed611177565b610338610549366004612ede565b611186565b6102b861055c366004612ede565b6111b5565b6102d7600081565b610338610577366004612e63565b611239565b6102d761058a366004612ec6565b6101606020526000908152604090205481565b6103386105ab366004612dea565b611244565b6102ed6105be366004612ec6565b61127c565b6102d76105d1366004612ec6565b611348565b6102d760008051602061361283398151915281565b6103386105f9366004612ede565b61135f565b6102b861060c366004613045565b611385565b6102b861061f366004612d63565b6113ec565b6102b8610632366004612d7d565b6001600160a01b039182166000908152606a6020908152604080832093909416825291909152205460ff1690565b61033861066e366004612d63565b611406565b61015f5461030d906001600160a01b031681565b610338610695366004612d63565b611434565b60006106a5826114a4565b806106b457506106b4826114c9565b92915050565b6060606580546106c99061354f565b80601f01602080910402602001604051908101604052809291908181526020018280546106f59061354f565b80156107425780601f1061071757610100808354040283529160200191610742565b820191906000526020600020905b81548152906001019060200180831161072557829003601f168201915b5050505050905090565b6000818152606760205260408120546001600160a01b03166107ca5760405162461bcd60e51b815260206004820152602c60248201527f4552433732313a20617070726f76656420717565727920666f72206e6f6e657860448201526b34b9ba32b73a103a37b5b2b760a11b60648201526084015b60405180910390fd5b506000908152606960205260409020546001600160a01b031690565b60006107f182610f8f565b9050806001600160a01b0316836001600160a01b0316141561085f5760405162461bcd60e51b815260206004820152602160248201527f4552433732313a20617070726f76616c20746f2063757272656e74206f776e656044820152603960f91b60648201526084016107c1565b336001600160a01b038216148061087b575061087b8133610632565b6108ed5760405162461bcd60e51b815260206004820152603860248201527f4552433732313a20617070726f76652063616c6c6572206973206e6f74206f7760448201527f6e6572206e6f7220617070726f76656420666f7220616c6c000000000000000060648201526084016107c1565b6108f783836114ee565b505050565b610905336113ec565b6109215760405162461bcd60e51b81526004016107c19061345d565b61092b828261155c565b5050565b61093a335b826115dc565b6109565760405162461bcd60e51b81526004016107c1906133c1565b6108f78383836116cf565b61096a336113ec565b6109865760405162461bcd60e51b81526004016107c19061345d565b61015f546001600160a01b03166109df5760405162461bcd60e51b815260206004820152601f60248201527f5377617941646d696e3a2064726f702061646472657373206e6f74207365740060448201526064016107c1565b80610a2c5760405162461bcd60e51b815260206004820152601b60248201527f5377617941646d696e3a20726f6f7448617368206973207a65726f000000000060448201526064016107c1565b60008281526101606020526040902054610a585760405162461bcd60e51b81526004016107c190613312565b61015f54610161546040516330dde7eb60e21b81526001600160a01b039092169163c3779fac91610a96918590600401918252602082015260400190565b600060405180830381600087803b158015610ab057600080fd5b505af1158015610ac4573d6000803e3d6000fd5b505061015f5461092b92508491506001600160a01b031661187a565b60008281526101606020526040812054610afa908361114c565b80610b095750610b09826113ec565b9392505050565b600054610100900460ff16610b2b5760005460ff1615610b2f565b303b155b610b4b5760405162461bcd60e51b81526004016107c190613373565b600054610100900460ff16158015610b6d576000805461ffff19166101011790555b8351610b8190610163906020870190612c19565b508251610b9690610164906020860190612c19565b50610ba0826118fa565b610baa868661199d565b610bb26119eb565b8015610bc4576000805461ff00191690555b505050505050565b600082815260c96020526040902060010154610be88133611a12565b6108f78383611a76565b6000610bfd8361102e565b8210610c5f5760405162461bcd60e51b815260206004820152602b60248201527f455243373231456e756d657261626c653a206f776e657220696e646578206f7560448201526a74206f6620626f756e647360a81b60648201526084016107c1565b506001600160a01b03919091166000908152609760209081526040808320938352929052205490565b6001600160a01b0381163314610cf85760405162461bcd60e51b815260206004820152602f60248201527f416363657373436f6e74726f6c3a2063616e206f6e6c792072656e6f756e636560448201526e103937b632b9903337b91039b2b63360891b60648201526084016107c1565b61092b8282611a98565b610d0b336113ec565b610d275760405162461bcd60e51b81526004016107c19061345d565b610d3081611aba565b50565b610d3c336113ec565b610d585760405162461bcd60e51b81526004016107c19061345d565b61012d5460ff16610da25760405162461bcd60e51b815260206004820152601460248201527314185d5cd8589b194e881b9bdd081c185d5cd95960621b60448201526064016107c1565b610daa611b09565b565b6108f783838360405180602001604052806000815250611244565b610dd033610934565b610e2b5760405162461bcd60e51b815260206004820152602660248201527f537761793a2063616c6c6572206973206e6f74206f776e6572206e6f722061706044820152651c1c9bdd995960d21b60648201526084016107c1565b610d3081611b9e565b610e3d336113ec565b610e595760405162461bcd60e51b81526004016107c19061345d565b61012d5460ff1615610e7d5760405162461bcd60e51b81526004016107c190613349565b805161092b90610164906020840190612c19565b6000610e9c60995490565b8210610eff5760405162461bcd60e51b815260206004820152602c60248201527f455243373231456e756d657261626c653a20676c6f62616c20696e646578206f60448201526b7574206f6620626f756e647360a01b60648201526084016107c1565b60998281548110610f2057634e487b7160e01b600052603260045260246000fd5b90600052602060002001549050919050565b610f3b336113ec565b610f575760405162461bcd60e51b81526004016107c19061345d565b61012d5460ff1615610f7b5760405162461bcd60e51b81526004016107c190613349565b805161092b90610163906020840190612c19565b6000818152606760205260408120546001600160a01b0316806106b45760405162461bcd60e51b815260206004820152602960248201527f4552433732313a206f776e657220717565727920666f72206e6f6e657869737460448201526832b73a103a37b5b2b760b91b60648201526084016107c1565b6000806110138484610bf2565b60008181526101656020526040902054909590945092505050565b60006001600160a01b0382166110995760405162461bcd60e51b815260206004820152602a60248201527f4552433732313a2062616c616e636520717565727920666f7220746865207a65604482015269726f206164647265737360b01b60648201526084016107c1565b506001600160a01b031660009081526068602052604090205490565b6110be336113ec565b6110da5760405162461bcd60e51b81526004016107c19061345d565b610d3081611bb9565b6110ec336113ec565b6111085760405162461bcd60e51b81526004016107c19061345d565b61012d5460ff161561112c5760405162461bcd60e51b81526004016107c190613349565b610daa611c7e565b600082815260fb60205260408120610b099083611cd8565b600091825260c9602090815260408084206001600160a01b0393909316845291905290205460ff1690565b6060606680546106c99061354f565b61118f336113ec565b6111ab5760405162461bcd60e51b81526004016107c19061345d565b61092b828261187a565b60006111c461012d5460ff1690565b156111e15760405162461bcd60e51b81526004016107c190613349565b826111ec8133610ae0565b6112085760405162461bcd60e51b81526004016107c19061326c565b6001610162600082825461121c91906134aa565b92505081905550611231846101625485611ce4565b949350505050565b61092b338383611d46565b61124e33836115dc565b61126a5760405162461bcd60e51b81526004016107c1906133c1565b61127684848484611e15565b50505050565b6000818152606760205260409020546060906001600160a01b03166112f15760405162461bcd60e51b815260206004820152602560248201527f537761793a2055524920717565727920666f72206e6f6e6578697374656e74206044820152643a37b5b2b760d91b60648201526084016107c1565b60008281526101656020526040902054611309611e48565b61131282611e58565b61131b85611e58565b61016460405160200161133194939291906130c1565b604051602081830303815290604052915050919050565b600081815260fb602052604081206106b490611f72565b600082815260c9602052604090206001015461137b8133611a12565b6108f78383611a98565b600061139461012d5460ff1690565b156113b15760405162461bcd60e51b81526004016107c190613349565b836113bc8133610ae0565b6113d85760405162461bcd60e51b81526004016107c19061326c565b6113e3858585611ce4565b95945050505050565b60006106b46000805160206136128339815191528361114c565b61140f336113ec565b61142b5760405162461bcd60e51b81526004016107c19061345d565b610d3081611f7c565b61143d336113ec565b6114595760405162461bcd60e51b81526004016107c19061345d565b61015f80546001600160a01b0319166001600160a01b0383169081179091556040517f2b0b908b0d6b92722775f3bfd1f036b6795e6f9727011363e9de5c155f2b36c890600090a250565b60006001600160e01b0319821663780e9d6360e01b14806106b457506106b482611fcb565b60006001600160e01b03198216635a05180f60e01b14806106b457506106b48261201b565b600081815260696020526040902080546001600160a01b0319166001600160a01b038416908117909155819061152382610f8f565b6001600160a01b03167f8c5be1e5ebec7d5bd14f71427d1e84f3dd0314c0f7b2291e5b200ac8c7c3b92560405160405180910390a45050565b600082815261016060205260409020546115885760405162461bcd60e51b81526004016107c190613312565b600082815261016060205260409020546115a29082610c88565b6040516001600160a01b0382169083907fb6882c4d609d560f6d57e78e73dd96027f0d9852739b0b922537a6dd3c8e944c90600090a35050565b6000818152606760205260408120546001600160a01b03166116555760405162461bcd60e51b815260206004820152602c60248201527f4552433732313a206f70657261746f7220717565727920666f72206e6f6e657860448201526b34b9ba32b73a103a37b5b2b760a11b60648201526084016107c1565b600061166083610f8f565b9050806001600160a01b0316846001600160a01b0316148061169b5750836001600160a01b03166116908461074c565b6001600160a01b0316145b8061123157506001600160a01b038082166000908152606a602090815260408083209388168352929052205460ff16611231565b826001600160a01b03166116e282610f8f565b6001600160a01b03161461174a5760405162461bcd60e51b815260206004820152602960248201527f4552433732313a207472616e73666572206f6620746f6b656e2074686174206960448201526839903737ba1037bbb760b91b60648201526084016107c1565b6001600160a01b0382166117ac5760405162461bcd60e51b8152602060048201526024808201527f4552433732313a207472616e7366657220746f20746865207a65726f206164646044820152637265737360e01b60648201526084016107c1565b6117b7838383612040565b6117c26000826114ee565b6001600160a01b03831660009081526068602052604081208054600192906117eb9084906134f5565b90915550506001600160a01b03821660009081526068602052604081208054600192906118199084906134aa565b909155505060008181526067602052604080822080546001600160a01b0319166001600160a01b0386811691821790925591518493918716917fddf252ad1be2c89b69c2b068fc378daa952ba7f163c4a11628f55a4df523b3ef91a4505050565b600082815261016060205260409020546118a65760405162461bcd60e51b81526004016107c190613312565b600082815261016060205260409020546118c09082610bcc565b6040516001600160a01b0382169083907fe1bd660d9f7c60e6fb12dd6479fdde12d21fc96385dc7b9b022c0b2f319e739190600090a35050565b600054610100900460ff166119155760005460ff1615611919565b303b155b6119355760405162461bcd60e51b81526004016107c190613373565b600054610100900460ff16158015611957576000805461ffff19166101011790555b61195f6119eb565b6119676119eb565b61196f6119eb565b6119776119eb565b61197f6120a9565b611988826120dd565b801561092b576000805461ff00191690555050565b600054610100900460ff166119c45760405162461bcd60e51b81526004016107c190613412565b81516119d7906065906020850190612c19565b5080516108f7906066906020840190612c19565b600054610100900460ff16610daa5760405162461bcd60e51b81526004016107c190613412565b611a1c828261114c565b61092b57611a34816001600160a01b031660146121b3565b611a3f8360206121b3565b604051602001611a509291906131a7565b60408051601f198184030181529082905262461bcd60e51b82526107c191600401613259565b611a808282612395565b600082815260fb602052604090206108f7908261241b565b611aa28282612430565b600082815260fb602052604090206108f79082612497565b611ad260008051602061361283398151915282610bcc565b6040516001600160a01b038216907fdc5a48d79e2e147530ff63ecdbed5a5a66adb9d5cf339384d5d076da197c40b590600090a250565b61012d5460ff16611b535760405162461bcd60e51b815260206004820152601460248201527314185d5cd8589b194e881b9bdd081c185d5cd95960621b60448201526064016107c1565b61012d805460ff191690557f5db9ee0a495bf2e6ff9c91a7834c1ba4fdd244a5e8aa4e537bd38aeae4b073aa335b6040516001600160a01b03909116815260200160405180910390a1565b611ba7816124ac565b60009081526101656020526040812055565b60016101616000828254611bcd91906134aa565b925050819055506000611be261016154611e58565b604051602001611bf291906130a5565b604051602081830303815290604052805190602001209050611c2281600080516020613612833981519152612553565b6101618054600090815261016060205260408082208490559154915183926001600160a01b0386169290917f613e137a89b79c7d1e214c39381dfac9f62e1f202a0e2e8c17d44d7d689cd8ea9190a461092b610161548361187a565b61012d5460ff1615611ca25760405162461bcd60e51b81526004016107c190613349565b61012d805460ff191660011790557f62e78cea01bee320cd4e420270b5ea74000d11b0c9f74754ebdbfc544b05a258611b813390565b6000610b09838361259e565b6000611cf082846125d6565b6000838152610165602090815260409182902086905581518681529081018590527f4b3711cd7ece062b0828c1b6e08d814a72d4c003383a016c833cbb1b45956e34910160405180910390a15060019392505050565b816001600160a01b0316836001600160a01b03161415611da85760405162461bcd60e51b815260206004820152601960248201527f4552433732313a20617070726f766520746f2063616c6c65720000000000000060448201526064016107c1565b6001600160a01b038381166000818152606a6020908152604080832094871680845294825291829020805460ff191686151590811790915591519182527f17307eab39ab6107e8899845ad3d59bd9653f200f220920489ca2b5937696c31910160405180910390a3505050565b611e208484846116cf565b611e2c84848484612724565b6112765760405162461bcd60e51b81526004016107c1906132c0565b606061016380546106c99061354f565b606081611e7c5750506040805180820190915260018152600360fc1b602082015290565b8160005b8115611ea65780611e908161358a565b9150611e9f9050600a836134c2565b9150611e80565b60008167ffffffffffffffff811115611ecf57634e487b7160e01b600052604160045260246000fd5b6040519080825280601f01601f191660200182016040528015611ef9576020820181803683370190505b5090505b841561123157611f0e6001836134f5565b9150611f1b600a866135a5565b611f269060306134aa565b60f81b818381518110611f4957634e487b7160e01b600052603260045260246000fd5b60200101906001600160f81b031916908160001a905350611f6b600a866134c2565b9450611efd565b60006106b4825490565b611f9460008051602061361283398151915282610c88565b6040516001600160a01b038216907f1ebe834e73d60a5fec822c1e1727d34bc79f2ad977ed504581cc1822fe20fb5b90600090a250565b60006001600160e01b031982166380ac58cd60e01b1480611ffc57506001600160e01b03198216635b5e139f60e01b145b806106b457506301ffc9a760e01b6001600160e01b03198316146106b4565b60006001600160e01b03198216637965db0b60e01b14806106b457506106b4826114a4565b61204b838383612831565b61012d5460ff16156108f75760405162461bcd60e51b815260206004820152602160248201527f537761793a20746f6b656e207472616e73666572207768696c652070617573656044820152601960fa1b60648201526084016107c1565b600054610100900460ff166120d05760405162461bcd60e51b81526004016107c190613412565b61012d805460ff19169055565b600054610100900460ff166120f85760005460ff16156120fc565b303b155b6121185760405162461bcd60e51b81526004016107c190613373565b600054610100900460ff1615801561213a576000805461ffff19166101011790555b61215260008051602061361283398151915280612553565b61216a600080516020613612833981519152836128e9565b6040516001600160a01b038316907fdc5a48d79e2e147530ff63ecdbed5a5a66adb9d5cf339384d5d076da197c40b590600090a2801561092b576000805461ff00191690555050565b606060006121c28360026134d6565b6121cd9060026134aa565b67ffffffffffffffff8111156121f357634e487b7160e01b600052604160045260246000fd5b6040519080825280601f01601f19166020018201604052801561221d576020820181803683370190505b509050600360fc1b8160008151811061224657634e487b7160e01b600052603260045260246000fd5b60200101906001600160f81b031916908160001a905350600f60fb1b8160018151811061228357634e487b7160e01b600052603260045260246000fd5b60200101906001600160f81b031916908160001a90535060006122a78460026134d6565b6122b29060016134aa565b90505b6001811115612346576f181899199a1a9b1b9c1cb0b131b232b360811b85600f16601081106122f457634e487b7160e01b600052603260045260246000fd5b1a60f81b82828151811061231857634e487b7160e01b600052603260045260246000fd5b60200101906001600160f81b031916908160001a90535060049490941c9361233f81613538565b90506122b5565b508315610b095760405162461bcd60e51b815260206004820181905260248201527f537472696e67733a20686578206c656e67746820696e73756666696369656e7460448201526064016107c1565b61239f828261114c565b61092b57600082815260c9602090815260408083206001600160a01b03851684529091529020805460ff191660011790556123d73390565b6001600160a01b0316816001600160a01b0316837f2f8788117e7eff1d82e926ec794901d17c78024a50270940304540a733656f0d60405160405180910390a45050565b6000610b09836001600160a01b0384166128f3565b61243a828261114c565b1561092b57600082815260c9602090815260408083206001600160a01b0385168085529252808320805460ff1916905551339285917ff6391f5c32d9c69d2a47ea670b442974b53935d1edc7fd64eb21e047a839171b9190a45050565b6000610b09836001600160a01b038416612942565b60006124b782610f8f565b90506124c581600084612040565b6124d06000836114ee565b6001600160a01b03811660009081526068602052604081208054600192906124f99084906134f5565b909155505060008281526067602052604080822080546001600160a01b0319169055518391906001600160a01b038416907fddf252ad1be2c89b69c2b068fc378daa952ba7f163c4a11628f55a4df523b3ef908390a45050565b600082815260c96020526040808220600101805490849055905190918391839186917fbd79b86ffe0ab8e8776151514217cd7cacd52c909f66475c3af44e129f0b00ff9190a4505050565b60008260000182815481106125c357634e487b7160e01b600052603260045260246000fd5b9060005260206000200154905092915050565b6001600160a01b03821661262c5760405162461bcd60e51b815260206004820181905260248201527f4552433732313a206d696e7420746f20746865207a65726f206164647265737360448201526064016107c1565b6000818152606760205260409020546001600160a01b0316156126915760405162461bcd60e51b815260206004820152601c60248201527f4552433732313a20746f6b656e20616c7265616479206d696e7465640000000060448201526064016107c1565b61269d60008383612040565b6001600160a01b03821660009081526068602052604081208054600192906126c69084906134aa565b909155505060008181526067602052604080822080546001600160a01b0319166001600160a01b03861690811790915590518392907fddf252ad1be2c89b69c2b068fc378daa952ba7f163c4a11628f55a4df523b3ef908290a45050565b60006001600160a01b0384163b1561282657604051630a85bd0160e11b81526001600160a01b0385169063150b7a029061276890339089908890889060040161321c565b602060405180830381600087803b15801561278257600080fd5b505af19250505080156127b2575060408051601f3d908101601f191682019092526127af91810190612f3d565b60015b61280c573d8080156127e0576040519150601f19603f3d011682016040523d82523d6000602084013e6127e5565b606091505b5080516128045760405162461bcd60e51b81526004016107c1906132c0565b805181602001fd5b6001600160e01b031916630a85bd0160e11b149050611231565b506001949350505050565b6001600160a01b03831661288c5761288781609980546000838152609a60205260408120829055600182018355919091527f72a152ddfb8e864297c917af52ea6c1c68aead0fee1a62673fcc7e0c94979d000155565b6128af565b816001600160a01b0316836001600160a01b0316146128af576128af8382612a5f565b6001600160a01b0382166128c6576108f781612afc565b826001600160a01b0316826001600160a01b0316146108f7576108f78282612bd5565b61092b8282611a76565b600081815260018301602052604081205461293a575081546001818101845560008481526020808220909301849055845484825282860190935260409020919091556106b4565b5060006106b4565b60008181526001830160205260408120548015612a555760006129666001836134f5565b855490915060009061297a906001906134f5565b90508181146129fb5760008660000182815481106129a857634e487b7160e01b600052603260045260246000fd5b90600052602060002001549050808760000184815481106129d957634e487b7160e01b600052603260045260246000fd5b6000918252602080832090910192909255918252600188019052604090208390555b8554869080612a1a57634e487b7160e01b600052603160045260246000fd5b6001900381819060005260206000200160009055905585600101600086815260200190815260200160002060009055600193505050506106b4565b60009150506106b4565b60006001612a6c8461102e565b612a7691906134f5565b600083815260986020526040902054909150808214612ac9576001600160a01b03841660009081526097602090815260408083208584528252808320548484528184208190558352609890915290208190555b5060009182526098602090815260408084208490556001600160a01b039094168352609781528383209183525290812055565b609954600090612b0e906001906134f5565b6000838152609a602052604081205460998054939450909284908110612b4457634e487b7160e01b600052603260045260246000fd5b906000526020600020015490508060998381548110612b7357634e487b7160e01b600052603260045260246000fd5b6000918252602080832090910192909255828152609a90915260408082208490558582528120556099805480612bb957634e487b7160e01b600052603160045260246000fd5b6001900381819060005260206000200160009055905550505050565b6000612be08361102e565b6001600160a01b039093166000908152609760209081526040808320868452825280832085905593825260989052919091209190915550565b828054612c259061354f565b90600052602060002090601f016020900481019282612c475760008555612c8d565b82601f10612c6057805160ff1916838001178555612c8d565b82800160010185558215612c8d579182015b82811115612c8d578251825591602001919060010190612c72565b50612c99929150612c9d565b5090565b5b80821115612c995760008155600101612c9e565b600067ffffffffffffffff80841115612ccd57612ccd6135e5565b604051601f8501601f19908116603f01168101908282118183101715612cf557612cf56135e5565b81604052809350858152868686011115612d0e57600080fd5b858560208301376000602087830101525050509392505050565b80356001600160a01b0381168114612d3f57600080fd5b919050565b600082601f830112612d54578081fd5b610b0983833560208501612cb2565b600060208284031215612d74578081fd5b610b0982612d28565b60008060408385031215612d8f578081fd5b612d9883612d28565b9150612da660208401612d28565b90509250929050565b600080600060608486031215612dc3578081fd5b612dcc84612d28565b9250612dda60208501612d28565b9150604084013590509250925092565b60008060008060808587031215612dff578081fd5b612e0885612d28565b9350612e1660208601612d28565b925060408501359150606085013567ffffffffffffffff811115612e38578182fd5b8501601f81018713612e48578182fd5b612e5787823560208401612cb2565b91505092959194509250565b60008060408385031215612e75578182fd5b612e7e83612d28565b915060208301358015158114612e92578182fd5b809150509250929050565b60008060408385031215612eaf578182fd5b612eb883612d28565b946020939093013593505050565b600060208284031215612ed7578081fd5b5035919050565b60008060408385031215612ef0578182fd5b82359150612da660208401612d28565b60008060408385031215612f12578182fd5b50508035926020909101359150565b600060208284031215612f32578081fd5b8135610b09816135fb565b600060208284031215612f4e578081fd5b8151610b09816135fb565b600060208284031215612f6a578081fd5b813567ffffffffffffffff811115612f80578182fd5b61123184828501612d44565b600080600080600060a08688031215612fa3578081fd5b853567ffffffffffffffff80821115612fba578283fd5b612fc689838a01612d44565b96506020880135915080821115612fdb578283fd5b612fe789838a01612d44565b95506040880135915080821115612ffc578283fd5b61300889838a01612d44565b9450606088013591508082111561301d578283fd5b5061302a88828901612d44565b92505061303960808701612d28565b90509295509295909350565b600080600060608486031215613059578081fd5b833592506020840135915061307060408501612d28565b90509250925092565b6000815180845261309181602086016020860161350c565b601f01601f19169290920160200192915050565b600082516130b781846020870161350c565b9190910192915050565b6000855160206130d48285838b0161350c565b8651918401916130e78184848b0161350c565b602f60f81b9201918252855160019061310581838601858b0161350c565b8654930192849080831c8382168061311e57607f821691505b85821081141561313c57634e487b7160e01b88526022600452602488fd5b808015613150576001811461316557613195565b60ff1984168887015282880186019450613195565b60008b815260209020895b8481101561318b5781548a8201890152908701908801613170565b5050858389010194505b50929c9b505050505050505050505050565b7f416363657373436f6e74726f6c3a206163636f756e74200000000000000000008152600083516131df81601785016020880161350c565b7001034b99036b4b9b9b4b733903937b6329607d1b601791840191820152835161321081602884016020880161350c565b01602801949350505050565b6001600160a01b038581168252841660208201526040810183905260806060820181905260009061324f90830184613079565b9695505050505050565b602081526000610b096020830184613079565b60208082526034908201527f5377617941646d696e3a2073656e64657220646f6573206e6f74206861766520604082015273135a5b9d195c88149bdb19481a5b88115d995b9d60621b606082015260800190565b60208082526032908201527f4552433732313a207472616e7366657220746f206e6f6e20455243373231526560408201527131b2b4bb32b91034b6b83632b6b2b73a32b960711b606082015260800190565b6020808252601c908201527f5377617941646d696e3a206576656e744964206e6f7420666f756e6400000000604082015260600190565b60208082526010908201526f14185d5cd8589b194e881c185d5cd95960821b604082015260600190565b6020808252602e908201527f496e697469616c697a61626c653a20636f6e747261637420697320616c72656160408201526d191e481a5b9a5d1a585b1a5e995960921b606082015260800190565b60208082526031908201527f4552433732313a207472616e736665722063616c6c6572206973206e6f74206f6040820152701ddb995c881b9bdc88185c1c1c9bdd9959607a1b606082015260800190565b6020808252602b908201527f496e697469616c697a61626c653a20636f6e7472616374206973206e6f74206960408201526a6e697469616c697a696e6760a81b606082015260800190565b6020808252602d908201527f5377617941646d696e3a2073656e64657220646f6573206e6f7420686176652060408201526c476f7665726e6f7220526f6c6560981b606082015260800190565b600082198211156134bd576134bd6135b9565b500190565b6000826134d1576134d16135cf565b500490565b60008160001904831182151516156134f0576134f06135b9565b500290565b600082821015613507576135076135b9565b500390565b60005b8381101561352757818101518382015260200161350f565b838111156112765750506000910152565b600081613547576135476135b9565b506000190190565b600181811c9082168061356357607f821691505b6020821081141561358457634e487b7160e01b600052602260045260246000fd5b50919050565b600060001982141561359e5761359e6135b9565b5060010190565b6000826135b4576135b46135cf565b500690565b634e487b7160e01b600052601160045260246000fd5b634e487b7160e01b600052601260045260246000fd5b634e487b7160e01b600052604160045260246000fd5b6001600160e01b031981168114610d3057600080fdfe7935bd0ae54bc31f548c14dba4d37c5c64b3f8ca900cb468fb8abd54d5894f55a264697066735822122010b7cb8ab0f274addf106080d8b36e006fe2ae731c467d0c46c871a75a59988a64736f6c63430008040033",
  "devdoc": {
    "kind": "dev",
    "methods": {
      "approve(address,uint256)": {
        "details": "See {IERC721-approve}."
      },
      "balanceOf(address)": {
        "details": "See {IERC721-balanceOf}."
      },
      "getApproved(uint256)": {
        "details": "See {IERC721-getApproved}."
      },
      "getRoleAdmin(bytes32)": {
        "details": "Returns the admin role that controls `role`. See {grantRole} and {revokeRole}. To change a role's admin, use {_setRoleAdmin}."
      },
      "getRoleMember(bytes32,uint256)": {
        "details": "Returns one of the accounts that have `role`. `index` must be a value between 0 and {getRoleMemberCount}, non-inclusive. Role bearers are not sorted in any particular way, and their ordering may change at any point. WARNING: When using {getRoleMember} and {getRoleMemberCount}, make sure you perform all queries on the same block. See the following https://forum.openzeppelin.com/t/iterating-over-elements-on-enumerableset-in-openzeppelin-contracts/2296[forum post] for more information."
      },
      "getRoleMemberCount(bytes32)": {
        "details": "Returns the number of accounts that have `role`. Can be used together with {getRoleMember} to enumerate all bearers of a role."
      },
      "grantRole(bytes32,address)": {
        "details": "Grants `role` to `account`. If `account` had not been already granted `role`, emits a {RoleGranted} event. Requirements: - the caller must have ``role``'s admin role."
      },
      "hasRole(bytes32,address)": {
        "details": "Returns `true` if `account` has been granted `role`."
      },
      "isApprovedForAll(address,address)": {
        "details": "See {IERC721-isApprovedForAll}."
      },
      "mintToken(uint256,address)": {
        "details": "Function to mint tokens",
        "params": {
          "eventId": "EventId for the new token",
          "to": "The address that will receive the minted tokens."
        },
        "returns": {
          "_0": "A boolean that indicates if the operation was successful."
        }
      },
      "mintToken(uint256,uint256,address)": {
        "details": "Function to mint tokens with a specific id",
        "params": {
          "eventId": "EventId for the new token",
          "to": "The address that will receive the minted tokens.",
          "tokenId": "TokenId for the new token"
        },
        "returns": {
          "_0": "A boolean that indicates if the operation was successful."
        }
      },
      "name()": {
        "details": "See {IERC721Metadata-name}."
      },
      "ownerOf(uint256)": {
        "details": "See {IERC721-ownerOf}."
      },
      "pause()": {
        "details": "called by the governor to pause, triggers stopped state"
      },
      "paused()": {
        "details": "Returns true if the contract is paused, and false otherwise."
      },
      "renounceRole(bytes32,address)": {
        "details": "Revokes `role` from the calling account. Roles are often managed via {grantRole} and {revokeRole}: this function's purpose is to provide a mechanism for accounts to lose their privileges if they are compromised (such as when a trusted device is misplaced). If the calling account had been revoked `role`, emits a {RoleRevoked} event. Requirements: - the caller must be `account`."
      },
      "revokeRole(bytes32,address)": {
        "details": "Revokes `role` from `account`. If `account` had been granted `role`, emits a {RoleRevoked} event. Requirements: - the caller must have ``role``'s admin role."
      },
      "safeTransferFrom(address,address,uint256)": {
        "details": "See {IERC721-safeTransferFrom}."
      },
      "safeTransferFrom(address,address,uint256,bytes)": {
        "details": "See {IERC721-safeTransferFrom}."
      },
      "setApprovalForAll(address,bool)": {
        "details": "See {IERC721-setApprovalForAll}."
      },
      "symbol()": {
        "details": "See {IERC721Metadata-symbol}."
      },
      "tokenByIndex(uint256)": {
        "details": "See {IERC721Enumerable-tokenByIndex}."
      },
      "tokenDetailsOfOwnerByIndex(address,uint256)": {
        "details": "Gets the token ID at a given index of the tokens list of the requested owner",
        "params": {
          "index": "uint256 representing the index to be accessed of the requested tokens list",
          "owner": "address owning the tokens list to be accessed"
        }
      },
      "tokenOfOwnerByIndex(address,uint256)": {
        "details": "See {IERC721Enumerable-tokenOfOwnerByIndex}."
      },
      "tokenURI(uint256)": {
        "details": "Gets the token uri",
        "returns": {
          "_0": "string representing the token uri"
        }
      },
      "totalSupply()": {
        "details": "See {IERC721Enumerable-totalSupply}."
      },
      "transferFrom(address,address,uint256)": {
        "details": "See {IERC721-transferFrom}."
      },
      "unpause()": {
        "details": "called by the governor to unpause, returns to normal state"
      }
    },
    "version": 1
  },
  "userdoc": {
    "kind": "user",
    "methods": {},
    "version": 1
  },
  "storageLayout": {
    "storage": [
      {
        "astId": 723,
        "contract": "src/Sway.sol:Sway",
        "label": "_initialized",
        "offset": 0,
        "slot": "0",
        "type": "t_bool"
      },
      {
        "astId": 726,
        "contract": "src/Sway.sol:Sway",
        "label": "_initializing",
        "offset": 1,
        "slot": "0",
        "type": "t_bool"
      },
      {
        "astId": 2610,
        "contract": "src/Sway.sol:Sway",
        "label": "__gap",
        "offset": 0,
        "slot": "1",
        "type": "t_array(t_uint256)50_storage"
      },
      {
        "astId": 2947,
        "contract": "src/Sway.sol:Sway",
        "label": "__gap",
        "offset": 0,
        "slot": "51",
        "type": "t_array(t_uint256)50_storage"
      },
      {
        "astId": 932,
        "contract": "src/Sway.sol:Sway",
        "label": "_name",
        "offset": 0,
        "slot": "101",
        "type": "t_string_storage"
      },
      {
        "astId": 934,
        "contract": "src/Sway.sol:Sway",
        "label": "_symbol",
        "offset": 0,
        "slot": "102",
        "type": "t_string_storage"
      },
      {
        "astId": 938,
        "contract": "src/Sway.sol:Sway",
        "label": "_owners",
        "offset": 0,
        "slot": "103",
        "type": "t_mapping(t_uint256,t_address)"
      },
      {
        "astId": 942,
        "contract": "src/Sway.sol:Sway",
        "label": "_balances",
        "offset": 0,
        "slot": "104",
        "type": "t_mapping(t_address,t_uint256)"
      },
      {
        "astId": 946,
        "contract": "src/Sway.sol:Sway",
        "label": "_tokenApprovals",
        "offset": 0,
        "slot": "105",
        "type": "t_mapping(t_uint256,t_address)"
      },
      {
        "astId": 952,
        "contract": "src/Sway.sol:Sway",
        "label": "_operatorApprovals",
        "offset": 0,
        "slot": "106",
        "type": "t_mapping(t_address,t_mapping(t_address,t_bool))"
      },
      {
        "astId": 1763,
        "contract": "src/Sway.sol:Sway",
        "label": "__gap",
        "offset": 0,
        "slot": "107",
        "type": "t_array(t_uint256)44_storage"
      },
      {
        "astId": 1937,
        "contract": "src/Sway.sol:Sway",
        "label": "_ownedTokens",
        "offset": 0,
        "slot": "151",
        "type": "t_mapping(t_address,t_mapping(t_uint256,t_uint256))"
      },
      {
        "astId": 1941,
        "contract": "src/Sway.sol:Sway",
        "label": "_ownedTokensIndex",
        "offset": 0,
        "slot": "152",
        "type": "t_mapping(t_uint256,t_uint256)"
      },
      {
        "astId": 1944,
        "contract": "src/Sway.sol:Sway",
        "label": "_allTokens",
        "offset": 0,
        "slot": "153",
        "type": "t_array(t_uint256)dyn_storage"
      },
      {
        "astId": 1948,
        "contract": "src/Sway.sol:Sway",
        "label": "_allTokensIndex",
        "offset": 0,
        "slot": "154",
        "type": "t_mapping(t_uint256,t_uint256)"
      },
      {
        "astId": 2263,
        "contract": "src/Sway.sol:Sway",
        "label": "__gap",
        "offset": 0,
        "slot": "155",
        "type": "t_array(t_uint256)46_storage"
      },
      {
        "astId": 204,
        "contract": "src/Sway.sol:Sway",
        "label": "_roles",
        "offset": 0,
        "slot": "201",
        "type": "t_mapping(t_bytes32,t_struct(RoleData)199_storage)"
      },
      {
        "astId": 491,
        "contract": "src/Sway.sol:Sway",
        "label": "__gap",
        "offset": 0,
        "slot": "202",
        "type": "t_array(t_uint256)49_storage"
      },
      {
        "astId": 45,
        "contract": "src/Sway.sol:Sway",
        "label": "_roleMembers",
        "offset": 0,
        "slot": "251",
        "type": "t_mapping(t_bytes32,t_struct(AddressSet)3272_storage)"
      },
      {
        "astId": 154,
        "contract": "src/Sway.sol:Sway",
        "label": "__gap",
        "offset": 0,
        "slot": "252",
        "type": "t_array(t_uint256)49_storage"
      },
      {
        "astId": 811,
        "contract": "src/Sway.sol:Sway",
        "label": "_paused",
        "offset": 0,
        "slot": "301",
        "type": "t_bool"
      },
      {
        "astId": 902,
        "contract": "src/Sway.sol:Sway",
        "label": "__gap",
        "offset": 0,
        "slot": "302",
        "type": "t_array(t_uint256)49_storage"
      },
      {
        "astId": 3931,
        "contract": "src/Sway.sol:Sway",
        "label": "drop",
        "offset": 0,
        "slot": "351",
        "type": "t_address"
      },
      {
        "astId": 3935,
        "contract": "src/Sway.sol:Sway",
        "label": "eventRoleMapping",
        "offset": 0,
        "slot": "352",
        "type": "t_mapping(t_uint256,t_bytes32)"
      },
      {
        "astId": 3937,
        "contract": "src/Sway.sol:Sway",
        "label": "lastEventId",
        "offset": 0,
        "slot": "353",
        "type": "t_uint256"
      },
      {
        "astId": 3576,
        "contract": "src/Sway.sol:Sway",
        "label": "lastId",
        "offset": 0,
        "slot": "354",
        "type": "t_uint256"
      },
      {
        "astId": 3578,
        "contract": "src/Sway.sol:Sway",
        "label": "_baseURIextendend",
        "offset": 0,
        "slot": "355",
        "type": "t_string_storage"
      },
      {
        "astId": 3580,
        "contract": "src/Sway.sol:Sway",
        "label": "_baseURIExtension",
        "offset": 0,
        "slot": "356",
        "type": "t_string_storage"
      },
      {
        "astId": 3584,
        "contract": "src/Sway.sol:Sway",
        "label": "tokenEvent",
        "offset": 0,
        "slot": "357",
        "type": "t_mapping(t_uint256,t_uint256)"
      },
      {
        "astId": 3900,
        "contract": "src/Sway.sol:Sway",
        "label": "__gap",
        "offset": 0,
        "slot": "358",
        "type": "t_array(t_uint256)50_storage"
      }
    ],
    "types": {
      "t_address": {
        "encoding": "inplace",
        "label": "address",
        "numberOfBytes": "20"
      },
      "t_array(t_bytes32)dyn_storage": {
        "base": "t_bytes32",
        "encoding": "dynamic_array",
        "label": "bytes32[]",
        "numberOfBytes": "32"
      },
      "t_array(t_uint256)44_storage": {
        "base": "t_uint256",
        "encoding": "inplace",
        "label": "uint256[44]",
        "numberOfBytes": "1408"
      },
      "t_array(t_uint256)46_storage": {
        "base": "t_uint256",
        "encoding": "inplace",
        "label": "uint256[46]",
        "numberOfBytes": "1472"
      },
      "t_array(t_uint256)49_storage": {
        "base": "t_uint256",
        "encoding": "inplace",
        "label": "uint256[49]",
        "numberOfBytes": "1568"
      },
      "t_array(t_uint256)50_storage": {
        "base": "t_uint256",
        "encoding": "inplace",
        "label": "uint256[50]",
        "numberOfBytes": "1600"
      },
      "t_array(t_uint256)dyn_storage": {
        "base": "t_uint256",
        "encoding": "dynamic_array",
        "label": "uint256[]",
        "numberOfBytes": "32"
      },
      "t_bool": {
        "encoding": "inplace",
        "label": "bool",
        "numberOfBytes": "1"
      },
      "t_bytes32": {
        "encoding": "inplace",
        "label": "bytes32",
        "numberOfBytes": "32"
      },
      "t_mapping(t_address,t_bool)": {
        "encoding": "mapping",
        "key": "t_address",
        "label": "mapping(address => bool)",
        "numberOfBytes": "32",
        "value": "t_bool"
      },
      "t_mapping(t_address,t_mapping(t_address,t_bool))": {
        "encoding": "mapping",
        "key": "t_address",
        "label": "mapping(address => mapping(address => bool))",
        "numberOfBytes": "32",
        "value": "t_mapping(t_address,t_bool)"
      },
      "t_mapping(t_address,t_mapping(t_uint256,t_uint256))": {
        "encoding": "mapping",
        "key": "t_address",
        "label": "mapping(address => mapping(uint256 => uint256))",
        "numberOfBytes": "32",
        "value": "t_mapping(t_uint256,t_uint256)"
      },
      "t_mapping(t_address,t_uint256)": {
        "encoding": "mapping",
        "key": "t_address",
        "label": "mapping(address => uint256)",
        "numberOfBytes": "32",
        "value": "t_uint256"
      },
      "t_mapping(t_bytes32,t_struct(AddressSet)3272_storage)": {
        "encoding": "mapping",
        "key": "t_bytes32",
        "label": "mapping(bytes32 => struct EnumerableSetUpgradeable.AddressSet)",
        "numberOfBytes": "32",
        "value": "t_struct(AddressSet)3272_storage"
      },
      "t_mapping(t_bytes32,t_struct(RoleData)199_storage)": {
        "encoding": "mapping",
        "key": "t_bytes32",
        "label": "mapping(bytes32 => struct AccessControlUpgradeable.RoleData)",
        "numberOfBytes": "32",
        "value": "t_struct(RoleData)199_storage"
      },
      "t_mapping(t_bytes32,t_uint256)": {
        "encoding": "mapping",
        "key": "t_bytes32",
        "label": "mapping(bytes32 => uint256)",
        "numberOfBytes": "32",
        "value": "t_uint256"
      },
      "t_mapping(t_uint256,t_address)": {
        "encoding": "mapping",
        "key": "t_uint256",
        "label": "mapping(uint256 => address)",
        "numberOfBytes": "32",
        "value": "t_address"
      },
      "t_mapping(t_uint256,t_bytes32)": {
        "encoding": "mapping",
        "key": "t_uint256",
        "label": "mapping(uint256 => bytes32)",
        "numberOfBytes": "32",
        "value": "t_bytes32"
      },
      "t_mapping(t_uint256,t_uint256)": {
        "encoding": "mapping",
        "key": "t_uint256",
        "label": "mapping(uint256 => uint256)",
        "numberOfBytes": "32",
        "value": "t_uint256"
      },
      "t_string_storage": {
        "encoding": "bytes",
        "label": "string",
        "numberOfBytes": "32"
      },
      "t_struct(AddressSet)3272_storage": {
        "encoding": "inplace",
        "label": "struct EnumerableSetUpgradeable.AddressSet",
        "members": [
          {
            "astId": 3271,
            "contract": "src/Sway.sol:Sway",
            "label": "_inner",
            "offset": 0,
            "slot": "0",
            "type": "t_struct(Set)2971_storage"
          }
        ],
        "numberOfBytes": "64"
      },
      "t_struct(RoleData)199_storage": {
        "encoding": "inplace",
        "label": "struct AccessControlUpgradeable.RoleData",
        "members": [
          {
            "astId": 196,
            "contract": "src/Sway.sol:Sway",
            "label": "members",
            "offset": 0,
            "slot": "0",
            "type": "t_mapping(t_address,t_bool)"
          },
          {
            "astId": 198,
            "contract": "src/Sway.sol:Sway",
            "label": "adminRole",
            "offset": 0,
            "slot": "1",
            "type": "t_bytes32"
          }
        ],
        "numberOfBytes": "64"
      },
      "t_struct(Set)2971_storage": {
        "encoding": "inplace",
        "label": "struct EnumerableSetUpgradeable.Set",
        "members": [
          {
            "astId": 2966,
            "contract": "src/Sway.sol:Sway",
            "label": "_values",
            "offset": 0,
            "slot": "0",
            "type": "t_array(t_bytes32)dyn_storage"
          },
          {
            "astId": 2970,
            "contract": "src/Sway.sol:Sway",
            "label": "_indexes",
            "offset": 0,
            "slot": "1",
            "type": "t_mapping(t_bytes32,t_uint256)"
          }
        ],
        "numberOfBytes": "64"
      },
      "t_uint256": {
        "encoding": "inplace",
        "label": "uint256",
        "numberOfBytes": "32"
      }
    }
  }
}