{
  "address": "0x02218396B72d5Ad3ad0e0bB76422B3Cc72C4c6df",
  "abi": [
    {
      "anonymous": false,
      "inputs": [
        {
          "indexed": false,
          "internalType": "address",
          "name": "account",
          "type": "address"
        }
      ],
      "name": "Paused",
      "type": "event"
    },
    {
      "anonymous": false,
      "inputs": [
        {
          "indexed": true,
          "internalType": "bytes32",
          "name": "role",
          "type": "bytes32"
        },
        {
          "indexed": true,
          "internalType": "bytes32",
          "name": "previousAdminRole",
          "type": "bytes32"
        },
        {
          "indexed": true,
          "internalType": "bytes32",
          "name": "newAdminRole",
          "type": "bytes32"
        }
      ],
      "name": "RoleAdminChanged",
      "type": "event"
    },
    {
      "anonymous": false,
      "inputs": [
        {
          "indexed": true,
          "internalType": "bytes32",
          "name": "role",
          "type": "bytes32"
        },
        {
          "indexed": true,
          "internalType": "address",
          "name": "account",
          "type": "address"
        },
        {
          "indexed": true,
          "internalType": "address",
          "name": "sender",
          "type": "address"
        }
      ],
      "name": "RoleGranted",
      "type": "event"
    },
    {
      "anonymous": false,
      "inputs": [
        {
          "indexed": true,
          "internalType": "bytes32",
          "name": "role",
          "type": "bytes32"
        },
        {
          "indexed": true,
          "internalType": "address",
          "name": "account",
          "type": "address"
        },
        {
          "indexed": true,
          "internalType": "address",
          "name": "sender",
          "type": "address"
        }
      ],
      "name": "RoleRevoked",
      "type": "event"
    },
    {
      "anonymous": false,
      "inputs": [
        {
          "indexed": true,
          "internalType": "uint256",
          "name": "eventId",
          "type": "uint256"
        },
        {
          "indexed": true,
          "internalType": "address",
          "name": "to",
          "type": "address"
        }
      ],
      "name": "TokenClaimed",
      "type": "event"
    },
    {
      "anonymous": false,
      "inputs": [
        {
          "indexed": false,
          "internalType": "address",
          "name": "account",
          "type": "address"
        }
      ],
      "name": "Unpaused",
      "type": "event"
    },
    {
      "inputs": [],
      "name": "DEFAULT_ADMIN_ROLE",
      "outputs": [
        {
          "internalType": "bytes32",
          "name": "",
          "type": "bytes32"
        }
      ],
      "stateMutability": "view",
      "type": "function"
    },
    {
      "inputs": [],
      "name": "GOVERNOR_ROLE",
      "outputs": [
        {
          "internalType": "bytes32",
          "name": "",
          "type": "bytes32"
        }
      ],
      "stateMutability": "view",
      "type": "function"
    },
    {
      "inputs": [
        {
          "internalType": "uint256",
          "name": "_eventId",
          "type": "uint256"
        },
        {
          "internalType": "bytes32",
          "name": "_roothash",
          "type": "bytes32"
        }
      ],
      "name": "addEvent",
      "outputs": [],
      "stateMutability": "nonpayable",
      "type": "function"
    },
    {
      "inputs": [
        {
          "internalType": "uint256",
          "name": "_index",
          "type": "uint256"
        },
        {
          "internalType": "uint256",
          "name": "_eventId",
          "type": "uint256"
        },
        {
          "internalType": "address",
          "name": "_recipient",
          "type": "address"
        },
        {
          "internalType": "bytes32[]",
          "name": "proof",
          "type": "bytes32[]"
        }
      ],
      "name": "claim",
      "outputs": [],
      "stateMutability": "nonpayable",
      "type": "function"
    },
    {
      "inputs": [
        {
          "internalType": "uint256",
          "name": "",
          "type": "uint256"
        },
        {
          "internalType": "address",
          "name": "",
          "type": "address"
        }
      ],
      "name": "claimed",
      "outputs": [
        {
          "internalType": "bool",
          "name": "",
          "type": "bool"
        }
      ],
      "stateMutability": "view",
      "type": "function"
    },
    {
      "inputs": [
        {
          "internalType": "bytes32",
          "name": "role",
          "type": "bytes32"
        }
      ],
      "name": "getRoleAdmin",
      "outputs": [
        {
          "internalType": "bytes32",
          "name": "",
          "type": "bytes32"
        }
      ],
      "stateMutability": "view",
      "type": "function"
    },
    {
      "inputs": [
        {
          "internalType": "bytes32",
          "name": "role",
          "type": "bytes32"
        },
        {
          "internalType": "uint256",
          "name": "index",
          "type": "uint256"
        }
      ],
      "name": "getRoleMember",
      "outputs": [
        {
          "internalType": "address",
          "name": "",
          "type": "address"
        }
      ],
      "stateMutability": "view",
      "type": "function"
    },
    {
      "inputs": [
        {
          "internalType": "bytes32",
          "name": "role",
          "type": "bytes32"
        }
      ],
      "name": "getRoleMemberCount",
      "outputs": [
        {
          "internalType": "uint256",
          "name": "",
          "type": "uint256"
        }
      ],
      "stateMutability": "view",
      "type": "function"
    },
    {
      "inputs": [
        {
          "internalType": "bytes32",
          "name": "role",
          "type": "bytes32"
        },
        {
          "internalType": "address",
          "name": "account",
          "type": "address"
        }
      ],
      "name": "grantRole",
      "outputs": [],
      "stateMutability": "nonpayable",
      "type": "function"
    },
    {
      "inputs": [
        {
          "internalType": "bytes32",
          "name": "role",
          "type": "bytes32"
        },
        {
          "internalType": "address",
          "name": "account",
          "type": "address"
        }
      ],
      "name": "hasRole",
      "outputs": [
        {
          "internalType": "bool",
          "name": "",
          "type": "bool"
        }
      ],
      "stateMutability": "view",
      "type": "function"
    },
    {
      "inputs": [
        {
          "internalType": "string",
          "name": "_name",
          "type": "string"
        },
        {
          "internalType": "address",
          "name": "_sway",
          "type": "address"
        },
        {
          "internalType": "address",
          "name": "_governor",
          "type": "address"
        }
      ],
      "name": "initialize",
      "outputs": [],
      "stateMutability": "nonpayable",
      "type": "function"
    },
    {
      "inputs": [
        {
          "internalType": "uint256",
          "name": "eventId",
          "type": "uint256"
        }
      ],
      "name": "isEventAdded",
      "outputs": [
        {
          "internalType": "bool",
          "name": "",
          "type": "bool"
        }
      ],
      "stateMutability": "view",
      "type": "function"
    },
    {
      "inputs": [],
      "name": "name",
      "outputs": [
        {
          "internalType": "string",
          "name": "",
          "type": "string"
        }
      ],
      "stateMutability": "view",
      "type": "function"
    },
    {
      "inputs": [],
      "name": "paused",
      "outputs": [
        {
          "internalType": "bool",
          "name": "",
          "type": "bool"
        }
      ],
      "stateMutability": "view",
      "type": "function"
    },
    {
      "inputs": [
        {
          "internalType": "bytes32",
          "name": "role",
          "type": "bytes32"
        },
        {
          "internalType": "address",
          "name": "account",
          "type": "address"
        }
      ],
      "name": "renounceRole",
      "outputs": [],
      "stateMutability": "nonpayable",
      "type": "function"
    },
    {
      "inputs": [
        {
          "internalType": "bytes32",
          "name": "role",
          "type": "bytes32"
        },
        {
          "internalType": "address",
          "name": "account",
          "type": "address"
        }
      ],
      "name": "revokeRole",
      "outputs": [],
      "stateMutability": "nonpayable",
      "type": "function"
    },
    {
      "inputs": [
        {
          "internalType": "uint256",
          "name": "",
          "type": "uint256"
        }
      ],
      "name": "rootHash",
      "outputs": [
        {
          "internalType": "bytes32",
          "name": "",
          "type": "bytes32"
        }
      ],
      "stateMutability": "view",
      "type": "function"
    },
    {
      "inputs": [
        {
          "internalType": "address",
          "name": "_sway",
          "type": "address"
        }
      ],
      "name": "setSway",
      "outputs": [],
      "stateMutability": "nonpayable",
      "type": "function"
    },
    {
      "inputs": [
        {
          "internalType": "bytes4",
          "name": "interfaceId",
          "type": "bytes4"
        }
      ],
      "name": "supportsInterface",
      "outputs": [
        {
          "internalType": "bool",
          "name": "",
          "type": "bool"
        }
      ],
      "stateMutability": "view",
      "type": "function"
    },
    {
      "inputs": [],
      "name": "sway",
      "outputs": [
        {
          "internalType": "address",
          "name": "",
          "type": "address"
        }
      ],
      "stateMutability": "view",
      "type": "function"
    },
    {
      "inputs": [
        {
          "internalType": "uint256",
          "name": "_eventId",
          "type": "uint256"
        },
        {
          "internalType": "bytes32",
          "name": "_roothash",
          "type": "bytes32"
        }
      ],
      "name": "updateEvent",
      "outputs": [],
      "stateMutability": "nonpayable",
      "type": "function"
    }
  ],
  "transactionHash": "0xc31d3c3ded7e31892fe327f00cfa21449ecde7f47b7649ae5414586e4182ea97",
  "args": [],
  "numDeployments": 1,
  "solcInputHash": "c14ee67e8cb84d472e4c5554b013e7be",
  "bytecode": "0x608060405234801561001057600080fd5b5061175f806100206000396000f3fe608060405234801561001057600080fd5b50600436106101375760003560e01c8063697fa4c9116100b8578063b9035d7e1161007c578063b9035d7e146102bd578063bce9e089146102df578063c3779fac146102f2578063ca15c87314610305578063ccc5749014610318578063d547741f1461032d57600080fd5b8063697fa4c9146102445780637468b3da146102645780639010d07c1461028f57806391d14854146102a2578063a217fddf146102b557600080fd5b80632f2ff15d116100ff5780632f2ff15d146101ed57806336568abe14610200578063463fd1af1461021357806355e74ad6146102265780635c975abb1461023957600080fd5b806301ffc9a71461013c57806306fdde0314610164578063120aa877146101795780631b86d812146101a7578063248a9ca3146101bc575b600080fd5b61014f61014a366004611318565b610340565b60405190151581526020015b60405180910390f35b61016c61036b565b60405161015b9190611544565b61014f6101873660046113f1565b60fd60209081526000928352604080842090915290825290205460ff1681565b6101ba6101b536600461127a565b6103f9565b005b6101df6101ca3660046112b4565b60009081526097602052604090206001015490565b60405190815260200161015b565b6101ba6101fb3660046112cc565b610435565b6101ba61020e3660046112cc565b61045c565b6101ba610221366004611340565b61047e565b6101ba6102343660046112f7565b610595565b60335460ff1661014f565b6101df6102523660046112b4565b60fe6020526000908152604090205481565b60fc54610277906001600160a01b031681565b6040516001600160a01b03909116815260200161015b565b61027761029d3660046112f7565b6105c1565b61014f6102b03660046112cc565b6105e0565b6101df600081565b61014f6102cb3660046112b4565b600090815260fe6020526040902054151590565b6101ba6102ed366004611403565b61060b565b6101ba6103003660046112f7565b6108e1565b6101df6103133660046112b4565b61097c565b6101df60008051602061170a83398151915281565b6101ba61033b3660046112cc565b610993565b60006001600160e01b03198216635a05180f60e01b148061036557506103658261099d565b92915050565b60fb805461037890611687565b80601f01602080910402602001604051908101604052809291908181526020018280546103a490611687565b80156103f15780601f106103c6576101008083540402835291602001916103f1565b820191906000526020600020905b8154815290600101906020018083116103d457829003601f168201915b505050505081565b60008051602061170a83398151915261041281336109d2565b5060fc80546001600160a01b0319166001600160a01b0392909216919091179055565b61043f8282610a3a565b600082815260c9602052604090206104579082610a60565b505050565b6104668282610a75565b600082815260c9602052604090206104579082610aef565b600054610100900460ff1680610497575060005460ff16155b6104bc5760405162461bcd60e51b81526004016104b390611577565b60405180910390fd5b600054610100900460ff161580156104de576000805461ffff19166101011790555b83516104f19060fb9060208701906111c5565b5060fc80546001600160a01b0319166001600160a01b038516179055610515610b04565b61051d610b04565b610525610b04565b61052d610b04565b610535610b70565b61054d60008051602061170a83398151915280610be5565b61056560008051602061170a83398151915284610c30565b61057d60008051602061170a83398151915283610c30565b801561058f576000805461ff00191690555b50505050565b60008051602061170a8339815191526105ae81336109d2565b50600091825260fe602052604090912055565b600082815260c9602052604081206105d99083610c3a565b9392505050565b60009182526097602090815260408084206001600160a01b0393909316845291905290205460ff1690565b600083815260fe60205260409020546106715760405162461bcd60e51b815260206004820152602260248201527f5377617944726f703a206576656e74206e6f7420616464656420666f7220647260448201526106f760f41b60648201526084016104b3565b600083815260fd602090815260408083206001600160a01b038616845290915290205460ff16156106f35760405162461bcd60e51b815260206004820152602660248201527f5377617944726f703a20726563697069656e7420616c72656164792070726f6360448201526565737365642160d01b60648201526084016104b3565b604080516020808201879052818301869052606085811b6bffffffffffffffffffffffff1916908301528251808303605401815260749092019092528051910120600090600085815260fe602052604090205490915061075590839083610c46565b6107b15760405162461bcd60e51b815260206004820152602760248201527f5377617944726f703a20726563697069656e74206e6f7420696e206d65726b6c6044820152666520747265652160c81b60648201526084016104b3565b600084815260fd602090815260408083206001600160a01b0387168085529252808320805460ff1916600117905551909186917f8b224b108d8f9c6d554b41182503c3f8b79dfcf17233a9366d50c386c28af8509190a360fc5460405163a140ae2360e01b8152600481018690526001600160a01b0385811660248301529091169063a140ae2390604401602060405180830381600087803b15801561085657600080fd5b505af115801561086a573d6000803e3d6000fd5b505050506040513d601f19601f8201168201806040525081019061088e9190611294565b6108da5760405162461bcd60e51b815260206004820152601d60248201527f5377617944726f703a20636f756c64206e6f74206d696e74205357415900000060448201526064016104b3565b5050505050565b60008051602061170a8339815191526108fa81336109d2565b600083815260fe6020526040902054156105ae5760405162461bcd60e51b815260206004820152603d60248201527f5377617944726f703a3a6164644576656e743a204d65726b6c6520526f6f742060448201527f616c72656164792070726573656e7420666f7220746865206576656e7400000060648201526084016104b3565b600081815260c96020526040812061036590610c5b565b6104668282610c65565b60006001600160e01b03198216637965db0b60e01b148061036557506301ffc9a760e01b6001600160e01b0319831614610365565b6109dc82826105e0565b610a36576109f4816001600160a01b03166014610c8b565b6109ff836020610c8b565b604051602001610a109291906114cf565b60408051601f198184030181529082905262461bcd60e51b82526104b391600401611544565b5050565b600082815260976020526040902060010154610a5681336109d2565b6104578383610e6d565b60006105d9836001600160a01b038416610ef3565b6001600160a01b0381163314610ae55760405162461bcd60e51b815260206004820152602f60248201527f416363657373436f6e74726f6c3a2063616e206f6e6c792072656e6f756e636560448201526e103937b632b9903337b91039b2b63360891b60648201526084016104b3565b610a368282610f42565b60006105d9836001600160a01b038416610fa9565b600054610100900460ff1680610b1d575060005460ff16155b610b395760405162461bcd60e51b81526004016104b390611577565b600054610100900460ff16158015610b5b576000805461ffff19166101011790555b8015610b6d576000805461ff00191690555b50565b600054610100900460ff1680610b89575060005460ff16155b610ba55760405162461bcd60e51b81526004016104b390611577565b600054610100900460ff16158015610bc7576000805461ffff19166101011790555b6033805460ff191690558015610b6d576000805461ff001916905550565b600082815260976020526040808220600101805490849055905190918391839186917fbd79b86ffe0ab8e8776151514217cd7cacd52c909f66475c3af44e129f0b00ff9190a4505050565b61043f82826110c6565b60006105d983836110d0565b6000610c53848484611108565b949350505050565b6000610365825490565b600082815260976020526040902060010154610c8181336109d2565b6104578383610f42565b60606000610c9a83600261160e565b610ca59060026115f6565b67ffffffffffffffff811115610ccb57634e487b7160e01b600052604160045260246000fd5b6040519080825280601f01601f191660200182016040528015610cf5576020820181803683370190505b509050600360fc1b81600081518110610d1e57634e487b7160e01b600052603260045260246000fd5b60200101906001600160f81b031916908160001a905350600f60fb1b81600181518110610d5b57634e487b7160e01b600052603260045260246000fd5b60200101906001600160f81b031916908160001a9053506000610d7f84600261160e565b610d8a9060016115f6565b90505b6001811115610e1e576f181899199a1a9b1b9c1cb0b131b232b360811b85600f1660108110610dcc57634e487b7160e01b600052603260045260246000fd5b1a60f81b828281518110610df057634e487b7160e01b600052603260045260246000fd5b60200101906001600160f81b031916908160001a90535060049490941c93610e1781611670565b9050610d8d565b5083156105d95760405162461bcd60e51b815260206004820181905260248201527f537472696e67733a20686578206c656e67746820696e73756666696369656e7460448201526064016104b3565b610e7782826105e0565b610a365760008281526097602090815260408083206001600160a01b03851684529091529020805460ff19166001179055610eaf3390565b6001600160a01b0316816001600160a01b0316837f2f8788117e7eff1d82e926ec794901d17c78024a50270940304540a733656f0d60405160405180910390a45050565b6000818152600183016020526040812054610f3a57508154600181810184556000848152602080822090930184905584548482528286019093526040902091909155610365565b506000610365565b610f4c82826105e0565b15610a365760008281526097602090815260408083206001600160a01b0385168085529252808320805460ff1916905551339285917ff6391f5c32d9c69d2a47ea670b442974b53935d1edc7fd64eb21e047a839171b9190a45050565b600081815260018301602052604081205480156110bc576000610fcd60018361162d565b8554909150600090610fe19060019061162d565b905081811461106257600086600001828154811061100f57634e487b7160e01b600052603260045260246000fd5b906000526020600020015490508087600001848154811061104057634e487b7160e01b600052603260045260246000fd5b6000918252602080832090910192909255918252600188019052604090208390555b855486908061108157634e487b7160e01b600052603160045260246000fd5b600190038181906000526020600020016000905590558560010160008681526020019081526020016000206000905560019350505050610365565b6000915050610365565b610a368282610e6d565b60008260000182815481106110f557634e487b7160e01b600052603260045260246000fd5b9060005260206000200154905092915050565b600081815b85518110156111ba57600086828151811061113857634e487b7160e01b600052603260045260246000fd5b6020026020010151905080831161117a5760408051602081018590529081018290526060016040516020818303038152906040528051906020012092506111a7565b60408051602081018390529081018490526060016040516020818303038152906040528051906020012092505b50806111b2816116c2565b91505061110d565b509092149392505050565b8280546111d190611687565b90600052602060002090601f0160209004810192826111f35760008555611239565b82601f1061120c57805160ff1916838001178555611239565b82800160010185558215611239579182015b8281111561123957825182559160200191906001019061121e565b50611245929150611249565b5090565b5b80821115611245576000815560010161124a565b80356001600160a01b038116811461127557600080fd5b919050565b60006020828403121561128b578081fd5b6105d98261125e565b6000602082840312156112a5578081fd5b815180151581146105d9578182fd5b6000602082840312156112c5578081fd5b5035919050565b600080604083850312156112de578081fd5b823591506112ee6020840161125e565b90509250929050565b60008060408385031215611309578182fd5b50508035926020909101359150565b600060208284031215611329578081fd5b81356001600160e01b0319811681146105d9578182fd5b600080600060608486031215611354578081fd5b833567ffffffffffffffff8082111561136b578283fd5b818601915086601f83011261137e578283fd5b8135602082821115611392576113926116f3565b6113a4601f8301601f191682016115c5565b925081835288818386010111156113b9578485fd5b8181850182850137848183850101528296506113d681890161125e565b9550505050506113e86040850161125e565b90509250925092565b600080604083850312156112de578182fd5b60008060008060808587031215611418578081fd5b8435935060208086013593506114306040870161125e565b9250606086013567ffffffffffffffff8082111561144c578384fd5b818801915088601f83011261145f578384fd5b813581811115611471576114716116f3565b8060051b91506114828483016115c5565b8181528481019084860184860187018d101561149c578788fd5b8795505b838610156114be5780358352600195909501949186019186016114a0565b50989b979a50959850505050505050565b7f416363657373436f6e74726f6c3a206163636f756e7420000000000000000000815260008351611507816017850160208801611644565b7001034b99036b4b9b9b4b733903937b6329607d1b6017918401918201528351611538816028840160208801611644565b01602801949350505050565b6020815260008251806020840152611563816040850160208701611644565b601f01601f19169190910160400192915050565b6020808252602e908201527f496e697469616c697a61626c653a20636f6e747261637420697320616c72656160408201526d191e481a5b9a5d1a585b1a5e995960921b606082015260800190565b604051601f8201601f1916810167ffffffffffffffff811182821017156115ee576115ee6116f3565b604052919050565b60008219821115611609576116096116dd565b500190565b6000816000190483118215151615611628576116286116dd565b500290565b60008282101561163f5761163f6116dd565b500390565b60005b8381101561165f578181015183820152602001611647565b8381111561058f5750506000910152565b60008161167f5761167f6116dd565b506000190190565b600181811c9082168061169b57607f821691505b602082108114156116bc57634e487b7160e01b600052602260045260246000fd5b50919050565b60006000198214156116d6576116d66116dd565b5060010190565b634e487b7160e01b600052601160045260246000fd5b634e487b7160e01b600052604160045260246000fdfe7935bd0ae54bc31f548c14dba4d37c5c64b3f8ca900cb468fb8abd54d5894f55a2646970667358221220f1cb961f0008a2f82270115bb1e6f243f6d04bb3d0bcb622dc3bbbc0b275c9e464736f6c63430008040033",
  "devdoc": {
    "kind": "dev",
    "methods": {
      "getRoleAdmin(bytes32)": {
        "details": "Returns the admin role that controls `role`. See {grantRole} and {revokeRole}. To change a role's admin, use {_setRoleAdmin}."
      },
      "getRoleMember(bytes32,uint256)": {
        "details": "Returns one of the accounts that have `role`. `index` must be a value between 0 and {getRoleMemberCount}, non-inclusive. Role bearers are not sorted in any particular way, and their ordering may change at any point. WARNING: When using {getRoleMember} and {getRoleMemberCount}, make sure you perform all queries on the same block. See the following https://forum.openzeppelin.com/t/iterating-over-elements-on-enumerableset-in-openzeppelin-contracts/2296[forum post] for more information."
      },
      "getRoleMemberCount(bytes32)": {
        "details": "Returns the number of accounts that have `role`. Can be used together with {getRoleMember} to enumerate all bearers of a role."
      },
      "grantRole(bytes32,address)": {
        "details": "Overload {grantRole} to track enumerable memberships"
      },
      "hasRole(bytes32,address)": {
        "details": "Returns `true` if `account` has been granted `role`."
      },
      "paused()": {
        "details": "Returns true if the contract is paused, and false otherwise."
      },
      "renounceRole(bytes32,address)": {
        "details": "Overload {renounceRole} to track enumerable memberships"
      },
      "revokeRole(bytes32,address)": {
        "details": "Overload {revokeRole} to track enumerable memberships"
      },
      "supportsInterface(bytes4)": {
        "details": "See {IERC165-supportsInterface}."
      }
    },
    "version": 1
  },
  "userdoc": {
    "kind": "user",
    "methods": {},
    "version": 1
  },
  "storageLayout": {
    "storage": [
      {
        "astId": 773,
        "contract": "src/drop/SwayDrop.sol:SwayDrop",
        "label": "_initialized",
        "offset": 0,
        "slot": "0",
        "type": "t_bool"
      },
      {
        "astId": 776,
        "contract": "src/drop/SwayDrop.sol:SwayDrop",
        "label": "_initializing",
        "offset": 1,
        "slot": "0",
        "type": "t_bool"
      },
      {
        "astId": 2618,
        "contract": "src/drop/SwayDrop.sol:SwayDrop",
        "label": "__gap",
        "offset": 0,
        "slot": "1",
        "type": "t_array(t_uint256)50_storage"
      },
      {
        "astId": 834,
        "contract": "src/drop/SwayDrop.sol:SwayDrop",
        "label": "_paused",
        "offset": 0,
        "slot": "51",
        "type": "t_bool"
      },
      {
        "astId": 925,
        "contract": "src/drop/SwayDrop.sol:SwayDrop",
        "label": "__gap",
        "offset": 0,
        "slot": "52",
        "type": "t_array(t_uint256)49_storage"
      },
      {
        "astId": 2938,
        "contract": "src/drop/SwayDrop.sol:SwayDrop",
        "label": "__gap",
        "offset": 0,
        "slot": "101",
        "type": "t_array(t_uint256)50_storage"
      },
      {
        "astId": 258,
        "contract": "src/drop/SwayDrop.sol:SwayDrop",
        "label": "_roles",
        "offset": 0,
        "slot": "151",
        "type": "t_mapping(t_bytes32,t_struct(RoleData)253_storage)"
      },
      {
        "astId": 543,
        "contract": "src/drop/SwayDrop.sol:SwayDrop",
        "label": "__gap",
        "offset": 0,
        "slot": "152",
        "type": "t_array(t_uint256)49_storage"
      },
      {
        "astId": 45,
        "contract": "src/drop/SwayDrop.sol:SwayDrop",
        "label": "_roleMembers",
        "offset": 0,
        "slot": "201",
        "type": "t_mapping(t_bytes32,t_struct(AddressSet)3263_storage)"
      },
      {
        "astId": 208,
        "contract": "src/drop/SwayDrop.sol:SwayDrop",
        "label": "__gap",
        "offset": 0,
        "slot": "202",
        "type": "t_array(t_uint256)49_storage"
      },
      {
        "astId": 4399,
        "contract": "src/drop/SwayDrop.sol:SwayDrop",
        "label": "name",
        "offset": 0,
        "slot": "251",
        "type": "t_string_storage"
      },
      {
        "astId": 4401,
        "contract": "src/drop/SwayDrop.sol:SwayDrop",
        "label": "sway",
        "offset": 0,
        "slot": "252",
        "type": "t_address"
      },
      {
        "astId": 4407,
        "contract": "src/drop/SwayDrop.sol:SwayDrop",
        "label": "claimed",
        "offset": 0,
        "slot": "253",
        "type": "t_mapping(t_uint256,t_mapping(t_address,t_bool))"
      },
      {
        "astId": 4411,
        "contract": "src/drop/SwayDrop.sol:SwayDrop",
        "label": "rootHash",
        "offset": 0,
        "slot": "254",
        "type": "t_mapping(t_uint256,t_bytes32)"
      }
    ],
    "types": {
      "t_address": {
        "encoding": "inplace",
        "label": "address",
        "numberOfBytes": "20"
      },
      "t_array(t_bytes32)dyn_storage": {
        "base": "t_bytes32",
        "encoding": "dynamic_array",
        "label": "bytes32[]",
        "numberOfBytes": "32"
      },
      "t_array(t_uint256)49_storage": {
        "base": "t_uint256",
        "encoding": "inplace",
        "label": "uint256[49]",
        "numberOfBytes": "1568"
      },
      "t_array(t_uint256)50_storage": {
        "base": "t_uint256",
        "encoding": "inplace",
        "label": "uint256[50]",
        "numberOfBytes": "1600"
      },
      "t_bool": {
        "encoding": "inplace",
        "label": "bool",
        "numberOfBytes": "1"
      },
      "t_bytes32": {
        "encoding": "inplace",
        "label": "bytes32",
        "numberOfBytes": "32"
      },
      "t_mapping(t_address,t_bool)": {
        "encoding": "mapping",
        "key": "t_address",
        "label": "mapping(address => bool)",
        "numberOfBytes": "32",
        "value": "t_bool"
      },
      "t_mapping(t_bytes32,t_struct(AddressSet)3263_storage)": {
        "encoding": "mapping",
        "key": "t_bytes32",
        "label": "mapping(bytes32 => struct EnumerableSetUpgradeable.AddressSet)",
        "numberOfBytes": "32",
        "value": "t_struct(AddressSet)3263_storage"
      },
      "t_mapping(t_bytes32,t_struct(RoleData)253_storage)": {
        "encoding": "mapping",
        "key": "t_bytes32",
        "label": "mapping(bytes32 => struct AccessControlUpgradeable.RoleData)",
        "numberOfBytes": "32",
        "value": "t_struct(RoleData)253_storage"
      },
      "t_mapping(t_bytes32,t_uint256)": {
        "encoding": "mapping",
        "key": "t_bytes32",
        "label": "mapping(bytes32 => uint256)",
        "numberOfBytes": "32",
        "value": "t_uint256"
      },
      "t_mapping(t_uint256,t_bytes32)": {
        "encoding": "mapping",
        "key": "t_uint256",
        "label": "mapping(uint256 => bytes32)",
        "numberOfBytes": "32",
        "value": "t_bytes32"
      },
      "t_mapping(t_uint256,t_mapping(t_address,t_bool))": {
        "encoding": "mapping",
        "key": "t_uint256",
        "label": "mapping(uint256 => mapping(address => bool))",
        "numberOfBytes": "32",
        "value": "t_mapping(t_address,t_bool)"
      },
      "t_string_storage": {
        "encoding": "bytes",
        "label": "string",
        "numberOfBytes": "32"
      },
      "t_struct(AddressSet)3263_storage": {
        "encoding": "inplace",
        "label": "struct EnumerableSetUpgradeable.AddressSet",
        "members": [
          {
            "astId": 3262,
            "contract": "src/drop/SwayDrop.sol:SwayDrop",
            "label": "_inner",
            "offset": 0,
            "slot": "0",
            "type": "t_struct(Set)2962_storage"
          }
        ],
        "numberOfBytes": "64"
      },
      "t_struct(RoleData)253_storage": {
        "encoding": "inplace",
        "label": "struct AccessControlUpgradeable.RoleData",
        "members": [
          {
            "astId": 250,
            "contract": "src/drop/SwayDrop.sol:SwayDrop",
            "label": "members",
            "offset": 0,
            "slot": "0",
            "type": "t_mapping(t_address,t_bool)"
          },
          {
            "astId": 252,
            "contract": "src/drop/SwayDrop.sol:SwayDrop",
            "label": "adminRole",
            "offset": 0,
            "slot": "1",
            "type": "t_bytes32"
          }
        ],
        "numberOfBytes": "64"
      },
      "t_struct(Set)2962_storage": {
        "encoding": "inplace",
        "label": "struct EnumerableSetUpgradeable.Set",
        "members": [
          {
            "astId": 2957,
            "contract": "src/drop/SwayDrop.sol:SwayDrop",
            "label": "_values",
            "offset": 0,
            "slot": "0",
            "type": "t_array(t_bytes32)dyn_storage"
          },
          {
            "astId": 2961,
            "contract": "src/drop/SwayDrop.sol:SwayDrop",
            "label": "_indexes",
            "offset": 0,
            "slot": "1",
            "type": "t_mapping(t_bytes32,t_uint256)"
          }
        ],
        "numberOfBytes": "64"
      },
      "t_uint256": {
        "encoding": "inplace",
        "label": "uint256",
        "numberOfBytes": "32"
      }
    }
  }
}