{
  "address": "0xbF976D85F0d1A9FDD60Ec0ABb2db8191efbBA44A",
  "abi": [
    {
      "inputs": [],
      "stateMutability": "nonpayable",
      "type": "constructor"
    },
    {
      "anonymous": false,
      "inputs": [
        {
          "indexed": false,
          "internalType": "address",
          "name": "previousAdmin",
          "type": "address"
        },
        {
          "indexed": false,
          "internalType": "address",
          "name": "newAdmin",
          "type": "address"
        }
      ],
      "name": "AdminChanged",
      "type": "event"
    },
    {
      "anonymous": false,
      "inputs": [
        {
          "indexed": true,
          "internalType": "address",
          "name": "beacon",
          "type": "address"
        }
      ],
      "name": "BeaconUpgraded",
      "type": "event"
    },
    {
      "anonymous": false,
      "inputs": [
        {
          "indexed": false,
          "internalType": "address",
          "name": "account",
          "type": "address"
        }
      ],
      "name": "Paused",
      "type": "event"
    },
    {
      "anonymous": false,
      "inputs": [
        {
          "indexed": true,
          "internalType": "uint256",
          "name": "eventId",
          "type": "uint256"
        },
        {
          "indexed": true,
          "internalType": "address",
          "name": "to",
          "type": "address"
        }
      ],
      "name": "TokenClaimed",
      "type": "event"
    },
    {
      "anonymous": false,
      "inputs": [
        {
          "indexed": false,
          "internalType": "address",
          "name": "account",
          "type": "address"
        }
      ],
      "name": "Unpaused",
      "type": "event"
    },
    {
      "anonymous": false,
      "inputs": [
        {
          "indexed": true,
          "internalType": "address",
          "name": "implementation",
          "type": "address"
        }
      ],
      "name": "Upgraded",
      "type": "event"
    },
    {
      "inputs": [
        {
          "internalType": "uint256",
          "name": "_eventId",
          "type": "uint256"
        },
        {
          "internalType": "bytes32",
          "name": "_roothash",
          "type": "bytes32"
        }
      ],
      "name": "addEvent",
      "outputs": [],
      "stateMutability": "nonpayable",
      "type": "function"
    },
    {
      "inputs": [
        {
          "internalType": "uint256",
          "name": "_index",
          "type": "uint256"
        },
        {
          "internalType": "uint256",
          "name": "_eventId",
          "type": "uint256"
        },
        {
          "internalType": "address",
          "name": "_recipient",
          "type": "address"
        },
        {
          "internalType": "bytes32[]",
          "name": "proof",
          "type": "bytes32[]"
        }
      ],
      "name": "claim",
      "outputs": [],
      "stateMutability": "nonpayable",
      "type": "function"
    },
    {
      "inputs": [
        {
          "internalType": "uint256",
          "name": "",
          "type": "uint256"
        },
        {
          "internalType": "address",
          "name": "",
          "type": "address"
        }
      ],
      "name": "claimed",
      "outputs": [
        {
          "internalType": "bool",
          "name": "",
          "type": "bool"
        }
      ],
      "stateMutability": "view",
      "type": "function"
    },
    {
      "inputs": [
        {
          "internalType": "string",
          "name": "_name",
          "type": "string"
        },
        {
          "internalType": "address",
          "name": "_swayAddr",
          "type": "address"
        }
      ],
      "name": "initialize",
      "outputs": [],
      "stateMutability": "nonpayable",
      "type": "function"
    },
    {
      "inputs": [
        {
          "internalType": "uint256",
          "name": "eventId",
          "type": "uint256"
        }
      ],
      "name": "isEventAdded",
      "outputs": [
        {
          "internalType": "bool",
          "name": "",
          "type": "bool"
        }
      ],
      "stateMutability": "view",
      "type": "function"
    },
    {
      "inputs": [],
      "name": "name",
      "outputs": [
        {
          "internalType": "string",
          "name": "",
          "type": "string"
        }
      ],
      "stateMutability": "view",
      "type": "function"
    },
    {
      "inputs": [],
      "name": "paused",
      "outputs": [
        {
          "internalType": "bool",
          "name": "",
          "type": "bool"
        }
      ],
      "stateMutability": "view",
      "type": "function"
    },
    {
      "inputs": [
        {
          "internalType": "uint256",
          "name": "",
          "type": "uint256"
        }
      ],
      "name": "rootHash",
      "outputs": [
        {
          "internalType": "bytes32",
          "name": "",
          "type": "bytes32"
        }
      ],
      "stateMutability": "view",
      "type": "function"
    },
    {
      "inputs": [
        {
          "internalType": "address",
          "name": "_swayAddr",
          "type": "address"
        }
      ],
      "name": "setSway",
      "outputs": [],
      "stateMutability": "nonpayable",
      "type": "function"
    },
    {
      "inputs": [],
      "name": "swayAddr",
      "outputs": [
        {
          "internalType": "address",
          "name": "",
          "type": "address"
        }
      ],
      "stateMutability": "view",
      "type": "function"
    },
    {
      "inputs": [
        {
          "internalType": "uint256",
          "name": "_eventId",
          "type": "uint256"
        },
        {
          "internalType": "bytes32",
          "name": "_roothash",
          "type": "bytes32"
        }
      ],
      "name": "updateEvent",
      "outputs": [],
      "stateMutability": "nonpayable",
      "type": "function"
    },
    {
      "inputs": [
        {
          "internalType": "address",
          "name": "newImplementation",
          "type": "address"
        }
      ],
      "name": "upgradeTo",
      "outputs": [],
      "stateMutability": "nonpayable",
      "type": "function"
    },
    {
      "inputs": [
        {
          "internalType": "address",
          "name": "newImplementation",
          "type": "address"
        },
        {
          "internalType": "bytes",
          "name": "data",
          "type": "bytes"
        }
      ],
      "name": "upgradeToAndCall",
      "outputs": [],
      "stateMutability": "payable",
      "type": "function"
    }
  ],
  "numDeployments": 1,
  "solcInputHash": "4c74ea714eedde4df6a2f3acc6555593",
  "bytecode": "0x60a06040523060601b6080523480156200001857600080fd5b50600054610100900460ff16620000365760005460ff161562000040565b62000040620000e5565b620000a85760405162461bcd60e51b815260206004820152602e60248201527f496e697469616c697a61626c653a20636f6e747261637420697320616c72656160448201526d191e481a5b9a5d1a585b1a5e995960921b606482015260840160405180910390fd5b600054610100900460ff16158015620000cb576000805461ffff19166101011790555b8015620000de576000805461ff00191690555b5062000109565b6000620000fd306200010360201b62000ba11760201c565b15905090565b3b151590565b60805160601c6117a66200013d600039600081816104470152818161048701528181610510015261055001526117a66000f3fe6080604052600436106100c25760003560e01c80635c975abb1161007f578063b9035d7e11610059578063b9035d7e14610225578063bce9e08914610254578063c3779fac14610274578063e41f67d01461029457600080fd5b80635c975abb146101b2578063697fa4c9146101ca5780637ab4339d1461020557600080fd5b806306fdde03146100c7578063120aa877146100f25780631b86d8121461013d5780633659cfe61461015f5780634f1ef2861461017f57806355e74ad614610192575b600080fd5b3480156100d357600080fd5b506100dc6102cc565b6040516100e991906114fd565b60405180910390f35b3480156100fe57600080fd5b5061012d61010d3660046113d2565b60cb60209081526000928352604080842090915290825290205460ff1681565b60405190151581526020016100e9565b34801561014957600080fd5b5061015d6101583660046112c2565b61035a565b005b34801561016b57600080fd5b5061015d61017a3660046112c2565b61043c565b61015d61018d3660046112dc565b610505565b34801561019e57600080fd5b5061015d6101ad3660046113f4565b6105bf565b3480156101be57600080fd5b5060975460ff1661012d565b3480156101d657600080fd5b506101f76101e53660046113ba565b60cc6020526000908152604090205481565b6040519081526020016100e9565b34801561021157600080fd5b5061015d61022036600461135b565b610688565b34801561023157600080fd5b5061012d6102403660046113ba565b600090815260cc6020526040902054151590565b34801561026057600080fd5b5061015d61026f366004611415565b610792565b34801561028057600080fd5b5061015d61028f3660046113f4565b610a68565b3480156102a057600080fd5b5060ca546102b4906001600160a01b031681565b6040516001600160a01b0390911681526020016100e9565b60c980546102d9906116d1565b80601f0160208091040260200160405190810160405280929190818152602001828054610305906116d1565b80156103525780601f1061032757610100808354040283529160200191610352565b820191906000526020600020905b81548152906001019060200180831161033557829003601f168201915b505050505081565b61036333610ba7565b60ca54604051631c86b03760e31b81523360048201526001600160a01b039091169063e43581b890602401602060405180830381600087803b1580156103a857600080fd5b505af11580156103bc573d6000803e3d6000fd5b505050506040513d601f19601f820116820180604052508101906103e0919061133b565b806103f5575060ca546001600160a01b031633145b61041a5760405162461bcd60e51b8152600401610411906115c8565b60405180910390fd5b60ca80546001600160a01b0319166001600160a01b0392909216919091179055565b306001600160a01b037f00000000000000000000000000000000000000000000000000000000000000001614156104855760405162461bcd60e51b815260040161041190611530565b7f00000000000000000000000000000000000000000000000000000000000000006001600160a01b03166104b7610bef565b6001600160a01b0316146104dd5760405162461bcd60e51b81526004016104119061157c565b6104e681610c1d565b6040805160008082526020820190925261050291839190610d04565b50565b306001600160a01b037f000000000000000000000000000000000000000000000000000000000000000016141561054e5760405162461bcd60e51b815260040161041190611530565b7f00000000000000000000000000000000000000000000000000000000000000006001600160a01b0316610580610bef565b6001600160a01b0316146105a65760405162461bcd60e51b81526004016104119061157c565b6105af82610c1d565b6105bb82826001610d04565b5050565b6105c833610ba7565b60ca54604051631c86b03760e31b81523360048201526001600160a01b039091169063e43581b890602401602060405180830381600087803b15801561060d57600080fd5b505af1158015610621573d6000803e3d6000fd5b505050506040513d601f19601f82011682018060405250810190610645919061133b565b8061065a575060ca546001600160a01b031633145b6106765760405162461bcd60e51b8152600401610411906115c8565b600091825260cc602052604090912055565b600054610100900460ff166106a35760005460ff16156106a7565b303b155b61070a5760405162461bcd60e51b815260206004820152602e60248201527f496e697469616c697a61626c653a20636f6e747261637420697320616c72656160448201526d191e481a5b9a5d1a585b1a5e995960921b6064820152608401610411565b600054610100900460ff1615801561072c576000805461ffff19166101011790555b825161073f9060c99060208601906111b5565b5060ca80546001600160a01b0319166001600160a01b038416179055610763610e48565b61076b610e71565b610773610e48565b61077b610e48565b801561078d576000805461ff00191690555b505050565b600083815260cc60205260409020546107f85760405162461bcd60e51b815260206004820152602260248201527f5377617944726f703a206576656e74206e6f7420616464656420666f7220647260448201526106f760f41b6064820152608401610411565b600083815260cb602090815260408083206001600160a01b038616845290915290205460ff161561087a5760405162461bcd60e51b815260206004820152602660248201527f5377617944726f703a20726563697069656e7420616c72656164792070726f6360448201526565737365642160d01b6064820152608401610411565b604080516020808201879052818301869052606085811b6bffffffffffffffffffffffff1916908301528251808303605401815260749092019092528051910120600090600085815260cc60205260409020549091506108dc90839083610ea4565b6109385760405162461bcd60e51b815260206004820152602760248201527f5377617944726f703a20726563697069656e74206e6f7420696e206d65726b6c6044820152666520747265652160c81b6064820152608401610411565b600084815260cb602090815260408083206001600160a01b0387168085529252808320805460ff1916600117905551909186917f8b224b108d8f9c6d554b41182503c3f8b79dfcf17233a9366d50c386c28af8509190a360ca5460405163a140ae2360e01b8152600481018690526001600160a01b0385811660248301529091169063a140ae2390604401602060405180830381600087803b1580156109dd57600080fd5b505af11580156109f1573d6000803e3d6000fd5b505050506040513d601f19601f82011682018060405250810190610a15919061133b565b610a615760405162461bcd60e51b815260206004820152601d60248201527f5377617944726f703a20636f756c64206e6f74206d696e7420535741590000006044820152606401610411565b5050505050565b610a7133610ba7565b60ca54604051631c86b03760e31b81523360048201526001600160a01b039091169063e43581b890602401602060405180830381600087803b158015610ab657600080fd5b505af1158015610aca573d6000803e3d6000fd5b505050506040513d601f19601f82011682018060405250810190610aee919061133b565b80610b03575060ca546001600160a01b031633145b610b1f5760405162461bcd60e51b8152600401610411906115c8565b600082815260cc6020526040902054156106765760405162461bcd60e51b815260206004820152603d60248201527f5377617944726f703a3a6164644576656e743a204d65726b6c6520526f6f742060448201527f616c72656164792070726573656e7420666f7220746865206576656e740000006064820152608401610411565b3b151590565b6040516001600160a01b03821660248201526105029060440160408051601f198184030181529190526020810180516001600160e01b031663161765e160e11b179052610ebb565b7f360894a13ba1a3210667c828492db98dca3e2076cc3735a920a3ca505d382bbc546001600160a01b031690565b610c2633610ba7565b60ca54604051631c86b03760e31b81523360048201526001600160a01b039091169063e43581b890602401602060405180830381600087803b158015610c6b57600080fd5b505af1158015610c7f573d6000803e3d6000fd5b505050506040513d601f19601f82011682018060405250810190610ca3919061133b565b6105025760405162461bcd60e51b815260206004820152602c60248201527f5377617944726f703a2073656e64657220646f6573206e6f742068617665204760448201526b6f7665726e6f7220526f6c6560a01b6064820152608401610411565b6000610d0e610bef565b9050610d1984610edc565b600083511180610d265750815b15610d3757610d358484610f81565b505b7f4910fdfa16fed3260ed0e7147f7cc6da11a60208b5b9406d12a635614ffd9143805460ff16610a6157805460ff191660011781556040516001600160a01b0383166024820152610db690869060440160408051601f198184030181529190526020810180516001600160e01b0316631b2ce7f360e11b179052610f81565b50805460ff19168155610dc7610bef565b6001600160a01b0316826001600160a01b031614610e3f5760405162461bcd60e51b815260206004820152602f60248201527f45524331393637557067726164653a207570677261646520627265616b73206660448201526e75727468657220757067726164657360881b6064820152608401610411565b610a618561106c565b600054610100900460ff16610e6f5760405162461bcd60e51b815260040161041190611625565b565b600054610100900460ff16610e985760405162461bcd60e51b815260040161041190611625565b6097805460ff19169055565b6000610eb18484846110ac565b90505b9392505050565b80516a636f6e736f6c652e6c6f67602083016000808483855afa5050505050565b803b610f405760405162461bcd60e51b815260206004820152602d60248201527f455243313936373a206e657720696d706c656d656e746174696f6e206973206e60448201526c1bdd08184818dbdb9d1c9858dd609a1b6064820152608401610411565b7f360894a13ba1a3210667c828492db98dca3e2076cc3735a920a3ca505d382bbc80546001600160a01b0319166001600160a01b0392909216919091179055565b6060823b610fe05760405162461bcd60e51b815260206004820152602660248201527f416464726573733a2064656c65676174652063616c6c20746f206e6f6e2d636f6044820152651b9d1c9858dd60d21b6064820152608401610411565b600080846001600160a01b031684604051610ffb91906114e1565b600060405180830381855af49150503d8060008114611036576040519150601f19603f3d011682016040523d82523d6000602084013e61103b565b606091505b5091509150611063828260405180606001604052806027815260200161174a602791396110c2565b95945050505050565b61107581610edc565b6040516001600160a01b038216907fbc7cd75a20ee27fd9adebab32041f755214dbc6bffa90cc0225b39da2e5c2d3b90600090a250565b6000826110b985846110fb565b14949350505050565b606083156110d1575081610eb4565b8251156110e15782518084602001fd5b8160405162461bcd60e51b815260040161041191906114fd565b600081815b84518110156111ad57600085828151811061112b57634e487b7160e01b600052603260045260246000fd5b6020026020010151905080831161116d57604080516020810185905290810182905260600160405160208183030381529060405280519060200120925061119a565b60408051602081018390529081018490526060016040516020818303038152906040528051906020012092505b50806111a58161170c565b915050611100565b509392505050565b8280546111c1906116d1565b90600052602060002090601f0160209004810192826111e35760008555611229565b82601f106111fc57805160ff1916838001178555611229565b82800160010185558215611229579182015b8281111561122957825182559160200191906001019061120e565b50611235929150611239565b5090565b5b80821115611235576000815560010161123a565b600067ffffffffffffffff83111561126857611268611733565b61127b601f8401601f1916602001611670565b905082815283838301111561128f57600080fd5b828260208301376000602084830101529392505050565b80356001600160a01b03811681146112bd57600080fd5b919050565b6000602082840312156112d3578081fd5b610eb4826112a6565b600080604083850312156112ee578081fd5b6112f7836112a6565b9150602083013567ffffffffffffffff811115611312578182fd5b8301601f81018513611322578182fd5b6113318582356020840161124e565b9150509250929050565b60006020828403121561134c578081fd5b81518015158114610eb4578182fd5b6000806040838503121561136d578182fd5b823567ffffffffffffffff811115611383578283fd5b8301601f81018513611393578283fd5b6113a28582356020840161124e565b9250506113b1602084016112a6565b90509250929050565b6000602082840312156113cb578081fd5b5035919050565b600080604083850312156113e4578182fd5b823591506113b1602084016112a6565b60008060408385031215611406578182fd5b50508035926020909101359150565b6000806000806080858703121561142a578182fd5b843593506020808601359350611442604087016112a6565b9250606086013567ffffffffffffffff8082111561145e578384fd5b818801915088601f830112611471578384fd5b81358181111561148357611483611733565b8060051b9150611494848301611670565b8181528481019084860184860187018d10156114ae578788fd5b8795505b838610156114d05780358352600195909501949186019186016114b2565b50989b979a50959850505050505050565b600082516114f38184602087016116a1565b9190910192915050565b602081526000825180602084015261151c8160408501602087016116a1565b601f01601f19169190910160400192915050565b6020808252602c908201527f46756e6374696f6e206d7573742062652063616c6c6564207468726f7567682060408201526b19195b1959d85d1958d85b1b60a21b606082015260800190565b6020808252602c908201527f46756e6374696f6e206d7573742062652063616c6c6564207468726f7567682060408201526b6163746976652070726f787960a01b606082015260800190565b6020808252603b908201527f5377617944726f703a2073656e646572206973206e6f742053776179206f722060408201527f646f6573206e6f74206861766520476f7665726e6f7220526f6c650000000000606082015260800190565b6020808252602b908201527f496e697469616c697a61626c653a20636f6e7472616374206973206e6f74206960408201526a6e697469616c697a696e6760a81b606082015260800190565b604051601f8201601f1916810167ffffffffffffffff8111828210171561169957611699611733565b604052919050565b60005b838110156116bc5781810151838201526020016116a4565b838111156116cb576000848401525b50505050565b600181811c908216806116e557607f821691505b6020821081141561170657634e487b7160e01b600052602260045260246000fd5b50919050565b600060001982141561172c57634e487b7160e01b81526011600452602481fd5b5060010190565b634e487b7160e01b600052604160045260246000fdfe416464726573733a206c6f772d6c6576656c2064656c65676174652063616c6c206661696c6564a26469706673582212204ae573ef5bd3fc3a6f1c7321fb9b128f3dca9f47102c46de1a0335e0483cd4bd64736f6c63430008040033",
  "devdoc": {
    "kind": "dev",
    "methods": {
      "constructor": {
        "custom:oz-upgrades-unsafe-allow": "constructor"
      },
      "paused()": {
        "details": "Returns true if the contract is paused, and false otherwise."
      },
      "upgradeTo(address)": {
        "details": "Upgrade the implementation of the proxy to `newImplementation`. Calls {_authorizeUpgrade}. Emits an {Upgraded} event."
      },
      "upgradeToAndCall(address,bytes)": {
        "details": "Upgrade the implementation of the proxy to `newImplementation`, and subsequently execute the function call encoded in `data`. Calls {_authorizeUpgrade}. Emits an {Upgraded} event."
      }
    },
    "version": 1
  },
  "userdoc": {
    "kind": "user",
    "methods": {},
    "version": 1
  },
  "storageLayout": {
    "storage": [
      {
        "astId": 1005,
        "contract": "src/drop/SwayDrop.sol:SwayDrop",
        "label": "_initialized",
        "offset": 0,
        "slot": "0",
        "type": "t_bool"
      },
      {
        "astId": 1008,
        "contract": "src/drop/SwayDrop.sol:SwayDrop",
        "label": "_initializing",
        "offset": 1,
        "slot": "0",
        "type": "t_bool"
      },
      {
        "astId": 987,
        "contract": "src/drop/SwayDrop.sol:SwayDrop",
        "label": "__gap",
        "offset": 0,
        "slot": "1",
        "type": "t_array(t_uint256)50_storage"
      },
      {
        "astId": 1182,
        "contract": "src/drop/SwayDrop.sol:SwayDrop",
        "label": "__gap",
        "offset": 0,
        "slot": "51",
        "type": "t_array(t_uint256)50_storage"
      },
      {
        "astId": 3003,
        "contract": "src/drop/SwayDrop.sol:SwayDrop",
        "label": "__gap",
        "offset": 0,
        "slot": "101",
        "type": "t_array(t_uint256)50_storage"
      },
      {
        "astId": 1204,
        "contract": "src/drop/SwayDrop.sol:SwayDrop",
        "label": "_paused",
        "offset": 0,
        "slot": "151",
        "type": "t_bool"
      },
      {
        "astId": 1295,
        "contract": "src/drop/SwayDrop.sol:SwayDrop",
        "label": "__gap",
        "offset": 0,
        "slot": "152",
        "type": "t_array(t_uint256)49_storage"
      },
      {
        "astId": 12943,
        "contract": "src/drop/SwayDrop.sol:SwayDrop",
        "label": "name",
        "offset": 0,
        "slot": "201",
        "type": "t_string_storage"
      },
      {
        "astId": 12945,
        "contract": "src/drop/SwayDrop.sol:SwayDrop",
        "label": "swayAddr",
        "offset": 0,
        "slot": "202",
        "type": "t_address"
      },
      {
        "astId": 12951,
        "contract": "src/drop/SwayDrop.sol:SwayDrop",
        "label": "claimed",
        "offset": 0,
        "slot": "203",
        "type": "t_mapping(t_uint256,t_mapping(t_address,t_bool))"
      },
      {
        "astId": 12955,
        "contract": "src/drop/SwayDrop.sol:SwayDrop",
        "label": "rootHash",
        "offset": 0,
        "slot": "204",
        "type": "t_mapping(t_uint256,t_bytes32)"
      },
      {
        "astId": 13258,
        "contract": "src/drop/SwayDrop.sol:SwayDrop",
        "label": "__gap",
        "offset": 0,
        "slot": "205",
        "type": "t_array(t_uint256)50_storage"
      }
    ],
    "types": {
      "t_address": {
        "encoding": "inplace",
        "label": "address",
        "numberOfBytes": "20"
      },
      "t_array(t_uint256)49_storage": {
        "base": "t_uint256",
        "encoding": "inplace",
        "label": "uint256[49]",
        "numberOfBytes": "1568"
      },
      "t_array(t_uint256)50_storage": {
        "base": "t_uint256",
        "encoding": "inplace",
        "label": "uint256[50]",
        "numberOfBytes": "1600"
      },
      "t_bool": {
        "encoding": "inplace",
        "label": "bool",
        "numberOfBytes": "1"
      },
      "t_bytes32": {
        "encoding": "inplace",
        "label": "bytes32",
        "numberOfBytes": "32"
      },
      "t_mapping(t_address,t_bool)": {
        "encoding": "mapping",
        "key": "t_address",
        "label": "mapping(address => bool)",
        "numberOfBytes": "32",
        "value": "t_bool"
      },
      "t_mapping(t_uint256,t_bytes32)": {
        "encoding": "mapping",
        "key": "t_uint256",
        "label": "mapping(uint256 => bytes32)",
        "numberOfBytes": "32",
        "value": "t_bytes32"
      },
      "t_mapping(t_uint256,t_mapping(t_address,t_bool))": {
        "encoding": "mapping",
        "key": "t_uint256",
        "label": "mapping(uint256 => mapping(address => bool))",
        "numberOfBytes": "32",
        "value": "t_mapping(t_address,t_bool)"
      },
      "t_string_storage": {
        "encoding": "bytes",
        "label": "string",
        "numberOfBytes": "32"
      },
      "t_uint256": {
        "encoding": "inplace",
        "label": "uint256",
        "numberOfBytes": "32"
      }
    }
  }
}