{
  "address": "0x9b14654ed7D777aAD039710D1c84E1b408D22B89",
  "abi": [
    {
      "anonymous": false,
      "inputs": [
        {
          "indexed": false,
          "internalType": "address",
          "name": "account",
          "type": "address"
        }
      ],
      "name": "Paused",
      "type": "event"
    },
    {
      "anonymous": false,
      "inputs": [
        {
          "indexed": true,
          "internalType": "bytes32",
          "name": "role",
          "type": "bytes32"
        },
        {
          "indexed": true,
          "internalType": "bytes32",
          "name": "previousAdminRole",
          "type": "bytes32"
        },
        {
          "indexed": true,
          "internalType": "bytes32",
          "name": "newAdminRole",
          "type": "bytes32"
        }
      ],
      "name": "RoleAdminChanged",
      "type": "event"
    },
    {
      "anonymous": false,
      "inputs": [
        {
          "indexed": true,
          "internalType": "bytes32",
          "name": "role",
          "type": "bytes32"
        },
        {
          "indexed": true,
          "internalType": "address",
          "name": "account",
          "type": "address"
        },
        {
          "indexed": true,
          "internalType": "address",
          "name": "sender",
          "type": "address"
        }
      ],
      "name": "RoleGranted",
      "type": "event"
    },
    {
      "anonymous": false,
      "inputs": [
        {
          "indexed": true,
          "internalType": "bytes32",
          "name": "role",
          "type": "bytes32"
        },
        {
          "indexed": true,
          "internalType": "address",
          "name": "account",
          "type": "address"
        },
        {
          "indexed": true,
          "internalType": "address",
          "name": "sender",
          "type": "address"
        }
      ],
      "name": "RoleRevoked",
      "type": "event"
    },
    {
      "anonymous": false,
      "inputs": [
        {
          "indexed": true,
          "internalType": "uint256",
          "name": "eventId",
          "type": "uint256"
        },
        {
          "indexed": true,
          "internalType": "address",
          "name": "to",
          "type": "address"
        }
      ],
      "name": "TokenClaimed",
      "type": "event"
    },
    {
      "anonymous": false,
      "inputs": [
        {
          "indexed": false,
          "internalType": "address",
          "name": "account",
          "type": "address"
        }
      ],
      "name": "Unpaused",
      "type": "event"
    },
    {
      "inputs": [],
      "name": "DEFAULT_ADMIN_ROLE",
      "outputs": [
        {
          "internalType": "bytes32",
          "name": "",
          "type": "bytes32"
        }
      ],
      "stateMutability": "view",
      "type": "function"
    },
    {
      "inputs": [],
      "name": "GOVERNOR_ROLE",
      "outputs": [
        {
          "internalType": "bytes32",
          "name": "",
          "type": "bytes32"
        }
      ],
      "stateMutability": "view",
      "type": "function"
    },
    {
      "inputs": [
        {
          "internalType": "uint256",
          "name": "_eventId",
          "type": "uint256"
        },
        {
          "internalType": "bytes32",
          "name": "_roothash",
          "type": "bytes32"
        }
      ],
      "name": "addEvent",
      "outputs": [],
      "stateMutability": "nonpayable",
      "type": "function"
    },
    {
      "inputs": [
        {
          "internalType": "uint256",
          "name": "_index",
          "type": "uint256"
        },
        {
          "internalType": "uint256",
          "name": "_eventId",
          "type": "uint256"
        },
        {
          "internalType": "address",
          "name": "_recipient",
          "type": "address"
        },
        {
          "internalType": "bytes32[]",
          "name": "proof",
          "type": "bytes32[]"
        }
      ],
      "name": "claim",
      "outputs": [],
      "stateMutability": "nonpayable",
      "type": "function"
    },
    {
      "inputs": [
        {
          "internalType": "uint256",
          "name": "",
          "type": "uint256"
        },
        {
          "internalType": "address",
          "name": "",
          "type": "address"
        }
      ],
      "name": "claimed",
      "outputs": [
        {
          "internalType": "bool",
          "name": "",
          "type": "bool"
        }
      ],
      "stateMutability": "view",
      "type": "function"
    },
    {
      "inputs": [
        {
          "internalType": "bytes32",
          "name": "role",
          "type": "bytes32"
        }
      ],
      "name": "getRoleAdmin",
      "outputs": [
        {
          "internalType": "bytes32",
          "name": "",
          "type": "bytes32"
        }
      ],
      "stateMutability": "view",
      "type": "function"
    },
    {
      "inputs": [
        {
          "internalType": "bytes32",
          "name": "role",
          "type": "bytes32"
        },
        {
          "internalType": "uint256",
          "name": "index",
          "type": "uint256"
        }
      ],
      "name": "getRoleMember",
      "outputs": [
        {
          "internalType": "address",
          "name": "",
          "type": "address"
        }
      ],
      "stateMutability": "view",
      "type": "function"
    },
    {
      "inputs": [
        {
          "internalType": "bytes32",
          "name": "role",
          "type": "bytes32"
        }
      ],
      "name": "getRoleMemberCount",
      "outputs": [
        {
          "internalType": "uint256",
          "name": "",
          "type": "uint256"
        }
      ],
      "stateMutability": "view",
      "type": "function"
    },
    {
      "inputs": [
        {
          "internalType": "bytes32",
          "name": "role",
          "type": "bytes32"
        },
        {
          "internalType": "address",
          "name": "account",
          "type": "address"
        }
      ],
      "name": "grantRole",
      "outputs": [],
      "stateMutability": "nonpayable",
      "type": "function"
    },
    {
      "inputs": [
        {
          "internalType": "bytes32",
          "name": "role",
          "type": "bytes32"
        },
        {
          "internalType": "address",
          "name": "account",
          "type": "address"
        }
      ],
      "name": "hasRole",
      "outputs": [
        {
          "internalType": "bool",
          "name": "",
          "type": "bool"
        }
      ],
      "stateMutability": "view",
      "type": "function"
    },
    {
      "inputs": [
        {
          "internalType": "string",
          "name": "_name",
          "type": "string"
        },
        {
          "internalType": "address",
          "name": "_sway",
          "type": "address"
        },
        {
          "internalType": "address",
          "name": "_governor",
          "type": "address"
        }
      ],
      "name": "initialize",
      "outputs": [],
      "stateMutability": "nonpayable",
      "type": "function"
    },
    {
      "inputs": [
        {
          "internalType": "uint256",
          "name": "eventId",
          "type": "uint256"
        }
      ],
      "name": "isEventAdded",
      "outputs": [
        {
          "internalType": "bool",
          "name": "",
          "type": "bool"
        }
      ],
      "stateMutability": "view",
      "type": "function"
    },
    {
      "inputs": [],
      "name": "name",
      "outputs": [
        {
          "internalType": "string",
          "name": "",
          "type": "string"
        }
      ],
      "stateMutability": "view",
      "type": "function"
    },
    {
      "inputs": [],
      "name": "paused",
      "outputs": [
        {
          "internalType": "bool",
          "name": "",
          "type": "bool"
        }
      ],
      "stateMutability": "view",
      "type": "function"
    },
    {
      "inputs": [
        {
          "internalType": "bytes32",
          "name": "role",
          "type": "bytes32"
        },
        {
          "internalType": "address",
          "name": "account",
          "type": "address"
        }
      ],
      "name": "renounceRole",
      "outputs": [],
      "stateMutability": "nonpayable",
      "type": "function"
    },
    {
      "inputs": [
        {
          "internalType": "bytes32",
          "name": "role",
          "type": "bytes32"
        },
        {
          "internalType": "address",
          "name": "account",
          "type": "address"
        }
      ],
      "name": "revokeRole",
      "outputs": [],
      "stateMutability": "nonpayable",
      "type": "function"
    },
    {
      "inputs": [
        {
          "internalType": "uint256",
          "name": "",
          "type": "uint256"
        }
      ],
      "name": "rootHash",
      "outputs": [
        {
          "internalType": "bytes32",
          "name": "",
          "type": "bytes32"
        }
      ],
      "stateMutability": "view",
      "type": "function"
    },
    {
      "inputs": [
        {
          "internalType": "address",
          "name": "_sway",
          "type": "address"
        }
      ],
      "name": "setSway",
      "outputs": [],
      "stateMutability": "nonpayable",
      "type": "function"
    },
    {
      "inputs": [
        {
          "internalType": "bytes4",
          "name": "interfaceId",
          "type": "bytes4"
        }
      ],
      "name": "supportsInterface",
      "outputs": [
        {
          "internalType": "bool",
          "name": "",
          "type": "bool"
        }
      ],
      "stateMutability": "view",
      "type": "function"
    },
    {
      "inputs": [],
      "name": "sway",
      "outputs": [
        {
          "internalType": "address",
          "name": "",
          "type": "address"
        }
      ],
      "stateMutability": "view",
      "type": "function"
    },
    {
      "inputs": [
        {
          "internalType": "uint256",
          "name": "_eventId",
          "type": "uint256"
        },
        {
          "internalType": "bytes32",
          "name": "_roothash",
          "type": "bytes32"
        }
      ],
      "name": "updateEvent",
      "outputs": [],
      "stateMutability": "nonpayable",
      "type": "function"
    }
  ],
  "transactionHash": "0x84938aefcd86acced97546d1bafc1552db20f8aa53021f60fbd77f9dd308c37f",
  "args": [],
  "numDeployments": 1,
  "solcInputHash": "2d554deb4d95906ff7db4f3811fbde8e",
  "bytecode": "0x608060405234801561001057600080fd5b5061171f806100206000396000f3fe608060405234801561001057600080fd5b50600436106101375760003560e01c8063697fa4c9116100b8578063b9035d7e1161007c578063b9035d7e146102bd578063bce9e089146102df578063c3779fac146102f2578063ca15c87314610305578063ccc5749014610318578063d547741f1461032d57600080fd5b8063697fa4c9146102445780637468b3da146102645780639010d07c1461028f57806391d14854146102a2578063a217fddf146102b557600080fd5b80632f2ff15d116100ff5780632f2ff15d146101ed57806336568abe14610200578063463fd1af1461021357806355e74ad6146102265780635c975abb1461023957600080fd5b806301ffc9a71461013c57806306fdde0314610164578063120aa877146101795780631b86d812146101a7578063248a9ca3146101bc575b600080fd5b61014f61014a3660046112db565b610340565b60405190151581526020015b60405180910390f35b61016c61036b565b60405161015b9190611507565b61014f6101873660046113b4565b60fd60209081526000928352604080842090915290825290205460ff1681565b6101ba6101b536600461123d565b6103f9565b005b6101df6101ca366004611277565b60009081526097602052604090206001015490565b60405190815260200161015b565b6101ba6101fb36600461128f565b610435565b6101ba61020e36600461128f565b610460565b6101ba610221366004611303565b6104e3565b6101ba6102343660046112ba565b61063e565b60335460ff1661014f565b6101df610252366004611277565b60fe6020526000908152604090205481565b60fc54610277906001600160a01b031681565b6040516001600160a01b03909116815260200161015b565b61027761029d3660046112ba565b61066a565b61014f6102b036600461128f565b610689565b6101df600081565b61014f6102cb366004611277565b600090815260fe6020526040902054151590565b6101ba6102ed3660046113c6565b6106b4565b6101ba6103003660046112ba565b61098a565b6101df610313366004611277565b610a25565b6101df6000805160206116ca83398151915281565b6101ba61033b36600461128f565b610a3c565b60006001600160e01b03198216635a05180f60e01b1480610365575061036582610a62565b92915050565b60fb805461037890611647565b80601f01602080910402602001604051908101604052809291908181526020018280546103a490611647565b80156103f15780601f106103c6576101008083540402835291602001916103f1565b820191906000526020600020905b8154815290600101906020018083116103d457829003601f168201915b505050505081565b6000805160206116ca8339815191526104128133610a97565b5060fc80546001600160a01b0319166001600160a01b0392909216919091179055565b6000828152609760205260409020600101546104518133610a97565b61045b8383610afb565b505050565b6001600160a01b03811633146104d55760405162461bcd60e51b815260206004820152602f60248201527f416363657373436f6e74726f6c3a2063616e206f6e6c792072656e6f756e636560448201526e103937b632b9903337b91039b2b63360891b60648201526084015b60405180910390fd5b6104df8282610b1d565b5050565b600054610100900460ff166104fe5760005460ff1615610502565b303b155b6105655760405162461bcd60e51b815260206004820152602e60248201527f496e697469616c697a61626c653a20636f6e747261637420697320616c72656160448201526d191e481a5b9a5d1a585b1a5e995960921b60648201526084016104cc565b600054610100900460ff16158015610587576000805461ffff19166101011790555b835161059a9060fb906020870190611188565b5060fc80546001600160a01b0319166001600160a01b0385161790556105be610b3f565b6105c6610b3f565b6105ce610b3f565b6105d6610b3f565b6105de610b68565b6105f66000805160206116ca83398151915280610b9b565b61060e6000805160206116ca83398151915284610be6565b6106266000805160206116ca83398151915283610be6565b8015610638576000805461ff00191690555b50505050565b6000805160206116ca8339815191526106578133610a97565b50600091825260fe602052604090912055565b600082815260c9602052604081206106829083610bf0565b9392505050565b60009182526097602090815260408084206001600160a01b0393909316845291905290205460ff1690565b600083815260fe602052604090205461071a5760405162461bcd60e51b815260206004820152602260248201527f5377617944726f703a206576656e74206e6f7420616464656420666f7220647260448201526106f760f41b60648201526084016104cc565b600083815260fd602090815260408083206001600160a01b038616845290915290205460ff161561079c5760405162461bcd60e51b815260206004820152602660248201527f5377617944726f703a20726563697069656e7420616c72656164792070726f6360448201526565737365642160d01b60648201526084016104cc565b604080516020808201879052818301869052606085811b6bffffffffffffffffffffffff1916908301528251808303605401815260749092019092528051910120600090600085815260fe60205260409020549091506107fe90839083610bfc565b61085a5760405162461bcd60e51b815260206004820152602760248201527f5377617944726f703a20726563697069656e74206e6f7420696e206d65726b6c6044820152666520747265652160c81b60648201526084016104cc565b600084815260fd602090815260408083206001600160a01b0387168085529252808320805460ff1916600117905551909186917f8b224b108d8f9c6d554b41182503c3f8b79dfcf17233a9366d50c386c28af8509190a360fc5460405163a140ae2360e01b8152600481018690526001600160a01b0385811660248301529091169063a140ae2390604401602060405180830381600087803b1580156108ff57600080fd5b505af1158015610913573d6000803e3d6000fd5b505050506040513d601f19601f820116820180604052508101906109379190611257565b6109835760405162461bcd60e51b815260206004820152601d60248201527f5377617944726f703a20636f756c64206e6f74206d696e74205357415900000060448201526064016104cc565b5050505050565b6000805160206116ca8339815191526109a38133610a97565b600083815260fe6020526040902054156106575760405162461bcd60e51b815260206004820152603d60248201527f5377617944726f703a3a6164644576656e743a204d65726b6c6520526f6f742060448201527f616c72656164792070726573656e7420666f7220746865206576656e7400000060648201526084016104cc565b600081815260c96020526040812061036590610c11565b600082815260976020526040902060010154610a588133610a97565b61045b8383610b1d565b60006001600160e01b03198216637965db0b60e01b148061036557506301ffc9a760e01b6001600160e01b0319831614610365565b610aa18282610689565b6104df57610ab9816001600160a01b03166014610c1b565b610ac4836020610c1b565b604051602001610ad5929190611492565b60408051601f198184030181529082905262461bcd60e51b82526104cc91600401611507565b610b058282610dfd565b600082815260c96020526040902061045b9082610e83565b610b278282610e98565b600082815260c96020526040902061045b9082610eff565b600054610100900460ff16610b665760405162461bcd60e51b81526004016104cc9061153a565b565b600054610100900460ff16610b8f5760405162461bcd60e51b81526004016104cc9061153a565b6033805460ff19169055565b600082815260976020526040808220600101805490849055905190918391839186917fbd79b86ffe0ab8e8776151514217cd7cacd52c909f66475c3af44e129f0b00ff9190a4505050565b6104df8282610afb565b60006106828383610f14565b6000610c09848484610f4c565b949350505050565b6000610365825490565b60606000610c2a8360026115ce565b610c359060026115b6565b67ffffffffffffffff811115610c5b57634e487b7160e01b600052604160045260246000fd5b6040519080825280601f01601f191660200182016040528015610c85576020820181803683370190505b509050600360fc1b81600081518110610cae57634e487b7160e01b600052603260045260246000fd5b60200101906001600160f81b031916908160001a905350600f60fb1b81600181518110610ceb57634e487b7160e01b600052603260045260246000fd5b60200101906001600160f81b031916908160001a9053506000610d0f8460026115ce565b610d1a9060016115b6565b90505b6001811115610dae576f181899199a1a9b1b9c1cb0b131b232b360811b85600f1660108110610d5c57634e487b7160e01b600052603260045260246000fd5b1a60f81b828281518110610d8057634e487b7160e01b600052603260045260246000fd5b60200101906001600160f81b031916908160001a90535060049490941c93610da781611630565b9050610d1d565b5083156106825760405162461bcd60e51b815260206004820181905260248201527f537472696e67733a20686578206c656e67746820696e73756666696369656e7460448201526064016104cc565b610e078282610689565b6104df5760008281526097602090815260408083206001600160a01b03851684529091529020805460ff19166001179055610e3f3390565b6001600160a01b0316816001600160a01b0316837f2f8788117e7eff1d82e926ec794901d17c78024a50270940304540a733656f0d60405160405180910390a45050565b6000610682836001600160a01b038416610f62565b610ea28282610689565b156104df5760008281526097602090815260408083206001600160a01b0385168085529252808320805460ff1916905551339285917ff6391f5c32d9c69d2a47ea670b442974b53935d1edc7fd64eb21e047a839171b9190a45050565b6000610682836001600160a01b038416610fb1565b6000826000018281548110610f3957634e487b7160e01b600052603260045260246000fd5b9060005260206000200154905092915050565b600082610f5985846110ce565b14949350505050565b6000818152600183016020526040812054610fa957508154600181810184556000848152602080822090930184905584548482528286019093526040902091909155610365565b506000610365565b600081815260018301602052604081205480156110c4576000610fd56001836115ed565b8554909150600090610fe9906001906115ed565b905081811461106a57600086600001828154811061101757634e487b7160e01b600052603260045260246000fd5b906000526020600020015490508087600001848154811061104857634e487b7160e01b600052603260045260246000fd5b6000918252602080832090910192909255918252600188019052604090208390555b855486908061108957634e487b7160e01b600052603160045260246000fd5b600190038181906000526020600020016000905590558560010160008681526020019081526020016000206000905560019350505050610365565b6000915050610365565b600081815b84518110156111805760008582815181106110fe57634e487b7160e01b600052603260045260246000fd5b6020026020010151905080831161114057604080516020810185905290810182905260600160405160208183030381529060405280519060200120925061116d565b60408051602081018390529081018490526060016040516020818303038152906040528051906020012092505b508061117881611682565b9150506110d3565b509392505050565b82805461119490611647565b90600052602060002090601f0160209004810192826111b657600085556111fc565b82601f106111cf57805160ff19168380011785556111fc565b828001600101855582156111fc579182015b828111156111fc5782518255916020019190600101906111e1565b5061120892915061120c565b5090565b5b80821115611208576000815560010161120d565b80356001600160a01b038116811461123857600080fd5b919050565b60006020828403121561124e578081fd5b61068282611221565b600060208284031215611268578081fd5b81518015158114610682578182fd5b600060208284031215611288578081fd5b5035919050565b600080604083850312156112a1578081fd5b823591506112b160208401611221565b90509250929050565b600080604083850312156112cc578182fd5b50508035926020909101359150565b6000602082840312156112ec578081fd5b81356001600160e01b031981168114610682578182fd5b600080600060608486031215611317578081fd5b833567ffffffffffffffff8082111561132e578283fd5b818601915086601f830112611341578283fd5b8135602082821115611355576113556116b3565b611367601f8301601f19168201611585565b9250818352888183860101111561137c578485fd5b818185018285013784818385010152829650611399818901611221565b9550505050506113ab60408501611221565b90509250925092565b600080604083850312156112a1578182fd5b600080600080608085870312156113db578081fd5b8435935060208086013593506113f360408701611221565b9250606086013567ffffffffffffffff8082111561140f578384fd5b818801915088601f830112611422578384fd5b813581811115611434576114346116b3565b8060051b9150611445848301611585565b8181528481019084860184860187018d101561145f578788fd5b8795505b83861015611481578035835260019590950194918601918601611463565b50989b979a50959850505050505050565b7f416363657373436f6e74726f6c3a206163636f756e74200000000000000000008152600083516114ca816017850160208801611604565b7001034b99036b4b9b9b4b733903937b6329607d1b60179184019182015283516114fb816028840160208801611604565b01602801949350505050565b6020815260008251806020840152611526816040850160208701611604565b601f01601f19169190910160400192915050565b6020808252602b908201527f496e697469616c697a61626c653a20636f6e7472616374206973206e6f74206960408201526a6e697469616c697a696e6760a81b606082015260800190565b604051601f8201601f1916810167ffffffffffffffff811182821017156115ae576115ae6116b3565b604052919050565b600082198211156115c9576115c961169d565b500190565b60008160001904831182151516156115e8576115e861169d565b500290565b6000828210156115ff576115ff61169d565b500390565b60005b8381101561161f578181015183820152602001611607565b838111156106385750506000910152565b60008161163f5761163f61169d565b506000190190565b600181811c9082168061165b57607f821691505b6020821081141561167c57634e487b7160e01b600052602260045260246000fd5b50919050565b60006000198214156116965761169661169d565b5060010190565b634e487b7160e01b600052601160045260246000fd5b634e487b7160e01b600052604160045260246000fdfe7935bd0ae54bc31f548c14dba4d37c5c64b3f8ca900cb468fb8abd54d5894f55a26469706673582212207e6e433319b23ddea846047e06232e51e1a8c001d59a8c33a533788e896dc27864736f6c63430008040033",
  "devdoc": {
    "kind": "dev",
    "methods": {
      "getRoleAdmin(bytes32)": {
        "details": "Returns the admin role that controls `role`. See {grantRole} and {revokeRole}. To change a role's admin, use {_setRoleAdmin}."
      },
      "getRoleMember(bytes32,uint256)": {
        "details": "Returns one of the accounts that have `role`. `index` must be a value between 0 and {getRoleMemberCount}, non-inclusive. Role bearers are not sorted in any particular way, and their ordering may change at any point. WARNING: When using {getRoleMember} and {getRoleMemberCount}, make sure you perform all queries on the same block. See the following https://forum.openzeppelin.com/t/iterating-over-elements-on-enumerableset-in-openzeppelin-contracts/2296[forum post] for more information."
      },
      "getRoleMemberCount(bytes32)": {
        "details": "Returns the number of accounts that have `role`. Can be used together with {getRoleMember} to enumerate all bearers of a role."
      },
      "grantRole(bytes32,address)": {
        "details": "Grants `role` to `account`. If `account` had not been already granted `role`, emits a {RoleGranted} event. Requirements: - the caller must have ``role``'s admin role."
      },
      "hasRole(bytes32,address)": {
        "details": "Returns `true` if `account` has been granted `role`."
      },
      "paused()": {
        "details": "Returns true if the contract is paused, and false otherwise."
      },
      "renounceRole(bytes32,address)": {
        "details": "Revokes `role` from the calling account. Roles are often managed via {grantRole} and {revokeRole}: this function's purpose is to provide a mechanism for accounts to lose their privileges if they are compromised (such as when a trusted device is misplaced). If the calling account had been revoked `role`, emits a {RoleRevoked} event. Requirements: - the caller must be `account`."
      },
      "revokeRole(bytes32,address)": {
        "details": "Revokes `role` from `account`. If `account` had been granted `role`, emits a {RoleRevoked} event. Requirements: - the caller must have ``role``'s admin role."
      },
      "supportsInterface(bytes4)": {
        "details": "See {IERC165-supportsInterface}."
      }
    },
    "version": 1
  },
  "userdoc": {
    "kind": "user",
    "methods": {},
    "version": 1
  },
  "storageLayout": {
    "storage": [
      {
        "astId": 723,
        "contract": "src/drop/SwayDrop.sol:SwayDrop",
        "label": "_initialized",
        "offset": 0,
        "slot": "0",
        "type": "t_bool"
      },
      {
        "astId": 726,
        "contract": "src/drop/SwayDrop.sol:SwayDrop",
        "label": "_initializing",
        "offset": 1,
        "slot": "0",
        "type": "t_bool"
      },
      {
        "astId": 2610,
        "contract": "src/drop/SwayDrop.sol:SwayDrop",
        "label": "__gap",
        "offset": 0,
        "slot": "1",
        "type": "t_array(t_uint256)50_storage"
      },
      {
        "astId": 811,
        "contract": "src/drop/SwayDrop.sol:SwayDrop",
        "label": "_paused",
        "offset": 0,
        "slot": "51",
        "type": "t_bool"
      },
      {
        "astId": 902,
        "contract": "src/drop/SwayDrop.sol:SwayDrop",
        "label": "__gap",
        "offset": 0,
        "slot": "52",
        "type": "t_array(t_uint256)49_storage"
      },
      {
        "astId": 2947,
        "contract": "src/drop/SwayDrop.sol:SwayDrop",
        "label": "__gap",
        "offset": 0,
        "slot": "101",
        "type": "t_array(t_uint256)50_storage"
      },
      {
        "astId": 204,
        "contract": "src/drop/SwayDrop.sol:SwayDrop",
        "label": "_roles",
        "offset": 0,
        "slot": "151",
        "type": "t_mapping(t_bytes32,t_struct(RoleData)199_storage)"
      },
      {
        "astId": 491,
        "contract": "src/drop/SwayDrop.sol:SwayDrop",
        "label": "__gap",
        "offset": 0,
        "slot": "152",
        "type": "t_array(t_uint256)49_storage"
      },
      {
        "astId": 45,
        "contract": "src/drop/SwayDrop.sol:SwayDrop",
        "label": "_roleMembers",
        "offset": 0,
        "slot": "201",
        "type": "t_mapping(t_bytes32,t_struct(AddressSet)3272_storage)"
      },
      {
        "astId": 154,
        "contract": "src/drop/SwayDrop.sol:SwayDrop",
        "label": "__gap",
        "offset": 0,
        "slot": "202",
        "type": "t_array(t_uint256)49_storage"
      },
      {
        "astId": 4408,
        "contract": "src/drop/SwayDrop.sol:SwayDrop",
        "label": "name",
        "offset": 0,
        "slot": "251",
        "type": "t_string_storage"
      },
      {
        "astId": 4410,
        "contract": "src/drop/SwayDrop.sol:SwayDrop",
        "label": "sway",
        "offset": 0,
        "slot": "252",
        "type": "t_address"
      },
      {
        "astId": 4416,
        "contract": "src/drop/SwayDrop.sol:SwayDrop",
        "label": "claimed",
        "offset": 0,
        "slot": "253",
        "type": "t_mapping(t_uint256,t_mapping(t_address,t_bool))"
      },
      {
        "astId": 4420,
        "contract": "src/drop/SwayDrop.sol:SwayDrop",
        "label": "rootHash",
        "offset": 0,
        "slot": "254",
        "type": "t_mapping(t_uint256,t_bytes32)"
      }
    ],
    "types": {
      "t_address": {
        "encoding": "inplace",
        "label": "address",
        "numberOfBytes": "20"
      },
      "t_array(t_bytes32)dyn_storage": {
        "base": "t_bytes32",
        "encoding": "dynamic_array",
        "label": "bytes32[]",
        "numberOfBytes": "32"
      },
      "t_array(t_uint256)49_storage": {
        "base": "t_uint256",
        "encoding": "inplace",
        "label": "uint256[49]",
        "numberOfBytes": "1568"
      },
      "t_array(t_uint256)50_storage": {
        "base": "t_uint256",
        "encoding": "inplace",
        "label": "uint256[50]",
        "numberOfBytes": "1600"
      },
      "t_bool": {
        "encoding": "inplace",
        "label": "bool",
        "numberOfBytes": "1"
      },
      "t_bytes32": {
        "encoding": "inplace",
        "label": "bytes32",
        "numberOfBytes": "32"
      },
      "t_mapping(t_address,t_bool)": {
        "encoding": "mapping",
        "key": "t_address",
        "label": "mapping(address => bool)",
        "numberOfBytes": "32",
        "value": "t_bool"
      },
      "t_mapping(t_bytes32,t_struct(AddressSet)3272_storage)": {
        "encoding": "mapping",
        "key": "t_bytes32",
        "label": "mapping(bytes32 => struct EnumerableSetUpgradeable.AddressSet)",
        "numberOfBytes": "32",
        "value": "t_struct(AddressSet)3272_storage"
      },
      "t_mapping(t_bytes32,t_struct(RoleData)199_storage)": {
        "encoding": "mapping",
        "key": "t_bytes32",
        "label": "mapping(bytes32 => struct AccessControlUpgradeable.RoleData)",
        "numberOfBytes": "32",
        "value": "t_struct(RoleData)199_storage"
      },
      "t_mapping(t_bytes32,t_uint256)": {
        "encoding": "mapping",
        "key": "t_bytes32",
        "label": "mapping(bytes32 => uint256)",
        "numberOfBytes": "32",
        "value": "t_uint256"
      },
      "t_mapping(t_uint256,t_bytes32)": {
        "encoding": "mapping",
        "key": "t_uint256",
        "label": "mapping(uint256 => bytes32)",
        "numberOfBytes": "32",
        "value": "t_bytes32"
      },
      "t_mapping(t_uint256,t_mapping(t_address,t_bool))": {
        "encoding": "mapping",
        "key": "t_uint256",
        "label": "mapping(uint256 => mapping(address => bool))",
        "numberOfBytes": "32",
        "value": "t_mapping(t_address,t_bool)"
      },
      "t_string_storage": {
        "encoding": "bytes",
        "label": "string",
        "numberOfBytes": "32"
      },
      "t_struct(AddressSet)3272_storage": {
        "encoding": "inplace",
        "label": "struct EnumerableSetUpgradeable.AddressSet",
        "members": [
          {
            "astId": 3271,
            "contract": "src/drop/SwayDrop.sol:SwayDrop",
            "label": "_inner",
            "offset": 0,
            "slot": "0",
            "type": "t_struct(Set)2971_storage"
          }
        ],
        "numberOfBytes": "64"
      },
      "t_struct(RoleData)199_storage": {
        "encoding": "inplace",
        "label": "struct AccessControlUpgradeable.RoleData",
        "members": [
          {
            "astId": 196,
            "contract": "src/drop/SwayDrop.sol:SwayDrop",
            "label": "members",
            "offset": 0,
            "slot": "0",
            "type": "t_mapping(t_address,t_bool)"
          },
          {
            "astId": 198,
            "contract": "src/drop/SwayDrop.sol:SwayDrop",
            "label": "adminRole",
            "offset": 0,
            "slot": "1",
            "type": "t_bytes32"
          }
        ],
        "numberOfBytes": "64"
      },
      "t_struct(Set)2971_storage": {
        "encoding": "inplace",
        "label": "struct EnumerableSetUpgradeable.Set",
        "members": [
          {
            "astId": 2966,
            "contract": "src/drop/SwayDrop.sol:SwayDrop",
            "label": "_values",
            "offset": 0,
            "slot": "0",
            "type": "t_array(t_bytes32)dyn_storage"
          },
          {
            "astId": 2970,
            "contract": "src/drop/SwayDrop.sol:SwayDrop",
            "label": "_indexes",
            "offset": 0,
            "slot": "1",
            "type": "t_mapping(t_bytes32,t_uint256)"
          }
        ],
        "numberOfBytes": "64"
      },
      "t_uint256": {
        "encoding": "inplace",
        "label": "uint256",
        "numberOfBytes": "32"
      }
    }
  }
}