{
  "address": "0x2C05ddcCf7fa96Cf448f8AeFDF1952a5E4E683bd",
  "abi": [
    {
      "inputs": [],
      "stateMutability": "nonpayable",
      "type": "constructor"
    },
    {
      "anonymous": false,
      "inputs": [
        {
          "indexed": false,
          "internalType": "address",
          "name": "previousAdmin",
          "type": "address"
        },
        {
          "indexed": false,
          "internalType": "address",
          "name": "newAdmin",
          "type": "address"
        }
      ],
      "name": "AdminChanged",
      "type": "event"
    },
    {
      "anonymous": false,
      "inputs": [
        {
          "indexed": true,
          "internalType": "address",
          "name": "owner",
          "type": "address"
        },
        {
          "indexed": true,
          "internalType": "address",
          "name": "approved",
          "type": "address"
        },
        {
          "indexed": true,
          "internalType": "uint256",
          "name": "tokenId",
          "type": "uint256"
        }
      ],
      "name": "Approval",
      "type": "event"
    },
    {
      "anonymous": false,
      "inputs": [
        {
          "indexed": true,
          "internalType": "address",
          "name": "owner",
          "type": "address"
        },
        {
          "indexed": true,
          "internalType": "address",
          "name": "operator",
          "type": "address"
        },
        {
          "indexed": false,
          "internalType": "bool",
          "name": "approved",
          "type": "bool"
        }
      ],
      "name": "ApprovalForAll",
      "type": "event"
    },
    {
      "anonymous": false,
      "inputs": [
        {
          "indexed": true,
          "internalType": "address",
          "name": "beacon",
          "type": "address"
        }
      ],
      "name": "BeaconUpgraded",
      "type": "event"
    },
    {
      "anonymous": false,
      "inputs": [
        {
          "indexed": true,
          "internalType": "uint256",
          "name": "eventId",
          "type": "uint256"
        },
        {
          "indexed": true,
          "internalType": "address",
          "name": "minter",
          "type": "address"
        },
        {
          "indexed": true,
          "internalType": "bytes32",
          "name": "role",
          "type": "bytes32"
        }
      ],
      "name": "EventAdded",
      "type": "event"
    },
    {
      "anonymous": false,
      "inputs": [
        {
          "indexed": true,
          "internalType": "uint256",
          "name": "eventId",
          "type": "uint256"
        },
        {
          "indexed": true,
          "internalType": "address",
          "name": "account",
          "type": "address"
        }
      ],
      "name": "EventMinterAdded",
      "type": "event"
    },
    {
      "anonymous": false,
      "inputs": [
        {
          "indexed": true,
          "internalType": "uint256",
          "name": "eventId",
          "type": "uint256"
        },
        {
          "indexed": true,
          "internalType": "address",
          "name": "account",
          "type": "address"
        }
      ],
      "name": "EventMinterRemoved",
      "type": "event"
    },
    {
      "anonymous": false,
      "inputs": [
        {
          "indexed": false,
          "internalType": "uint256",
          "name": "eventId",
          "type": "uint256"
        },
        {
          "indexed": false,
          "internalType": "uint256",
          "name": "tokenId",
          "type": "uint256"
        }
      ],
      "name": "EventToken",
      "type": "event"
    },
    {
      "anonymous": false,
      "inputs": [
        {
          "indexed": true,
          "internalType": "address",
          "name": "account",
          "type": "address"
        }
      ],
      "name": "GovernorAdded",
      "type": "event"
    },
    {
      "anonymous": false,
      "inputs": [
        {
          "indexed": true,
          "internalType": "address",
          "name": "account",
          "type": "address"
        }
      ],
      "name": "GovernorRemoved",
      "type": "event"
    },
    {
      "anonymous": false,
      "inputs": [
        {
          "indexed": false,
          "internalType": "address",
          "name": "account",
          "type": "address"
        }
      ],
      "name": "Paused",
      "type": "event"
    },
    {
      "anonymous": false,
      "inputs": [
        {
          "indexed": true,
          "internalType": "bytes32",
          "name": "role",
          "type": "bytes32"
        },
        {
          "indexed": true,
          "internalType": "bytes32",
          "name": "previousAdminRole",
          "type": "bytes32"
        },
        {
          "indexed": true,
          "internalType": "bytes32",
          "name": "newAdminRole",
          "type": "bytes32"
        }
      ],
      "name": "RoleAdminChanged",
      "type": "event"
    },
    {
      "anonymous": false,
      "inputs": [
        {
          "indexed": true,
          "internalType": "bytes32",
          "name": "role",
          "type": "bytes32"
        },
        {
          "indexed": true,
          "internalType": "address",
          "name": "account",
          "type": "address"
        },
        {
          "indexed": true,
          "internalType": "address",
          "name": "sender",
          "type": "address"
        }
      ],
      "name": "RoleGranted",
      "type": "event"
    },
    {
      "anonymous": false,
      "inputs": [
        {
          "indexed": true,
          "internalType": "bytes32",
          "name": "role",
          "type": "bytes32"
        },
        {
          "indexed": true,
          "internalType": "address",
          "name": "account",
          "type": "address"
        },
        {
          "indexed": true,
          "internalType": "address",
          "name": "sender",
          "type": "address"
        }
      ],
      "name": "RoleRevoked",
      "type": "event"
    },
    {
      "anonymous": false,
      "inputs": [
        {
          "indexed": true,
          "internalType": "address",
          "name": "from",
          "type": "address"
        },
        {
          "indexed": true,
          "internalType": "address",
          "name": "to",
          "type": "address"
        },
        {
          "indexed": true,
          "internalType": "uint256",
          "name": "tokenId",
          "type": "uint256"
        }
      ],
      "name": "Transfer",
      "type": "event"
    },
    {
      "anonymous": false,
      "inputs": [
        {
          "indexed": false,
          "internalType": "address",
          "name": "account",
          "type": "address"
        }
      ],
      "name": "Unpaused",
      "type": "event"
    },
    {
      "anonymous": false,
      "inputs": [
        {
          "indexed": true,
          "internalType": "address",
          "name": "implementation",
          "type": "address"
        }
      ],
      "name": "Upgraded",
      "type": "event"
    },
    {
      "inputs": [],
      "name": "DEFAULT_ADMIN_ROLE",
      "outputs": [
        {
          "internalType": "bytes32",
          "name": "",
          "type": "bytes32"
        }
      ],
      "stateMutability": "view",
      "type": "function"
    },
    {
      "inputs": [],
      "name": "GOVERNOR_ROLE",
      "outputs": [
        {
          "internalType": "bytes32",
          "name": "",
          "type": "bytes32"
        }
      ],
      "stateMutability": "view",
      "type": "function"
    },
    {
      "inputs": [
        {
          "internalType": "uint256",
          "name": "eventId",
          "type": "uint256"
        },
        {
          "internalType": "bytes32",
          "name": "rootHash",
          "type": "bytes32"
        },
        {
          "internalType": "contract ISwayDrop",
          "name": "drop",
          "type": "address"
        }
      ],
      "name": "addEventDrop",
      "outputs": [],
      "stateMutability": "nonpayable",
      "type": "function"
    },
    {
      "inputs": [
        {
          "internalType": "uint256",
          "name": "eventId",
          "type": "uint256"
        },
        {
          "internalType": "address",
          "name": "account",
          "type": "address"
        }
      ],
      "name": "addEventMinter",
      "outputs": [],
      "stateMutability": "nonpayable",
      "type": "function"
    },
    {
      "inputs": [
        {
          "internalType": "address",
          "name": "account",
          "type": "address"
        }
      ],
      "name": "addGovernor",
      "outputs": [],
      "stateMutability": "nonpayable",
      "type": "function"
    },
    {
      "inputs": [
        {
          "internalType": "address",
          "name": "to",
          "type": "address"
        },
        {
          "internalType": "uint256",
          "name": "tokenId",
          "type": "uint256"
        }
      ],
      "name": "approve",
      "outputs": [],
      "stateMutability": "nonpayable",
      "type": "function"
    },
    {
      "inputs": [
        {
          "internalType": "address",
          "name": "owner",
          "type": "address"
        }
      ],
      "name": "balanceOf",
      "outputs": [
        {
          "internalType": "uint256",
          "name": "",
          "type": "uint256"
        }
      ],
      "stateMutability": "view",
      "type": "function"
    },
    {
      "inputs": [
        {
          "internalType": "uint256",
          "name": "tokenId",
          "type": "uint256"
        }
      ],
      "name": "burn",
      "outputs": [],
      "stateMutability": "nonpayable",
      "type": "function"
    },
    {
      "inputs": [
        {
          "internalType": "address",
          "name": "minter",
          "type": "address"
        }
      ],
      "name": "createEvent",
      "outputs": [],
      "stateMutability": "nonpayable",
      "type": "function"
    },
    {
      "inputs": [
        {
          "internalType": "uint256",
          "name": "",
          "type": "uint256"
        }
      ],
      "name": "eventRoleMapping",
      "outputs": [
        {
          "internalType": "bytes32",
          "name": "",
          "type": "bytes32"
        }
      ],
      "stateMutability": "view",
      "type": "function"
    },
    {
      "inputs": [
        {
          "internalType": "uint256",
          "name": "tokenId",
          "type": "uint256"
        }
      ],
      "name": "getApproved",
      "outputs": [
        {
          "internalType": "address",
          "name": "",
          "type": "address"
        }
      ],
      "stateMutability": "view",
      "type": "function"
    },
    {
      "inputs": [
        {
          "internalType": "bytes32",
          "name": "role",
          "type": "bytes32"
        }
      ],
      "name": "getRoleAdmin",
      "outputs": [
        {
          "internalType": "bytes32",
          "name": "",
          "type": "bytes32"
        }
      ],
      "stateMutability": "view",
      "type": "function"
    },
    {
      "inputs": [
        {
          "internalType": "bytes32",
          "name": "role",
          "type": "bytes32"
        },
        {
          "internalType": "uint256",
          "name": "index",
          "type": "uint256"
        }
      ],
      "name": "getRoleMember",
      "outputs": [
        {
          "internalType": "address",
          "name": "",
          "type": "address"
        }
      ],
      "stateMutability": "view",
      "type": "function"
    },
    {
      "inputs": [
        {
          "internalType": "bytes32",
          "name": "role",
          "type": "bytes32"
        }
      ],
      "name": "getRoleMemberCount",
      "outputs": [
        {
          "internalType": "uint256",
          "name": "",
          "type": "uint256"
        }
      ],
      "stateMutability": "view",
      "type": "function"
    },
    {
      "inputs": [
        {
          "internalType": "bytes32",
          "name": "role",
          "type": "bytes32"
        },
        {
          "internalType": "address",
          "name": "account",
          "type": "address"
        }
      ],
      "name": "grantRole",
      "outputs": [],
      "stateMutability": "nonpayable",
      "type": "function"
    },
    {
      "inputs": [
        {
          "internalType": "bytes32",
          "name": "role",
          "type": "bytes32"
        },
        {
          "internalType": "address",
          "name": "account",
          "type": "address"
        }
      ],
      "name": "hasRole",
      "outputs": [
        {
          "internalType": "bool",
          "name": "",
          "type": "bool"
        }
      ],
      "stateMutability": "view",
      "type": "function"
    },
    {
      "inputs": [
        {
          "internalType": "string",
          "name": "__name",
          "type": "string"
        },
        {
          "internalType": "string",
          "name": "__symbol",
          "type": "string"
        },
        {
          "internalType": "string",
          "name": "__baseURI",
          "type": "string"
        },
        {
          "internalType": "string",
          "name": "__baseURIExtension",
          "type": "string"
        },
        {
          "internalType": "address",
          "name": "governor",
          "type": "address"
        }
      ],
      "name": "initialize",
      "outputs": [],
      "stateMutability": "nonpayable",
      "type": "function"
    },
    {
      "inputs": [
        {
          "internalType": "address",
          "name": "owner",
          "type": "address"
        },
        {
          "internalType": "address",
          "name": "operator",
          "type": "address"
        }
      ],
      "name": "isApprovedForAll",
      "outputs": [
        {
          "internalType": "bool",
          "name": "",
          "type": "bool"
        }
      ],
      "stateMutability": "view",
      "type": "function"
    },
    {
      "inputs": [
        {
          "internalType": "uint256",
          "name": "eventId",
          "type": "uint256"
        },
        {
          "internalType": "address",
          "name": "_addr",
          "type": "address"
        }
      ],
      "name": "isEventMinter",
      "outputs": [
        {
          "internalType": "bool",
          "name": "",
          "type": "bool"
        }
      ],
      "stateMutability": "view",
      "type": "function"
    },
    {
      "inputs": [
        {
          "internalType": "address",
          "name": "_addr",
          "type": "address"
        }
      ],
      "name": "isGovernor",
      "outputs": [
        {
          "internalType": "bool",
          "name": "",
          "type": "bool"
        }
      ],
      "stateMutability": "view",
      "type": "function"
    },
    {
      "inputs": [],
      "name": "lastEventId",
      "outputs": [
        {
          "internalType": "uint256",
          "name": "",
          "type": "uint256"
        }
      ],
      "stateMutability": "view",
      "type": "function"
    },
    {
      "inputs": [
        {
          "internalType": "uint256",
          "name": "eventId",
          "type": "uint256"
        },
        {
          "internalType": "address",
          "name": "to",
          "type": "address"
        }
      ],
      "name": "mintToken",
      "outputs": [
        {
          "internalType": "bool",
          "name": "",
          "type": "bool"
        }
      ],
      "stateMutability": "nonpayable",
      "type": "function"
    },
    {
      "inputs": [
        {
          "internalType": "uint256",
          "name": "eventId",
          "type": "uint256"
        },
        {
          "internalType": "uint256",
          "name": "tokenId",
          "type": "uint256"
        },
        {
          "internalType": "address",
          "name": "to",
          "type": "address"
        }
      ],
      "name": "mintToken",
      "outputs": [
        {
          "internalType": "bool",
          "name": "",
          "type": "bool"
        }
      ],
      "stateMutability": "nonpayable",
      "type": "function"
    },
    {
      "inputs": [],
      "name": "name",
      "outputs": [
        {
          "internalType": "string",
          "name": "",
          "type": "string"
        }
      ],
      "stateMutability": "view",
      "type": "function"
    },
    {
      "inputs": [
        {
          "internalType": "uint256",
          "name": "tokenId",
          "type": "uint256"
        }
      ],
      "name": "ownerOf",
      "outputs": [
        {
          "internalType": "address",
          "name": "",
          "type": "address"
        }
      ],
      "stateMutability": "view",
      "type": "function"
    },
    {
      "inputs": [],
      "name": "pause",
      "outputs": [],
      "stateMutability": "nonpayable",
      "type": "function"
    },
    {
      "inputs": [],
      "name": "paused",
      "outputs": [
        {
          "internalType": "bool",
          "name": "",
          "type": "bool"
        }
      ],
      "stateMutability": "view",
      "type": "function"
    },
    {
      "inputs": [
        {
          "internalType": "uint256",
          "name": "eventId",
          "type": "uint256"
        },
        {
          "internalType": "address",
          "name": "account",
          "type": "address"
        }
      ],
      "name": "removeEventMinter",
      "outputs": [],
      "stateMutability": "nonpayable",
      "type": "function"
    },
    {
      "inputs": [
        {
          "internalType": "address",
          "name": "account",
          "type": "address"
        }
      ],
      "name": "removeGovernor",
      "outputs": [],
      "stateMutability": "nonpayable",
      "type": "function"
    },
    {
      "inputs": [
        {
          "internalType": "bytes32",
          "name": "role",
          "type": "bytes32"
        },
        {
          "internalType": "address",
          "name": "account",
          "type": "address"
        }
      ],
      "name": "renounceRole",
      "outputs": [],
      "stateMutability": "nonpayable",
      "type": "function"
    },
    {
      "inputs": [
        {
          "internalType": "bytes32",
          "name": "role",
          "type": "bytes32"
        },
        {
          "internalType": "address",
          "name": "account",
          "type": "address"
        }
      ],
      "name": "revokeRole",
      "outputs": [],
      "stateMutability": "nonpayable",
      "type": "function"
    },
    {
      "inputs": [
        {
          "internalType": "address",
          "name": "from",
          "type": "address"
        },
        {
          "internalType": "address",
          "name": "to",
          "type": "address"
        },
        {
          "internalType": "uint256",
          "name": "tokenId",
          "type": "uint256"
        }
      ],
      "name": "safeTransferFrom",
      "outputs": [],
      "stateMutability": "nonpayable",
      "type": "function"
    },
    {
      "inputs": [
        {
          "internalType": "address",
          "name": "from",
          "type": "address"
        },
        {
          "internalType": "address",
          "name": "to",
          "type": "address"
        },
        {
          "internalType": "uint256",
          "name": "tokenId",
          "type": "uint256"
        },
        {
          "internalType": "bytes",
          "name": "_data",
          "type": "bytes"
        }
      ],
      "name": "safeTransferFrom",
      "outputs": [],
      "stateMutability": "nonpayable",
      "type": "function"
    },
    {
      "inputs": [
        {
          "internalType": "address",
          "name": "operator",
          "type": "address"
        },
        {
          "internalType": "bool",
          "name": "approved",
          "type": "bool"
        }
      ],
      "name": "setApprovalForAll",
      "outputs": [],
      "stateMutability": "nonpayable",
      "type": "function"
    },
    {
      "inputs": [
        {
          "internalType": "string",
          "name": "baseURI",
          "type": "string"
        }
      ],
      "name": "setBaseURI",
      "outputs": [],
      "stateMutability": "nonpayable",
      "type": "function"
    },
    {
      "inputs": [
        {
          "internalType": "string",
          "name": "baseURIExtension",
          "type": "string"
        }
      ],
      "name": "setBaseURIExtension",
      "outputs": [],
      "stateMutability": "nonpayable",
      "type": "function"
    },
    {
      "inputs": [
        {
          "internalType": "bytes4",
          "name": "interfaceId",
          "type": "bytes4"
        }
      ],
      "name": "supportsInterface",
      "outputs": [
        {
          "internalType": "bool",
          "name": "",
          "type": "bool"
        }
      ],
      "stateMutability": "view",
      "type": "function"
    },
    {
      "inputs": [],
      "name": "symbol",
      "outputs": [
        {
          "internalType": "string",
          "name": "",
          "type": "string"
        }
      ],
      "stateMutability": "view",
      "type": "function"
    },
    {
      "inputs": [
        {
          "internalType": "uint256",
          "name": "index",
          "type": "uint256"
        }
      ],
      "name": "tokenByIndex",
      "outputs": [
        {
          "internalType": "uint256",
          "name": "",
          "type": "uint256"
        }
      ],
      "stateMutability": "view",
      "type": "function"
    },
    {
      "inputs": [
        {
          "internalType": "address",
          "name": "owner",
          "type": "address"
        },
        {
          "internalType": "uint256",
          "name": "index",
          "type": "uint256"
        }
      ],
      "name": "tokenDetailsOfOwnerByIndex",
      "outputs": [
        {
          "internalType": "uint256",
          "name": "tokenId",
          "type": "uint256"
        },
        {
          "internalType": "uint256",
          "name": "eventId",
          "type": "uint256"
        }
      ],
      "stateMutability": "view",
      "type": "function"
    },
    {
      "inputs": [
        {
          "internalType": "uint256",
          "name": "",
          "type": "uint256"
        }
      ],
      "name": "tokenEvent",
      "outputs": [
        {
          "internalType": "uint256",
          "name": "",
          "type": "uint256"
        }
      ],
      "stateMutability": "view",
      "type": "function"
    },
    {
      "inputs": [
        {
          "internalType": "address",
          "name": "owner",
          "type": "address"
        },
        {
          "internalType": "uint256",
          "name": "index",
          "type": "uint256"
        }
      ],
      "name": "tokenOfOwnerByIndex",
      "outputs": [
        {
          "internalType": "uint256",
          "name": "",
          "type": "uint256"
        }
      ],
      "stateMutability": "view",
      "type": "function"
    },
    {
      "inputs": [
        {
          "internalType": "uint256",
          "name": "tokenId",
          "type": "uint256"
        }
      ],
      "name": "tokenURI",
      "outputs": [
        {
          "internalType": "string",
          "name": "",
          "type": "string"
        }
      ],
      "stateMutability": "view",
      "type": "function"
    },
    {
      "inputs": [],
      "name": "totalSupply",
      "outputs": [
        {
          "internalType": "uint256",
          "name": "",
          "type": "uint256"
        }
      ],
      "stateMutability": "view",
      "type": "function"
    },
    {
      "inputs": [
        {
          "internalType": "address",
          "name": "from",
          "type": "address"
        },
        {
          "internalType": "address",
          "name": "to",
          "type": "address"
        },
        {
          "internalType": "uint256",
          "name": "tokenId",
          "type": "uint256"
        }
      ],
      "name": "transferFrom",
      "outputs": [],
      "stateMutability": "nonpayable",
      "type": "function"
    },
    {
      "inputs": [],
      "name": "unpause",
      "outputs": [],
      "stateMutability": "nonpayable",
      "type": "function"
    },
    {
      "inputs": [
        {
          "internalType": "address",
          "name": "newImplementation",
          "type": "address"
        }
      ],
      "name": "upgradeTo",
      "outputs": [],
      "stateMutability": "nonpayable",
      "type": "function"
    },
    {
      "inputs": [
        {
          "internalType": "address",
          "name": "newImplementation",
          "type": "address"
        },
        {
          "internalType": "bytes",
          "name": "data",
          "type": "bytes"
        }
      ],
      "name": "upgradeToAndCall",
      "outputs": [],
      "stateMutability": "payable",
      "type": "function"
    }
  ],
  "numDeployments": 1,
  "solcInputHash": "4c74ea714eedde4df6a2f3acc6555593",
  "bytecode": "0x60a06040523060601b6080523480156200001857600080fd5b50600054610100900460ff16620000365760005460ff161562000040565b62000040620000e5565b620000a85760405162461bcd60e51b815260206004820152602e60248201527f496e697469616c697a61626c653a20636f6e747261637420697320616c72656160448201526d191e481a5b9a5d1a585b1a5e995960921b606482015260840160405180910390fd5b600054610100900460ff16158015620000cb576000805461ffff19166101011790555b8015620000de576000805461ff00191690555b5062000109565b6000620000fd306200010360201b620018131760201c565b15905090565b3b151590565b60805160601c613e786200013d60003960008181610df501528181610e350152818161104a015261108a0152613e786000f3fe6080604052600436106102935760003560e01c80635c975abb1161015a578063a22cb465116100c1578063d547741f1161007a578063d547741f14610807578063d890c8e214610827578063e43581b814610847578063e5458e2014610867578063e985e9c514610887578063eecdac88146108d057600080fd5b8063a22cb46514610737578063b2c50b1214610757578063b88d4fde14610785578063c87b56dd146107a5578063ca15c873146107c5578063ccc57490146107e557600080fd5b80639010d07c116101135780639010d07c1461068d57806391d14854146106ad57806395d89b41146106cd5780639cd3cad6146106e2578063a140ae2314610702578063a217fddf1461072257600080fd5b80635c975abb146105ca5780636352211e146105e357806367e971ce1461060357806370a0823114610638578063787b8d47146106585780638456cb591461067857600080fd5b80632f2ff15d116101fe57806342842e0e116101b757806342842e0e1461051757806342966c6814610537578063467de36c146105575780634f1ef286146105775780634f6ccce71461058a57806355f804b3146105aa57600080fd5b80632f2ff15d146104625780632f745c591461048257806336568abe146104a25780633659cfe6146104c25780633c4a25d0146104e25780633f4ba83a1461050257600080fd5b8063166c4b0511610250578063166c4b051461039c57806318160ddd146103bc57806323b872dd146103d1578063248a9ca3146103f157806328db38b4146104225780632e6400241461044257600080fd5b806301ffc9a714610298578063054e9507146102cd57806306fdde03146102f2578063081812fc14610314578063095ea7b31461034c578063127a52981461036e575b600080fd5b3480156102a457600080fd5b506102b86102b3366004613656565b6108f0565b60405190151581526020015b60405180910390f35b3480156102d957600080fd5b506102e46101c45481565b6040519081526020016102c4565b3480156102fe57600080fd5b50610307610910565b6040516102c49190613996565b34801561032057600080fd5b5061033461032f3660046135f9565b6109a2565b6040516001600160a01b0390911681526020016102c4565b34801561035857600080fd5b5061036c6103673660046135ce565b610a3c565b005b34801561037a57600080fd5b506102e46103893660046135f9565b6101fa6020526000908152604090205481565b3480156103a857600080fd5b5061036c6103b7366004613611565b610b52565b3480156103c857600080fd5b5060fd546102e4565b3480156103dd57600080fd5b5061036c6103ec3660046134a5565b610b85565b3480156103fd57600080fd5b506102e461040c3660046135f9565b600090815261012d602052604090206001015490565b34801561042e57600080fd5b506102b861043d366004613611565b610bb7565b34801561044e57600080fd5b5061036c61045d3660046136c1565b610be7565b34801561046e57600080fd5b5061036c61047d366004613611565b610cb3565b34801561048e57600080fd5b506102e461049d3660046135ce565b610cda565b3480156104ae57600080fd5b5061036c6104bd366004613611565b610d70565b3480156104ce57600080fd5b5061036c6104dd366004613451565b610dea565b3480156104ee57600080fd5b5061036c6104fd366004613451565b610eb3565b34801561050e57600080fd5b5061036c610ee1565b34801561052357600080fd5b5061036c6105323660046134a5565b610f5a565b34801561054357600080fd5b5061036c6105523660046135f9565b610f75565b34801561056357600080fd5b5061036c61057236600461368e565b610fe2565b61036c610585366004613580565b61103f565b34801561059657600080fd5b506102e46105a53660046135f9565b6110f5565b3480156105b657600080fd5b5061036c6105c536600461368e565b611196565b3480156105d657600080fd5b506101915460ff166102b8565b3480156105ef57600080fd5b506103346105fe3660046135f9565b6111f3565b34801561060f57600080fd5b5061062361061e3660046135ce565b61126a565b604080519283526020830191909152016102c4565b34801561064457600080fd5b506102e4610653366004613451565b611292565b34801561066457600080fd5b5061036c610673366004613451565b611319565b34801561068457600080fd5b5061036c611347565b34801561069957600080fd5b506103346106a8366004613635565b611398565b3480156106b957600080fd5b506102b86106c8366004613611565b6113b1565b3480156106d957600080fd5b506103076113dd565b3480156106ee57600080fd5b5061036c6106fd366004613611565b6113ec565b34801561070e57600080fd5b506102b861071d366004613611565b61141b565b34801561072e57600080fd5b506102e4600081565b34801561074357600080fd5b5061036c61075236600461354f565b61149f565b34801561076357600080fd5b506102e46107723660046135f9565b6101c36020526000908152604090205481565b34801561079157600080fd5b5061036c6107a03660046134e5565b6114aa565b3480156107b157600080fd5b506103076107c03660046135f9565b6114e2565b3480156107d157600080fd5b506102e46107e03660046135f9565b6115ae565b3480156107f157600080fd5b506102e4600080516020613dfc83398151915281565b34801561081357600080fd5b5061036c610822366004613611565b6115c6565b34801561083357600080fd5b506102b861084236600461377e565b6115ed565b34801561085357600080fd5b506102b8610862366004613451565b611654565b34801561087357600080fd5b5061036c61088236600461377e565b61166e565b34801561089357600080fd5b506102b86108a236600461346d565b6001600160a01b03918216600090815260ce6020908152604080832093909416825291909152205460ff1690565b3480156108dc57600080fd5b5061036c6108eb366004613451565b6117e5565b60006108fb82611819565b8061090a575061090a8261183e565b92915050565b606060c9805461091f90613d24565b80601f016020809104026020016040519081016040528092919081815260200182805461094b90613d24565b80156109985780601f1061096d57610100808354040283529160200191610998565b820191906000526020600020905b81548152906001019060200180831161097b57829003601f168201915b5050505050905090565b600081815260cb60205260408120546001600160a01b0316610a205760405162461bcd60e51b815260206004820152602c60248201527f4552433732313a20617070726f76656420717565727920666f72206e6f6e657860448201526b34b9ba32b73a103a37b5b2b760a11b60648201526084015b60405180910390fd5b50600090815260cd60205260409020546001600160a01b031690565b6000610a47826111f3565b9050806001600160a01b0316836001600160a01b03161415610ab55760405162461bcd60e51b815260206004820152602160248201527f4552433732313a20617070726f76616c20746f2063757272656e74206f776e656044820152603960f91b6064820152608401610a17565b336001600160a01b0382161480610ad15750610ad181336108a2565b610b435760405162461bcd60e51b815260206004820152603860248201527f4552433732313a20617070726f76652063616c6c6572206973206e6f74206f7760448201527f6e6572206e6f7220617070726f76656420666f7220616c6c00000000000000006064820152608401610a17565b610b4d8383611863565b505050565b610b5b33611654565b610b775760405162461bcd60e51b8152600401610a1790613c32565b610b8182826118d1565b5050565b610b90335b82611951565b610bac5760405162461bcd60e51b8152600401610a1790613b96565b610b4d838383611a44565b60008281526101c36020526040812054610bd190836113b1565b80610be05750610be082611654565b9392505050565b600054610100900460ff16610c025760005460ff1615610c06565b303b155b610c225760405162461bcd60e51b8152600401610a1790613b48565b600054610100900460ff16158015610c44576000805461ffff19166101011790555b8351610c58906101f8906020870190613331565b508251610c6d906101f9906020860190613331565b50610c7782611bef565b610c818686611c92565b610c89611ce0565b610c91611ce0565b610c99611ce0565b8015610cab576000805461ff00191690555b505050505050565b600082815261012d6020526040902060010154610cd08133611d07565b610b4d8383611d6b565b6000610ce583611292565b8210610d475760405162461bcd60e51b815260206004820152602b60248201527f455243373231456e756d657261626c653a206f776e657220696e646578206f7560448201526a74206f6620626f756e647360a81b6064820152608401610a17565b506001600160a01b0391909116600090815260fb60209081526040808320938352929052205490565b6001600160a01b0381163314610de05760405162461bcd60e51b815260206004820152602f60248201527f416363657373436f6e74726f6c3a2063616e206f6e6c792072656e6f756e636560448201526e103937b632b9903337b91039b2b63360891b6064820152608401610a17565b610b818282611d8e565b306001600160a01b037f0000000000000000000000000000000000000000000000000000000000000000161415610e335760405162461bcd60e51b8152600401610a1790613a4f565b7f00000000000000000000000000000000000000000000000000000000000000006001600160a01b0316610e65611db1565b6001600160a01b031614610e8b5760405162461bcd60e51b8152600401610a1790613a9b565b610e9481611ddf565b60408051600080825260208201909252610eb091839190611e04565b50565b610ebc33611654565b610ed85760405162461bcd60e51b8152600401610a1790613c32565b610eb081611f4f565b610eea33611654565b610f065760405162461bcd60e51b8152600401610a1790613c32565b6101915460ff16610f505760405162461bcd60e51b815260206004820152601460248201527314185d5cd8589b194e881b9bdd081c185d5cd95960621b6044820152606401610a17565b610f58611f9e565b565b610b4d838383604051806020016040528060008152506114aa565b610f7e33610b8a565b610fd95760405162461bcd60e51b815260206004820152602660248201527f537761793a2063616c6c6572206973206e6f74206f776e6572206e6f722061706044820152651c1c9bdd995960d21b6064820152608401610a17565b610eb081612033565b610feb33611654565b6110075760405162461bcd60e51b8152600401610a1790613c32565b6101915460ff161561102b5760405162461bcd60e51b8152600401610a1790613b1e565b8051610b81906101f9906020840190613331565b306001600160a01b037f00000000000000000000000000000000000000000000000000000000000000001614156110885760405162461bcd60e51b8152600401610a1790613a4f565b7f00000000000000000000000000000000000000000000000000000000000000006001600160a01b03166110ba611db1565b6001600160a01b0316146110e05760405162461bcd60e51b8152600401610a1790613a9b565b6110e982611ddf565b610b8182826001611e04565b600061110060fd5490565b82106111635760405162461bcd60e51b815260206004820152602c60248201527f455243373231456e756d657261626c653a20676c6f62616c20696e646578206f60448201526b7574206f6620626f756e647360a01b6064820152608401610a17565b60fd828154811061118457634e487b7160e01b600052603260045260246000fd5b90600052602060002001549050919050565b61119f33611654565b6111bb5760405162461bcd60e51b8152600401610a1790613c32565b6101915460ff16156111df5760405162461bcd60e51b8152600401610a1790613b1e565b8051610b81906101f8906020840190613331565b600081815260cb60205260408120546001600160a01b03168061090a5760405162461bcd60e51b815260206004820152602960248201527f4552433732313a206f776e657220717565727920666f72206e6f6e657869737460448201526832b73a103a37b5b2b760b91b6064820152608401610a17565b6000806112778484610cda565b60008181526101fa6020526040902054909590945092505050565b60006001600160a01b0382166112fd5760405162461bcd60e51b815260206004820152602a60248201527f4552433732313a2062616c616e636520717565727920666f7220746865207a65604482015269726f206164647265737360b01b6064820152608401610a17565b506001600160a01b0316600090815260cc602052604090205490565b61132233611654565b61133e5760405162461bcd60e51b8152600401610a1790613c32565b610eb08161204e565b61135033611654565b61136c5760405162461bcd60e51b8152600401610a1790613c32565b6101915460ff16156113905760405162461bcd60e51b8152600401610a1790613b1e565b610f58612113565b600082815261015f60205260408120610be0908361216d565b600091825261012d602090815260408084206001600160a01b0393909316845291905290205460ff1690565b606060ca805461091f90613d24565b6113f533611654565b6114115760405162461bcd60e51b8152600401610a1790613c32565b610b818282612179565b600061142a6101915460ff1690565b156114475760405162461bcd60e51b8152600401610a1790613b1e565b826114528133610bb7565b61146e5760405162461bcd60e51b8152600401610a17906139a9565b60016101f760008282546114829190613c7f565b92505081905550611497846101f754856121f9565b949350505050565b610b8133838361225b565b6114b43383611951565b6114d05760405162461bcd60e51b8152600401610a1790613b96565b6114dc8484848461232a565b50505050565b600081815260cb60205260409020546060906001600160a01b03166115575760405162461bcd60e51b815260206004820152602560248201527f537761793a2055524920717565727920666f72206e6f6e6578697374656e74206044820152643a37b5b2b760d91b6064820152608401610a17565b60008281526101fa602052604090205461156f61235d565b6115788261236d565b6115818561236d565b6101f960405160200161159794939291906137fe565b604051602081830303815290604052915050919050565b600081815261015f6020526040812061090a90612487565b600082815261012d60205260409020600101546115e38133611d07565b610b4d8383611d8e565b60006115fc6101915460ff1690565b156116195760405162461bcd60e51b8152600401610a1790613b1e565b836116248133610bb7565b6116405760405162461bcd60e51b8152600401610a17906139a9565b61164b8585856121f9565b95945050505050565b600061090a600080516020613dfc833981519152836113b1565b61167733611654565b6116935760405162461bcd60e51b8152600401610a1790613c32565b6001600160a01b0381166116fc5760405162461bcd60e51b815260206004820152602a60248201527f5377617941646d696e3a2064726f7020616464726573732073686f756c64206e6044820152696f74206265207a65726f60b01b6064820152608401610a17565b816117495760405162461bcd60e51b815260206004820152601b60248201527f5377617941646d696e3a20726f6f7448617368206973207a65726f00000000006044820152606401610a17565b60008381526101c360205260409020546117755760405162461bcd60e51b8152600401610a1790613ae7565b6101c4546040516330dde7eb60e21b81526004810191909152602481018390526001600160a01b0382169063c3779fac90604401600060405180830381600087803b1580156117c357600080fd5b505af11580156117d7573d6000803e3d6000fd5b50505050610b4d8382612179565b6117ee33611654565b61180a5760405162461bcd60e51b8152600401610a1790613c32565b610eb081612491565b3b151590565b60006001600160e01b0319821663780e9d6360e01b148061090a575061090a826124e0565b60006001600160e01b03198216635a05180f60e01b148061090a575061090a82612530565b600081815260cd6020526040902080546001600160a01b0319166001600160a01b0384169081179091558190611898826111f3565b6001600160a01b03167f8c5be1e5ebec7d5bd14f71427d1e84f3dd0314c0f7b2291e5b200ac8c7c3b92560405160405180910390a45050565b60008281526101c360205260409020546118fd5760405162461bcd60e51b8152600401610a1790613ae7565b60008281526101c360205260409020546119179082610d70565b6040516001600160a01b0382169083907fb6882c4d609d560f6d57e78e73dd96027f0d9852739b0b922537a6dd3c8e944c90600090a35050565b600081815260cb60205260408120546001600160a01b03166119ca5760405162461bcd60e51b815260206004820152602c60248201527f4552433732313a206f70657261746f7220717565727920666f72206e6f6e657860448201526b34b9ba32b73a103a37b5b2b760a11b6064820152608401610a17565b60006119d5836111f3565b9050806001600160a01b0316846001600160a01b03161480611a105750836001600160a01b0316611a05846109a2565b6001600160a01b0316145b8061149757506001600160a01b03808216600090815260ce602090815260408083209388168352929052205460ff16611497565b826001600160a01b0316611a57826111f3565b6001600160a01b031614611abf5760405162461bcd60e51b815260206004820152602960248201527f4552433732313a207472616e73666572206f6620746f6b656e2074686174206960448201526839903737ba1037bbb760b91b6064820152608401610a17565b6001600160a01b038216611b215760405162461bcd60e51b8152602060048201526024808201527f4552433732313a207472616e7366657220746f20746865207a65726f206164646044820152637265737360e01b6064820152608401610a17565b611b2c838383612555565b611b37600082611863565b6001600160a01b038316600090815260cc60205260408120805460019290611b60908490613cca565b90915550506001600160a01b038216600090815260cc60205260408120805460019290611b8e908490613c7f565b9091555050600081815260cb602052604080822080546001600160a01b0319166001600160a01b0386811691821790925591518493918716917fddf252ad1be2c89b69c2b068fc378daa952ba7f163c4a11628f55a4df523b3ef91a4505050565b600054610100900460ff16611c0a5760005460ff1615611c0e565b303b155b611c2a5760405162461bcd60e51b8152600401610a1790613b48565b600054610100900460ff16158015611c4c576000805461ffff19166101011790555b611c54611ce0565b611c5c611ce0565b611c64611ce0565b611c6c611ce0565b611c746125be565b611c7d826125f2565b8015610b81576000805461ff00191690555050565b600054610100900460ff16611cb95760405162461bcd60e51b8152600401610a1790613be7565b8151611ccc9060c9906020850190613331565b508051610b4d9060ca906020840190613331565b600054610100900460ff16610f585760405162461bcd60e51b8152600401610a1790613be7565b611d1182826113b1565b610b8157611d29816001600160a01b031660146126c8565b611d348360206126c8565b604051602001611d459291906138e4565b60408051601f198184030181529082905262461bcd60e51b8252610a1791600401613996565b611d7582826128aa565b600082815261015f60205260409020610b4d9082612931565b611d988282612946565b600082815261015f60205260409020610b4d90826129ae565b7f360894a13ba1a3210667c828492db98dca3e2076cc3735a920a3ca505d382bbc546001600160a01b031690565b611de833611654565b610eb05760405162461bcd60e51b8152600401610a1790613c32565b6000611e0e611db1565b9050611e19846129c3565b600083511180611e265750815b15611e3757611e358484612a68565b505b7f4910fdfa16fed3260ed0e7147f7cc6da11a60208b5b9406d12a635614ffd9143805460ff16611f4857805460ff191660011781556040516001600160a01b0383166024820152611eb690869060440160408051601f198184030181529190526020810180516001600160e01b0316631b2ce7f360e11b179052612a68565b50805460ff19168155611ec7611db1565b6001600160a01b0316826001600160a01b031614611f3f5760405162461bcd60e51b815260206004820152602f60248201527f45524331393637557067726164653a207570677261646520627265616b73206660448201526e75727468657220757067726164657360881b6064820152608401610a17565b611f4885612b4a565b5050505050565b611f67600080516020613dfc83398151915282610cb3565b6040516001600160a01b038216907fdc5a48d79e2e147530ff63ecdbed5a5a66adb9d5cf339384d5d076da197c40b590600090a250565b6101915460ff16611fe85760405162461bcd60e51b815260206004820152601460248201527314185d5cd8589b194e881b9bdd081c185d5cd95960621b6044820152606401610a17565b610191805460ff191690557f5db9ee0a495bf2e6ff9c91a7834c1ba4fdd244a5e8aa4e537bd38aeae4b073aa335b6040516001600160a01b03909116815260200160405180910390a1565b61203c81612b8a565b60009081526101fa6020526040812055565b60016101c460008282546120629190613c7f565b9250508190555060006120776101c45461236d565b60405160200161208791906137e2565b6040516020818303038152906040528051906020012090506120b781600080516020613dfc833981519152612c31565b6101c4805460009081526101c360205260408082208490559154915183926001600160a01b0386169290917f613e137a89b79c7d1e214c39381dfac9f62e1f202a0e2e8c17d44d7d689cd8ea9190a4610b816101c45483612179565b6101915460ff16156121375760405162461bcd60e51b8152600401610a1790613b1e565b610191805460ff191660011790557f62e78cea01bee320cd4e420270b5ea74000d11b0c9f74754ebdbfc544b05a2586120163390565b6000610be08383612c7d565b60008281526101c360205260409020546121a55760405162461bcd60e51b8152600401610a1790613ae7565b60008281526101c360205260409020546121bf9082610cb3565b6040516001600160a01b0382169083907fe1bd660d9f7c60e6fb12dd6479fdde12d21fc96385dc7b9b022c0b2f319e739190600090a35050565b60006122058284612cb5565b60008381526101fa602090815260409182902086905581518681529081018590527f4b3711cd7ece062b0828c1b6e08d814a72d4c003383a016c833cbb1b45956e34910160405180910390a15060019392505050565b816001600160a01b0316836001600160a01b031614156122bd5760405162461bcd60e51b815260206004820152601960248201527f4552433732313a20617070726f766520746f2063616c6c6572000000000000006044820152606401610a17565b6001600160a01b03838116600081815260ce6020908152604080832094871680845294825291829020805460ff191686151590811790915591519182527f17307eab39ab6107e8899845ad3d59bd9653f200f220920489ca2b5937696c31910160405180910390a3505050565b612335848484611a44565b61234184848484612e03565b6114dc5760405162461bcd60e51b8152600401610a17906139fd565b60606101f8805461091f90613d24565b6060816123915750506040805180820190915260018152600360fc1b602082015290565b8160005b81156123bb57806123a581613d5f565b91506123b49050600a83613c97565b9150612395565b60008167ffffffffffffffff8111156123e457634e487b7160e01b600052604160045260246000fd5b6040519080825280601f01601f19166020018201604052801561240e576020820181803683370190505b5090505b841561149757612423600183613cca565b9150612430600a86613d7a565b61243b906030613c7f565b60f81b81838151811061245e57634e487b7160e01b600052603260045260246000fd5b60200101906001600160f81b031916908160001a905350612480600a86613c97565b9450612412565b600061090a825490565b6124a9600080516020613dfc83398151915282610d70565b6040516001600160a01b038216907f1ebe834e73d60a5fec822c1e1727d34bc79f2ad977ed504581cc1822fe20fb5b90600090a250565b60006001600160e01b031982166380ac58cd60e01b148061251157506001600160e01b03198216635b5e139f60e01b145b8061090a57506301ffc9a760e01b6001600160e01b031983161461090a565b60006001600160e01b03198216637965db0b60e01b148061090a575061090a82611819565b612560838383612f10565b6101915460ff1615610b4d5760405162461bcd60e51b815260206004820152602160248201527f537761793a20746f6b656e207472616e73666572207768696c652070617573656044820152601960fa1b6064820152608401610a17565b600054610100900460ff166125e55760405162461bcd60e51b8152600401610a1790613be7565b610191805460ff19169055565b600054610100900460ff1661260d5760005460ff1615612611565b303b155b61262d5760405162461bcd60e51b8152600401610a1790613b48565b600054610100900460ff1615801561264f576000805461ffff19166101011790555b612667600080516020613dfc83398151915280612c31565b61267f600080516020613dfc83398151915283612fc8565b6040516001600160a01b038316907fdc5a48d79e2e147530ff63ecdbed5a5a66adb9d5cf339384d5d076da197c40b590600090a28015610b81576000805461ff00191690555050565b606060006126d7836002613cab565b6126e2906002613c7f565b67ffffffffffffffff81111561270857634e487b7160e01b600052604160045260246000fd5b6040519080825280601f01601f191660200182016040528015612732576020820181803683370190505b509050600360fc1b8160008151811061275b57634e487b7160e01b600052603260045260246000fd5b60200101906001600160f81b031916908160001a905350600f60fb1b8160018151811061279857634e487b7160e01b600052603260045260246000fd5b60200101906001600160f81b031916908160001a90535060006127bc846002613cab565b6127c7906001613c7f565b90505b600181111561285b576f181899199a1a9b1b9c1cb0b131b232b360811b85600f166010811061280957634e487b7160e01b600052603260045260246000fd5b1a60f81b82828151811061282d57634e487b7160e01b600052603260045260246000fd5b60200101906001600160f81b031916908160001a90535060049490941c9361285481613d0d565b90506127ca565b508315610be05760405162461bcd60e51b815260206004820181905260248201527f537472696e67733a20686578206c656e67746820696e73756666696369656e746044820152606401610a17565b6128b482826113b1565b610b8157600082815261012d602090815260408083206001600160a01b03851684529091529020805460ff191660011790556128ed3390565b6001600160a01b0316816001600160a01b0316837f2f8788117e7eff1d82e926ec794901d17c78024a50270940304540a733656f0d60405160405180910390a45050565b6000610be0836001600160a01b038416612fd2565b61295082826113b1565b15610b8157600082815261012d602090815260408083206001600160a01b0385168085529252808320805460ff1916905551339285917ff6391f5c32d9c69d2a47ea670b442974b53935d1edc7fd64eb21e047a839171b9190a45050565b6000610be0836001600160a01b038416613021565b803b612a275760405162461bcd60e51b815260206004820152602d60248201527f455243313936373a206e657720696d706c656d656e746174696f6e206973206e60448201526c1bdd08184818dbdb9d1c9858dd609a1b6064820152608401610a17565b7f360894a13ba1a3210667c828492db98dca3e2076cc3735a920a3ca505d382bbc80546001600160a01b0319166001600160a01b0392909216919091179055565b6060823b612ac75760405162461bcd60e51b815260206004820152602660248201527f416464726573733a2064656c65676174652063616c6c20746f206e6f6e2d636f6044820152651b9d1c9858dd60d21b6064820152608401610a17565b600080846001600160a01b031684604051612ae291906137e2565b600060405180830381855af49150503d8060008114612b1d576040519150601f19603f3d011682016040523d82523d6000602084013e612b22565b606091505b509150915061164b8282604051806060016040528060278152602001613e1c6027913961313e565b612b53816129c3565b6040516001600160a01b038216907fbc7cd75a20ee27fd9adebab32041f755214dbc6bffa90cc0225b39da2e5c2d3b90600090a250565b6000612b95826111f3565b9050612ba381600084612555565b612bae600083611863565b6001600160a01b038116600090815260cc60205260408120805460019290612bd7908490613cca565b9091555050600082815260cb602052604080822080546001600160a01b0319169055518391906001600160a01b038416907fddf252ad1be2c89b69c2b068fc378daa952ba7f163c4a11628f55a4df523b3ef908390a45050565b600082815261012d6020526040808220600101805490849055905190918391839186917fbd79b86ffe0ab8e8776151514217cd7cacd52c909f66475c3af44e129f0b00ff9190a4505050565b6000826000018281548110612ca257634e487b7160e01b600052603260045260246000fd5b9060005260206000200154905092915050565b6001600160a01b038216612d0b5760405162461bcd60e51b815260206004820181905260248201527f4552433732313a206d696e7420746f20746865207a65726f20616464726573736044820152606401610a17565b600081815260cb60205260409020546001600160a01b031615612d705760405162461bcd60e51b815260206004820152601c60248201527f4552433732313a20746f6b656e20616c7265616479206d696e746564000000006044820152606401610a17565b612d7c60008383612555565b6001600160a01b038216600090815260cc60205260408120805460019290612da5908490613c7f565b9091555050600081815260cb602052604080822080546001600160a01b0319166001600160a01b03861690811790915590518392907fddf252ad1be2c89b69c2b068fc378daa952ba7f163c4a11628f55a4df523b3ef908290a45050565b60006001600160a01b0384163b15612f0557604051630a85bd0160e11b81526001600160a01b0385169063150b7a0290612e47903390899088908890600401613959565b602060405180830381600087803b158015612e6157600080fd5b505af1925050508015612e91575060408051601f3d908101601f19168201909252612e8e91810190613672565b60015b612eeb573d808015612ebf576040519150601f19603f3d011682016040523d82523d6000602084013e612ec4565b606091505b508051612ee35760405162461bcd60e51b8152600401610a17906139fd565b805181602001fd5b6001600160e01b031916630a85bd0160e11b149050611497565b506001949350505050565b6001600160a01b038316612f6b57612f668160fd8054600083815260fe60205260408120829055600182018355919091527f9346ac6dd7de6b96975fec380d4d994c4c12e6a8897544f22915316cc6cca2800155565b612f8e565b816001600160a01b0316836001600160a01b031614612f8e57612f8e8382613177565b6001600160a01b038216612fa557610b4d81613214565b826001600160a01b0316826001600160a01b031614610b4d57610b4d82826132ed565b610b818282611d6b565b60008181526001830160205260408120546130195750815460018181018455600084815260208082209093018490558454848252828601909352604090209190915561090a565b50600061090a565b60008181526001830160205260408120548015613134576000613045600183613cca565b855490915060009061305990600190613cca565b90508181146130da57600086600001828154811061308757634e487b7160e01b600052603260045260246000fd5b90600052602060002001549050808760000184815481106130b857634e487b7160e01b600052603260045260246000fd5b6000918252602080832090910192909255918252600188019052604090208390555b85548690806130f957634e487b7160e01b600052603160045260246000fd5b60019003818190600052602060002001600090559055856001016000868152602001908152602001600020600090556001935050505061090a565b600091505061090a565b6060831561314d575081610be0565b82511561315d5782518084602001fd5b8160405162461bcd60e51b8152600401610a179190613996565b6000600161318484611292565b61318e9190613cca565b600083815260fc60205260409020549091508082146131e1576001600160a01b038416600090815260fb60209081526040808320858452825280832054848452818420819055835260fc90915290208190555b50600091825260fc602090815260408084208490556001600160a01b03909416835260fb81528383209183525290812055565b60fd5460009061322690600190613cca565b600083815260fe602052604081205460fd805493945090928490811061325c57634e487b7160e01b600052603260045260246000fd5b906000526020600020015490508060fd838154811061328b57634e487b7160e01b600052603260045260246000fd5b600091825260208083209091019290925582815260fe909152604080822084905585825281205560fd8054806132d157634e487b7160e01b600052603160045260246000fd5b6001900381819060005260206000200160009055905550505050565b60006132f883611292565b6001600160a01b03909316600090815260fb60209081526040808320868452825280832085905593825260fc9052919091209190915550565b82805461333d90613d24565b90600052602060002090601f01602090048101928261335f57600085556133a5565b82601f1061337857805160ff19168380011785556133a5565b828001600101855582156133a5579182015b828111156133a557825182559160200191906001019061338a565b506133b19291506133b5565b5090565b5b808211156133b157600081556001016133b6565b600082601f8301126133da578081fd5b813567ffffffffffffffff808211156133f5576133f5613dba565b604051601f8301601f19908116603f0116810190828211818310171561341d5761341d613dba565b81604052838152866020858801011115613435578485fd5b8360208701602083013792830160200193909352509392505050565b600060208284031215613462578081fd5b8135610be081613dd0565b6000806040838503121561347f578081fd5b823561348a81613dd0565b9150602083013561349a81613dd0565b809150509250929050565b6000806000606084860312156134b9578081fd5b83356134c481613dd0565b925060208401356134d481613dd0565b929592945050506040919091013590565b600080600080608085870312156134fa578081fd5b843561350581613dd0565b9350602085013561351581613dd0565b925060408501359150606085013567ffffffffffffffff811115613537578182fd5b613543878288016133ca565b91505092959194509250565b60008060408385031215613561578182fd5b823561356c81613dd0565b91506020830135801515811461349a578182fd5b60008060408385031215613592578182fd5b823561359d81613dd0565b9150602083013567ffffffffffffffff8111156135b8578182fd5b6135c4858286016133ca565b9150509250929050565b600080604083850312156135e0578182fd5b82356135eb81613dd0565b946020939093013593505050565b60006020828403121561360a578081fd5b5035919050565b60008060408385031215613623578182fd5b82359150602083013561349a81613dd0565b60008060408385031215613647578182fd5b50508035926020909101359150565b600060208284031215613667578081fd5b8135610be081613de5565b600060208284031215613683578081fd5b8151610be081613de5565b60006020828403121561369f578081fd5b813567ffffffffffffffff8111156136b5578182fd5b611497848285016133ca565b600080600080600060a086880312156136d8578283fd5b853567ffffffffffffffff808211156136ef578485fd5b6136fb89838a016133ca565b96506020880135915080821115613710578485fd5b61371c89838a016133ca565b95506040880135915080821115613731578485fd5b61373d89838a016133ca565b94506060880135915080821115613752578283fd5b5061375f888289016133ca565b925050608086013561377081613dd0565b809150509295509295909350565b600080600060608486031215613792578081fd5b833592506020840135915060408401356137ab81613dd0565b809150509250925092565b600081518084526137ce816020860160208601613ce1565b601f01601f19169290920160200192915050565b600082516137f4818460208701613ce1565b9190910192915050565b6000855160206138118285838b01613ce1565b8651918401916138248184848b01613ce1565b602f60f81b9201918252855160019061384281838601858b01613ce1565b8654930192849080831c8382168061385b57607f821691505b85821081141561387957634e487b7160e01b88526022600452602488fd5b80801561388d57600181146138a2576138d2565b60ff19841688870152828801860194506138d2565b60008b815260209020895b848110156138c85781548a82018901529087019088016138ad565b5050858389010194505b50929c9b505050505050505050505050565b7f416363657373436f6e74726f6c3a206163636f756e742000000000000000000081526000835161391c816017850160208801613ce1565b7001034b99036b4b9b9b4b733903937b6329607d1b601791840191820152835161394d816028840160208801613ce1565b01602801949350505050565b6001600160a01b038581168252841660208201526040810183905260806060820181905260009061398c908301846137b6565b9695505050505050565b602081526000610be060208301846137b6565b60208082526034908201527f5377617941646d696e3a2073656e64657220646f6573206e6f74206861766520604082015273135a5b9d195c88149bdb19481a5b88115d995b9d60621b606082015260800190565b60208082526032908201527f4552433732313a207472616e7366657220746f206e6f6e20455243373231526560408201527131b2b4bb32b91034b6b83632b6b2b73a32b960711b606082015260800190565b6020808252602c908201527f46756e6374696f6e206d7573742062652063616c6c6564207468726f7567682060408201526b19195b1959d85d1958d85b1b60a21b606082015260800190565b6020808252602c908201527f46756e6374696f6e206d7573742062652063616c6c6564207468726f7567682060408201526b6163746976652070726f787960a01b606082015260800190565b6020808252601c908201527f5377617941646d696e3a206576656e744964206e6f7420666f756e6400000000604082015260600190565b60208082526010908201526f14185d5cd8589b194e881c185d5cd95960821b604082015260600190565b6020808252602e908201527f496e697469616c697a61626c653a20636f6e747261637420697320616c72656160408201526d191e481a5b9a5d1a585b1a5e995960921b606082015260800190565b60208082526031908201527f4552433732313a207472616e736665722063616c6c6572206973206e6f74206f6040820152701ddb995c881b9bdc88185c1c1c9bdd9959607a1b606082015260800190565b6020808252602b908201527f496e697469616c697a61626c653a20636f6e7472616374206973206e6f74206960408201526a6e697469616c697a696e6760a81b606082015260800190565b6020808252602d908201527f5377617941646d696e3a2073656e64657220646f6573206e6f7420686176652060408201526c476f7665726e6f7220526f6c6560981b606082015260800190565b60008219821115613c9257613c92613d8e565b500190565b600082613ca657613ca6613da4565b500490565b6000816000190483118215151615613cc557613cc5613d8e565b500290565b600082821015613cdc57613cdc613d8e565b500390565b60005b83811015613cfc578181015183820152602001613ce4565b838111156114dc5750506000910152565b600081613d1c57613d1c613d8e565b506000190190565b600181811c90821680613d3857607f821691505b60208210811415613d5957634e487b7160e01b600052602260045260246000fd5b50919050565b6000600019821415613d7357613d73613d8e565b5060010190565b600082613d8957613d89613da4565b500690565b634e487b7160e01b600052601160045260246000fd5b634e487b7160e01b600052601260045260246000fd5b634e487b7160e01b600052604160045260246000fd5b6001600160a01b0381168114610eb057600080fd5b6001600160e01b031981168114610eb057600080fdfe7935bd0ae54bc31f548c14dba4d37c5c64b3f8ca900cb468fb8abd54d5894f55416464726573733a206c6f772d6c6576656c2064656c65676174652063616c6c206661696c6564a264697066735822122043457e4f11e286906f96c6a8c3dd58a5977cf521b4e4a92bd2964f52ec3929df64736f6c63430008040033",
  "devdoc": {
    "kind": "dev",
    "methods": {
      "approve(address,uint256)": {
        "details": "See {IERC721-approve}."
      },
      "balanceOf(address)": {
        "details": "See {IERC721-balanceOf}."
      },
      "constructor": {
        "custom:oz-upgrades-unsafe-allow": "constructor"
      },
      "getApproved(uint256)": {
        "details": "See {IERC721-getApproved}."
      },
      "getRoleAdmin(bytes32)": {
        "details": "Returns the admin role that controls `role`. See {grantRole} and {revokeRole}. To change a role's admin, use {_setRoleAdmin}."
      },
      "getRoleMember(bytes32,uint256)": {
        "details": "Returns one of the accounts that have `role`. `index` must be a value between 0 and {getRoleMemberCount}, non-inclusive. Role bearers are not sorted in any particular way, and their ordering may change at any point. WARNING: When using {getRoleMember} and {getRoleMemberCount}, make sure you perform all queries on the same block. See the following https://forum.openzeppelin.com/t/iterating-over-elements-on-enumerableset-in-openzeppelin-contracts/2296[forum post] for more information."
      },
      "getRoleMemberCount(bytes32)": {
        "details": "Returns the number of accounts that have `role`. Can be used together with {getRoleMember} to enumerate all bearers of a role."
      },
      "grantRole(bytes32,address)": {
        "details": "Grants `role` to `account`. If `account` had not been already granted `role`, emits a {RoleGranted} event. Requirements: - the caller must have ``role``'s admin role."
      },
      "hasRole(bytes32,address)": {
        "details": "Returns `true` if `account` has been granted `role`."
      },
      "isApprovedForAll(address,address)": {
        "details": "See {IERC721-isApprovedForAll}."
      },
      "mintToken(uint256,address)": {
        "details": "Function to mint tokens",
        "params": {
          "eventId": "EventId for the new token",
          "to": "The address that will receive the minted tokens."
        },
        "returns": {
          "_0": "A boolean that indicates if the operation was successful."
        }
      },
      "mintToken(uint256,uint256,address)": {
        "details": "Function to mint tokens with a specific id",
        "params": {
          "eventId": "EventId for the new token",
          "to": "The address that will receive the minted tokens.",
          "tokenId": "TokenId for the new token"
        },
        "returns": {
          "_0": "A boolean that indicates if the operation was successful."
        }
      },
      "name()": {
        "details": "See {IERC721Metadata-name}."
      },
      "ownerOf(uint256)": {
        "details": "See {IERC721-ownerOf}."
      },
      "pause()": {
        "details": "called by the governor to pause, triggers stopped state"
      },
      "paused()": {
        "details": "Returns true if the contract is paused, and false otherwise."
      },
      "renounceRole(bytes32,address)": {
        "details": "Revokes `role` from the calling account. Roles are often managed via {grantRole} and {revokeRole}: this function's purpose is to provide a mechanism for accounts to lose their privileges if they are compromised (such as when a trusted device is misplaced). If the calling account had been revoked `role`, emits a {RoleRevoked} event. Requirements: - the caller must be `account`."
      },
      "revokeRole(bytes32,address)": {
        "details": "Revokes `role` from `account`. If `account` had been granted `role`, emits a {RoleRevoked} event. Requirements: - the caller must have ``role``'s admin role."
      },
      "safeTransferFrom(address,address,uint256)": {
        "details": "See {IERC721-safeTransferFrom}."
      },
      "safeTransferFrom(address,address,uint256,bytes)": {
        "details": "See {IERC721-safeTransferFrom}."
      },
      "setApprovalForAll(address,bool)": {
        "details": "See {IERC721-setApprovalForAll}."
      },
      "symbol()": {
        "details": "See {IERC721Metadata-symbol}."
      },
      "tokenByIndex(uint256)": {
        "details": "See {IERC721Enumerable-tokenByIndex}."
      },
      "tokenDetailsOfOwnerByIndex(address,uint256)": {
        "details": "Gets the token ID at a given index of the tokens list of the requested owner",
        "params": {
          "index": "uint256 representing the index to be accessed of the requested tokens list",
          "owner": "address owning the tokens list to be accessed"
        }
      },
      "tokenOfOwnerByIndex(address,uint256)": {
        "details": "See {IERC721Enumerable-tokenOfOwnerByIndex}."
      },
      "tokenURI(uint256)": {
        "details": "Gets the token uri",
        "returns": {
          "_0": "string representing the token uri"
        }
      },
      "totalSupply()": {
        "details": "See {IERC721Enumerable-totalSupply}."
      },
      "transferFrom(address,address,uint256)": {
        "details": "See {IERC721-transferFrom}."
      },
      "unpause()": {
        "details": "called by the governor to unpause, returns to normal state"
      },
      "upgradeTo(address)": {
        "details": "Upgrade the implementation of the proxy to `newImplementation`. Calls {_authorizeUpgrade}. Emits an {Upgraded} event."
      },
      "upgradeToAndCall(address,bytes)": {
        "details": "Upgrade the implementation of the proxy to `newImplementation`, and subsequently execute the function call encoded in `data`. Calls {_authorizeUpgrade}. Emits an {Upgraded} event."
      }
    },
    "version": 1
  },
  "userdoc": {
    "kind": "user",
    "methods": {},
    "version": 1
  },
  "storageLayout": {
    "storage": [
      {
        "astId": 1005,
        "contract": "src/Sway.sol:Sway",
        "label": "_initialized",
        "offset": 0,
        "slot": "0",
        "type": "t_bool"
      },
      {
        "astId": 1008,
        "contract": "src/Sway.sol:Sway",
        "label": "_initializing",
        "offset": 1,
        "slot": "0",
        "type": "t_bool"
      },
      {
        "astId": 987,
        "contract": "src/Sway.sol:Sway",
        "label": "__gap",
        "offset": 0,
        "slot": "1",
        "type": "t_array(t_uint256)50_storage"
      },
      {
        "astId": 1182,
        "contract": "src/Sway.sol:Sway",
        "label": "__gap",
        "offset": 0,
        "slot": "51",
        "type": "t_array(t_uint256)50_storage"
      },
      {
        "astId": 3003,
        "contract": "src/Sway.sol:Sway",
        "label": "__gap",
        "offset": 0,
        "slot": "101",
        "type": "t_array(t_uint256)50_storage"
      },
      {
        "astId": 3400,
        "contract": "src/Sway.sol:Sway",
        "label": "__gap",
        "offset": 0,
        "slot": "151",
        "type": "t_array(t_uint256)50_storage"
      },
      {
        "astId": 1325,
        "contract": "src/Sway.sol:Sway",
        "label": "_name",
        "offset": 0,
        "slot": "201",
        "type": "t_string_storage"
      },
      {
        "astId": 1327,
        "contract": "src/Sway.sol:Sway",
        "label": "_symbol",
        "offset": 0,
        "slot": "202",
        "type": "t_string_storage"
      },
      {
        "astId": 1331,
        "contract": "src/Sway.sol:Sway",
        "label": "_owners",
        "offset": 0,
        "slot": "203",
        "type": "t_mapping(t_uint256,t_address)"
      },
      {
        "astId": 1335,
        "contract": "src/Sway.sol:Sway",
        "label": "_balances",
        "offset": 0,
        "slot": "204",
        "type": "t_mapping(t_address,t_uint256)"
      },
      {
        "astId": 1339,
        "contract": "src/Sway.sol:Sway",
        "label": "_tokenApprovals",
        "offset": 0,
        "slot": "205",
        "type": "t_mapping(t_uint256,t_address)"
      },
      {
        "astId": 1345,
        "contract": "src/Sway.sol:Sway",
        "label": "_operatorApprovals",
        "offset": 0,
        "slot": "206",
        "type": "t_mapping(t_address,t_mapping(t_address,t_bool))"
      },
      {
        "astId": 2156,
        "contract": "src/Sway.sol:Sway",
        "label": "__gap",
        "offset": 0,
        "slot": "207",
        "type": "t_array(t_uint256)44_storage"
      },
      {
        "astId": 2330,
        "contract": "src/Sway.sol:Sway",
        "label": "_ownedTokens",
        "offset": 0,
        "slot": "251",
        "type": "t_mapping(t_address,t_mapping(t_uint256,t_uint256))"
      },
      {
        "astId": 2334,
        "contract": "src/Sway.sol:Sway",
        "label": "_ownedTokensIndex",
        "offset": 0,
        "slot": "252",
        "type": "t_mapping(t_uint256,t_uint256)"
      },
      {
        "astId": 2337,
        "contract": "src/Sway.sol:Sway",
        "label": "_allTokens",
        "offset": 0,
        "slot": "253",
        "type": "t_array(t_uint256)dyn_storage"
      },
      {
        "astId": 2341,
        "contract": "src/Sway.sol:Sway",
        "label": "_allTokensIndex",
        "offset": 0,
        "slot": "254",
        "type": "t_mapping(t_uint256,t_uint256)"
      },
      {
        "astId": 2656,
        "contract": "src/Sway.sol:Sway",
        "label": "__gap",
        "offset": 0,
        "slot": "255",
        "type": "t_array(t_uint256)46_storage"
      },
      {
        "astId": 204,
        "contract": "src/Sway.sol:Sway",
        "label": "_roles",
        "offset": 0,
        "slot": "301",
        "type": "t_mapping(t_bytes32,t_struct(RoleData)199_storage)"
      },
      {
        "astId": 491,
        "contract": "src/Sway.sol:Sway",
        "label": "__gap",
        "offset": 0,
        "slot": "302",
        "type": "t_array(t_uint256)49_storage"
      },
      {
        "astId": 45,
        "contract": "src/Sway.sol:Sway",
        "label": "_roleMembers",
        "offset": 0,
        "slot": "351",
        "type": "t_mapping(t_bytes32,t_struct(AddressSet)3725_storage)"
      },
      {
        "astId": 154,
        "contract": "src/Sway.sol:Sway",
        "label": "__gap",
        "offset": 0,
        "slot": "352",
        "type": "t_array(t_uint256)49_storage"
      },
      {
        "astId": 1204,
        "contract": "src/Sway.sol:Sway",
        "label": "_paused",
        "offset": 0,
        "slot": "401",
        "type": "t_bool"
      },
      {
        "astId": 1295,
        "contract": "src/Sway.sol:Sway",
        "label": "__gap",
        "offset": 0,
        "slot": "402",
        "type": "t_array(t_uint256)49_storage"
      },
      {
        "astId": 12475,
        "contract": "src/Sway.sol:Sway",
        "label": "eventRoleMapping",
        "offset": 0,
        "slot": "451",
        "type": "t_mapping(t_uint256,t_bytes32)"
      },
      {
        "astId": 12477,
        "contract": "src/Sway.sol:Sway",
        "label": "lastEventId",
        "offset": 0,
        "slot": "452",
        "type": "t_uint256"
      },
      {
        "astId": 12909,
        "contract": "src/Sway.sol:Sway",
        "label": "__gap",
        "offset": 0,
        "slot": "453",
        "type": "t_array(t_uint256)50_storage"
      },
      {
        "astId": 12096,
        "contract": "src/Sway.sol:Sway",
        "label": "lastId",
        "offset": 0,
        "slot": "503",
        "type": "t_uint256"
      },
      {
        "astId": 12098,
        "contract": "src/Sway.sol:Sway",
        "label": "_baseURIextendend",
        "offset": 0,
        "slot": "504",
        "type": "t_string_storage"
      },
      {
        "astId": 12100,
        "contract": "src/Sway.sol:Sway",
        "label": "_baseURIExtension",
        "offset": 0,
        "slot": "505",
        "type": "t_string_storage"
      },
      {
        "astId": 12104,
        "contract": "src/Sway.sol:Sway",
        "label": "tokenEvent",
        "offset": 0,
        "slot": "506",
        "type": "t_mapping(t_uint256,t_uint256)"
      },
      {
        "astId": 12442,
        "contract": "src/Sway.sol:Sway",
        "label": "__gap",
        "offset": 0,
        "slot": "507",
        "type": "t_array(t_uint256)50_storage"
      }
    ],
    "types": {
      "t_address": {
        "encoding": "inplace",
        "label": "address",
        "numberOfBytes": "20"
      },
      "t_array(t_bytes32)dyn_storage": {
        "base": "t_bytes32",
        "encoding": "dynamic_array",
        "label": "bytes32[]",
        "numberOfBytes": "32"
      },
      "t_array(t_uint256)44_storage": {
        "base": "t_uint256",
        "encoding": "inplace",
        "label": "uint256[44]",
        "numberOfBytes": "1408"
      },
      "t_array(t_uint256)46_storage": {
        "base": "t_uint256",
        "encoding": "inplace",
        "label": "uint256[46]",
        "numberOfBytes": "1472"
      },
      "t_array(t_uint256)49_storage": {
        "base": "t_uint256",
        "encoding": "inplace",
        "label": "uint256[49]",
        "numberOfBytes": "1568"
      },
      "t_array(t_uint256)50_storage": {
        "base": "t_uint256",
        "encoding": "inplace",
        "label": "uint256[50]",
        "numberOfBytes": "1600"
      },
      "t_array(t_uint256)dyn_storage": {
        "base": "t_uint256",
        "encoding": "dynamic_array",
        "label": "uint256[]",
        "numberOfBytes": "32"
      },
      "t_bool": {
        "encoding": "inplace",
        "label": "bool",
        "numberOfBytes": "1"
      },
      "t_bytes32": {
        "encoding": "inplace",
        "label": "bytes32",
        "numberOfBytes": "32"
      },
      "t_mapping(t_address,t_bool)": {
        "encoding": "mapping",
        "key": "t_address",
        "label": "mapping(address => bool)",
        "numberOfBytes": "32",
        "value": "t_bool"
      },
      "t_mapping(t_address,t_mapping(t_address,t_bool))": {
        "encoding": "mapping",
        "key": "t_address",
        "label": "mapping(address => mapping(address => bool))",
        "numberOfBytes": "32",
        "value": "t_mapping(t_address,t_bool)"
      },
      "t_mapping(t_address,t_mapping(t_uint256,t_uint256))": {
        "encoding": "mapping",
        "key": "t_address",
        "label": "mapping(address => mapping(uint256 => uint256))",
        "numberOfBytes": "32",
        "value": "t_mapping(t_uint256,t_uint256)"
      },
      "t_mapping(t_address,t_uint256)": {
        "encoding": "mapping",
        "key": "t_address",
        "label": "mapping(address => uint256)",
        "numberOfBytes": "32",
        "value": "t_uint256"
      },
      "t_mapping(t_bytes32,t_struct(AddressSet)3725_storage)": {
        "encoding": "mapping",
        "key": "t_bytes32",
        "label": "mapping(bytes32 => struct EnumerableSetUpgradeable.AddressSet)",
        "numberOfBytes": "32",
        "value": "t_struct(AddressSet)3725_storage"
      },
      "t_mapping(t_bytes32,t_struct(RoleData)199_storage)": {
        "encoding": "mapping",
        "key": "t_bytes32",
        "label": "mapping(bytes32 => struct AccessControlUpgradeable.RoleData)",
        "numberOfBytes": "32",
        "value": "t_struct(RoleData)199_storage"
      },
      "t_mapping(t_bytes32,t_uint256)": {
        "encoding": "mapping",
        "key": "t_bytes32",
        "label": "mapping(bytes32 => uint256)",
        "numberOfBytes": "32",
        "value": "t_uint256"
      },
      "t_mapping(t_uint256,t_address)": {
        "encoding": "mapping",
        "key": "t_uint256",
        "label": "mapping(uint256 => address)",
        "numberOfBytes": "32",
        "value": "t_address"
      },
      "t_mapping(t_uint256,t_bytes32)": {
        "encoding": "mapping",
        "key": "t_uint256",
        "label": "mapping(uint256 => bytes32)",
        "numberOfBytes": "32",
        "value": "t_bytes32"
      },
      "t_mapping(t_uint256,t_uint256)": {
        "encoding": "mapping",
        "key": "t_uint256",
        "label": "mapping(uint256 => uint256)",
        "numberOfBytes": "32",
        "value": "t_uint256"
      },
      "t_string_storage": {
        "encoding": "bytes",
        "label": "string",
        "numberOfBytes": "32"
      },
      "t_struct(AddressSet)3725_storage": {
        "encoding": "inplace",
        "label": "struct EnumerableSetUpgradeable.AddressSet",
        "members": [
          {
            "astId": 3724,
            "contract": "src/Sway.sol:Sway",
            "label": "_inner",
            "offset": 0,
            "slot": "0",
            "type": "t_struct(Set)3424_storage"
          }
        ],
        "numberOfBytes": "64"
      },
      "t_struct(RoleData)199_storage": {
        "encoding": "inplace",
        "label": "struct AccessControlUpgradeable.RoleData",
        "members": [
          {
            "astId": 196,
            "contract": "src/Sway.sol:Sway",
            "label": "members",
            "offset": 0,
            "slot": "0",
            "type": "t_mapping(t_address,t_bool)"
          },
          {
            "astId": 198,
            "contract": "src/Sway.sol:Sway",
            "label": "adminRole",
            "offset": 0,
            "slot": "1",
            "type": "t_bytes32"
          }
        ],
        "numberOfBytes": "64"
      },
      "t_struct(Set)3424_storage": {
        "encoding": "inplace",
        "label": "struct EnumerableSetUpgradeable.Set",
        "members": [
          {
            "astId": 3419,
            "contract": "src/Sway.sol:Sway",
            "label": "_values",
            "offset": 0,
            "slot": "0",
            "type": "t_array(t_bytes32)dyn_storage"
          },
          {
            "astId": 3423,
            "contract": "src/Sway.sol:Sway",
            "label": "_indexes",
            "offset": 0,
            "slot": "1",
            "type": "t_mapping(t_bytes32,t_uint256)"
          }
        ],
        "numberOfBytes": "64"
      },
      "t_uint256": {
        "encoding": "inplace",
        "label": "uint256",
        "numberOfBytes": "32"
      }
    }
  }
}