{
  "address": "0xdDFbB58bEE492c8C45532a8353D29A1004aeAE4C",
  "abi": [
    {
      "inputs": [],
      "stateMutability": "nonpayable",
      "type": "constructor"
    },
    {
      "anonymous": false,
      "inputs": [
        {
          "indexed": false,
          "internalType": "address",
          "name": "previousAdmin",
          "type": "address"
        },
        {
          "indexed": false,
          "internalType": "address",
          "name": "newAdmin",
          "type": "address"
        }
      ],
      "name": "AdminChanged",
      "type": "event"
    },
    {
      "anonymous": false,
      "inputs": [
        {
          "indexed": true,
          "internalType": "address",
          "name": "owner",
          "type": "address"
        },
        {
          "indexed": true,
          "internalType": "address",
          "name": "approved",
          "type": "address"
        },
        {
          "indexed": true,
          "internalType": "uint256",
          "name": "tokenId",
          "type": "uint256"
        }
      ],
      "name": "Approval",
      "type": "event"
    },
    {
      "anonymous": false,
      "inputs": [
        {
          "indexed": true,
          "internalType": "address",
          "name": "owner",
          "type": "address"
        },
        {
          "indexed": true,
          "internalType": "address",
          "name": "operator",
          "type": "address"
        },
        {
          "indexed": false,
          "internalType": "bool",
          "name": "approved",
          "type": "bool"
        }
      ],
      "name": "ApprovalForAll",
      "type": "event"
    },
    {
      "anonymous": false,
      "inputs": [
        {
          "indexed": true,
          "internalType": "address",
          "name": "beacon",
          "type": "address"
        }
      ],
      "name": "BeaconUpgraded",
      "type": "event"
    },
    {
      "anonymous": false,
      "inputs": [
        {
          "indexed": true,
          "internalType": "uint256",
          "name": "eventId",
          "type": "uint256"
        },
        {
          "indexed": true,
          "internalType": "address",
          "name": "minter",
          "type": "address"
        },
        {
          "indexed": true,
          "internalType": "bytes32",
          "name": "role",
          "type": "bytes32"
        }
      ],
      "name": "EventAdded",
      "type": "event"
    },
    {
      "anonymous": false,
      "inputs": [
        {
          "indexed": true,
          "internalType": "uint256",
          "name": "eventId",
          "type": "uint256"
        },
        {
          "indexed": true,
          "internalType": "address",
          "name": "account",
          "type": "address"
        }
      ],
      "name": "EventMinterAdded",
      "type": "event"
    },
    {
      "anonymous": false,
      "inputs": [
        {
          "indexed": true,
          "internalType": "uint256",
          "name": "eventId",
          "type": "uint256"
        },
        {
          "indexed": true,
          "internalType": "address",
          "name": "account",
          "type": "address"
        }
      ],
      "name": "EventMinterRemoved",
      "type": "event"
    },
    {
      "anonymous": false,
      "inputs": [
        {
          "indexed": false,
          "internalType": "uint256",
          "name": "eventId",
          "type": "uint256"
        },
        {
          "indexed": false,
          "internalType": "uint256",
          "name": "tokenId",
          "type": "uint256"
        }
      ],
      "name": "EventToken",
      "type": "event"
    },
    {
      "anonymous": false,
      "inputs": [
        {
          "indexed": true,
          "internalType": "address",
          "name": "account",
          "type": "address"
        }
      ],
      "name": "GovernorAdded",
      "type": "event"
    },
    {
      "anonymous": false,
      "inputs": [
        {
          "indexed": true,
          "internalType": "address",
          "name": "account",
          "type": "address"
        }
      ],
      "name": "GovernorRemoved",
      "type": "event"
    },
    {
      "anonymous": false,
      "inputs": [
        {
          "indexed": false,
          "internalType": "address",
          "name": "account",
          "type": "address"
        }
      ],
      "name": "Paused",
      "type": "event"
    },
    {
      "anonymous": false,
      "inputs": [
        {
          "indexed": true,
          "internalType": "bytes32",
          "name": "role",
          "type": "bytes32"
        },
        {
          "indexed": true,
          "internalType": "bytes32",
          "name": "previousAdminRole",
          "type": "bytes32"
        },
        {
          "indexed": true,
          "internalType": "bytes32",
          "name": "newAdminRole",
          "type": "bytes32"
        }
      ],
      "name": "RoleAdminChanged",
      "type": "event"
    },
    {
      "anonymous": false,
      "inputs": [
        {
          "indexed": true,
          "internalType": "bytes32",
          "name": "role",
          "type": "bytes32"
        },
        {
          "indexed": true,
          "internalType": "address",
          "name": "account",
          "type": "address"
        },
        {
          "indexed": true,
          "internalType": "address",
          "name": "sender",
          "type": "address"
        }
      ],
      "name": "RoleGranted",
      "type": "event"
    },
    {
      "anonymous": false,
      "inputs": [
        {
          "indexed": true,
          "internalType": "bytes32",
          "name": "role",
          "type": "bytes32"
        },
        {
          "indexed": true,
          "internalType": "address",
          "name": "account",
          "type": "address"
        },
        {
          "indexed": true,
          "internalType": "address",
          "name": "sender",
          "type": "address"
        }
      ],
      "name": "RoleRevoked",
      "type": "event"
    },
    {
      "anonymous": false,
      "inputs": [
        {
          "indexed": true,
          "internalType": "address",
          "name": "from",
          "type": "address"
        },
        {
          "indexed": true,
          "internalType": "address",
          "name": "to",
          "type": "address"
        },
        {
          "indexed": true,
          "internalType": "uint256",
          "name": "tokenId",
          "type": "uint256"
        }
      ],
      "name": "Transfer",
      "type": "event"
    },
    {
      "anonymous": false,
      "inputs": [
        {
          "indexed": false,
          "internalType": "address",
          "name": "account",
          "type": "address"
        }
      ],
      "name": "Unpaused",
      "type": "event"
    },
    {
      "anonymous": false,
      "inputs": [
        {
          "indexed": true,
          "internalType": "address",
          "name": "implementation",
          "type": "address"
        }
      ],
      "name": "Upgraded",
      "type": "event"
    },
    {
      "inputs": [],
      "name": "DEFAULT_ADMIN_ROLE",
      "outputs": [
        {
          "internalType": "bytes32",
          "name": "",
          "type": "bytes32"
        }
      ],
      "stateMutability": "view",
      "type": "function"
    },
    {
      "inputs": [],
      "name": "GOVERNOR_ROLE",
      "outputs": [
        {
          "internalType": "bytes32",
          "name": "",
          "type": "bytes32"
        }
      ],
      "stateMutability": "view",
      "type": "function"
    },
    {
      "inputs": [
        {
          "internalType": "uint256",
          "name": "eventId",
          "type": "uint256"
        },
        {
          "internalType": "bytes32",
          "name": "rootHash",
          "type": "bytes32"
        },
        {
          "internalType": "contract ISwayDrop",
          "name": "drop",
          "type": "address"
        }
      ],
      "name": "addEventDrop",
      "outputs": [],
      "stateMutability": "nonpayable",
      "type": "function"
    },
    {
      "inputs": [
        {
          "internalType": "uint256",
          "name": "eventId",
          "type": "uint256"
        },
        {
          "internalType": "address",
          "name": "account",
          "type": "address"
        }
      ],
      "name": "addEventMinter",
      "outputs": [],
      "stateMutability": "nonpayable",
      "type": "function"
    },
    {
      "inputs": [
        {
          "internalType": "address",
          "name": "account",
          "type": "address"
        }
      ],
      "name": "addGovernor",
      "outputs": [],
      "stateMutability": "nonpayable",
      "type": "function"
    },
    {
      "inputs": [
        {
          "internalType": "address",
          "name": "to",
          "type": "address"
        },
        {
          "internalType": "uint256",
          "name": "tokenId",
          "type": "uint256"
        }
      ],
      "name": "approve",
      "outputs": [],
      "stateMutability": "nonpayable",
      "type": "function"
    },
    {
      "inputs": [
        {
          "internalType": "address",
          "name": "owner",
          "type": "address"
        }
      ],
      "name": "balanceOf",
      "outputs": [
        {
          "internalType": "uint256",
          "name": "",
          "type": "uint256"
        }
      ],
      "stateMutability": "view",
      "type": "function"
    },
    {
      "inputs": [
        {
          "internalType": "uint256",
          "name": "tokenId",
          "type": "uint256"
        }
      ],
      "name": "burn",
      "outputs": [],
      "stateMutability": "nonpayable",
      "type": "function"
    },
    {
      "inputs": [
        {
          "internalType": "address",
          "name": "minter",
          "type": "address"
        }
      ],
      "name": "createEvent",
      "outputs": [],
      "stateMutability": "nonpayable",
      "type": "function"
    },
    {
      "inputs": [
        {
          "internalType": "uint256",
          "name": "",
          "type": "uint256"
        }
      ],
      "name": "eventRoleMapping",
      "outputs": [
        {
          "internalType": "bytes32",
          "name": "",
          "type": "bytes32"
        }
      ],
      "stateMutability": "view",
      "type": "function"
    },
    {
      "inputs": [
        {
          "internalType": "uint256",
          "name": "tokenId",
          "type": "uint256"
        }
      ],
      "name": "getApproved",
      "outputs": [
        {
          "internalType": "address",
          "name": "",
          "type": "address"
        }
      ],
      "stateMutability": "view",
      "type": "function"
    },
    {
      "inputs": [
        {
          "internalType": "bytes32",
          "name": "role",
          "type": "bytes32"
        }
      ],
      "name": "getRoleAdmin",
      "outputs": [
        {
          "internalType": "bytes32",
          "name": "",
          "type": "bytes32"
        }
      ],
      "stateMutability": "view",
      "type": "function"
    },
    {
      "inputs": [
        {
          "internalType": "bytes32",
          "name": "role",
          "type": "bytes32"
        },
        {
          "internalType": "uint256",
          "name": "index",
          "type": "uint256"
        }
      ],
      "name": "getRoleMember",
      "outputs": [
        {
          "internalType": "address",
          "name": "",
          "type": "address"
        }
      ],
      "stateMutability": "view",
      "type": "function"
    },
    {
      "inputs": [
        {
          "internalType": "bytes32",
          "name": "role",
          "type": "bytes32"
        }
      ],
      "name": "getRoleMemberCount",
      "outputs": [
        {
          "internalType": "uint256",
          "name": "",
          "type": "uint256"
        }
      ],
      "stateMutability": "view",
      "type": "function"
    },
    {
      "inputs": [
        {
          "internalType": "bytes32",
          "name": "role",
          "type": "bytes32"
        },
        {
          "internalType": "address",
          "name": "account",
          "type": "address"
        }
      ],
      "name": "grantRole",
      "outputs": [],
      "stateMutability": "nonpayable",
      "type": "function"
    },
    {
      "inputs": [
        {
          "internalType": "bytes32",
          "name": "role",
          "type": "bytes32"
        },
        {
          "internalType": "address",
          "name": "account",
          "type": "address"
        }
      ],
      "name": "hasRole",
      "outputs": [
        {
          "internalType": "bool",
          "name": "",
          "type": "bool"
        }
      ],
      "stateMutability": "view",
      "type": "function"
    },
    {
      "inputs": [
        {
          "internalType": "string",
          "name": "__name",
          "type": "string"
        },
        {
          "internalType": "string",
          "name": "__symbol",
          "type": "string"
        },
        {
          "internalType": "string",
          "name": "__baseURI",
          "type": "string"
        },
        {
          "internalType": "string",
          "name": "__baseURIExtension",
          "type": "string"
        },
        {
          "internalType": "address",
          "name": "governor",
          "type": "address"
        }
      ],
      "name": "initialize",
      "outputs": [],
      "stateMutability": "nonpayable",
      "type": "function"
    },
    {
      "inputs": [
        {
          "internalType": "address",
          "name": "owner",
          "type": "address"
        },
        {
          "internalType": "address",
          "name": "operator",
          "type": "address"
        }
      ],
      "name": "isApprovedForAll",
      "outputs": [
        {
          "internalType": "bool",
          "name": "",
          "type": "bool"
        }
      ],
      "stateMutability": "view",
      "type": "function"
    },
    {
      "inputs": [
        {
          "internalType": "uint256",
          "name": "eventId",
          "type": "uint256"
        },
        {
          "internalType": "address",
          "name": "_addr",
          "type": "address"
        }
      ],
      "name": "isEventMinter",
      "outputs": [
        {
          "internalType": "bool",
          "name": "",
          "type": "bool"
        }
      ],
      "stateMutability": "view",
      "type": "function"
    },
    {
      "inputs": [
        {
          "internalType": "address",
          "name": "_addr",
          "type": "address"
        }
      ],
      "name": "isGovernor",
      "outputs": [
        {
          "internalType": "bool",
          "name": "",
          "type": "bool"
        }
      ],
      "stateMutability": "view",
      "type": "function"
    },
    {
      "inputs": [],
      "name": "lastEventId",
      "outputs": [
        {
          "internalType": "uint256",
          "name": "",
          "type": "uint256"
        }
      ],
      "stateMutability": "view",
      "type": "function"
    },
    {
      "inputs": [
        {
          "internalType": "uint256",
          "name": "eventId",
          "type": "uint256"
        },
        {
          "internalType": "address",
          "name": "to",
          "type": "address"
        }
      ],
      "name": "mintToken",
      "outputs": [
        {
          "internalType": "bool",
          "name": "",
          "type": "bool"
        }
      ],
      "stateMutability": "nonpayable",
      "type": "function"
    },
    {
      "inputs": [
        {
          "internalType": "uint256",
          "name": "eventId",
          "type": "uint256"
        },
        {
          "internalType": "uint256",
          "name": "tokenId",
          "type": "uint256"
        },
        {
          "internalType": "address",
          "name": "to",
          "type": "address"
        }
      ],
      "name": "mintToken",
      "outputs": [
        {
          "internalType": "bool",
          "name": "",
          "type": "bool"
        }
      ],
      "stateMutability": "nonpayable",
      "type": "function"
    },
    {
      "inputs": [],
      "name": "name",
      "outputs": [
        {
          "internalType": "string",
          "name": "",
          "type": "string"
        }
      ],
      "stateMutability": "view",
      "type": "function"
    },
    {
      "inputs": [
        {
          "internalType": "uint256",
          "name": "tokenId",
          "type": "uint256"
        }
      ],
      "name": "ownerOf",
      "outputs": [
        {
          "internalType": "address",
          "name": "",
          "type": "address"
        }
      ],
      "stateMutability": "view",
      "type": "function"
    },
    {
      "inputs": [],
      "name": "pause",
      "outputs": [],
      "stateMutability": "nonpayable",
      "type": "function"
    },
    {
      "inputs": [],
      "name": "paused",
      "outputs": [
        {
          "internalType": "bool",
          "name": "",
          "type": "bool"
        }
      ],
      "stateMutability": "view",
      "type": "function"
    },
    {
      "inputs": [
        {
          "internalType": "uint256",
          "name": "eventId",
          "type": "uint256"
        },
        {
          "internalType": "address",
          "name": "account",
          "type": "address"
        }
      ],
      "name": "removeEventMinter",
      "outputs": [],
      "stateMutability": "nonpayable",
      "type": "function"
    },
    {
      "inputs": [
        {
          "internalType": "address",
          "name": "account",
          "type": "address"
        }
      ],
      "name": "removeGovernor",
      "outputs": [],
      "stateMutability": "nonpayable",
      "type": "function"
    },
    {
      "inputs": [
        {
          "internalType": "bytes32",
          "name": "role",
          "type": "bytes32"
        },
        {
          "internalType": "address",
          "name": "account",
          "type": "address"
        }
      ],
      "name": "renounceRole",
      "outputs": [],
      "stateMutability": "nonpayable",
      "type": "function"
    },
    {
      "inputs": [
        {
          "internalType": "bytes32",
          "name": "role",
          "type": "bytes32"
        },
        {
          "internalType": "address",
          "name": "account",
          "type": "address"
        }
      ],
      "name": "revokeRole",
      "outputs": [],
      "stateMutability": "nonpayable",
      "type": "function"
    },
    {
      "inputs": [
        {
          "internalType": "address",
          "name": "from",
          "type": "address"
        },
        {
          "internalType": "address",
          "name": "to",
          "type": "address"
        },
        {
          "internalType": "uint256",
          "name": "tokenId",
          "type": "uint256"
        }
      ],
      "name": "safeTransferFrom",
      "outputs": [],
      "stateMutability": "nonpayable",
      "type": "function"
    },
    {
      "inputs": [
        {
          "internalType": "address",
          "name": "from",
          "type": "address"
        },
        {
          "internalType": "address",
          "name": "to",
          "type": "address"
        },
        {
          "internalType": "uint256",
          "name": "tokenId",
          "type": "uint256"
        },
        {
          "internalType": "bytes",
          "name": "_data",
          "type": "bytes"
        }
      ],
      "name": "safeTransferFrom",
      "outputs": [],
      "stateMutability": "nonpayable",
      "type": "function"
    },
    {
      "inputs": [
        {
          "internalType": "address",
          "name": "operator",
          "type": "address"
        },
        {
          "internalType": "bool",
          "name": "approved",
          "type": "bool"
        }
      ],
      "name": "setApprovalForAll",
      "outputs": [],
      "stateMutability": "nonpayable",
      "type": "function"
    },
    {
      "inputs": [
        {
          "internalType": "string",
          "name": "baseURI",
          "type": "string"
        }
      ],
      "name": "setBaseURI",
      "outputs": [],
      "stateMutability": "nonpayable",
      "type": "function"
    },
    {
      "inputs": [
        {
          "internalType": "string",
          "name": "baseURIExtension",
          "type": "string"
        }
      ],
      "name": "setBaseURIExtension",
      "outputs": [],
      "stateMutability": "nonpayable",
      "type": "function"
    },
    {
      "inputs": [
        {
          "internalType": "bytes4",
          "name": "interfaceId",
          "type": "bytes4"
        }
      ],
      "name": "supportsInterface",
      "outputs": [
        {
          "internalType": "bool",
          "name": "",
          "type": "bool"
        }
      ],
      "stateMutability": "view",
      "type": "function"
    },
    {
      "inputs": [],
      "name": "symbol",
      "outputs": [
        {
          "internalType": "string",
          "name": "",
          "type": "string"
        }
      ],
      "stateMutability": "view",
      "type": "function"
    },
    {
      "inputs": [
        {
          "internalType": "uint256",
          "name": "index",
          "type": "uint256"
        }
      ],
      "name": "tokenByIndex",
      "outputs": [
        {
          "internalType": "uint256",
          "name": "",
          "type": "uint256"
        }
      ],
      "stateMutability": "view",
      "type": "function"
    },
    {
      "inputs": [
        {
          "internalType": "address",
          "name": "owner",
          "type": "address"
        },
        {
          "internalType": "uint256",
          "name": "index",
          "type": "uint256"
        }
      ],
      "name": "tokenDetailsOfOwnerByIndex",
      "outputs": [
        {
          "internalType": "uint256",
          "name": "tokenId",
          "type": "uint256"
        },
        {
          "internalType": "uint256",
          "name": "eventId",
          "type": "uint256"
        }
      ],
      "stateMutability": "view",
      "type": "function"
    },
    {
      "inputs": [
        {
          "internalType": "uint256",
          "name": "",
          "type": "uint256"
        }
      ],
      "name": "tokenEvent",
      "outputs": [
        {
          "internalType": "uint256",
          "name": "",
          "type": "uint256"
        }
      ],
      "stateMutability": "view",
      "type": "function"
    },
    {
      "inputs": [
        {
          "internalType": "address",
          "name": "owner",
          "type": "address"
        },
        {
          "internalType": "uint256",
          "name": "index",
          "type": "uint256"
        }
      ],
      "name": "tokenOfOwnerByIndex",
      "outputs": [
        {
          "internalType": "uint256",
          "name": "",
          "type": "uint256"
        }
      ],
      "stateMutability": "view",
      "type": "function"
    },
    {
      "inputs": [
        {
          "internalType": "uint256",
          "name": "tokenId",
          "type": "uint256"
        }
      ],
      "name": "tokenURI",
      "outputs": [
        {
          "internalType": "string",
          "name": "",
          "type": "string"
        }
      ],
      "stateMutability": "view",
      "type": "function"
    },
    {
      "inputs": [],
      "name": "totalSupply",
      "outputs": [
        {
          "internalType": "uint256",
          "name": "",
          "type": "uint256"
        }
      ],
      "stateMutability": "view",
      "type": "function"
    },
    {
      "inputs": [
        {
          "internalType": "address",
          "name": "from",
          "type": "address"
        },
        {
          "internalType": "address",
          "name": "to",
          "type": "address"
        },
        {
          "internalType": "uint256",
          "name": "tokenId",
          "type": "uint256"
        }
      ],
      "name": "transferFrom",
      "outputs": [],
      "stateMutability": "nonpayable",
      "type": "function"
    },
    {
      "inputs": [],
      "name": "unpause",
      "outputs": [],
      "stateMutability": "nonpayable",
      "type": "function"
    },
    {
      "inputs": [
        {
          "internalType": "address",
          "name": "newImplementation",
          "type": "address"
        }
      ],
      "name": "upgradeTo",
      "outputs": [],
      "stateMutability": "nonpayable",
      "type": "function"
    },
    {
      "inputs": [
        {
          "internalType": "address",
          "name": "newImplementation",
          "type": "address"
        },
        {
          "internalType": "bytes",
          "name": "data",
          "type": "bytes"
        }
      ],
      "name": "upgradeToAndCall",
      "outputs": [],
      "stateMutability": "payable",
      "type": "function"
    }
  ],
  "numDeployments": 1,
  "solcInputHash": "f9757d9a35bba14f1ce8c9e9b415a9ea",
  "bytecode": "0x60a06040523060601b6080523480156200001857600080fd5b50600054610100900460ff168062000033575060005460ff16155b6200009b5760405162461bcd60e51b815260206004820152602e60248201527f496e697469616c697a61626c653a20636f6e747261637420697320616c72656160448201526d191e481a5b9a5d1a585b1a5e995960921b606482015260840160405180910390fd5b600054610100900460ff16158015620000be576000805461ffff19166101011790555b8015620000d1576000805461ff00191690555b5060805160601c613edc6200010660003960008181610d9401528181610dd401528181610fe901526110290152613edc6000f3fe6080604052600436106102935760003560e01c80635c975abb1161015a578063a22cb465116100c1578063d547741f1161007a578063d547741f14610807578063d890c8e214610827578063e43581b814610847578063e5458e2014610867578063e985e9c514610887578063eecdac88146108d057600080fd5b8063a22cb46514610737578063b2c50b1214610757578063b88d4fde14610785578063c87b56dd146107a5578063ca15c873146107c5578063ccc57490146107e557600080fd5b80639010d07c116101135780639010d07c1461068d57806391d14854146106ad57806395d89b41146106cd5780639cd3cad6146106e2578063a140ae2314610702578063a217fddf1461072257600080fd5b80635c975abb146105ca5780636352211e146105e357806367e971ce1461060357806370a0823114610638578063787b8d47146106585780638456cb591461067857600080fd5b80632f2ff15d116101fe57806342842e0e116101b757806342842e0e1461051757806342966c6814610537578063467de36c146105575780634f1ef286146105775780634f6ccce71461058a57806355f804b3146105aa57600080fd5b80632f2ff15d146104625780632f745c591461048257806336568abe146104a25780633659cfe6146104c25780633c4a25d0146104e25780633f4ba83a1461050257600080fd5b8063166c4b0511610250578063166c4b051461039c57806318160ddd146103bc57806323b872dd146103d1578063248a9ca3146103f157806328db38b4146104225780632e6400241461044257600080fd5b806301ffc9a714610298578063054e9507146102cd57806306fdde03146102f2578063081812fc14610314578063095ea7b31461034c578063127a52981461036e575b600080fd5b3480156102a457600080fd5b506102b86102b3366004613705565b6108f0565b60405190151581526020015b60405180910390f35b3480156102d957600080fd5b506102e46101c45481565b6040519081526020016102c4565b3480156102fe57600080fd5b50610307610910565b6040516102c49190613a45565b34801561032057600080fd5b5061033461032f3660046136a8565b6109a2565b6040516001600160a01b0390911681526020016102c4565b34801561035857600080fd5b5061036c61036736600461367d565b610a3c565b005b34801561037a57600080fd5b506102e46103893660046136a8565b6101fa6020526000908152604090205481565b3480156103a857600080fd5b5061036c6103b73660046136c0565b610b52565b3480156103c857600080fd5b5060fd546102e4565b3480156103dd57600080fd5b5061036c6103ec366004613554565b610b85565b3480156103fd57600080fd5b506102e461040c3660046136a8565b600090815261012d602052604090206001015490565b34801561042e57600080fd5b506102b861043d3660046136c0565b610bb7565b34801561044e57600080fd5b5061036c61045d366004613770565b610be7565b34801561046e57600080fd5b5061036c61047d3660046136c0565b610cad565b34801561048e57600080fd5b506102e461049d36600461367d565b610cd0565b3480156104ae57600080fd5b5061036c6104bd3660046136c0565b610d66565b3480156104ce57600080fd5b5061036c6104dd366004613500565b610d89565b3480156104ee57600080fd5b5061036c6104fd366004613500565b610e52565b34801561050e57600080fd5b5061036c610e80565b34801561052357600080fd5b5061036c610532366004613554565b610ef9565b34801561054357600080fd5b5061036c6105523660046136a8565b610f14565b34801561056357600080fd5b5061036c61057236600461373d565b610f81565b61036c61058536600461362f565b610fde565b34801561059657600080fd5b506102e46105a53660046136a8565b611094565b3480156105b657600080fd5b5061036c6105c536600461373d565b611135565b3480156105d657600080fd5b506101915460ff166102b8565b3480156105ef57600080fd5b506103346105fe3660046136a8565b611192565b34801561060f57600080fd5b5061062361061e36600461367d565b611209565b604080519283526020830191909152016102c4565b34801561064457600080fd5b506102e4610653366004613500565b611231565b34801561066457600080fd5b5061036c610673366004613500565b6112b8565b34801561068457600080fd5b5061036c6112e6565b34801561069957600080fd5b506103346106a83660046136e4565b611337565b3480156106b957600080fd5b506102b86106c83660046136c0565b611350565b3480156106d957600080fd5b5061030761137c565b3480156106ee57600080fd5b5061036c6106fd3660046136c0565b61138b565b34801561070e57600080fd5b506102b861071d3660046136c0565b6113ba565b34801561072e57600080fd5b506102e4600081565b34801561074357600080fd5b5061036c6107523660046135fe565b61143e565b34801561076357600080fd5b506102e46107723660046136a8565b6101c36020526000908152604090205481565b34801561079157600080fd5b5061036c6107a0366004613594565b611503565b3480156107b157600080fd5b506103076107c03660046136a8565b61153b565b3480156107d157600080fd5b506102e46107e03660046136a8565b611607565b3480156107f157600080fd5b506102e4600080516020613e6083398151915281565b34801561081357600080fd5b5061036c6108223660046136c0565b61161f565b34801561083357600080fd5b506102b861084236600461382d565b611629565b34801561085357600080fd5b506102b8610862366004613500565b611690565b34801561087357600080fd5b5061036c61088236600461382d565b6116aa565b34801561089357600080fd5b506102b86108a236600461351c565b6001600160a01b03918216600090815260ce6020908152604080832093909416825291909152205460ff1690565b3480156108dc57600080fd5b5061036c6108eb366004613500565b61181c565b60006108fb8261184a565b8061090a575061090a8261186f565b92915050565b606060c9805461091f90613d88565b80601f016020809104026020016040519081016040528092919081815260200182805461094b90613d88565b80156109985780601f1061096d57610100808354040283529160200191610998565b820191906000526020600020905b81548152906001019060200180831161097b57829003601f168201915b5050505050905090565b600081815260cb60205260408120546001600160a01b0316610a205760405162461bcd60e51b815260206004820152602c60248201527f4552433732313a20617070726f76656420717565727920666f72206e6f6e657860448201526b34b9ba32b73a103a37b5b2b760a11b60648201526084015b60405180910390fd5b50600090815260cd60205260409020546001600160a01b031690565b6000610a4782611192565b9050806001600160a01b0316836001600160a01b03161415610ab55760405162461bcd60e51b815260206004820152602160248201527f4552433732313a20617070726f76616c20746f2063757272656e74206f776e656044820152603960f91b6064820152608401610a17565b336001600160a01b0382161480610ad15750610ad181336108a2565b610b435760405162461bcd60e51b815260206004820152603860248201527f4552433732313a20617070726f76652063616c6c6572206973206e6f74206f7760448201527f6e6572206e6f7220617070726f76656420666f7220616c6c00000000000000006064820152608401610a17565b610b4d8383611894565b505050565b610b5b33611690565b610b775760405162461bcd60e51b8152600401610a1790613c96565b610b818282611902565b5050565b610b90335b82611982565b610bac5760405162461bcd60e51b8152600401610a1790613c45565b610b4d838383611a75565b60008281526101c36020526040812054610bd19083611350565b80610be05750610be082611690565b9392505050565b600054610100900460ff1680610c00575060005460ff16155b610c1c5760405162461bcd60e51b8152600401610a1790613bf7565b600054610100900460ff16158015610c3e576000805461ffff19166101011790555b8351610c52906101f89060208701906133e0565b508251610c67906101f99060208601906133e0565b50610c7182611c20565b610c7b8686611cbd565b610c83611d52565b610c8b611d52565b610c93611d52565b8015610ca5576000805461ff00191690555b505050505050565b610cb78282611dbd565b600082815261015f60205260409020610b4d9082611de4565b6000610cdb83611231565b8210610d3d5760405162461bcd60e51b815260206004820152602b60248201527f455243373231456e756d657261626c653a206f776e657220696e646578206f7560448201526a74206f6620626f756e647360a81b6064820152608401610a17565b506001600160a01b0391909116600090815260fb60209081526040808320938352929052205490565b610d708282611df9565b600082815261015f60205260409020610b4d9082611e73565b306001600160a01b037f0000000000000000000000000000000000000000000000000000000000000000161415610dd25760405162461bcd60e51b8152600401610a1790613afe565b7f00000000000000000000000000000000000000000000000000000000000000006001600160a01b0316610e04611e88565b6001600160a01b031614610e2a5760405162461bcd60e51b8152600401610a1790613b4a565b610e3381611eb6565b60408051600080825260208201909252610e4f91839190611edb565b50565b610e5b33611690565b610e775760405162461bcd60e51b8152600401610a1790613c96565b610e4f81612026565b610e8933611690565b610ea55760405162461bcd60e51b8152600401610a1790613c96565b6101915460ff16610eef5760405162461bcd60e51b815260206004820152601460248201527314185d5cd8589b194e881b9bdd081c185d5cd95960621b6044820152606401610a17565b610ef7612075565b565b610b4d83838360405180602001604052806000815250611503565b610f1d33610b8a565b610f785760405162461bcd60e51b815260206004820152602660248201527f537761793a2063616c6c6572206973206e6f74206f776e6572206e6f722061706044820152651c1c9bdd995960d21b6064820152608401610a17565b610e4f8161210a565b610f8a33611690565b610fa65760405162461bcd60e51b8152600401610a1790613c96565b6101915460ff1615610fca5760405162461bcd60e51b8152600401610a1790613bcd565b8051610b81906101f99060208401906133e0565b306001600160a01b037f00000000000000000000000000000000000000000000000000000000000000001614156110275760405162461bcd60e51b8152600401610a1790613afe565b7f00000000000000000000000000000000000000000000000000000000000000006001600160a01b0316611059611e88565b6001600160a01b03161461107f5760405162461bcd60e51b8152600401610a1790613b4a565b61108882611eb6565b610b8182826001611edb565b600061109f60fd5490565b82106111025760405162461bcd60e51b815260206004820152602c60248201527f455243373231456e756d657261626c653a20676c6f62616c20696e646578206f60448201526b7574206f6620626f756e647360a01b6064820152608401610a17565b60fd828154811061112357634e487b7160e01b600052603260045260246000fd5b90600052602060002001549050919050565b61113e33611690565b61115a5760405162461bcd60e51b8152600401610a1790613c96565b6101915460ff161561117e5760405162461bcd60e51b8152600401610a1790613bcd565b8051610b81906101f89060208401906133e0565b600081815260cb60205260408120546001600160a01b03168061090a5760405162461bcd60e51b815260206004820152602960248201527f4552433732313a206f776e657220717565727920666f72206e6f6e657869737460448201526832b73a103a37b5b2b760b91b6064820152608401610a17565b6000806112168484610cd0565b60008181526101fa6020526040902054909590945092505050565b60006001600160a01b03821661129c5760405162461bcd60e51b815260206004820152602a60248201527f4552433732313a2062616c616e636520717565727920666f7220746865207a65604482015269726f206164647265737360b01b6064820152608401610a17565b506001600160a01b0316600090815260cc602052604090205490565b6112c133611690565b6112dd5760405162461bcd60e51b8152600401610a1790613c96565b610e4f81612125565b6112ef33611690565b61130b5760405162461bcd60e51b8152600401610a1790613c96565b6101915460ff161561132f5760405162461bcd60e51b8152600401610a1790613bcd565b610ef76121ea565b600082815261015f60205260408120610be09083612244565b600091825261012d602090815260408084206001600160a01b0393909316845291905290205460ff1690565b606060ca805461091f90613d88565b61139433611690565b6113b05760405162461bcd60e51b8152600401610a1790613c96565b610b818282612250565b60006113c96101915460ff1690565b156113e65760405162461bcd60e51b8152600401610a1790613bcd565b826113f18133610bb7565b61140d5760405162461bcd60e51b8152600401610a1790613a58565b60016101f760008282546114219190613ce3565b92505081905550611436846101f754856122d0565b949350505050565b6001600160a01b0382163314156114975760405162461bcd60e51b815260206004820152601960248201527f4552433732313a20617070726f766520746f2063616c6c6572000000000000006044820152606401610a17565b33600081815260ce602090815260408083206001600160a01b03871680855290835292819020805460ff191686151590811790915590519081529192917f17307eab39ab6107e8899845ad3d59bd9653f200f220920489ca2b5937696c31910160405180910390a35050565b61150d3383611982565b6115295760405162461bcd60e51b8152600401610a1790613c45565b61153584848484612332565b50505050565b600081815260cb60205260409020546060906001600160a01b03166115b05760405162461bcd60e51b815260206004820152602560248201527f537761793a2055524920717565727920666f72206e6f6e6578697374656e74206044820152643a37b5b2b760d91b6064820152608401610a17565b60008281526101fa60205260409020546115c8612365565b6115d182612375565b6115da85612375565b6101f96040516020016115f094939291906138ad565b604051602081830303815290604052915050919050565b600081815261015f6020526040812061090a9061248f565b610d708282612499565b60006116386101915460ff1690565b156116555760405162461bcd60e51b8152600401610a1790613bcd565b836116608133610bb7565b61167c5760405162461bcd60e51b8152600401610a1790613a58565b6116878585856122d0565b95945050505050565b600061090a600080516020613e6083398151915283611350565b6116b333611690565b6116cf5760405162461bcd60e51b8152600401610a1790613c96565b6001600160a01b0381166117385760405162461bcd60e51b815260206004820152602a60248201527f5377617941646d696e3a2064726f7020616464726573732073686f756c64206e6044820152696f74206265207a65726f60b01b6064820152608401610a17565b816117855760405162461bcd60e51b815260206004820152601b60248201527f5377617941646d696e3a20726f6f7448617368206973207a65726f00000000006044820152606401610a17565b60008381526101c360205260409020546117b15760405162461bcd60e51b8152600401610a1790613b96565b6040516330dde7eb60e21b815260048101849052602481018390526001600160a01b0382169063c3779fac90604401600060405180830381600087803b1580156117fa57600080fd5b505af115801561180e573d6000803e3d6000fd5b50505050610b4d8382612250565b61182533611690565b6118415760405162461bcd60e51b8152600401610a1790613c96565b610e4f816124c0565b60006001600160e01b0319821663780e9d6360e01b148061090a575061090a8261250f565b60006001600160e01b03198216635a05180f60e01b148061090a575061090a8261255f565b600081815260cd6020526040902080546001600160a01b0319166001600160a01b03841690811790915581906118c982611192565b6001600160a01b03167f8c5be1e5ebec7d5bd14f71427d1e84f3dd0314c0f7b2291e5b200ac8c7c3b92560405160405180910390a45050565b60008281526101c3602052604090205461192e5760405162461bcd60e51b8152600401610a1790613b96565b60008281526101c360205260409020546119489082610d66565b6040516001600160a01b0382169083907fb6882c4d609d560f6d57e78e73dd96027f0d9852739b0b922537a6dd3c8e944c90600090a35050565b600081815260cb60205260408120546001600160a01b03166119fb5760405162461bcd60e51b815260206004820152602c60248201527f4552433732313a206f70657261746f7220717565727920666f72206e6f6e657860448201526b34b9ba32b73a103a37b5b2b760a11b6064820152608401610a17565b6000611a0683611192565b9050806001600160a01b0316846001600160a01b03161480611a415750836001600160a01b0316611a36846109a2565b6001600160a01b0316145b8061143657506001600160a01b03808216600090815260ce602090815260408083209388168352929052205460ff16611436565b826001600160a01b0316611a8882611192565b6001600160a01b031614611af05760405162461bcd60e51b815260206004820152602960248201527f4552433732313a207472616e73666572206f6620746f6b656e2074686174206960448201526839903737ba1037bbb760b91b6064820152608401610a17565b6001600160a01b038216611b525760405162461bcd60e51b8152602060048201526024808201527f4552433732313a207472616e7366657220746f20746865207a65726f206164646044820152637265737360e01b6064820152608401610a17565b611b5d838383612584565b611b68600082611894565b6001600160a01b038316600090815260cc60205260408120805460019290611b91908490613d2e565b90915550506001600160a01b038216600090815260cc60205260408120805460019290611bbf908490613ce3565b9091555050600081815260cb602052604080822080546001600160a01b0319166001600160a01b0386811691821790925591518493918716917fddf252ad1be2c89b69c2b068fc378daa952ba7f163c4a11628f55a4df523b3ef91a4505050565b600054610100900460ff1680611c39575060005460ff16155b611c555760405162461bcd60e51b8152600401610a1790613bf7565b600054610100900460ff16158015611c77576000805461ffff19166101011790555b611c7f611d52565b611c87611d52565b611c8f611d52565b611c97611d52565b611c9f6125ed565b611ca882612663565b8015610b81576000805461ff00191690555050565b600054610100900460ff1680611cd6575060005460ff16155b611cf25760405162461bcd60e51b8152600401610a1790613bf7565b600054610100900460ff16158015611d14576000805461ffff19166101011790555b8251611d279060c99060208601906133e0565b508151611d3b9060ca9060208501906133e0565b508015610b4d576000805461ff0019169055505050565b600054610100900460ff1680611d6b575060005460ff16155b611d875760405162461bcd60e51b8152600401610a1790613bf7565b600054610100900460ff16158015611da9576000805461ffff19166101011790555b8015610e4f576000805461ff001916905550565b600082815261012d6020526040902060010154611dda8133612733565b610b4d8383612797565b6000610be0836001600160a01b03841661281e565b6001600160a01b0381163314611e695760405162461bcd60e51b815260206004820152602f60248201527f416363657373436f6e74726f6c3a2063616e206f6e6c792072656e6f756e636560448201526e103937b632b9903337b91039b2b63360891b6064820152608401610a17565b610b81828261286d565b6000610be0836001600160a01b0384166128d5565b7f360894a13ba1a3210667c828492db98dca3e2076cc3735a920a3ca505d382bbc546001600160a01b031690565b611ebf33611690565b610e4f5760405162461bcd60e51b8152600401610a1790613c96565b6000611ee5611e88565b9050611ef0846129f2565b600083511180611efd5750815b15611f0e57611f0c8484612a97565b505b7f4910fdfa16fed3260ed0e7147f7cc6da11a60208b5b9406d12a635614ffd9143805460ff1661201f57805460ff191660011781556040516001600160a01b0383166024820152611f8d90869060440160408051601f198184030181529190526020810180516001600160e01b0316631b2ce7f360e11b179052612a97565b50805460ff19168155611f9e611e88565b6001600160a01b0316826001600160a01b0316146120165760405162461bcd60e51b815260206004820152602f60248201527f45524331393637557067726164653a207570677261646520627265616b73206660448201526e75727468657220757067726164657360881b6064820152608401610a17565b61201f85612b79565b5050505050565b61203e600080516020613e6083398151915282610cad565b6040516001600160a01b038216907fdc5a48d79e2e147530ff63ecdbed5a5a66adb9d5cf339384d5d076da197c40b590600090a250565b6101915460ff166120bf5760405162461bcd60e51b815260206004820152601460248201527314185d5cd8589b194e881b9bdd081c185d5cd95960621b6044820152606401610a17565b610191805460ff191690557f5db9ee0a495bf2e6ff9c91a7834c1ba4fdd244a5e8aa4e537bd38aeae4b073aa335b6040516001600160a01b03909116815260200160405180910390a1565b61211381612bb9565b60009081526101fa6020526040812055565b60016101c460008282546121399190613ce3565b92505081905550600061214e6101c454612375565b60405160200161215e9190613891565b60405160208183030381529060405280519060200120905061218e81600080516020613e60833981519152612c60565b6101c4805460009081526101c360205260408082208490559154915183926001600160a01b0386169290917f613e137a89b79c7d1e214c39381dfac9f62e1f202a0e2e8c17d44d7d689cd8ea9190a4610b816101c45483612250565b6101915460ff161561220e5760405162461bcd60e51b8152600401610a1790613bcd565b610191805460ff191660011790557f62e78cea01bee320cd4e420270b5ea74000d11b0c9f74754ebdbfc544b05a2586120ed3390565b6000610be08383612cac565b60008281526101c3602052604090205461227c5760405162461bcd60e51b8152600401610a1790613b96565b60008281526101c360205260409020546122969082610cad565b6040516001600160a01b0382169083907fe1bd660d9f7c60e6fb12dd6479fdde12d21fc96385dc7b9b022c0b2f319e739190600090a35050565b60006122dc8284612ce4565b60008381526101fa602090815260409182902086905581518681529081018590527f4b3711cd7ece062b0828c1b6e08d814a72d4c003383a016c833cbb1b45956e34910160405180910390a15060019392505050565b61233d848484611a75565b61234984848484612e32565b6115355760405162461bcd60e51b8152600401610a1790613aac565b60606101f8805461091f90613d88565b6060816123995750506040805180820190915260018152600360fc1b602082015290565b8160005b81156123c357806123ad81613dc3565b91506123bc9050600a83613cfb565b915061239d565b60008167ffffffffffffffff8111156123ec57634e487b7160e01b600052604160045260246000fd5b6040519080825280601f01601f191660200182016040528015612416576020820181803683370190505b5090505b84156114365761242b600183613d2e565b9150612438600a86613dde565b612443906030613ce3565b60f81b81838151811061246657634e487b7160e01b600052603260045260246000fd5b60200101906001600160f81b031916908160001a905350612488600a86613cfb565b945061241a565b600061090a825490565b600082815261012d60205260409020600101546124b68133612733565b610b4d838361286d565b6124d8600080516020613e6083398151915282610d66565b6040516001600160a01b038216907f1ebe834e73d60a5fec822c1e1727d34bc79f2ad977ed504581cc1822fe20fb5b90600090a250565b60006001600160e01b031982166380ac58cd60e01b148061254057506001600160e01b03198216635b5e139f60e01b145b8061090a57506301ffc9a760e01b6001600160e01b031983161461090a565b60006001600160e01b03198216637965db0b60e01b148061090a575061090a8261184a565b61258f838383612f3f565b6101915460ff1615610b4d5760405162461bcd60e51b815260206004820152602160248201527f537761793a20746f6b656e207472616e73666572207768696c652070617573656044820152601960fa1b6064820152608401610a17565b600054610100900460ff1680612606575060005460ff16155b6126225760405162461bcd60e51b8152600401610a1790613bf7565b600054610100900460ff16158015612644576000805461ffff19166101011790555b610191805460ff191690558015610e4f576000805461ff001916905550565b600054610100900460ff168061267c575060005460ff16155b6126985760405162461bcd60e51b8152600401610a1790613bf7565b600054610100900460ff161580156126ba576000805461ffff19166101011790555b6126d2600080516020613e6083398151915280612c60565b6126ea600080516020613e6083398151915283612ff7565b6040516001600160a01b038316907fdc5a48d79e2e147530ff63ecdbed5a5a66adb9d5cf339384d5d076da197c40b590600090a28015610b81576000805461ff00191690555050565b61273d8282611350565b610b8157612755816001600160a01b03166014613001565b612760836020613001565b604051602001612771929190613993565b60408051601f198184030181529082905262461bcd60e51b8252610a1791600401613a45565b6127a18282611350565b610b8157600082815261012d602090815260408083206001600160a01b03851684529091529020805460ff191660011790556127da3390565b6001600160a01b0316816001600160a01b0316837f2f8788117e7eff1d82e926ec794901d17c78024a50270940304540a733656f0d60405160405180910390a45050565b60008181526001830160205260408120546128655750815460018181018455600084815260208082209093018490558454848252828601909352604090209190915561090a565b50600061090a565b6128778282611350565b15610b8157600082815261012d602090815260408083206001600160a01b0385168085529252808320805460ff1916905551339285917ff6391f5c32d9c69d2a47ea670b442974b53935d1edc7fd64eb21e047a839171b9190a45050565b600081815260018301602052604081205480156129e85760006128f9600183613d2e565b855490915060009061290d90600190613d2e565b905081811461298e57600086600001828154811061293b57634e487b7160e01b600052603260045260246000fd5b906000526020600020015490508087600001848154811061296c57634e487b7160e01b600052603260045260246000fd5b6000918252602080832090910192909255918252600188019052604090208390555b85548690806129ad57634e487b7160e01b600052603160045260246000fd5b60019003818190600052602060002001600090559055856001016000868152602001908152602001600020600090556001935050505061090a565b600091505061090a565b803b612a565760405162461bcd60e51b815260206004820152602d60248201527f455243313936373a206e657720696d706c656d656e746174696f6e206973206e60448201526c1bdd08184818dbdb9d1c9858dd609a1b6064820152608401610a17565b7f360894a13ba1a3210667c828492db98dca3e2076cc3735a920a3ca505d382bbc80546001600160a01b0319166001600160a01b0392909216919091179055565b6060823b612af65760405162461bcd60e51b815260206004820152602660248201527f416464726573733a2064656c65676174652063616c6c20746f206e6f6e2d636f6044820152651b9d1c9858dd60d21b6064820152608401610a17565b600080846001600160a01b031684604051612b119190613891565b600060405180830381855af49150503d8060008114612b4c576040519150601f19603f3d011682016040523d82523d6000602084013e612b51565b606091505b50915091506116878282604051806060016040528060278152602001613e80602791396131e3565b612b82816129f2565b6040516001600160a01b038216907fbc7cd75a20ee27fd9adebab32041f755214dbc6bffa90cc0225b39da2e5c2d3b90600090a250565b6000612bc482611192565b9050612bd281600084612584565b612bdd600083611894565b6001600160a01b038116600090815260cc60205260408120805460019290612c06908490613d2e565b9091555050600082815260cb602052604080822080546001600160a01b0319169055518391906001600160a01b038416907fddf252ad1be2c89b69c2b068fc378daa952ba7f163c4a11628f55a4df523b3ef908390a45050565b600082815261012d6020526040808220600101805490849055905190918391839186917fbd79b86ffe0ab8e8776151514217cd7cacd52c909f66475c3af44e129f0b00ff9190a4505050565b6000826000018281548110612cd157634e487b7160e01b600052603260045260246000fd5b9060005260206000200154905092915050565b6001600160a01b038216612d3a5760405162461bcd60e51b815260206004820181905260248201527f4552433732313a206d696e7420746f20746865207a65726f20616464726573736044820152606401610a17565b600081815260cb60205260409020546001600160a01b031615612d9f5760405162461bcd60e51b815260206004820152601c60248201527f4552433732313a20746f6b656e20616c7265616479206d696e746564000000006044820152606401610a17565b612dab60008383612584565b6001600160a01b038216600090815260cc60205260408120805460019290612dd4908490613ce3565b9091555050600081815260cb602052604080822080546001600160a01b0319166001600160a01b03861690811790915590518392907fddf252ad1be2c89b69c2b068fc378daa952ba7f163c4a11628f55a4df523b3ef908290a45050565b60006001600160a01b0384163b15612f3457604051630a85bd0160e11b81526001600160a01b0385169063150b7a0290612e76903390899088908890600401613a08565b602060405180830381600087803b158015612e9057600080fd5b505af1925050508015612ec0575060408051601f3d908101601f19168201909252612ebd91810190613721565b60015b612f1a573d808015612eee576040519150601f19603f3d011682016040523d82523d6000602084013e612ef3565b606091505b508051612f125760405162461bcd60e51b8152600401610a1790613aac565b805181602001fd5b6001600160e01b031916630a85bd0160e11b149050611436565b506001949350505050565b6001600160a01b038316612f9a57612f958160fd8054600083815260fe60205260408120829055600182018355919091527f9346ac6dd7de6b96975fec380d4d994c4c12e6a8897544f22915316cc6cca2800155565b612fbd565b816001600160a01b0316836001600160a01b031614612fbd57612fbd838261321c565b6001600160a01b038216612fd457610b4d816132b9565b826001600160a01b0316826001600160a01b031614610b4d57610b4d8282613392565b610cb782826133d6565b60606000613010836002613d0f565b61301b906002613ce3565b67ffffffffffffffff81111561304157634e487b7160e01b600052604160045260246000fd5b6040519080825280601f01601f19166020018201604052801561306b576020820181803683370190505b509050600360fc1b8160008151811061309457634e487b7160e01b600052603260045260246000fd5b60200101906001600160f81b031916908160001a905350600f60fb1b816001815181106130d157634e487b7160e01b600052603260045260246000fd5b60200101906001600160f81b031916908160001a90535060006130f5846002613d0f565b613100906001613ce3565b90505b6001811115613194576f181899199a1a9b1b9c1cb0b131b232b360811b85600f166010811061314257634e487b7160e01b600052603260045260246000fd5b1a60f81b82828151811061316657634e487b7160e01b600052603260045260246000fd5b60200101906001600160f81b031916908160001a90535060049490941c9361318d81613d71565b9050613103565b508315610be05760405162461bcd60e51b815260206004820181905260248201527f537472696e67733a20686578206c656e67746820696e73756666696369656e746044820152606401610a17565b606083156131f2575081610be0565b8251156132025782518084602001fd5b8160405162461bcd60e51b8152600401610a179190613a45565b6000600161322984611231565b6132339190613d2e565b600083815260fc6020526040902054909150808214613286576001600160a01b038416600090815260fb60209081526040808320858452825280832054848452818420819055835260fc90915290208190555b50600091825260fc602090815260408084208490556001600160a01b03909416835260fb81528383209183525290812055565b60fd546000906132cb90600190613d2e565b600083815260fe602052604081205460fd805493945090928490811061330157634e487b7160e01b600052603260045260246000fd5b906000526020600020015490508060fd838154811061333057634e487b7160e01b600052603260045260246000fd5b600091825260208083209091019290925582815260fe909152604080822084905585825281205560fd80548061337657634e487b7160e01b600052603160045260246000fd5b6001900381819060005260206000200160009055905550505050565b600061339d83611231565b6001600160a01b03909316600090815260fb60209081526040808320868452825280832085905593825260fc9052919091209190915550565b610b818282612797565b8280546133ec90613d88565b90600052602060002090601f01602090048101928261340e5760008555613454565b82601f1061342757805160ff1916838001178555613454565b82800160010185558215613454579182015b82811115613454578251825591602001919060010190613439565b50613460929150613464565b5090565b5b808211156134605760008155600101613465565b600082601f830112613489578081fd5b813567ffffffffffffffff808211156134a4576134a4613e1e565b604051601f8301601f19908116603f011681019082821181831017156134cc576134cc613e1e565b816040528381528660208588010111156134e4578485fd5b8360208701602083013792830160200193909352509392505050565b600060208284031215613511578081fd5b8135610be081613e34565b6000806040838503121561352e578081fd5b823561353981613e34565b9150602083013561354981613e34565b809150509250929050565b600080600060608486031215613568578081fd5b833561357381613e34565b9250602084013561358381613e34565b929592945050506040919091013590565b600080600080608085870312156135a9578081fd5b84356135b481613e34565b935060208501356135c481613e34565b925060408501359150606085013567ffffffffffffffff8111156135e6578182fd5b6135f287828801613479565b91505092959194509250565b60008060408385031215613610578182fd5b823561361b81613e34565b915060208301358015158114613549578182fd5b60008060408385031215613641578182fd5b823561364c81613e34565b9150602083013567ffffffffffffffff811115613667578182fd5b61367385828601613479565b9150509250929050565b6000806040838503121561368f578182fd5b823561369a81613e34565b946020939093013593505050565b6000602082840312156136b9578081fd5b5035919050565b600080604083850312156136d2578182fd5b82359150602083013561354981613e34565b600080604083850312156136f6578182fd5b50508035926020909101359150565b600060208284031215613716578081fd5b8135610be081613e49565b600060208284031215613732578081fd5b8151610be081613e49565b60006020828403121561374e578081fd5b813567ffffffffffffffff811115613764578182fd5b61143684828501613479565b600080600080600060a08688031215613787578283fd5b853567ffffffffffffffff8082111561379e578485fd5b6137aa89838a01613479565b965060208801359150808211156137bf578485fd5b6137cb89838a01613479565b955060408801359150808211156137e0578485fd5b6137ec89838a01613479565b94506060880135915080821115613801578283fd5b5061380e88828901613479565b925050608086013561381f81613e34565b809150509295509295909350565b600080600060608486031215613841578081fd5b8335925060208401359150604084013561385a81613e34565b809150509250925092565b6000815180845261387d816020860160208601613d45565b601f01601f19169290920160200192915050565b600082516138a3818460208701613d45565b9190910192915050565b6000855160206138c08285838b01613d45565b8651918401916138d38184848b01613d45565b602f60f81b920191825285516001906138f181838601858b01613d45565b8654930192849080831c8382168061390a57607f821691505b85821081141561392857634e487b7160e01b88526022600452602488fd5b80801561393c576001811461395157613981565b60ff1984168887015282880186019450613981565b60008b815260209020895b848110156139775781548a820189015290870190880161395c565b5050858389010194505b50929c9b505050505050505050505050565b7f416363657373436f6e74726f6c3a206163636f756e74200000000000000000008152600083516139cb816017850160208801613d45565b7001034b99036b4b9b9b4b733903937b6329607d1b60179184019182015283516139fc816028840160208801613d45565b01602801949350505050565b6001600160a01b0385811682528416602082015260408101839052608060608201819052600090613a3b90830184613865565b9695505050505050565b602081526000610be06020830184613865565b60208082526034908201527f5377617941646d696e3a2073656e64657220646f6573206e6f74206861766520604082015273135a5b9d195c88149bdb19481a5b88115d995b9d60621b606082015260800190565b60208082526032908201527f4552433732313a207472616e7366657220746f206e6f6e20455243373231526560408201527131b2b4bb32b91034b6b83632b6b2b73a32b960711b606082015260800190565b6020808252602c908201527f46756e6374696f6e206d7573742062652063616c6c6564207468726f7567682060408201526b19195b1959d85d1958d85b1b60a21b606082015260800190565b6020808252602c908201527f46756e6374696f6e206d7573742062652063616c6c6564207468726f7567682060408201526b6163746976652070726f787960a01b606082015260800190565b6020808252601c908201527f5377617941646d696e3a206576656e744964206e6f7420666f756e6400000000604082015260600190565b60208082526010908201526f14185d5cd8589b194e881c185d5cd95960821b604082015260600190565b6020808252602e908201527f496e697469616c697a61626c653a20636f6e747261637420697320616c72656160408201526d191e481a5b9a5d1a585b1a5e995960921b606082015260800190565b60208082526031908201527f4552433732313a207472616e736665722063616c6c6572206973206e6f74206f6040820152701ddb995c881b9bdc88185c1c1c9bdd9959607a1b606082015260800190565b6020808252602d908201527f5377617941646d696e3a2073656e64657220646f6573206e6f7420686176652060408201526c476f7665726e6f7220526f6c6560981b606082015260800190565b60008219821115613cf657613cf6613df2565b500190565b600082613d0a57613d0a613e08565b500490565b6000816000190483118215151615613d2957613d29613df2565b500290565b600082821015613d4057613d40613df2565b500390565b60005b83811015613d60578181015183820152602001613d48565b838111156115355750506000910152565b600081613d8057613d80613df2565b506000190190565b600181811c90821680613d9c57607f821691505b60208210811415613dbd57634e487b7160e01b600052602260045260246000fd5b50919050565b6000600019821415613dd757613dd7613df2565b5060010190565b600082613ded57613ded613e08565b500690565b634e487b7160e01b600052601160045260246000fd5b634e487b7160e01b600052601260045260246000fd5b634e487b7160e01b600052604160045260246000fd5b6001600160a01b0381168114610e4f57600080fd5b6001600160e01b031981168114610e4f57600080fdfe7935bd0ae54bc31f548c14dba4d37c5c64b3f8ca900cb468fb8abd54d5894f55416464726573733a206c6f772d6c6576656c2064656c65676174652063616c6c206661696c6564a26469706673582212200d478cc349040ab1ebe30ed8acb9a2e47476c76948c37da99993de29168ab01c64736f6c63430008040033",
  "devdoc": {
    "kind": "dev",
    "methods": {
      "approve(address,uint256)": {
        "details": "See {IERC721-approve}."
      },
      "balanceOf(address)": {
        "details": "See {IERC721-balanceOf}."
      },
      "constructor": {
        "custom:oz-upgrades-unsafe-allow": "constructor"
      },
      "getApproved(uint256)": {
        "details": "See {IERC721-getApproved}."
      },
      "getRoleAdmin(bytes32)": {
        "details": "Returns the admin role that controls `role`. See {grantRole} and {revokeRole}. To change a role's admin, use {_setRoleAdmin}."
      },
      "getRoleMember(bytes32,uint256)": {
        "details": "Returns one of the accounts that have `role`. `index` must be a value between 0 and {getRoleMemberCount}, non-inclusive. Role bearers are not sorted in any particular way, and their ordering may change at any point. WARNING: When using {getRoleMember} and {getRoleMemberCount}, make sure you perform all queries on the same block. See the following https://forum.openzeppelin.com/t/iterating-over-elements-on-enumerableset-in-openzeppelin-contracts/2296[forum post] for more information."
      },
      "getRoleMemberCount(bytes32)": {
        "details": "Returns the number of accounts that have `role`. Can be used together with {getRoleMember} to enumerate all bearers of a role."
      },
      "grantRole(bytes32,address)": {
        "details": "Overload {grantRole} to track enumerable memberships"
      },
      "hasRole(bytes32,address)": {
        "details": "Returns `true` if `account` has been granted `role`."
      },
      "isApprovedForAll(address,address)": {
        "details": "See {IERC721-isApprovedForAll}."
      },
      "mintToken(uint256,address)": {
        "details": "Function to mint tokens",
        "params": {
          "eventId": "EventId for the new token",
          "to": "The address that will receive the minted tokens."
        },
        "returns": {
          "_0": "A boolean that indicates if the operation was successful."
        }
      },
      "mintToken(uint256,uint256,address)": {
        "details": "Function to mint tokens with a specific id",
        "params": {
          "eventId": "EventId for the new token",
          "to": "The address that will receive the minted tokens.",
          "tokenId": "TokenId for the new token"
        },
        "returns": {
          "_0": "A boolean that indicates if the operation was successful."
        }
      },
      "name()": {
        "details": "See {IERC721Metadata-name}."
      },
      "ownerOf(uint256)": {
        "details": "See {IERC721-ownerOf}."
      },
      "pause()": {
        "details": "called by the governor to pause, triggers stopped state"
      },
      "paused()": {
        "details": "Returns true if the contract is paused, and false otherwise."
      },
      "renounceRole(bytes32,address)": {
        "details": "Overload {renounceRole} to track enumerable memberships"
      },
      "revokeRole(bytes32,address)": {
        "details": "Overload {revokeRole} to track enumerable memberships"
      },
      "safeTransferFrom(address,address,uint256)": {
        "details": "See {IERC721-safeTransferFrom}."
      },
      "safeTransferFrom(address,address,uint256,bytes)": {
        "details": "See {IERC721-safeTransferFrom}."
      },
      "setApprovalForAll(address,bool)": {
        "details": "See {IERC721-setApprovalForAll}."
      },
      "symbol()": {
        "details": "See {IERC721Metadata-symbol}."
      },
      "tokenByIndex(uint256)": {
        "details": "See {IERC721Enumerable-tokenByIndex}."
      },
      "tokenDetailsOfOwnerByIndex(address,uint256)": {
        "details": "Gets the token ID at a given index of the tokens list of the requested owner",
        "params": {
          "index": "uint256 representing the index to be accessed of the requested tokens list",
          "owner": "address owning the tokens list to be accessed"
        }
      },
      "tokenOfOwnerByIndex(address,uint256)": {
        "details": "See {IERC721Enumerable-tokenOfOwnerByIndex}."
      },
      "tokenURI(uint256)": {
        "details": "Gets the token uri",
        "returns": {
          "_0": "string representing the token uri"
        }
      },
      "totalSupply()": {
        "details": "See {IERC721Enumerable-totalSupply}."
      },
      "transferFrom(address,address,uint256)": {
        "details": "See {IERC721-transferFrom}."
      },
      "unpause()": {
        "details": "called by the governor to unpause, returns to normal state"
      },
      "upgradeTo(address)": {
        "details": "Upgrade the implementation of the proxy to `newImplementation`. Calls {_authorizeUpgrade}. Emits an {Upgraded} event."
      },
      "upgradeToAndCall(address,bytes)": {
        "details": "Upgrade the implementation of the proxy to `newImplementation`, and subsequently execute the function call encoded in `data`. Calls {_authorizeUpgrade}. Emits an {Upgraded} event."
      }
    },
    "version": 1
  },
  "userdoc": {
    "kind": "user",
    "methods": {},
    "version": 1
  },
  "storageLayout": {
    "storage": [
      {
        "astId": 1056,
        "contract": "src/Sway.sol:Sway",
        "label": "_initialized",
        "offset": 0,
        "slot": "0",
        "type": "t_bool"
      },
      {
        "astId": 1059,
        "contract": "src/Sway.sol:Sway",
        "label": "_initializing",
        "offset": 1,
        "slot": "0",
        "type": "t_bool"
      },
      {
        "astId": 1039,
        "contract": "src/Sway.sol:Sway",
        "label": "__gap",
        "offset": 0,
        "slot": "1",
        "type": "t_array(t_uint256)50_storage"
      },
      {
        "astId": 1206,
        "contract": "src/Sway.sol:Sway",
        "label": "__gap",
        "offset": 0,
        "slot": "51",
        "type": "t_array(t_uint256)50_storage"
      },
      {
        "astId": 3012,
        "contract": "src/Sway.sol:Sway",
        "label": "__gap",
        "offset": 0,
        "slot": "101",
        "type": "t_array(t_uint256)50_storage"
      },
      {
        "astId": 3392,
        "contract": "src/Sway.sol:Sway",
        "label": "__gap",
        "offset": 0,
        "slot": "151",
        "type": "t_array(t_uint256)50_storage"
      },
      {
        "astId": 1349,
        "contract": "src/Sway.sol:Sway",
        "label": "_name",
        "offset": 0,
        "slot": "201",
        "type": "t_string_storage"
      },
      {
        "astId": 1351,
        "contract": "src/Sway.sol:Sway",
        "label": "_symbol",
        "offset": 0,
        "slot": "202",
        "type": "t_string_storage"
      },
      {
        "astId": 1355,
        "contract": "src/Sway.sol:Sway",
        "label": "_owners",
        "offset": 0,
        "slot": "203",
        "type": "t_mapping(t_uint256,t_address)"
      },
      {
        "astId": 1359,
        "contract": "src/Sway.sol:Sway",
        "label": "_balances",
        "offset": 0,
        "slot": "204",
        "type": "t_mapping(t_address,t_uint256)"
      },
      {
        "astId": 1363,
        "contract": "src/Sway.sol:Sway",
        "label": "_tokenApprovals",
        "offset": 0,
        "slot": "205",
        "type": "t_mapping(t_uint256,t_address)"
      },
      {
        "astId": 1369,
        "contract": "src/Sway.sol:Sway",
        "label": "_operatorApprovals",
        "offset": 0,
        "slot": "206",
        "type": "t_mapping(t_address,t_mapping(t_address,t_bool))"
      },
      {
        "astId": 2165,
        "contract": "src/Sway.sol:Sway",
        "label": "__gap",
        "offset": 0,
        "slot": "207",
        "type": "t_array(t_uint256)44_storage"
      },
      {
        "astId": 2339,
        "contract": "src/Sway.sol:Sway",
        "label": "_ownedTokens",
        "offset": 0,
        "slot": "251",
        "type": "t_mapping(t_address,t_mapping(t_uint256,t_uint256))"
      },
      {
        "astId": 2343,
        "contract": "src/Sway.sol:Sway",
        "label": "_ownedTokensIndex",
        "offset": 0,
        "slot": "252",
        "type": "t_mapping(t_uint256,t_uint256)"
      },
      {
        "astId": 2346,
        "contract": "src/Sway.sol:Sway",
        "label": "_allTokens",
        "offset": 0,
        "slot": "253",
        "type": "t_array(t_uint256)dyn_storage"
      },
      {
        "astId": 2350,
        "contract": "src/Sway.sol:Sway",
        "label": "_allTokensIndex",
        "offset": 0,
        "slot": "254",
        "type": "t_mapping(t_uint256,t_uint256)"
      },
      {
        "astId": 2665,
        "contract": "src/Sway.sol:Sway",
        "label": "__gap",
        "offset": 0,
        "slot": "255",
        "type": "t_array(t_uint256)46_storage"
      },
      {
        "astId": 258,
        "contract": "src/Sway.sol:Sway",
        "label": "_roles",
        "offset": 0,
        "slot": "301",
        "type": "t_mapping(t_bytes32,t_struct(RoleData)253_storage)"
      },
      {
        "astId": 543,
        "contract": "src/Sway.sol:Sway",
        "label": "__gap",
        "offset": 0,
        "slot": "302",
        "type": "t_array(t_uint256)49_storage"
      },
      {
        "astId": 45,
        "contract": "src/Sway.sol:Sway",
        "label": "_roleMembers",
        "offset": 0,
        "slot": "351",
        "type": "t_mapping(t_bytes32,t_struct(AddressSet)3717_storage)"
      },
      {
        "astId": 208,
        "contract": "src/Sway.sol:Sway",
        "label": "__gap",
        "offset": 0,
        "slot": "352",
        "type": "t_array(t_uint256)49_storage"
      },
      {
        "astId": 1228,
        "contract": "src/Sway.sol:Sway",
        "label": "_paused",
        "offset": 0,
        "slot": "401",
        "type": "t_bool"
      },
      {
        "astId": 1319,
        "contract": "src/Sway.sol:Sway",
        "label": "__gap",
        "offset": 0,
        "slot": "402",
        "type": "t_array(t_uint256)49_storage"
      },
      {
        "astId": 4403,
        "contract": "src/Sway.sol:Sway",
        "label": "eventRoleMapping",
        "offset": 0,
        "slot": "451",
        "type": "t_mapping(t_uint256,t_bytes32)"
      },
      {
        "astId": 4405,
        "contract": "src/Sway.sol:Sway",
        "label": "lastEventId",
        "offset": 0,
        "slot": "452",
        "type": "t_uint256"
      },
      {
        "astId": 4837,
        "contract": "src/Sway.sol:Sway",
        "label": "__gap",
        "offset": 0,
        "slot": "453",
        "type": "t_array(t_uint256)50_storage"
      },
      {
        "astId": 4024,
        "contract": "src/Sway.sol:Sway",
        "label": "lastId",
        "offset": 0,
        "slot": "503",
        "type": "t_uint256"
      },
      {
        "astId": 4026,
        "contract": "src/Sway.sol:Sway",
        "label": "_baseURIextendend",
        "offset": 0,
        "slot": "504",
        "type": "t_string_storage"
      },
      {
        "astId": 4028,
        "contract": "src/Sway.sol:Sway",
        "label": "_baseURIExtension",
        "offset": 0,
        "slot": "505",
        "type": "t_string_storage"
      },
      {
        "astId": 4032,
        "contract": "src/Sway.sol:Sway",
        "label": "tokenEvent",
        "offset": 0,
        "slot": "506",
        "type": "t_mapping(t_uint256,t_uint256)"
      },
      {
        "astId": 4370,
        "contract": "src/Sway.sol:Sway",
        "label": "__gap",
        "offset": 0,
        "slot": "507",
        "type": "t_array(t_uint256)50_storage"
      }
    ],
    "types": {
      "t_address": {
        "encoding": "inplace",
        "label": "address",
        "numberOfBytes": "20"
      },
      "t_array(t_bytes32)dyn_storage": {
        "base": "t_bytes32",
        "encoding": "dynamic_array",
        "label": "bytes32[]",
        "numberOfBytes": "32"
      },
      "t_array(t_uint256)44_storage": {
        "base": "t_uint256",
        "encoding": "inplace",
        "label": "uint256[44]",
        "numberOfBytes": "1408"
      },
      "t_array(t_uint256)46_storage": {
        "base": "t_uint256",
        "encoding": "inplace",
        "label": "uint256[46]",
        "numberOfBytes": "1472"
      },
      "t_array(t_uint256)49_storage": {
        "base": "t_uint256",
        "encoding": "inplace",
        "label": "uint256[49]",
        "numberOfBytes": "1568"
      },
      "t_array(t_uint256)50_storage": {
        "base": "t_uint256",
        "encoding": "inplace",
        "label": "uint256[50]",
        "numberOfBytes": "1600"
      },
      "t_array(t_uint256)dyn_storage": {
        "base": "t_uint256",
        "encoding": "dynamic_array",
        "label": "uint256[]",
        "numberOfBytes": "32"
      },
      "t_bool": {
        "encoding": "inplace",
        "label": "bool",
        "numberOfBytes": "1"
      },
      "t_bytes32": {
        "encoding": "inplace",
        "label": "bytes32",
        "numberOfBytes": "32"
      },
      "t_mapping(t_address,t_bool)": {
        "encoding": "mapping",
        "key": "t_address",
        "label": "mapping(address => bool)",
        "numberOfBytes": "32",
        "value": "t_bool"
      },
      "t_mapping(t_address,t_mapping(t_address,t_bool))": {
        "encoding": "mapping",
        "key": "t_address",
        "label": "mapping(address => mapping(address => bool))",
        "numberOfBytes": "32",
        "value": "t_mapping(t_address,t_bool)"
      },
      "t_mapping(t_address,t_mapping(t_uint256,t_uint256))": {
        "encoding": "mapping",
        "key": "t_address",
        "label": "mapping(address => mapping(uint256 => uint256))",
        "numberOfBytes": "32",
        "value": "t_mapping(t_uint256,t_uint256)"
      },
      "t_mapping(t_address,t_uint256)": {
        "encoding": "mapping",
        "key": "t_address",
        "label": "mapping(address => uint256)",
        "numberOfBytes": "32",
        "value": "t_uint256"
      },
      "t_mapping(t_bytes32,t_struct(AddressSet)3717_storage)": {
        "encoding": "mapping",
        "key": "t_bytes32",
        "label": "mapping(bytes32 => struct EnumerableSetUpgradeable.AddressSet)",
        "numberOfBytes": "32",
        "value": "t_struct(AddressSet)3717_storage"
      },
      "t_mapping(t_bytes32,t_struct(RoleData)253_storage)": {
        "encoding": "mapping",
        "key": "t_bytes32",
        "label": "mapping(bytes32 => struct AccessControlUpgradeable.RoleData)",
        "numberOfBytes": "32",
        "value": "t_struct(RoleData)253_storage"
      },
      "t_mapping(t_bytes32,t_uint256)": {
        "encoding": "mapping",
        "key": "t_bytes32",
        "label": "mapping(bytes32 => uint256)",
        "numberOfBytes": "32",
        "value": "t_uint256"
      },
      "t_mapping(t_uint256,t_address)": {
        "encoding": "mapping",
        "key": "t_uint256",
        "label": "mapping(uint256 => address)",
        "numberOfBytes": "32",
        "value": "t_address"
      },
      "t_mapping(t_uint256,t_bytes32)": {
        "encoding": "mapping",
        "key": "t_uint256",
        "label": "mapping(uint256 => bytes32)",
        "numberOfBytes": "32",
        "value": "t_bytes32"
      },
      "t_mapping(t_uint256,t_uint256)": {
        "encoding": "mapping",
        "key": "t_uint256",
        "label": "mapping(uint256 => uint256)",
        "numberOfBytes": "32",
        "value": "t_uint256"
      },
      "t_string_storage": {
        "encoding": "bytes",
        "label": "string",
        "numberOfBytes": "32"
      },
      "t_struct(AddressSet)3717_storage": {
        "encoding": "inplace",
        "label": "struct EnumerableSetUpgradeable.AddressSet",
        "members": [
          {
            "astId": 3716,
            "contract": "src/Sway.sol:Sway",
            "label": "_inner",
            "offset": 0,
            "slot": "0",
            "type": "t_struct(Set)3416_storage"
          }
        ],
        "numberOfBytes": "64"
      },
      "t_struct(RoleData)253_storage": {
        "encoding": "inplace",
        "label": "struct AccessControlUpgradeable.RoleData",
        "members": [
          {
            "astId": 250,
            "contract": "src/Sway.sol:Sway",
            "label": "members",
            "offset": 0,
            "slot": "0",
            "type": "t_mapping(t_address,t_bool)"
          },
          {
            "astId": 252,
            "contract": "src/Sway.sol:Sway",
            "label": "adminRole",
            "offset": 0,
            "slot": "1",
            "type": "t_bytes32"
          }
        ],
        "numberOfBytes": "64"
      },
      "t_struct(Set)3416_storage": {
        "encoding": "inplace",
        "label": "struct EnumerableSetUpgradeable.Set",
        "members": [
          {
            "astId": 3411,
            "contract": "src/Sway.sol:Sway",
            "label": "_values",
            "offset": 0,
            "slot": "0",
            "type": "t_array(t_bytes32)dyn_storage"
          },
          {
            "astId": 3415,
            "contract": "src/Sway.sol:Sway",
            "label": "_indexes",
            "offset": 0,
            "slot": "1",
            "type": "t_mapping(t_bytes32,t_uint256)"
          }
        ],
        "numberOfBytes": "64"
      },
      "t_uint256": {
        "encoding": "inplace",
        "label": "uint256",
        "numberOfBytes": "32"
      }
    }
  }
}