{
  "address": "0x75e442D37816A7f380Cc831ECe09A70646E50a54",
  "abi": [
    {
      "inputs": [],
      "stateMutability": "nonpayable",
      "type": "constructor"
    },
    {
      "anonymous": false,
      "inputs": [
        {
          "indexed": false,
          "internalType": "address",
          "name": "previousAdmin",
          "type": "address"
        },
        {
          "indexed": false,
          "internalType": "address",
          "name": "newAdmin",
          "type": "address"
        }
      ],
      "name": "AdminChanged",
      "type": "event"
    },
    {
      "anonymous": false,
      "inputs": [
        {
          "indexed": true,
          "internalType": "address",
          "name": "beacon",
          "type": "address"
        }
      ],
      "name": "BeaconUpgraded",
      "type": "event"
    },
    {
      "anonymous": false,
      "inputs": [
        {
          "indexed": false,
          "internalType": "address",
          "name": "account",
          "type": "address"
        }
      ],
      "name": "Paused",
      "type": "event"
    },
    {
      "anonymous": false,
      "inputs": [
        {
          "indexed": true,
          "internalType": "address",
          "name": "newAddress",
          "type": "address"
        },
        {
          "indexed": true,
          "internalType": "address",
          "name": "oldAddress",
          "type": "address"
        }
      ],
      "name": "SwayAddressChanged",
      "type": "event"
    },
    {
      "anonymous": false,
      "inputs": [
        {
          "indexed": true,
          "internalType": "uint256",
          "name": "eventId",
          "type": "uint256"
        },
        {
          "indexed": true,
          "internalType": "address",
          "name": "to",
          "type": "address"
        }
      ],
      "name": "TokenClaimed",
      "type": "event"
    },
    {
      "anonymous": false,
      "inputs": [
        {
          "indexed": false,
          "internalType": "address",
          "name": "account",
          "type": "address"
        }
      ],
      "name": "Unpaused",
      "type": "event"
    },
    {
      "anonymous": false,
      "inputs": [
        {
          "indexed": true,
          "internalType": "address",
          "name": "implementation",
          "type": "address"
        }
      ],
      "name": "Upgraded",
      "type": "event"
    },
    {
      "inputs": [
        {
          "internalType": "uint256",
          "name": "_eventId",
          "type": "uint256"
        },
        {
          "internalType": "bytes32",
          "name": "_roothash",
          "type": "bytes32"
        }
      ],
      "name": "addEvent",
      "outputs": [],
      "stateMutability": "nonpayable",
      "type": "function"
    },
    {
      "inputs": [
        {
          "internalType": "uint256",
          "name": "_index",
          "type": "uint256"
        },
        {
          "internalType": "uint256",
          "name": "_eventId",
          "type": "uint256"
        },
        {
          "internalType": "address",
          "name": "_recipient",
          "type": "address"
        },
        {
          "internalType": "bytes32[]",
          "name": "proof",
          "type": "bytes32[]"
        }
      ],
      "name": "claim",
      "outputs": [],
      "stateMutability": "nonpayable",
      "type": "function"
    },
    {
      "inputs": [
        {
          "internalType": "uint256",
          "name": "",
          "type": "uint256"
        },
        {
          "internalType": "address",
          "name": "",
          "type": "address"
        }
      ],
      "name": "claimed",
      "outputs": [
        {
          "internalType": "bool",
          "name": "",
          "type": "bool"
        }
      ],
      "stateMutability": "view",
      "type": "function"
    },
    {
      "inputs": [
        {
          "internalType": "string",
          "name": "_name",
          "type": "string"
        },
        {
          "internalType": "address",
          "name": "_swayAddr",
          "type": "address"
        }
      ],
      "name": "initialize",
      "outputs": [],
      "stateMutability": "nonpayable",
      "type": "function"
    },
    {
      "inputs": [
        {
          "internalType": "uint256",
          "name": "eventId",
          "type": "uint256"
        }
      ],
      "name": "isEventAdded",
      "outputs": [
        {
          "internalType": "bool",
          "name": "",
          "type": "bool"
        }
      ],
      "stateMutability": "view",
      "type": "function"
    },
    {
      "inputs": [],
      "name": "name",
      "outputs": [
        {
          "internalType": "string",
          "name": "",
          "type": "string"
        }
      ],
      "stateMutability": "view",
      "type": "function"
    },
    {
      "inputs": [],
      "name": "pause",
      "outputs": [],
      "stateMutability": "nonpayable",
      "type": "function"
    },
    {
      "inputs": [],
      "name": "paused",
      "outputs": [
        {
          "internalType": "bool",
          "name": "",
          "type": "bool"
        }
      ],
      "stateMutability": "view",
      "type": "function"
    },
    {
      "inputs": [
        {
          "internalType": "uint256",
          "name": "",
          "type": "uint256"
        }
      ],
      "name": "rootHash",
      "outputs": [
        {
          "internalType": "bytes32",
          "name": "",
          "type": "bytes32"
        }
      ],
      "stateMutability": "view",
      "type": "function"
    },
    {
      "inputs": [
        {
          "internalType": "address",
          "name": "_swayAddr",
          "type": "address"
        }
      ],
      "name": "setSway",
      "outputs": [],
      "stateMutability": "nonpayable",
      "type": "function"
    },
    {
      "inputs": [],
      "name": "swayAddr",
      "outputs": [
        {
          "internalType": "address",
          "name": "",
          "type": "address"
        }
      ],
      "stateMutability": "view",
      "type": "function"
    },
    {
      "inputs": [],
      "name": "unpause",
      "outputs": [],
      "stateMutability": "nonpayable",
      "type": "function"
    },
    {
      "inputs": [
        {
          "internalType": "uint256",
          "name": "_eventId",
          "type": "uint256"
        },
        {
          "internalType": "bytes32",
          "name": "_roothash",
          "type": "bytes32"
        }
      ],
      "name": "updateEvent",
      "outputs": [],
      "stateMutability": "nonpayable",
      "type": "function"
    },
    {
      "inputs": [
        {
          "internalType": "address",
          "name": "newImplementation",
          "type": "address"
        }
      ],
      "name": "upgradeTo",
      "outputs": [],
      "stateMutability": "nonpayable",
      "type": "function"
    },
    {
      "inputs": [
        {
          "internalType": "address",
          "name": "newImplementation",
          "type": "address"
        },
        {
          "internalType": "bytes",
          "name": "data",
          "type": "bytes"
        }
      ],
      "name": "upgradeToAndCall",
      "outputs": [],
      "stateMutability": "payable",
      "type": "function"
    }
  ],
  "numDeployments": 1,
  "solcInputHash": "31c0553c0bd5bbc1ce19cdc62ea06e52",
  "bytecode": "0x60a06040523060601b6080523480156200001857600080fd5b50600054610100900460ff16620000365760005460ff161562000040565b62000040620000e5565b620000a85760405162461bcd60e51b815260206004820152602e60248201527f496e697469616c697a61626c653a20636f6e747261637420697320616c72656160448201526d191e481a5b9a5d1a585b1a5e995960921b606482015260840160405180910390fd5b600054610100900460ff16158015620000cb576000805461ffff19166101011790555b8015620000de576000805461ff00191690555b5062000109565b6000620000fd306200010360201b62000e011760201c565b15905090565b3b151590565b60805160601c611bf56200013d600039600081816104a3015281816104e30152818161065601526106960152611bf56000f3fe6080604052600436106100e85760003560e01c80635c975abb1161008a578063b9035d7e11610059578063b9035d7e14610275578063bce9e089146102a4578063c3779fac146102c4578063e41f67d0146102e457600080fd5b80635c975abb146101ed578063697fa4c9146102055780637ab4339d146102405780638456cb591461026057600080fd5b80633659cfe6116100c65780633659cfe6146101855780633f4ba83a146101a55780634f1ef286146101ba57806355e74ad6146101cd57600080fd5b806306fdde03146100ed578063120aa877146101185780631b86d81214610163575b600080fd5b3480156100f957600080fd5b5061010261031c565b60405161010f919061189f565b60405180910390f35b34801561012457600080fd5b50610153610133366004611774565b60fd60209081526000928352604080842090915290825290205460ff1681565b604051901515815260200161010f565b34801561016f57600080fd5b5061018361017e366004611664565b6103aa565b005b34801561019157600080fd5b506101836101a0366004611664565b610498565b3480156101b157600080fd5b50610183610561565b6101836101c836600461167e565b61064b565b3480156101d957600080fd5b506101836101e8366004611796565b610705565b3480156101f957600080fd5b5060975460ff16610153565b34801561021157600080fd5b5061023261022036600461175c565b60fe6020526000908152604090205481565b60405190815260200161010f565b34801561024c57600080fd5b5061018361025b3660046116fd565b6107f0565b34801561026c57600080fd5b506101836108f0565b34801561028157600080fd5b5061015361029036600461175c565b600090815260fe6020526040902054151590565b3480156102b057600080fd5b506101836102bf3660046117b7565b6109b2565b3480156102d057600080fd5b506101836102df366004611796565b610cab565b3480156102f057600080fd5b5060fc54610304906001600160a01b031681565b6040516001600160a01b03909116815260200161010f565b60fb805461032990611b20565b80601f016020809104026020016040519081016040528092919081815260200182805461035590611b20565b80156103a25780601f10610377576101008083540402835291602001916103a2565b820191906000526020600020905b81548152906001019060200180831161038557829003601f168201915b505050505081565b600260c95414156103d65760405162461bcd60e51b81526004016103cd90611a88565b60405180910390fd5b600260c95560fc54604051631c86b03760e31b81523360048201526001600160a01b039091169063e43581b89060240160206040518083038186803b15801561041e57600080fd5b505afa158015610432573d6000803e3d6000fd5b505050506040513d601f19601f8201168201806040525081019061045691906116dd565b8061046b575060fc546001600160a01b031633145b6104875760405162461bcd60e51b81526004016103cd906119e0565b61049081610e07565b50600160c955565b306001600160a01b037f00000000000000000000000000000000000000000000000000000000000000001614156104e15760405162461bcd60e51b81526004016103cd906118d2565b7f00000000000000000000000000000000000000000000000000000000000000006001600160a01b0316610513610ebc565b6001600160a01b0316146105395760405162461bcd60e51b81526004016103cd9061191e565b61054281610eea565b6040805160008082526020820190925261055e91839190610f81565b50565b60fc54604051631c86b03760e31b81523360048201526001600160a01b039091169063e43581b89060240160206040518083038186803b1580156105a457600080fd5b505afa1580156105b8573d6000803e3d6000fd5b505050506040513d601f19601f820116820180604052508101906105dc91906116dd565b6105f85760405162461bcd60e51b81526004016103cd9061196a565b60975460ff166106415760405162461bcd60e51b815260206004820152601460248201527314185d5cd8589b194e881b9bdd081c185d5cd95960621b60448201526064016103cd565b6106496110c5565b565b306001600160a01b037f00000000000000000000000000000000000000000000000000000000000000001614156106945760405162461bcd60e51b81526004016103cd906118d2565b7f00000000000000000000000000000000000000000000000000000000000000006001600160a01b03166106c6610ebc565b6001600160a01b0316146106ec5760405162461bcd60e51b81526004016103cd9061191e565b6106f582610eea565b61070182826001610f81565b5050565b600260c95414156107285760405162461bcd60e51b81526004016103cd90611a88565b600260c95560fc54604051631c86b03760e31b81523360048201526001600160a01b039091169063e43581b89060240160206040518083038186803b15801561077057600080fd5b505afa158015610784573d6000803e3d6000fd5b505050506040513d601f19601f820116820180604052508101906107a891906116dd565b806107bd575060fc546001600160a01b031633145b6107d95760405162461bcd60e51b81526004016103cd906119e0565b600091825260fe602052604090912055600160c955565b600054610100900460ff1661080b5760005460ff161561080f565b303b155b6108725760405162461bcd60e51b815260206004820152602e60248201527f496e697469616c697a61626c653a20636f6e747261637420697320616c72656160448201526d191e481a5b9a5d1a585b1a5e995960921b60648201526084016103cd565b600054610100900460ff16158015610894576000805461ffff19166101011790555b82516108a79060fb906020860190611557565b506108b182610e07565b6108b9611158565b6108c161117f565b6108c9611158565b6108d1611158565b6108d96111b2565b80156108eb576000805461ff00191690555b505050565b60fc54604051631c86b03760e31b81523360048201526001600160a01b039091169063e43581b89060240160206040518083038186803b15801561093357600080fd5b505afa158015610947573d6000803e3d6000fd5b505050506040513d601f19601f8201168201806040525081019061096b91906116dd565b6109875760405162461bcd60e51b81526004016103cd9061196a565b60975460ff16156109aa5760405162461bcd60e51b81526004016103cd906119b6565b6106496111e1565b60975460ff16156109d55760405162461bcd60e51b81526004016103cd906119b6565b600083815260fe6020526040902054610a3b5760405162461bcd60e51b815260206004820152602260248201527f5377617944726f703a206576656e74206e6f7420616464656420666f7220647260448201526106f760f41b60648201526084016103cd565b600083815260fd602090815260408083206001600160a01b038616845290915290205460ff1615610abd5760405162461bcd60e51b815260206004820152602660248201527f5377617944726f703a20726563697069656e7420616c72656164792070726f6360448201526565737365642160d01b60648201526084016103cd565b604080516020808201879052818301869052606085811b6bffffffffffffffffffffffff1916908301528251808303605401815260749092019092528051910120600090600085815260fe6020526040902054909150610b1f90839083611239565b610b7b5760405162461bcd60e51b815260206004820152602760248201527f5377617944726f703a20726563697069656e74206e6f7420696e206d65726b6c6044820152666520747265652160c81b60648201526084016103cd565b600084815260fd602090815260408083206001600160a01b0387168085529252808320805460ff1916600117905551909186917f8b224b108d8f9c6d554b41182503c3f8b79dfcf17233a9366d50c386c28af8509190a360fc5460405163a140ae2360e01b8152600481018690526001600160a01b0385811660248301529091169063a140ae2390604401602060405180830381600087803b158015610c2057600080fd5b505af1158015610c34573d6000803e3d6000fd5b505050506040513d601f19601f82011682018060405250810190610c5891906116dd565b610ca45760405162461bcd60e51b815260206004820152601d60248201527f5377617944726f703a20636f756c64206e6f74206d696e74205357415900000060448201526064016103cd565b5050505050565b600260c9541415610cce5760405162461bcd60e51b81526004016103cd90611a88565b600260c95560fc54604051631c86b03760e31b81523360048201526001600160a01b039091169063e43581b89060240160206040518083038186803b158015610d1657600080fd5b505afa158015610d2a573d6000803e3d6000fd5b505050506040513d601f19601f82011682018060405250810190610d4e91906116dd565b80610d63575060fc546001600160a01b031633145b610d7f5760405162461bcd60e51b81526004016103cd906119e0565b600082815260fe6020526040902054156107d95760405162461bcd60e51b815260206004820152603d60248201527f5377617944726f703a3a6164644576656e743a204d65726b6c6520526f6f742060448201527f616c72656164792070726573656e7420666f7220746865206576656e7400000060648201526084016103cd565b3b151590565b6001600160a01b038116610e6b5760405162461bcd60e51b815260206004820152602560248201527f5377617944726f703a2073776179416464722073686f756c64206265206e6f6e6044820152642d7a65726f60d81b60648201526084016103cd565b60fc80546001600160a01b038381166001600160a01b03198316811790935560405191169182917f42f883e00bd5614a45fcc3efaaec8a99869f5e223adb347925f8b5ed676e2f5d90600090a35050565b7f360894a13ba1a3210667c828492db98dca3e2076cc3735a920a3ca505d382bbc546001600160a01b031690565b60fc54604051631c86b03760e31b81523360048201526001600160a01b039091169063e43581b89060240160206040518083038186803b158015610f2d57600080fd5b505afa158015610f41573d6000803e3d6000fd5b505050506040513d601f19601f82011682018060405250810190610f6591906116dd565b61055e5760405162461bcd60e51b81526004016103cd9061196a565b6000610f8b610ebc565b9050610f9684611250565b600083511180610fa35750815b15610fb457610fb284846112f5565b505b7f4910fdfa16fed3260ed0e7147f7cc6da11a60208b5b9406d12a635614ffd9143805460ff16610ca457805460ff191660011781556040516001600160a01b038316602482015261103390869060440160408051601f198184030181529190526020810180516001600160e01b0316631b2ce7f360e11b1790526112f5565b50805460ff19168155611044610ebc565b6001600160a01b0316826001600160a01b0316146110bc5760405162461bcd60e51b815260206004820152602f60248201527f45524331393637557067726164653a207570677261646520627265616b73206660448201526e75727468657220757067726164657360881b60648201526084016103cd565b610ca4856113e0565b60975460ff1661110e5760405162461bcd60e51b815260206004820152601460248201527314185d5cd8589b194e881b9bdd081c185d5cd95960621b60448201526064016103cd565b6097805460ff191690557f5db9ee0a495bf2e6ff9c91a7834c1ba4fdd244a5e8aa4e537bd38aeae4b073aa335b6040516001600160a01b03909116815260200160405180910390a1565b600054610100900460ff166106495760405162461bcd60e51b81526004016103cd90611a3d565b600054610100900460ff166111a65760405162461bcd60e51b81526004016103cd90611a3d565b6097805460ff19169055565b600054610100900460ff166111d95760405162461bcd60e51b81526004016103cd90611a3d565b610649611420565b60975460ff16156112045760405162461bcd60e51b81526004016103cd906119b6565b6097805460ff191660011790557f62e78cea01bee320cd4e420270b5ea74000d11b0c9f74754ebdbfc544b05a25861113b3390565b600061124684848461144e565b90505b9392505050565b803b6112b45760405162461bcd60e51b815260206004820152602d60248201527f455243313936373a206e657720696d706c656d656e746174696f6e206973206e60448201526c1bdd08184818dbdb9d1c9858dd609a1b60648201526084016103cd565b7f360894a13ba1a3210667c828492db98dca3e2076cc3735a920a3ca505d382bbc80546001600160a01b0319166001600160a01b0392909216919091179055565b6060823b6113545760405162461bcd60e51b815260206004820152602660248201527f416464726573733a2064656c65676174652063616c6c20746f206e6f6e2d636f6044820152651b9d1c9858dd60d21b60648201526084016103cd565b600080846001600160a01b03168460405161136f9190611883565b600060405180830381855af49150503d80600081146113aa576040519150601f19603f3d011682016040523d82523d6000602084013e6113af565b606091505b50915091506113d78282604051806060016040528060278152602001611b9960279139611464565b95945050505050565b6113e981611250565b6040516001600160a01b038216907fbc7cd75a20ee27fd9adebab32041f755214dbc6bffa90cc0225b39da2e5c2d3b90600090a250565b600054610100900460ff166114475760405162461bcd60e51b81526004016103cd90611a3d565b600160c955565b60008261145b858461149d565b14949350505050565b60608315611473575081611249565b8251156114835782518084602001fd5b8160405162461bcd60e51b81526004016103cd919061189f565b600081815b845181101561154f5760008582815181106114cd57634e487b7160e01b600052603260045260246000fd5b6020026020010151905080831161150f57604080516020810185905290810182905260600160405160208183030381529060405280519060200120925061153c565b60408051602081018390529081018490526060016040516020818303038152906040528051906020012092505b508061154781611b5b565b9150506114a2565b509392505050565b82805461156390611b20565b90600052602060002090601f01602090048101928261158557600085556115cb565b82601f1061159e57805160ff19168380011785556115cb565b828001600101855582156115cb579182015b828111156115cb5782518255916020019190600101906115b0565b506115d79291506115db565b5090565b5b808211156115d757600081556001016115dc565b600067ffffffffffffffff83111561160a5761160a611b82565b61161d601f8401601f1916602001611abf565b905082815283838301111561163157600080fd5b828260208301376000602084830101529392505050565b80356001600160a01b038116811461165f57600080fd5b919050565b600060208284031215611675578081fd5b61124982611648565b60008060408385031215611690578081fd5b61169983611648565b9150602083013567ffffffffffffffff8111156116b4578182fd5b8301601f810185136116c4578182fd5b6116d3858235602084016115f0565b9150509250929050565b6000602082840312156116ee578081fd5b81518015158114611249578182fd5b6000806040838503121561170f578182fd5b823567ffffffffffffffff811115611725578283fd5b8301601f81018513611735578283fd5b611744858235602084016115f0565b92505061175360208401611648565b90509250929050565b60006020828403121561176d578081fd5b5035919050565b60008060408385031215611786578182fd5b8235915061175360208401611648565b600080604083850312156117a8578182fd5b50508035926020909101359150565b600080600080608085870312156117cc578182fd5b8435935060208086013593506117e460408701611648565b9250606086013567ffffffffffffffff80821115611800578384fd5b818801915088601f830112611813578384fd5b81358181111561182557611825611b82565b8060051b9150611836848301611abf565b8181528481019084860184860187018d1015611850578788fd5b8795505b83861015611872578035835260019590950194918601918601611854565b50989b979a50959850505050505050565b60008251611895818460208701611af0565b9190910192915050565b60208152600082518060208401526118be816040850160208701611af0565b601f01601f19169190910160400192915050565b6020808252602c908201527f46756e6374696f6e206d7573742062652063616c6c6564207468726f7567682060408201526b19195b1959d85d1958d85b1b60a21b606082015260800190565b6020808252602c908201527f46756e6374696f6e206d7573742062652063616c6c6564207468726f7567682060408201526b6163746976652070726f787960a01b606082015260800190565b6020808252602c908201527f5377617944726f703a2073656e64657220646f6573206e6f742068617665204760408201526b6f7665726e6f7220526f6c6560a01b606082015260800190565b60208082526010908201526f14185d5cd8589b194e881c185d5cd95960821b604082015260600190565b6020808252603b908201527f5377617944726f703a2073656e646572206973206e6f742053776179206f722060408201527f646f6573206e6f74206861766520476f7665726e6f7220526f6c650000000000606082015260800190565b6020808252602b908201527f496e697469616c697a61626c653a20636f6e7472616374206973206e6f74206960408201526a6e697469616c697a696e6760a81b606082015260800190565b6020808252601f908201527f5265656e7472616e637947756172643a207265656e7472616e742063616c6c00604082015260600190565b604051601f8201601f1916810167ffffffffffffffff81118282101715611ae857611ae8611b82565b604052919050565b60005b83811015611b0b578181015183820152602001611af3565b83811115611b1a576000848401525b50505050565b600181811c90821680611b3457607f821691505b60208210811415611b5557634e487b7160e01b600052602260045260246000fd5b50919050565b6000600019821415611b7b57634e487b7160e01b81526011600452602481fd5b5060010190565b634e487b7160e01b600052604160045260246000fdfe416464726573733a206c6f772d6c6576656c2064656c65676174652063616c6c206661696c6564a2646970667358221220579f02ba6fc0b692b29d18528e2e3dec158b8e407e26b752a6cb9295eeb19aa964736f6c63430008040033",
  "devdoc": {
    "kind": "dev",
    "methods": {
      "constructor": {
        "custom:oz-upgrades-unsafe-allow": "constructor"
      },
      "paused()": {
        "details": "Returns true if the contract is paused, and false otherwise."
      },
      "upgradeTo(address)": {
        "details": "Upgrade the implementation of the proxy to `newImplementation`. Calls {_authorizeUpgrade}. Emits an {Upgraded} event."
      },
      "upgradeToAndCall(address,bytes)": {
        "details": "Upgrade the implementation of the proxy to `newImplementation`, and subsequently execute the function call encoded in `data`. Calls {_authorizeUpgrade}. Emits an {Upgraded} event."
      }
    },
    "version": 1
  },
  "userdoc": {
    "kind": "user",
    "methods": {},
    "version": 1
  },
  "storageLayout": {
    "storage": [
      {
        "astId": 1005,
        "contract": "contracts/drop/SwayDrop.sol:SwayDrop",
        "label": "_initialized",
        "offset": 0,
        "slot": "0",
        "type": "t_bool"
      },
      {
        "astId": 1008,
        "contract": "contracts/drop/SwayDrop.sol:SwayDrop",
        "label": "_initializing",
        "offset": 1,
        "slot": "0",
        "type": "t_bool"
      },
      {
        "astId": 987,
        "contract": "contracts/drop/SwayDrop.sol:SwayDrop",
        "label": "__gap",
        "offset": 0,
        "slot": "1",
        "type": "t_array(t_uint256)50_storage"
      },
      {
        "astId": 1182,
        "contract": "contracts/drop/SwayDrop.sol:SwayDrop",
        "label": "__gap",
        "offset": 0,
        "slot": "51",
        "type": "t_array(t_uint256)50_storage"
      },
      {
        "astId": 3061,
        "contract": "contracts/drop/SwayDrop.sol:SwayDrop",
        "label": "__gap",
        "offset": 0,
        "slot": "101",
        "type": "t_array(t_uint256)50_storage"
      },
      {
        "astId": 1204,
        "contract": "contracts/drop/SwayDrop.sol:SwayDrop",
        "label": "_paused",
        "offset": 0,
        "slot": "151",
        "type": "t_bool"
      },
      {
        "astId": 1295,
        "contract": "contracts/drop/SwayDrop.sol:SwayDrop",
        "label": "__gap",
        "offset": 0,
        "slot": "152",
        "type": "t_array(t_uint256)49_storage"
      },
      {
        "astId": 1310,
        "contract": "contracts/drop/SwayDrop.sol:SwayDrop",
        "label": "_status",
        "offset": 0,
        "slot": "201",
        "type": "t_uint256"
      },
      {
        "astId": 1353,
        "contract": "contracts/drop/SwayDrop.sol:SwayDrop",
        "label": "__gap",
        "offset": 0,
        "slot": "202",
        "type": "t_array(t_uint256)49_storage"
      },
      {
        "astId": 4942,
        "contract": "contracts/drop/SwayDrop.sol:SwayDrop",
        "label": "name",
        "offset": 0,
        "slot": "251",
        "type": "t_string_storage"
      },
      {
        "astId": 4944,
        "contract": "contracts/drop/SwayDrop.sol:SwayDrop",
        "label": "swayAddr",
        "offset": 0,
        "slot": "252",
        "type": "t_address"
      },
      {
        "astId": 4950,
        "contract": "contracts/drop/SwayDrop.sol:SwayDrop",
        "label": "claimed",
        "offset": 0,
        "slot": "253",
        "type": "t_mapping(t_uint256,t_mapping(t_address,t_bool))"
      },
      {
        "astId": 4954,
        "contract": "contracts/drop/SwayDrop.sol:SwayDrop",
        "label": "rootHash",
        "offset": 0,
        "slot": "254",
        "type": "t_mapping(t_uint256,t_bytes32)"
      },
      {
        "astId": 5315,
        "contract": "contracts/drop/SwayDrop.sol:SwayDrop",
        "label": "__gap",
        "offset": 0,
        "slot": "255",
        "type": "t_array(t_uint256)50_storage"
      }
    ],
    "types": {
      "t_address": {
        "encoding": "inplace",
        "label": "address",
        "numberOfBytes": "20"
      },
      "t_array(t_uint256)49_storage": {
        "base": "t_uint256",
        "encoding": "inplace",
        "label": "uint256[49]",
        "numberOfBytes": "1568"
      },
      "t_array(t_uint256)50_storage": {
        "base": "t_uint256",
        "encoding": "inplace",
        "label": "uint256[50]",
        "numberOfBytes": "1600"
      },
      "t_bool": {
        "encoding": "inplace",
        "label": "bool",
        "numberOfBytes": "1"
      },
      "t_bytes32": {
        "encoding": "inplace",
        "label": "bytes32",
        "numberOfBytes": "32"
      },
      "t_mapping(t_address,t_bool)": {
        "encoding": "mapping",
        "key": "t_address",
        "label": "mapping(address => bool)",
        "numberOfBytes": "32",
        "value": "t_bool"
      },
      "t_mapping(t_uint256,t_bytes32)": {
        "encoding": "mapping",
        "key": "t_uint256",
        "label": "mapping(uint256 => bytes32)",
        "numberOfBytes": "32",
        "value": "t_bytes32"
      },
      "t_mapping(t_uint256,t_mapping(t_address,t_bool))": {
        "encoding": "mapping",
        "key": "t_uint256",
        "label": "mapping(uint256 => mapping(address => bool))",
        "numberOfBytes": "32",
        "value": "t_mapping(t_address,t_bool)"
      },
      "t_string_storage": {
        "encoding": "bytes",
        "label": "string",
        "numberOfBytes": "32"
      },
      "t_uint256": {
        "encoding": "inplace",
        "label": "uint256",
        "numberOfBytes": "32"
      }
    }
  }
}