{
  "address": "0xb9b9fdb4aE4F696eE89fEd3A85d53510879aB0b9",
  "abi": [
    {
      "anonymous": false,
      "inputs": [
        {
          "indexed": true,
          "internalType": "address",
          "name": "owner",
          "type": "address"
        },
        {
          "indexed": true,
          "internalType": "address",
          "name": "approved",
          "type": "address"
        },
        {
          "indexed": true,
          "internalType": "uint256",
          "name": "tokenId",
          "type": "uint256"
        }
      ],
      "name": "Approval",
      "type": "event"
    },
    {
      "anonymous": false,
      "inputs": [
        {
          "indexed": true,
          "internalType": "address",
          "name": "owner",
          "type": "address"
        },
        {
          "indexed": true,
          "internalType": "address",
          "name": "operator",
          "type": "address"
        },
        {
          "indexed": false,
          "internalType": "bool",
          "name": "approved",
          "type": "bool"
        }
      ],
      "name": "ApprovalForAll",
      "type": "event"
    },
    {
      "anonymous": false,
      "inputs": [
        {
          "indexed": true,
          "internalType": "uint256",
          "name": "eventId",
          "type": "uint256"
        },
        {
          "indexed": true,
          "internalType": "address",
          "name": "minter",
          "type": "address"
        },
        {
          "indexed": true,
          "internalType": "bytes32",
          "name": "role",
          "type": "bytes32"
        }
      ],
      "name": "EventAdded",
      "type": "event"
    },
    {
      "anonymous": false,
      "inputs": [
        {
          "indexed": true,
          "internalType": "uint256",
          "name": "eventId",
          "type": "uint256"
        },
        {
          "indexed": true,
          "internalType": "address",
          "name": "account",
          "type": "address"
        }
      ],
      "name": "EventMinterAdded",
      "type": "event"
    },
    {
      "anonymous": false,
      "inputs": [
        {
          "indexed": true,
          "internalType": "uint256",
          "name": "eventId",
          "type": "uint256"
        },
        {
          "indexed": true,
          "internalType": "address",
          "name": "account",
          "type": "address"
        }
      ],
      "name": "EventMinterRemoved",
      "type": "event"
    },
    {
      "anonymous": false,
      "inputs": [
        {
          "indexed": false,
          "internalType": "uint256",
          "name": "eventId",
          "type": "uint256"
        },
        {
          "indexed": false,
          "internalType": "uint256",
          "name": "tokenId",
          "type": "uint256"
        }
      ],
      "name": "EventToken",
      "type": "event"
    },
    {
      "anonymous": false,
      "inputs": [
        {
          "indexed": true,
          "internalType": "address",
          "name": "account",
          "type": "address"
        }
      ],
      "name": "GovernorAdded",
      "type": "event"
    },
    {
      "anonymous": false,
      "inputs": [
        {
          "indexed": true,
          "internalType": "address",
          "name": "account",
          "type": "address"
        }
      ],
      "name": "GovernorRemoved",
      "type": "event"
    },
    {
      "anonymous": false,
      "inputs": [
        {
          "indexed": false,
          "internalType": "address",
          "name": "account",
          "type": "address"
        }
      ],
      "name": "Paused",
      "type": "event"
    },
    {
      "anonymous": false,
      "inputs": [
        {
          "indexed": true,
          "internalType": "bytes32",
          "name": "role",
          "type": "bytes32"
        },
        {
          "indexed": true,
          "internalType": "bytes32",
          "name": "previousAdminRole",
          "type": "bytes32"
        },
        {
          "indexed": true,
          "internalType": "bytes32",
          "name": "newAdminRole",
          "type": "bytes32"
        }
      ],
      "name": "RoleAdminChanged",
      "type": "event"
    },
    {
      "anonymous": false,
      "inputs": [
        {
          "indexed": true,
          "internalType": "bytes32",
          "name": "role",
          "type": "bytes32"
        },
        {
          "indexed": true,
          "internalType": "address",
          "name": "account",
          "type": "address"
        },
        {
          "indexed": true,
          "internalType": "address",
          "name": "sender",
          "type": "address"
        }
      ],
      "name": "RoleGranted",
      "type": "event"
    },
    {
      "anonymous": false,
      "inputs": [
        {
          "indexed": true,
          "internalType": "bytes32",
          "name": "role",
          "type": "bytes32"
        },
        {
          "indexed": true,
          "internalType": "address",
          "name": "account",
          "type": "address"
        },
        {
          "indexed": true,
          "internalType": "address",
          "name": "sender",
          "type": "address"
        }
      ],
      "name": "RoleRevoked",
      "type": "event"
    },
    {
      "anonymous": false,
      "inputs": [
        {
          "indexed": true,
          "internalType": "address",
          "name": "drop",
          "type": "address"
        }
      ],
      "name": "SwayDropAddressUpdated",
      "type": "event"
    },
    {
      "anonymous": false,
      "inputs": [
        {
          "indexed": true,
          "internalType": "address",
          "name": "from",
          "type": "address"
        },
        {
          "indexed": true,
          "internalType": "address",
          "name": "to",
          "type": "address"
        },
        {
          "indexed": true,
          "internalType": "uint256",
          "name": "tokenId",
          "type": "uint256"
        }
      ],
      "name": "Transfer",
      "type": "event"
    },
    {
      "anonymous": false,
      "inputs": [
        {
          "indexed": false,
          "internalType": "address",
          "name": "account",
          "type": "address"
        }
      ],
      "name": "Unpaused",
      "type": "event"
    },
    {
      "inputs": [],
      "name": "DEFAULT_ADMIN_ROLE",
      "outputs": [
        {
          "internalType": "bytes32",
          "name": "",
          "type": "bytes32"
        }
      ],
      "stateMutability": "view",
      "type": "function"
    },
    {
      "inputs": [],
      "name": "GOVERNOR_ROLE",
      "outputs": [
        {
          "internalType": "bytes32",
          "name": "",
          "type": "bytes32"
        }
      ],
      "stateMutability": "view",
      "type": "function"
    },
    {
      "inputs": [
        {
          "internalType": "uint256",
          "name": "eventId",
          "type": "uint256"
        },
        {
          "internalType": "bytes32",
          "name": "rootHash",
          "type": "bytes32"
        }
      ],
      "name": "addEventDrop",
      "outputs": [],
      "stateMutability": "nonpayable",
      "type": "function"
    },
    {
      "inputs": [
        {
          "internalType": "uint256",
          "name": "eventId",
          "type": "uint256"
        },
        {
          "internalType": "address",
          "name": "account",
          "type": "address"
        }
      ],
      "name": "addEventMinter",
      "outputs": [],
      "stateMutability": "nonpayable",
      "type": "function"
    },
    {
      "inputs": [
        {
          "internalType": "address",
          "name": "account",
          "type": "address"
        }
      ],
      "name": "addGovernor",
      "outputs": [],
      "stateMutability": "nonpayable",
      "type": "function"
    },
    {
      "inputs": [
        {
          "internalType": "address",
          "name": "to",
          "type": "address"
        },
        {
          "internalType": "uint256",
          "name": "tokenId",
          "type": "uint256"
        }
      ],
      "name": "approve",
      "outputs": [],
      "stateMutability": "nonpayable",
      "type": "function"
    },
    {
      "inputs": [
        {
          "internalType": "address",
          "name": "owner",
          "type": "address"
        }
      ],
      "name": "balanceOf",
      "outputs": [
        {
          "internalType": "uint256",
          "name": "",
          "type": "uint256"
        }
      ],
      "stateMutability": "view",
      "type": "function"
    },
    {
      "inputs": [
        {
          "internalType": "uint256",
          "name": "tokenId",
          "type": "uint256"
        }
      ],
      "name": "burn",
      "outputs": [],
      "stateMutability": "nonpayable",
      "type": "function"
    },
    {
      "inputs": [
        {
          "internalType": "address",
          "name": "minter",
          "type": "address"
        }
      ],
      "name": "createEvent",
      "outputs": [],
      "stateMutability": "nonpayable",
      "type": "function"
    },
    {
      "inputs": [],
      "name": "drop",
      "outputs": [
        {
          "internalType": "address",
          "name": "",
          "type": "address"
        }
      ],
      "stateMutability": "view",
      "type": "function"
    },
    {
      "inputs": [
        {
          "internalType": "uint256",
          "name": "",
          "type": "uint256"
        }
      ],
      "name": "eventRoleMapping",
      "outputs": [
        {
          "internalType": "bytes32",
          "name": "",
          "type": "bytes32"
        }
      ],
      "stateMutability": "view",
      "type": "function"
    },
    {
      "inputs": [
        {
          "internalType": "uint256",
          "name": "tokenId",
          "type": "uint256"
        }
      ],
      "name": "getApproved",
      "outputs": [
        {
          "internalType": "address",
          "name": "",
          "type": "address"
        }
      ],
      "stateMutability": "view",
      "type": "function"
    },
    {
      "inputs": [
        {
          "internalType": "bytes32",
          "name": "role",
          "type": "bytes32"
        }
      ],
      "name": "getRoleAdmin",
      "outputs": [
        {
          "internalType": "bytes32",
          "name": "",
          "type": "bytes32"
        }
      ],
      "stateMutability": "view",
      "type": "function"
    },
    {
      "inputs": [
        {
          "internalType": "bytes32",
          "name": "role",
          "type": "bytes32"
        },
        {
          "internalType": "uint256",
          "name": "index",
          "type": "uint256"
        }
      ],
      "name": "getRoleMember",
      "outputs": [
        {
          "internalType": "address",
          "name": "",
          "type": "address"
        }
      ],
      "stateMutability": "view",
      "type": "function"
    },
    {
      "inputs": [
        {
          "internalType": "bytes32",
          "name": "role",
          "type": "bytes32"
        }
      ],
      "name": "getRoleMemberCount",
      "outputs": [
        {
          "internalType": "uint256",
          "name": "",
          "type": "uint256"
        }
      ],
      "stateMutability": "view",
      "type": "function"
    },
    {
      "inputs": [
        {
          "internalType": "bytes32",
          "name": "role",
          "type": "bytes32"
        },
        {
          "internalType": "address",
          "name": "account",
          "type": "address"
        }
      ],
      "name": "grantRole",
      "outputs": [],
      "stateMutability": "nonpayable",
      "type": "function"
    },
    {
      "inputs": [
        {
          "internalType": "bytes32",
          "name": "role",
          "type": "bytes32"
        },
        {
          "internalType": "address",
          "name": "account",
          "type": "address"
        }
      ],
      "name": "hasRole",
      "outputs": [
        {
          "internalType": "bool",
          "name": "",
          "type": "bool"
        }
      ],
      "stateMutability": "view",
      "type": "function"
    },
    {
      "inputs": [
        {
          "internalType": "string",
          "name": "__name",
          "type": "string"
        },
        {
          "internalType": "string",
          "name": "__symbol",
          "type": "string"
        },
        {
          "internalType": "string",
          "name": "__baseURI",
          "type": "string"
        },
        {
          "internalType": "address",
          "name": "governor",
          "type": "address"
        }
      ],
      "name": "initialize",
      "outputs": [],
      "stateMutability": "nonpayable",
      "type": "function"
    },
    {
      "inputs": [
        {
          "internalType": "address",
          "name": "owner",
          "type": "address"
        },
        {
          "internalType": "address",
          "name": "operator",
          "type": "address"
        }
      ],
      "name": "isApprovedForAll",
      "outputs": [
        {
          "internalType": "bool",
          "name": "",
          "type": "bool"
        }
      ],
      "stateMutability": "view",
      "type": "function"
    },
    {
      "inputs": [
        {
          "internalType": "uint256",
          "name": "eventId",
          "type": "uint256"
        },
        {
          "internalType": "address",
          "name": "_addr",
          "type": "address"
        }
      ],
      "name": "isEventMinter",
      "outputs": [
        {
          "internalType": "bool",
          "name": "",
          "type": "bool"
        }
      ],
      "stateMutability": "view",
      "type": "function"
    },
    {
      "inputs": [
        {
          "internalType": "address",
          "name": "_addr",
          "type": "address"
        }
      ],
      "name": "isGovernor",
      "outputs": [
        {
          "internalType": "bool",
          "name": "",
          "type": "bool"
        }
      ],
      "stateMutability": "view",
      "type": "function"
    },
    {
      "inputs": [],
      "name": "lastEventId",
      "outputs": [
        {
          "internalType": "uint256",
          "name": "",
          "type": "uint256"
        }
      ],
      "stateMutability": "view",
      "type": "function"
    },
    {
      "inputs": [
        {
          "internalType": "uint256",
          "name": "eventId",
          "type": "uint256"
        },
        {
          "internalType": "address",
          "name": "to",
          "type": "address"
        }
      ],
      "name": "mintToken",
      "outputs": [
        {
          "internalType": "bool",
          "name": "",
          "type": "bool"
        }
      ],
      "stateMutability": "nonpayable",
      "type": "function"
    },
    {
      "inputs": [
        {
          "internalType": "uint256",
          "name": "eventId",
          "type": "uint256"
        },
        {
          "internalType": "uint256",
          "name": "tokenId",
          "type": "uint256"
        },
        {
          "internalType": "address",
          "name": "to",
          "type": "address"
        }
      ],
      "name": "mintToken",
      "outputs": [
        {
          "internalType": "bool",
          "name": "",
          "type": "bool"
        }
      ],
      "stateMutability": "nonpayable",
      "type": "function"
    },
    {
      "inputs": [],
      "name": "name",
      "outputs": [
        {
          "internalType": "string",
          "name": "",
          "type": "string"
        }
      ],
      "stateMutability": "view",
      "type": "function"
    },
    {
      "inputs": [
        {
          "internalType": "uint256",
          "name": "tokenId",
          "type": "uint256"
        }
      ],
      "name": "ownerOf",
      "outputs": [
        {
          "internalType": "address",
          "name": "",
          "type": "address"
        }
      ],
      "stateMutability": "view",
      "type": "function"
    },
    {
      "inputs": [],
      "name": "pause",
      "outputs": [],
      "stateMutability": "nonpayable",
      "type": "function"
    },
    {
      "inputs": [],
      "name": "paused",
      "outputs": [
        {
          "internalType": "bool",
          "name": "",
          "type": "bool"
        }
      ],
      "stateMutability": "view",
      "type": "function"
    },
    {
      "inputs": [
        {
          "internalType": "uint256",
          "name": "eventId",
          "type": "uint256"
        },
        {
          "internalType": "address",
          "name": "account",
          "type": "address"
        }
      ],
      "name": "removeEventMinter",
      "outputs": [],
      "stateMutability": "nonpayable",
      "type": "function"
    },
    {
      "inputs": [
        {
          "internalType": "address",
          "name": "account",
          "type": "address"
        }
      ],
      "name": "removeGovernor",
      "outputs": [],
      "stateMutability": "nonpayable",
      "type": "function"
    },
    {
      "inputs": [
        {
          "internalType": "bytes32",
          "name": "role",
          "type": "bytes32"
        },
        {
          "internalType": "address",
          "name": "account",
          "type": "address"
        }
      ],
      "name": "renounceRole",
      "outputs": [],
      "stateMutability": "nonpayable",
      "type": "function"
    },
    {
      "inputs": [
        {
          "internalType": "bytes32",
          "name": "role",
          "type": "bytes32"
        },
        {
          "internalType": "address",
          "name": "account",
          "type": "address"
        }
      ],
      "name": "revokeRole",
      "outputs": [],
      "stateMutability": "nonpayable",
      "type": "function"
    },
    {
      "inputs": [
        {
          "internalType": "address",
          "name": "from",
          "type": "address"
        },
        {
          "internalType": "address",
          "name": "to",
          "type": "address"
        },
        {
          "internalType": "uint256",
          "name": "tokenId",
          "type": "uint256"
        }
      ],
      "name": "safeTransferFrom",
      "outputs": [],
      "stateMutability": "nonpayable",
      "type": "function"
    },
    {
      "inputs": [
        {
          "internalType": "address",
          "name": "from",
          "type": "address"
        },
        {
          "internalType": "address",
          "name": "to",
          "type": "address"
        },
        {
          "internalType": "uint256",
          "name": "tokenId",
          "type": "uint256"
        },
        {
          "internalType": "bytes",
          "name": "_data",
          "type": "bytes"
        }
      ],
      "name": "safeTransferFrom",
      "outputs": [],
      "stateMutability": "nonpayable",
      "type": "function"
    },
    {
      "inputs": [
        {
          "internalType": "address",
          "name": "operator",
          "type": "address"
        },
        {
          "internalType": "bool",
          "name": "approved",
          "type": "bool"
        }
      ],
      "name": "setApprovalForAll",
      "outputs": [],
      "stateMutability": "nonpayable",
      "type": "function"
    },
    {
      "inputs": [
        {
          "internalType": "string",
          "name": "baseURI",
          "type": "string"
        }
      ],
      "name": "setBaseURI",
      "outputs": [],
      "stateMutability": "nonpayable",
      "type": "function"
    },
    {
      "inputs": [
        {
          "internalType": "address",
          "name": "_drop",
          "type": "address"
        }
      ],
      "name": "setDrop",
      "outputs": [],
      "stateMutability": "nonpayable",
      "type": "function"
    },
    {
      "inputs": [
        {
          "internalType": "bytes4",
          "name": "interfaceId",
          "type": "bytes4"
        }
      ],
      "name": "supportsInterface",
      "outputs": [
        {
          "internalType": "bool",
          "name": "",
          "type": "bool"
        }
      ],
      "stateMutability": "view",
      "type": "function"
    },
    {
      "inputs": [],
      "name": "symbol",
      "outputs": [
        {
          "internalType": "string",
          "name": "",
          "type": "string"
        }
      ],
      "stateMutability": "view",
      "type": "function"
    },
    {
      "inputs": [
        {
          "internalType": "uint256",
          "name": "index",
          "type": "uint256"
        }
      ],
      "name": "tokenByIndex",
      "outputs": [
        {
          "internalType": "uint256",
          "name": "",
          "type": "uint256"
        }
      ],
      "stateMutability": "view",
      "type": "function"
    },
    {
      "inputs": [
        {
          "internalType": "address",
          "name": "owner",
          "type": "address"
        },
        {
          "internalType": "uint256",
          "name": "index",
          "type": "uint256"
        }
      ],
      "name": "tokenDetailsOfOwnerByIndex",
      "outputs": [
        {
          "internalType": "uint256",
          "name": "tokenId",
          "type": "uint256"
        },
        {
          "internalType": "uint256",
          "name": "eventId",
          "type": "uint256"
        }
      ],
      "stateMutability": "view",
      "type": "function"
    },
    {
      "inputs": [
        {
          "internalType": "uint256",
          "name": "",
          "type": "uint256"
        }
      ],
      "name": "tokenEvent",
      "outputs": [
        {
          "internalType": "uint256",
          "name": "",
          "type": "uint256"
        }
      ],
      "stateMutability": "view",
      "type": "function"
    },
    {
      "inputs": [
        {
          "internalType": "address",
          "name": "owner",
          "type": "address"
        },
        {
          "internalType": "uint256",
          "name": "index",
          "type": "uint256"
        }
      ],
      "name": "tokenOfOwnerByIndex",
      "outputs": [
        {
          "internalType": "uint256",
          "name": "",
          "type": "uint256"
        }
      ],
      "stateMutability": "view",
      "type": "function"
    },
    {
      "inputs": [
        {
          "internalType": "uint256",
          "name": "tokenId",
          "type": "uint256"
        }
      ],
      "name": "tokenURI",
      "outputs": [
        {
          "internalType": "string",
          "name": "",
          "type": "string"
        }
      ],
      "stateMutability": "view",
      "type": "function"
    },
    {
      "inputs": [],
      "name": "totalSupply",
      "outputs": [
        {
          "internalType": "uint256",
          "name": "",
          "type": "uint256"
        }
      ],
      "stateMutability": "view",
      "type": "function"
    },
    {
      "inputs": [
        {
          "internalType": "address",
          "name": "from",
          "type": "address"
        },
        {
          "internalType": "address",
          "name": "to",
          "type": "address"
        },
        {
          "internalType": "uint256",
          "name": "tokenId",
          "type": "uint256"
        }
      ],
      "name": "transferFrom",
      "outputs": [],
      "stateMutability": "nonpayable",
      "type": "function"
    },
    {
      "inputs": [],
      "name": "unpause",
      "outputs": [],
      "stateMutability": "nonpayable",
      "type": "function"
    }
  ],
  "transactionHash": "0xc0bd001053e939b9e64d7205fd2f979e3fa0dd2b6ba22d2b45818856a93cdd38",
  "args": [],
  "numDeployments": 1,
  "solcInputHash": "1efbfa4dac2c3fd74cadf5cabd9024f8",
  "bytecode": "0x608060405234801561001057600080fd5b50613587806100206000396000f3fe608060405234801561001057600080fd5b50600436106102955760003560e01c80636352211e11610167578063b2c50b12116100ce578063d890c8e211610087578063d890c8e2146105e0578063e43581b8146105f3578063e985e9c514610606578063eecdac8814610642578063f751cd8f14610655578063f8b246261461066957600080fd5b8063b2c50b121461055e578063b88d4fde1461057f578063c87b56dd14610592578063ca15c873146105a5578063ccc57490146105b8578063d547741f146105cd57600080fd5b806391d148541161012057806391d148541461050257806395d89b41146105155780639cd3cad61461051d578063a140ae2314610530578063a217fddf14610543578063a22cb4651461054b57600080fd5b80636352211e1461048657806367e971ce1461049957806370a08231146104c1578063787b8d47146104d45780638456cb59146104e75780639010d07c146104ef57600080fd5b806328db38b41161020b57806342842e0e116101c457806342842e0e1461041b57806342966c681461042e5780634f6ccce71461044157806355f804b3146104545780635c6d8da1146104675780635c975abb1461047a57600080fd5b806328db38b4146103b45780632f2ff15d146103c75780632f745c59146103da57806336568abe146103ed5780633c4a25d0146104005780633f4ba83a1461041357600080fd5b8063127a52981161025d578063127a52981461032f578063166c4b051461035057806318160ddd1461036357806323b872dd1461036b578063240f61a11461037e578063248a9ca31461039157600080fd5b806301ffc9a71461029a578063054e9507146102c257806306fdde03146102da578063081812fc146102ef578063095ea7b31461031a575b600080fd5b6102ad6102a8366004612f46565b61067c565b60405190151581526020015b60405180910390f35b6102cc6101615481565b6040519081526020016102b9565b6102e261069c565b6040516102b991906131c4565b6103026102fd366004612eeb565b61072e565b6040516001600160a01b0390911681526020016102b9565b61032d610328366004612ec2565b6107c8565b005b6102cc61033d366004612eeb565b6101646020526000908152604090205481565b61032d61035e366004612f03565b6108de565b6099546102cc565b61032d610379366004612dd4565b610911565b61032d61038c366004612f25565b610943565b6102cc61039f366004612eeb565b600090815260c9602052604090206001015490565b6102ad6103c2366004612f03565b610ac2565b61032d6103d5366004612f03565b610af2565b6102cc6103e8366004612ec2565b610b14565b61032d6103fb366004612f03565b610baa565b61032d61040e366004612d88565b610bcc565b61032d610bfd565b61032d610429366004612dd4565b610c76565b61032d61043c366004612eeb565b610c91565b6102cc61044f366004612eeb565b610cfe565b61032d610462366004612f7e565b610d9f565b61032d610475366004612fb1565b610dfc565b61012d5460ff166102ad565b610302610494366004612eeb565b610e9c565b6104ac6104a7366004612ec2565b610f13565b604080519283526020830191909152016102b9565b6102cc6104cf366004612d88565b610f3b565b61032d6104e2366004612d88565b610fc2565b61032d610ff0565b6103026104fd366004612f25565b611041565b6102ad610510366004612f03565b611059565b6102e2611084565b61032d61052b366004612f03565b611093565b6102ad61053e366004612f03565b6110c2565b6102cc600081565b61032d610559366004612e88565b611146565b6102cc61056c366004612eeb565b6101606020526000908152604090205481565b61032d61058d366004612e0f565b61120b565b6102e26105a0366004612eeb565b611243565b6102cc6105b3366004612eeb565b61130b565b6102cc60008051602061353283398151915281565b61032d6105db366004612f03565b611322565b6102ad6105ee366004613046565b61132c565b6102ad610601366004612d88565b611393565b6102ad610614366004612da2565b6001600160a01b039182166000908152606a6020908152604080832093909416825291909152205460ff1690565b61032d610650366004612d88565b6113ad565b61015f54610302906001600160a01b031681565b61032d610677366004612d88565b6113db565b60006106878261144b565b80610696575061069682611470565b92915050565b6060606580546106ab9061346f565b80601f01602080910402602001604051908101604052809291908181526020018280546106d79061346f565b80156107245780601f106106f957610100808354040283529160200191610724565b820191906000526020600020905b81548152906001019060200180831161070757829003601f168201915b5050505050905090565b6000818152606760205260408120546001600160a01b03166107ac5760405162461bcd60e51b815260206004820152602c60248201527f4552433732313a20617070726f76656420717565727920666f72206e6f6e657860448201526b34b9ba32b73a103a37b5b2b760a11b60648201526084015b60405180910390fd5b506000908152606960205260409020546001600160a01b031690565b60006107d382610e9c565b9050806001600160a01b0316836001600160a01b031614156108415760405162461bcd60e51b815260206004820152602160248201527f4552433732313a20617070726f76616c20746f2063757272656e74206f776e656044820152603960f91b60648201526084016107a3565b336001600160a01b038216148061085d575061085d8133610614565b6108cf5760405162461bcd60e51b815260206004820152603860248201527f4552433732313a20617070726f76652063616c6c6572206973206e6f74206f7760448201527f6e6572206e6f7220617070726f76656420666f7220616c6c000000000000000060648201526084016107a3565b6108d98383611495565b505050565b6108e733611393565b6109035760405162461bcd60e51b81526004016107a39061337d565b61090d8282611503565b5050565b61091c335b82611583565b6109385760405162461bcd60e51b81526004016107a39061332c565b6108d9838383611676565b61094c33611393565b6109685760405162461bcd60e51b81526004016107a39061337d565b61015f546001600160a01b03166109c15760405162461bcd60e51b815260206004820152601f60248201527f5377617941646d696e3a2064726f702061646472657373206e6f74207365740060448201526064016107a3565b80610a0e5760405162461bcd60e51b815260206004820152601b60248201527f5377617941646d696e3a20726f6f7448617368206973207a65726f000000000060448201526064016107a3565b60008281526101606020526040902054610a3a5760405162461bcd60e51b81526004016107a39061327d565b61015f54610161546040516330dde7eb60e21b81526001600160a01b039092169163c3779fac91610a78918590600401918252602082015260400190565b600060405180830381600087803b158015610a9257600080fd5b505af1158015610aa6573d6000803e3d6000fd5b505061015f5461090d92508491506001600160a01b0316611821565b60008281526101606020526040812054610adc9083611059565b80610aeb5750610aeb82611393565b9392505050565b610afc82826118a1565b600082815260fb602052604090206108d990826118c7565b6000610b1f83610f3b565b8210610b815760405162461bcd60e51b815260206004820152602b60248201527f455243373231456e756d657261626c653a206f776e657220696e646578206f7560448201526a74206f6620626f756e647360a81b60648201526084016107a3565b506001600160a01b03919091166000908152609760209081526040808320938352929052205490565b610bb482826118dc565b600082815260fb602052604090206108d99082611956565b610bd533611393565b610bf15760405162461bcd60e51b81526004016107a39061337d565b610bfa8161196b565b50565b610c0633611393565b610c225760405162461bcd60e51b81526004016107a39061337d565b61012d5460ff16610c6c5760405162461bcd60e51b815260206004820152601460248201527314185d5cd8589b194e881b9bdd081c185d5cd95960621b60448201526064016107a3565b610c746119ba565b565b6108d98383836040518060200160405280600081525061120b565b610c9a33610916565b610cf55760405162461bcd60e51b815260206004820152602660248201527f537761793a2063616c6c6572206973206e6f74206f776e6572206e6f722061706044820152651c1c9bdd995960d21b60648201526084016107a3565b610bfa81611a4f565b6000610d0960995490565b8210610d6c5760405162461bcd60e51b815260206004820152602c60248201527f455243373231456e756d657261626c653a20676c6f62616c20696e646578206f60448201526b7574206f6620626f756e647360a01b60648201526084016107a3565b60998281548110610d8d57634e487b7160e01b600052603260045260246000fd5b90600052602060002001549050919050565b610da833611393565b610dc45760405162461bcd60e51b81526004016107a39061337d565b61012d5460ff1615610de85760405162461bcd60e51b81526004016107a3906132b4565b805161090d90610163906020840190612c3e565b600054610100900460ff1680610e15575060005460ff16155b610e315760405162461bcd60e51b81526004016107a3906132de565b600054610100900460ff16158015610e53576000805461ffff19166101011790555b8251610e6790610163906020860190612c3e565b50610e7182611a6a565b610e7b8585611b07565b610e83611b9c565b8015610e95576000805461ff00191690555b5050505050565b6000818152606760205260408120546001600160a01b0316806106965760405162461bcd60e51b815260206004820152602960248201527f4552433732313a206f776e657220717565727920666f72206e6f6e657869737460448201526832b73a103a37b5b2b760b91b60648201526084016107a3565b600080610f208484610b14565b60008181526101646020526040902054909590945092505050565b60006001600160a01b038216610fa65760405162461bcd60e51b815260206004820152602a60248201527f4552433732313a2062616c616e636520717565727920666f7220746865207a65604482015269726f206164647265737360b01b60648201526084016107a3565b506001600160a01b031660009081526068602052604090205490565b610fcb33611393565b610fe75760405162461bcd60e51b81526004016107a39061337d565b610bfa81611c07565b610ff933611393565b6110155760405162461bcd60e51b81526004016107a39061337d565b61012d5460ff16156110395760405162461bcd60e51b81526004016107a3906132b4565b610c74611ccc565b600082815260fb60205260408120610aeb9083611d26565b600091825260c9602090815260408084206001600160a01b0393909316845291905290205460ff1690565b6060606680546106ab9061346f565b61109c33611393565b6110b85760405162461bcd60e51b81526004016107a39061337d565b61090d8282611821565b60006110d161012d5460ff1690565b156110ee5760405162461bcd60e51b81526004016107a3906132b4565b826110f98133610ac2565b6111155760405162461bcd60e51b81526004016107a3906131d7565b6001610162600082825461112991906133ca565b9250508190555061113e846101625485611d32565b949350505050565b6001600160a01b03821633141561119f5760405162461bcd60e51b815260206004820152601960248201527f4552433732313a20617070726f766520746f2063616c6c65720000000000000060448201526064016107a3565b336000818152606a602090815260408083206001600160a01b03871680855290835292819020805460ff191686151590811790915590519081529192917f17307eab39ab6107e8899845ad3d59bd9653f200f220920489ca2b5937696c31910160405180910390a35050565b6112153383611583565b6112315760405162461bcd60e51b81526004016107a39061332c565b61123d84848484611d94565b50505050565b6000818152606760205260409020546060906001600160a01b03166112b85760405162461bcd60e51b815260206004820152602560248201527f537761793a2055524920717565727920666f72206e6f6e6578697374656e74206044820152643a37b5b2b760d91b60648201526084016107a3565b600082815261016460205260409020546112d0611dc7565b6112d982611dd7565b6112e285611dd7565b6040516020016112f4939291906130c2565b604051602081830303815290604052915050919050565b600081815260fb6020526040812061069690611ef1565b610bb48282611efb565b600061133b61012d5460ff1690565b156113585760405162461bcd60e51b81526004016107a3906132b4565b836113638133610ac2565b61137f5760405162461bcd60e51b81526004016107a3906131d7565b61138a858585611d32565b95945050505050565b600061069660008051602061353283398151915283611059565b6113b633611393565b6113d25760405162461bcd60e51b81526004016107a39061337d565b610bfa81611f21565b6113e433611393565b6114005760405162461bcd60e51b81526004016107a39061337d565b61015f80546001600160a01b0319166001600160a01b0383169081179091556040517f2b0b908b0d6b92722775f3bfd1f036b6795e6f9727011363e9de5c155f2b36c890600090a250565b60006001600160e01b0319821663780e9d6360e01b1480610696575061069682611f70565b60006001600160e01b03198216635a05180f60e01b1480610696575061069682611fc0565b600081815260696020526040902080546001600160a01b0319166001600160a01b03841690811790915581906114ca82610e9c565b6001600160a01b03167f8c5be1e5ebec7d5bd14f71427d1e84f3dd0314c0f7b2291e5b200ac8c7c3b92560405160405180910390a45050565b6000828152610160602052604090205461152f5760405162461bcd60e51b81526004016107a39061327d565b600082815261016060205260409020546115499082610baa565b6040516001600160a01b0382169083907fb6882c4d609d560f6d57e78e73dd96027f0d9852739b0b922537a6dd3c8e944c90600090a35050565b6000818152606760205260408120546001600160a01b03166115fc5760405162461bcd60e51b815260206004820152602c60248201527f4552433732313a206f70657261746f7220717565727920666f72206e6f6e657860448201526b34b9ba32b73a103a37b5b2b760a11b60648201526084016107a3565b600061160783610e9c565b9050806001600160a01b0316846001600160a01b031614806116425750836001600160a01b03166116378461072e565b6001600160a01b0316145b8061113e57506001600160a01b038082166000908152606a602090815260408083209388168352929052205460ff1661113e565b826001600160a01b031661168982610e9c565b6001600160a01b0316146116f15760405162461bcd60e51b815260206004820152602960248201527f4552433732313a207472616e73666572206f6620746f6b656e2074686174206960448201526839903737ba1037bbb760b91b60648201526084016107a3565b6001600160a01b0382166117535760405162461bcd60e51b8152602060048201526024808201527f4552433732313a207472616e7366657220746f20746865207a65726f206164646044820152637265737360e01b60648201526084016107a3565b61175e838383611fe5565b611769600082611495565b6001600160a01b0383166000908152606860205260408120805460019290611792908490613415565b90915550506001600160a01b03821660009081526068602052604081208054600192906117c09084906133ca565b909155505060008181526067602052604080822080546001600160a01b0319166001600160a01b0386811691821790925591518493918716917fddf252ad1be2c89b69c2b068fc378daa952ba7f163c4a11628f55a4df523b3ef91a4505050565b6000828152610160602052604090205461184d5760405162461bcd60e51b81526004016107a39061327d565b600082815261016060205260409020546118679082610af2565b6040516001600160a01b0382169083907fe1bd660d9f7c60e6fb12dd6479fdde12d21fc96385dc7b9b022c0b2f319e739190600090a35050565b600082815260c960205260409020600101546118bd813361204e565b6108d983836120b2565b6000610aeb836001600160a01b038416612138565b6001600160a01b038116331461194c5760405162461bcd60e51b815260206004820152602f60248201527f416363657373436f6e74726f6c3a2063616e206f6e6c792072656e6f756e636560448201526e103937b632b9903337b91039b2b63360891b60648201526084016107a3565b61090d8282612187565b6000610aeb836001600160a01b0384166121ee565b61198360008051602061353283398151915282610af2565b6040516001600160a01b038216907fdc5a48d79e2e147530ff63ecdbed5a5a66adb9d5cf339384d5d076da197c40b590600090a250565b61012d5460ff16611a045760405162461bcd60e51b815260206004820152601460248201527314185d5cd8589b194e881b9bdd081c185d5cd95960621b60448201526064016107a3565b61012d805460ff191690557f5db9ee0a495bf2e6ff9c91a7834c1ba4fdd244a5e8aa4e537bd38aeae4b073aa335b6040516001600160a01b03909116815260200160405180910390a1565b611a588161230b565b60009081526101646020526040812055565b600054610100900460ff1680611a83575060005460ff16155b611a9f5760405162461bcd60e51b81526004016107a3906132de565b600054610100900460ff16158015611ac1576000805461ffff19166101011790555b611ac9611b9c565b611ad1611b9c565b611ad9611b9c565b611ae1611b9c565b611ae96123b2565b611af282612428565b801561090d576000805461ff00191690555050565b600054610100900460ff1680611b20575060005460ff16155b611b3c5760405162461bcd60e51b81526004016107a3906132de565b600054610100900460ff16158015611b5e576000805461ffff19166101011790555b8251611b71906065906020860190612c3e565b508151611b85906066906020850190612c3e565b5080156108d9576000805461ff0019169055505050565b600054610100900460ff1680611bb5575060005460ff16155b611bd15760405162461bcd60e51b81526004016107a3906132de565b600054610100900460ff16158015611bf3576000805461ffff19166101011790555b8015610bfa576000805461ff001916905550565b60016101616000828254611c1b91906133ca565b925050819055506000611c3061016154611dd7565b604051602001611c4091906130a6565b604051602081830303815290604052805190602001209050611c70816000805160206135328339815191526124f8565b6101618054600090815261016060205260408082208490559154915183926001600160a01b0386169290917f613e137a89b79c7d1e214c39381dfac9f62e1f202a0e2e8c17d44d7d689cd8ea9190a461090d6101615483611821565b61012d5460ff1615611cf05760405162461bcd60e51b81526004016107a3906132b4565b61012d805460ff191660011790557f62e78cea01bee320cd4e420270b5ea74000d11b0c9f74754ebdbfc544b05a258611a323390565b6000610aeb8383612543565b6000611d3e828461257b565b6000838152610164602090815260409182902086905581518681529081018590527f4b3711cd7ece062b0828c1b6e08d814a72d4c003383a016c833cbb1b45956e34910160405180910390a15060019392505050565b611d9f848484611676565b611dab848484846126c9565b61123d5760405162461bcd60e51b81526004016107a39061322b565b606061016380546106ab9061346f565b606081611dfb5750506040805180820190915260018152600360fc1b602082015290565b8160005b8115611e255780611e0f816134aa565b9150611e1e9050600a836133e2565b9150611dff565b60008167ffffffffffffffff811115611e4e57634e487b7160e01b600052604160045260246000fd5b6040519080825280601f01601f191660200182016040528015611e78576020820181803683370190505b5090505b841561113e57611e8d600183613415565b9150611e9a600a866134c5565b611ea59060306133ca565b60f81b818381518110611ec857634e487b7160e01b600052603260045260246000fd5b60200101906001600160f81b031916908160001a905350611eea600a866133e2565b9450611e7c565b6000610696825490565b600082815260c96020526040902060010154611f17813361204e565b6108d98383612187565b611f3960008051602061353283398151915282610baa565b6040516001600160a01b038216907f1ebe834e73d60a5fec822c1e1727d34bc79f2ad977ed504581cc1822fe20fb5b90600090a250565b60006001600160e01b031982166380ac58cd60e01b1480611fa157506001600160e01b03198216635b5e139f60e01b145b8061069657506301ffc9a760e01b6001600160e01b0319831614610696565b60006001600160e01b03198216637965db0b60e01b148061069657506106968261144b565b611ff08383836127d6565b61012d5460ff16156108d95760405162461bcd60e51b815260206004820152602160248201527f537761793a20746f6b656e207472616e73666572207768696c652070617573656044820152601960fa1b60648201526084016107a3565b6120588282611059565b61090d57612070816001600160a01b0316601461288e565b61207b83602061288e565b60405160200161208c929190613112565b60408051601f198184030181529082905262461bcd60e51b82526107a3916004016131c4565b6120bc8282611059565b61090d57600082815260c9602090815260408083206001600160a01b03851684529091529020805460ff191660011790556120f43390565b6001600160a01b0316816001600160a01b0316837f2f8788117e7eff1d82e926ec794901d17c78024a50270940304540a733656f0d60405160405180910390a45050565b600081815260018301602052604081205461217f57508154600181810184556000848152602080822090930184905584548482528286019093526040902091909155610696565b506000610696565b6121918282611059565b1561090d57600082815260c9602090815260408083206001600160a01b0385168085529252808320805460ff1916905551339285917ff6391f5c32d9c69d2a47ea670b442974b53935d1edc7fd64eb21e047a839171b9190a45050565b60008181526001830160205260408120548015612301576000612212600183613415565b855490915060009061222690600190613415565b90508181146122a757600086600001828154811061225457634e487b7160e01b600052603260045260246000fd5b906000526020600020015490508087600001848154811061228557634e487b7160e01b600052603260045260246000fd5b6000918252602080832090910192909255918252600188019052604090208390555b85548690806122c657634e487b7160e01b600052603160045260246000fd5b600190038181906000526020600020016000905590558560010160008681526020019081526020016000206000905560019350505050610696565b6000915050610696565b600061231682610e9c565b905061232481600084611fe5565b61232f600083611495565b6001600160a01b0381166000908152606860205260408120805460019290612358908490613415565b909155505060008281526067602052604080822080546001600160a01b0319169055518391906001600160a01b038416907fddf252ad1be2c89b69c2b068fc378daa952ba7f163c4a11628f55a4df523b3ef908390a45050565b600054610100900460ff16806123cb575060005460ff16155b6123e75760405162461bcd60e51b81526004016107a3906132de565b600054610100900460ff16158015612409576000805461ffff19166101011790555b61012d805460ff191690558015610bfa576000805461ff001916905550565b600054610100900460ff1680612441575060005460ff16155b61245d5760405162461bcd60e51b81526004016107a3906132de565b600054610100900460ff1615801561247f576000805461ffff19166101011790555b612497600080516020613532833981519152806124f8565b6124af60008051602061353283398151915283612a70565b6040516001600160a01b038316907fdc5a48d79e2e147530ff63ecdbed5a5a66adb9d5cf339384d5d076da197c40b590600090a2801561090d576000805461ff00191690555050565b600082815260c96020526040808220600101805490849055905190918391839186917fbd79b86ffe0ab8e8776151514217cd7cacd52c909f66475c3af44e129f0b00ff9190a4505050565b600082600001828154811061256857634e487b7160e01b600052603260045260246000fd5b9060005260206000200154905092915050565b6001600160a01b0382166125d15760405162461bcd60e51b815260206004820181905260248201527f4552433732313a206d696e7420746f20746865207a65726f206164647265737360448201526064016107a3565b6000818152606760205260409020546001600160a01b0316156126365760405162461bcd60e51b815260206004820152601c60248201527f4552433732313a20746f6b656e20616c7265616479206d696e7465640000000060448201526064016107a3565b61264260008383611fe5565b6001600160a01b038216600090815260686020526040812080546001929061266b9084906133ca565b909155505060008181526067602052604080822080546001600160a01b0319166001600160a01b03861690811790915590518392907fddf252ad1be2c89b69c2b068fc378daa952ba7f163c4a11628f55a4df523b3ef908290a45050565b60006001600160a01b0384163b156127cb57604051630a85bd0160e11b81526001600160a01b0385169063150b7a029061270d903390899088908890600401613187565b602060405180830381600087803b15801561272757600080fd5b505af1925050508015612757575060408051601f3d908101601f1916820190925261275491810190612f62565b60015b6127b1573d808015612785576040519150601f19603f3d011682016040523d82523d6000602084013e61278a565b606091505b5080516127a95760405162461bcd60e51b81526004016107a39061322b565b805181602001fd5b6001600160e01b031916630a85bd0160e11b14905061113e565b506001949350505050565b6001600160a01b0383166128315761282c81609980546000838152609a60205260408120829055600182018355919091527f72a152ddfb8e864297c917af52ea6c1c68aead0fee1a62673fcc7e0c94979d000155565b612854565b816001600160a01b0316836001600160a01b031614612854576128548382612a7a565b6001600160a01b03821661286b576108d981612b17565b826001600160a01b0316826001600160a01b0316146108d9576108d98282612bf0565b6060600061289d8360026133f6565b6128a89060026133ca565b67ffffffffffffffff8111156128ce57634e487b7160e01b600052604160045260246000fd5b6040519080825280601f01601f1916602001820160405280156128f8576020820181803683370190505b509050600360fc1b8160008151811061292157634e487b7160e01b600052603260045260246000fd5b60200101906001600160f81b031916908160001a905350600f60fb1b8160018151811061295e57634e487b7160e01b600052603260045260246000fd5b60200101906001600160f81b031916908160001a90535060006129828460026133f6565b61298d9060016133ca565b90505b6001811115612a21576f181899199a1a9b1b9c1cb0b131b232b360811b85600f16601081106129cf57634e487b7160e01b600052603260045260246000fd5b1a60f81b8282815181106129f357634e487b7160e01b600052603260045260246000fd5b60200101906001600160f81b031916908160001a90535060049490941c93612a1a81613458565b9050612990565b508315610aeb5760405162461bcd60e51b815260206004820181905260248201527f537472696e67733a20686578206c656e67746820696e73756666696369656e7460448201526064016107a3565b610afc8282612c34565b60006001612a8784610f3b565b612a919190613415565b600083815260986020526040902054909150808214612ae4576001600160a01b03841660009081526097602090815260408083208584528252808320548484528184208190558352609890915290208190555b5060009182526098602090815260408084208490556001600160a01b039094168352609781528383209183525290812055565b609954600090612b2990600190613415565b6000838152609a602052604081205460998054939450909284908110612b5f57634e487b7160e01b600052603260045260246000fd5b906000526020600020015490508060998381548110612b8e57634e487b7160e01b600052603260045260246000fd5b6000918252602080832090910192909255828152609a90915260408082208490558582528120556099805480612bd457634e487b7160e01b600052603160045260246000fd5b6001900381819060005260206000200160009055905550505050565b6000612bfb83610f3b565b6001600160a01b039093166000908152609760209081526040808320868452825280832085905593825260989052919091209190915550565b61090d82826120b2565b828054612c4a9061346f565b90600052602060002090601f016020900481019282612c6c5760008555612cb2565b82601f10612c8557805160ff1916838001178555612cb2565b82800160010185558215612cb2579182015b82811115612cb2578251825591602001919060010190612c97565b50612cbe929150612cc2565b5090565b5b80821115612cbe5760008155600101612cc3565b600067ffffffffffffffff80841115612cf257612cf2613505565b604051601f8501601f19908116603f01168101908282118183101715612d1a57612d1a613505565b81604052809350858152868686011115612d3357600080fd5b858560208301376000602087830101525050509392505050565b80356001600160a01b0381168114612d6457600080fd5b919050565b600082601f830112612d79578081fd5b610aeb83833560208501612cd7565b600060208284031215612d99578081fd5b610aeb82612d4d565b60008060408385031215612db4578081fd5b612dbd83612d4d565b9150612dcb60208401612d4d565b90509250929050565b600080600060608486031215612de8578081fd5b612df184612d4d565b9250612dff60208501612d4d565b9150604084013590509250925092565b60008060008060808587031215612e24578081fd5b612e2d85612d4d565b9350612e3b60208601612d4d565b925060408501359150606085013567ffffffffffffffff811115612e5d578182fd5b8501601f81018713612e6d578182fd5b612e7c87823560208401612cd7565b91505092959194509250565b60008060408385031215612e9a578182fd5b612ea383612d4d565b915060208301358015158114612eb7578182fd5b809150509250929050565b60008060408385031215612ed4578182fd5b612edd83612d4d565b946020939093013593505050565b600060208284031215612efc578081fd5b5035919050565b60008060408385031215612f15578182fd5b82359150612dcb60208401612d4d565b60008060408385031215612f37578182fd5b50508035926020909101359150565b600060208284031215612f57578081fd5b8135610aeb8161351b565b600060208284031215612f73578081fd5b8151610aeb8161351b565b600060208284031215612f8f578081fd5b813567ffffffffffffffff811115612fa5578182fd5b61113e84828501612d69565b60008060008060808587031215612fc6578384fd5b843567ffffffffffffffff80821115612fdd578586fd5b612fe988838901612d69565b95506020870135915080821115612ffe578485fd5b61300a88838901612d69565b9450604087013591508082111561301f578384fd5b5061302c87828801612d69565b92505061303b60608601612d4d565b905092959194509250565b60008060006060848603121561305a578081fd5b833592506020840135915061307160408501612d4d565b90509250925092565b6000815180845261309281602086016020860161342c565b601f01601f19169290920160200192915050565b600082516130b881846020870161342c565b9190910192915050565b600084516130d481846020890161342c565b8451908301906130e881836020890161342c565b602f60f81b9101908152835161310581600184016020880161342c565b0160010195945050505050565b7f416363657373436f6e74726f6c3a206163636f756e742000000000000000000081526000835161314a81601785016020880161342c565b7001034b99036b4b9b9b4b733903937b6329607d1b601791840191820152835161317b81602884016020880161342c565b01602801949350505050565b6001600160a01b03858116825284166020820152604081018390526080606082018190526000906131ba9083018461307a565b9695505050505050565b602081526000610aeb602083018461307a565b60208082526034908201527f5377617941646d696e3a2073656e64657220646f6573206e6f74206861766520604082015273135a5b9d195c88149bdb19481a5b88115d995b9d60621b606082015260800190565b60208082526032908201527f4552433732313a207472616e7366657220746f206e6f6e20455243373231526560408201527131b2b4bb32b91034b6b83632b6b2b73a32b960711b606082015260800190565b6020808252601c908201527f5377617941646d696e3a206576656e744964206e6f7420666f756e6400000000604082015260600190565b60208082526010908201526f14185d5cd8589b194e881c185d5cd95960821b604082015260600190565b6020808252602e908201527f496e697469616c697a61626c653a20636f6e747261637420697320616c72656160408201526d191e481a5b9a5d1a585b1a5e995960921b606082015260800190565b60208082526031908201527f4552433732313a207472616e736665722063616c6c6572206973206e6f74206f6040820152701ddb995c881b9bdc88185c1c1c9bdd9959607a1b606082015260800190565b6020808252602d908201527f5377617941646d696e3a2073656e64657220646f6573206e6f7420686176652060408201526c476f7665726e6f7220526f6c6560981b606082015260800190565b600082198211156133dd576133dd6134d9565b500190565b6000826133f1576133f16134ef565b500490565b6000816000190483118215151615613410576134106134d9565b500290565b600082821015613427576134276134d9565b500390565b60005b8381101561344757818101518382015260200161342f565b8381111561123d5750506000910152565b600081613467576134676134d9565b506000190190565b600181811c9082168061348357607f821691505b602082108114156134a457634e487b7160e01b600052602260045260246000fd5b50919050565b60006000198214156134be576134be6134d9565b5060010190565b6000826134d4576134d46134ef565b500690565b634e487b7160e01b600052601160045260246000fd5b634e487b7160e01b600052601260045260246000fd5b634e487b7160e01b600052604160045260246000fd5b6001600160e01b031981168114610bfa57600080fdfe7935bd0ae54bc31f548c14dba4d37c5c64b3f8ca900cb468fb8abd54d5894f55a26469706673582212207603b4c5d8adf778b94531949a4ada22159a2db2990367db928c6e5aa3be2b6164736f6c63430008040033",
  "devdoc": {
    "kind": "dev",
    "methods": {
      "approve(address,uint256)": {
        "details": "See {IERC721-approve}."
      },
      "balanceOf(address)": {
        "details": "See {IERC721-balanceOf}."
      },
      "getApproved(uint256)": {
        "details": "See {IERC721-getApproved}."
      },
      "getRoleAdmin(bytes32)": {
        "details": "Returns the admin role that controls `role`. See {grantRole} and {revokeRole}. To change a role's admin, use {_setRoleAdmin}."
      },
      "getRoleMember(bytes32,uint256)": {
        "details": "Returns one of the accounts that have `role`. `index` must be a value between 0 and {getRoleMemberCount}, non-inclusive. Role bearers are not sorted in any particular way, and their ordering may change at any point. WARNING: When using {getRoleMember} and {getRoleMemberCount}, make sure you perform all queries on the same block. See the following https://forum.openzeppelin.com/t/iterating-over-elements-on-enumerableset-in-openzeppelin-contracts/2296[forum post] for more information."
      },
      "getRoleMemberCount(bytes32)": {
        "details": "Returns the number of accounts that have `role`. Can be used together with {getRoleMember} to enumerate all bearers of a role."
      },
      "grantRole(bytes32,address)": {
        "details": "Overload {grantRole} to track enumerable memberships"
      },
      "hasRole(bytes32,address)": {
        "details": "Returns `true` if `account` has been granted `role`."
      },
      "isApprovedForAll(address,address)": {
        "details": "See {IERC721-isApprovedForAll}."
      },
      "mintToken(uint256,address)": {
        "details": "Function to mint tokens",
        "params": {
          "eventId": "EventId for the new token",
          "to": "The address that will receive the minted tokens."
        },
        "returns": {
          "_0": "A boolean that indicates if the operation was successful."
        }
      },
      "mintToken(uint256,uint256,address)": {
        "details": "Function to mint tokens with a specific id",
        "params": {
          "eventId": "EventId for the new token",
          "to": "The address that will receive the minted tokens.",
          "tokenId": "TokenId for the new token"
        },
        "returns": {
          "_0": "A boolean that indicates if the operation was successful."
        }
      },
      "name()": {
        "details": "See {IERC721Metadata-name}."
      },
      "ownerOf(uint256)": {
        "details": "See {IERC721-ownerOf}."
      },
      "pause()": {
        "details": "called by the governor to pause, triggers stopped state"
      },
      "paused()": {
        "details": "Returns true if the contract is paused, and false otherwise."
      },
      "renounceRole(bytes32,address)": {
        "details": "Overload {renounceRole} to track enumerable memberships"
      },
      "revokeRole(bytes32,address)": {
        "details": "Overload {revokeRole} to track enumerable memberships"
      },
      "safeTransferFrom(address,address,uint256)": {
        "details": "See {IERC721-safeTransferFrom}."
      },
      "safeTransferFrom(address,address,uint256,bytes)": {
        "details": "See {IERC721-safeTransferFrom}."
      },
      "setApprovalForAll(address,bool)": {
        "details": "See {IERC721-setApprovalForAll}."
      },
      "symbol()": {
        "details": "See {IERC721Metadata-symbol}."
      },
      "tokenByIndex(uint256)": {
        "details": "See {IERC721Enumerable-tokenByIndex}."
      },
      "tokenDetailsOfOwnerByIndex(address,uint256)": {
        "details": "Gets the token ID at a given index of the tokens list of the requested owner",
        "params": {
          "index": "uint256 representing the index to be accessed of the requested tokens list",
          "owner": "address owning the tokens list to be accessed"
        }
      },
      "tokenOfOwnerByIndex(address,uint256)": {
        "details": "See {IERC721Enumerable-tokenOfOwnerByIndex}."
      },
      "tokenURI(uint256)": {
        "details": "Gets the token uri",
        "returns": {
          "_0": "string representing the token uri"
        }
      },
      "totalSupply()": {
        "details": "See {IERC721Enumerable-totalSupply}."
      },
      "transferFrom(address,address,uint256)": {
        "details": "See {IERC721-transferFrom}."
      },
      "unpause()": {
        "details": "called by the governor to unpause, returns to normal state"
      }
    },
    "version": 1
  },
  "userdoc": {
    "kind": "user",
    "methods": {},
    "version": 1
  },
  "storageLayout": {
    "storage": [
      {
        "astId": 773,
        "contract": "src/Sway.sol:Sway",
        "label": "_initialized",
        "offset": 0,
        "slot": "0",
        "type": "t_bool"
      },
      {
        "astId": 776,
        "contract": "src/Sway.sol:Sway",
        "label": "_initializing",
        "offset": 1,
        "slot": "0",
        "type": "t_bool"
      },
      {
        "astId": 2618,
        "contract": "src/Sway.sol:Sway",
        "label": "__gap",
        "offset": 0,
        "slot": "1",
        "type": "t_array(t_uint256)50_storage"
      },
      {
        "astId": 2938,
        "contract": "src/Sway.sol:Sway",
        "label": "__gap",
        "offset": 0,
        "slot": "51",
        "type": "t_array(t_uint256)50_storage"
      },
      {
        "astId": 955,
        "contract": "src/Sway.sol:Sway",
        "label": "_name",
        "offset": 0,
        "slot": "101",
        "type": "t_string_storage"
      },
      {
        "astId": 957,
        "contract": "src/Sway.sol:Sway",
        "label": "_symbol",
        "offset": 0,
        "slot": "102",
        "type": "t_string_storage"
      },
      {
        "astId": 961,
        "contract": "src/Sway.sol:Sway",
        "label": "_owners",
        "offset": 0,
        "slot": "103",
        "type": "t_mapping(t_uint256,t_address)"
      },
      {
        "astId": 965,
        "contract": "src/Sway.sol:Sway",
        "label": "_balances",
        "offset": 0,
        "slot": "104",
        "type": "t_mapping(t_address,t_uint256)"
      },
      {
        "astId": 969,
        "contract": "src/Sway.sol:Sway",
        "label": "_tokenApprovals",
        "offset": 0,
        "slot": "105",
        "type": "t_mapping(t_uint256,t_address)"
      },
      {
        "astId": 975,
        "contract": "src/Sway.sol:Sway",
        "label": "_operatorApprovals",
        "offset": 0,
        "slot": "106",
        "type": "t_mapping(t_address,t_mapping(t_address,t_bool))"
      },
      {
        "astId": 1771,
        "contract": "src/Sway.sol:Sway",
        "label": "__gap",
        "offset": 0,
        "slot": "107",
        "type": "t_array(t_uint256)44_storage"
      },
      {
        "astId": 1945,
        "contract": "src/Sway.sol:Sway",
        "label": "_ownedTokens",
        "offset": 0,
        "slot": "151",
        "type": "t_mapping(t_address,t_mapping(t_uint256,t_uint256))"
      },
      {
        "astId": 1949,
        "contract": "src/Sway.sol:Sway",
        "label": "_ownedTokensIndex",
        "offset": 0,
        "slot": "152",
        "type": "t_mapping(t_uint256,t_uint256)"
      },
      {
        "astId": 1952,
        "contract": "src/Sway.sol:Sway",
        "label": "_allTokens",
        "offset": 0,
        "slot": "153",
        "type": "t_array(t_uint256)dyn_storage"
      },
      {
        "astId": 1956,
        "contract": "src/Sway.sol:Sway",
        "label": "_allTokensIndex",
        "offset": 0,
        "slot": "154",
        "type": "t_mapping(t_uint256,t_uint256)"
      },
      {
        "astId": 2271,
        "contract": "src/Sway.sol:Sway",
        "label": "__gap",
        "offset": 0,
        "slot": "155",
        "type": "t_array(t_uint256)46_storage"
      },
      {
        "astId": 258,
        "contract": "src/Sway.sol:Sway",
        "label": "_roles",
        "offset": 0,
        "slot": "201",
        "type": "t_mapping(t_bytes32,t_struct(RoleData)253_storage)"
      },
      {
        "astId": 543,
        "contract": "src/Sway.sol:Sway",
        "label": "__gap",
        "offset": 0,
        "slot": "202",
        "type": "t_array(t_uint256)49_storage"
      },
      {
        "astId": 45,
        "contract": "src/Sway.sol:Sway",
        "label": "_roleMembers",
        "offset": 0,
        "slot": "251",
        "type": "t_mapping(t_bytes32,t_struct(AddressSet)3263_storage)"
      },
      {
        "astId": 208,
        "contract": "src/Sway.sol:Sway",
        "label": "__gap",
        "offset": 0,
        "slot": "252",
        "type": "t_array(t_uint256)49_storage"
      },
      {
        "astId": 834,
        "contract": "src/Sway.sol:Sway",
        "label": "_paused",
        "offset": 0,
        "slot": "301",
        "type": "t_bool"
      },
      {
        "astId": 925,
        "contract": "src/Sway.sol:Sway",
        "label": "__gap",
        "offset": 0,
        "slot": "302",
        "type": "t_array(t_uint256)49_storage"
      },
      {
        "astId": 3899,
        "contract": "src/Sway.sol:Sway",
        "label": "drop",
        "offset": 0,
        "slot": "351",
        "type": "t_address"
      },
      {
        "astId": 3903,
        "contract": "src/Sway.sol:Sway",
        "label": "eventRoleMapping",
        "offset": 0,
        "slot": "352",
        "type": "t_mapping(t_uint256,t_bytes32)"
      },
      {
        "astId": 3905,
        "contract": "src/Sway.sol:Sway",
        "label": "lastEventId",
        "offset": 0,
        "slot": "353",
        "type": "t_uint256"
      },
      {
        "astId": 3567,
        "contract": "src/Sway.sol:Sway",
        "label": "lastId",
        "offset": 0,
        "slot": "354",
        "type": "t_uint256"
      },
      {
        "astId": 3569,
        "contract": "src/Sway.sol:Sway",
        "label": "_baseURIextendend",
        "offset": 0,
        "slot": "355",
        "type": "t_string_storage"
      },
      {
        "astId": 3573,
        "contract": "src/Sway.sol:Sway",
        "label": "tokenEvent",
        "offset": 0,
        "slot": "356",
        "type": "t_mapping(t_uint256,t_uint256)"
      },
      {
        "astId": 3868,
        "contract": "src/Sway.sol:Sway",
        "label": "__gap",
        "offset": 0,
        "slot": "357",
        "type": "t_array(t_uint256)50_storage"
      }
    ],
    "types": {
      "t_address": {
        "encoding": "inplace",
        "label": "address",
        "numberOfBytes": "20"
      },
      "t_array(t_bytes32)dyn_storage": {
        "base": "t_bytes32",
        "encoding": "dynamic_array",
        "label": "bytes32[]",
        "numberOfBytes": "32"
      },
      "t_array(t_uint256)44_storage": {
        "base": "t_uint256",
        "encoding": "inplace",
        "label": "uint256[44]",
        "numberOfBytes": "1408"
      },
      "t_array(t_uint256)46_storage": {
        "base": "t_uint256",
        "encoding": "inplace",
        "label": "uint256[46]",
        "numberOfBytes": "1472"
      },
      "t_array(t_uint256)49_storage": {
        "base": "t_uint256",
        "encoding": "inplace",
        "label": "uint256[49]",
        "numberOfBytes": "1568"
      },
      "t_array(t_uint256)50_storage": {
        "base": "t_uint256",
        "encoding": "inplace",
        "label": "uint256[50]",
        "numberOfBytes": "1600"
      },
      "t_array(t_uint256)dyn_storage": {
        "base": "t_uint256",
        "encoding": "dynamic_array",
        "label": "uint256[]",
        "numberOfBytes": "32"
      },
      "t_bool": {
        "encoding": "inplace",
        "label": "bool",
        "numberOfBytes": "1"
      },
      "t_bytes32": {
        "encoding": "inplace",
        "label": "bytes32",
        "numberOfBytes": "32"
      },
      "t_mapping(t_address,t_bool)": {
        "encoding": "mapping",
        "key": "t_address",
        "label": "mapping(address => bool)",
        "numberOfBytes": "32",
        "value": "t_bool"
      },
      "t_mapping(t_address,t_mapping(t_address,t_bool))": {
        "encoding": "mapping",
        "key": "t_address",
        "label": "mapping(address => mapping(address => bool))",
        "numberOfBytes": "32",
        "value": "t_mapping(t_address,t_bool)"
      },
      "t_mapping(t_address,t_mapping(t_uint256,t_uint256))": {
        "encoding": "mapping",
        "key": "t_address",
        "label": "mapping(address => mapping(uint256 => uint256))",
        "numberOfBytes": "32",
        "value": "t_mapping(t_uint256,t_uint256)"
      },
      "t_mapping(t_address,t_uint256)": {
        "encoding": "mapping",
        "key": "t_address",
        "label": "mapping(address => uint256)",
        "numberOfBytes": "32",
        "value": "t_uint256"
      },
      "t_mapping(t_bytes32,t_struct(AddressSet)3263_storage)": {
        "encoding": "mapping",
        "key": "t_bytes32",
        "label": "mapping(bytes32 => struct EnumerableSetUpgradeable.AddressSet)",
        "numberOfBytes": "32",
        "value": "t_struct(AddressSet)3263_storage"
      },
      "t_mapping(t_bytes32,t_struct(RoleData)253_storage)": {
        "encoding": "mapping",
        "key": "t_bytes32",
        "label": "mapping(bytes32 => struct AccessControlUpgradeable.RoleData)",
        "numberOfBytes": "32",
        "value": "t_struct(RoleData)253_storage"
      },
      "t_mapping(t_bytes32,t_uint256)": {
        "encoding": "mapping",
        "key": "t_bytes32",
        "label": "mapping(bytes32 => uint256)",
        "numberOfBytes": "32",
        "value": "t_uint256"
      },
      "t_mapping(t_uint256,t_address)": {
        "encoding": "mapping",
        "key": "t_uint256",
        "label": "mapping(uint256 => address)",
        "numberOfBytes": "32",
        "value": "t_address"
      },
      "t_mapping(t_uint256,t_bytes32)": {
        "encoding": "mapping",
        "key": "t_uint256",
        "label": "mapping(uint256 => bytes32)",
        "numberOfBytes": "32",
        "value": "t_bytes32"
      },
      "t_mapping(t_uint256,t_uint256)": {
        "encoding": "mapping",
        "key": "t_uint256",
        "label": "mapping(uint256 => uint256)",
        "numberOfBytes": "32",
        "value": "t_uint256"
      },
      "t_string_storage": {
        "encoding": "bytes",
        "label": "string",
        "numberOfBytes": "32"
      },
      "t_struct(AddressSet)3263_storage": {
        "encoding": "inplace",
        "label": "struct EnumerableSetUpgradeable.AddressSet",
        "members": [
          {
            "astId": 3262,
            "contract": "src/Sway.sol:Sway",
            "label": "_inner",
            "offset": 0,
            "slot": "0",
            "type": "t_struct(Set)2962_storage"
          }
        ],
        "numberOfBytes": "64"
      },
      "t_struct(RoleData)253_storage": {
        "encoding": "inplace",
        "label": "struct AccessControlUpgradeable.RoleData",
        "members": [
          {
            "astId": 250,
            "contract": "src/Sway.sol:Sway",
            "label": "members",
            "offset": 0,
            "slot": "0",
            "type": "t_mapping(t_address,t_bool)"
          },
          {
            "astId": 252,
            "contract": "src/Sway.sol:Sway",
            "label": "adminRole",
            "offset": 0,
            "slot": "1",
            "type": "t_bytes32"
          }
        ],
        "numberOfBytes": "64"
      },
      "t_struct(Set)2962_storage": {
        "encoding": "inplace",
        "label": "struct EnumerableSetUpgradeable.Set",
        "members": [
          {
            "astId": 2957,
            "contract": "src/Sway.sol:Sway",
            "label": "_values",
            "offset": 0,
            "slot": "0",
            "type": "t_array(t_bytes32)dyn_storage"
          },
          {
            "astId": 2961,
            "contract": "src/Sway.sol:Sway",
            "label": "_indexes",
            "offset": 0,
            "slot": "1",
            "type": "t_mapping(t_bytes32,t_uint256)"
          }
        ],
        "numberOfBytes": "64"
      },
      "t_uint256": {
        "encoding": "inplace",
        "label": "uint256",
        "numberOfBytes": "32"
      }
    }
  }
}