{
  "address": "0x2A2299427BC75c4c5cBa68ab5BE0B829CcC1491d",
  "abi": [
    {
      "inputs": [],
      "stateMutability": "nonpayable",
      "type": "constructor"
    },
    {
      "anonymous": false,
      "inputs": [
        {
          "indexed": false,
          "internalType": "address",
          "name": "previousAdmin",
          "type": "address"
        },
        {
          "indexed": false,
          "internalType": "address",
          "name": "newAdmin",
          "type": "address"
        }
      ],
      "name": "AdminChanged",
      "type": "event"
    },
    {
      "anonymous": false,
      "inputs": [
        {
          "indexed": true,
          "internalType": "address",
          "name": "beacon",
          "type": "address"
        }
      ],
      "name": "BeaconUpgraded",
      "type": "event"
    },
    {
      "anonymous": false,
      "inputs": [
        {
          "indexed": false,
          "internalType": "address",
          "name": "account",
          "type": "address"
        }
      ],
      "name": "Paused",
      "type": "event"
    },
    {
      "anonymous": false,
      "inputs": [
        {
          "indexed": true,
          "internalType": "address",
          "name": "newAddress",
          "type": "address"
        },
        {
          "indexed": true,
          "internalType": "address",
          "name": "oldAddress",
          "type": "address"
        }
      ],
      "name": "SwayAddressChanged",
      "type": "event"
    },
    {
      "anonymous": false,
      "inputs": [
        {
          "indexed": true,
          "internalType": "uint256",
          "name": "eventId",
          "type": "uint256"
        },
        {
          "indexed": true,
          "internalType": "address",
          "name": "to",
          "type": "address"
        }
      ],
      "name": "TokenClaimed",
      "type": "event"
    },
    {
      "anonymous": false,
      "inputs": [
        {
          "indexed": false,
          "internalType": "address",
          "name": "account",
          "type": "address"
        }
      ],
      "name": "Unpaused",
      "type": "event"
    },
    {
      "anonymous": false,
      "inputs": [
        {
          "indexed": true,
          "internalType": "address",
          "name": "implementation",
          "type": "address"
        }
      ],
      "name": "Upgraded",
      "type": "event"
    },
    {
      "inputs": [
        {
          "internalType": "uint256",
          "name": "_eventId",
          "type": "uint256"
        },
        {
          "internalType": "bytes32",
          "name": "_roothash",
          "type": "bytes32"
        }
      ],
      "name": "addEvent",
      "outputs": [],
      "stateMutability": "nonpayable",
      "type": "function"
    },
    {
      "inputs": [
        {
          "internalType": "uint256",
          "name": "_index",
          "type": "uint256"
        },
        {
          "internalType": "uint256",
          "name": "_eventId",
          "type": "uint256"
        },
        {
          "internalType": "address",
          "name": "_recipient",
          "type": "address"
        },
        {
          "internalType": "bytes32[]",
          "name": "proof",
          "type": "bytes32[]"
        }
      ],
      "name": "claim",
      "outputs": [],
      "stateMutability": "nonpayable",
      "type": "function"
    },
    {
      "inputs": [
        {
          "internalType": "uint256",
          "name": "",
          "type": "uint256"
        },
        {
          "internalType": "address",
          "name": "",
          "type": "address"
        }
      ],
      "name": "claimed",
      "outputs": [
        {
          "internalType": "bool",
          "name": "",
          "type": "bool"
        }
      ],
      "stateMutability": "view",
      "type": "function"
    },
    {
      "inputs": [
        {
          "internalType": "string",
          "name": "_name",
          "type": "string"
        },
        {
          "internalType": "address",
          "name": "_swayAddr",
          "type": "address"
        }
      ],
      "name": "initialize",
      "outputs": [],
      "stateMutability": "nonpayable",
      "type": "function"
    },
    {
      "inputs": [
        {
          "internalType": "uint256",
          "name": "eventId",
          "type": "uint256"
        }
      ],
      "name": "isEventAdded",
      "outputs": [
        {
          "internalType": "bool",
          "name": "",
          "type": "bool"
        }
      ],
      "stateMutability": "view",
      "type": "function"
    },
    {
      "inputs": [],
      "name": "name",
      "outputs": [
        {
          "internalType": "string",
          "name": "",
          "type": "string"
        }
      ],
      "stateMutability": "view",
      "type": "function"
    },
    {
      "inputs": [],
      "name": "pause",
      "outputs": [],
      "stateMutability": "nonpayable",
      "type": "function"
    },
    {
      "inputs": [],
      "name": "paused",
      "outputs": [
        {
          "internalType": "bool",
          "name": "",
          "type": "bool"
        }
      ],
      "stateMutability": "view",
      "type": "function"
    },
    {
      "inputs": [],
      "name": "proxiableUUID",
      "outputs": [
        {
          "internalType": "bytes32",
          "name": "",
          "type": "bytes32"
        }
      ],
      "stateMutability": "view",
      "type": "function"
    },
    {
      "inputs": [
        {
          "internalType": "uint256",
          "name": "",
          "type": "uint256"
        }
      ],
      "name": "rootHash",
      "outputs": [
        {
          "internalType": "bytes32",
          "name": "",
          "type": "bytes32"
        }
      ],
      "stateMutability": "view",
      "type": "function"
    },
    {
      "inputs": [
        {
          "internalType": "address",
          "name": "_swayAddr",
          "type": "address"
        }
      ],
      "name": "setSway",
      "outputs": [],
      "stateMutability": "nonpayable",
      "type": "function"
    },
    {
      "inputs": [],
      "name": "swayAddr",
      "outputs": [
        {
          "internalType": "address",
          "name": "",
          "type": "address"
        }
      ],
      "stateMutability": "view",
      "type": "function"
    },
    {
      "inputs": [],
      "name": "unpause",
      "outputs": [],
      "stateMutability": "nonpayable",
      "type": "function"
    },
    {
      "inputs": [
        {
          "internalType": "uint256",
          "name": "_eventId",
          "type": "uint256"
        },
        {
          "internalType": "bytes32",
          "name": "_roothash",
          "type": "bytes32"
        }
      ],
      "name": "updateEvent",
      "outputs": [],
      "stateMutability": "nonpayable",
      "type": "function"
    },
    {
      "inputs": [
        {
          "internalType": "address",
          "name": "newImplementation",
          "type": "address"
        }
      ],
      "name": "upgradeTo",
      "outputs": [],
      "stateMutability": "nonpayable",
      "type": "function"
    },
    {
      "inputs": [
        {
          "internalType": "address",
          "name": "newImplementation",
          "type": "address"
        },
        {
          "internalType": "bytes",
          "name": "data",
          "type": "bytes"
        }
      ],
      "name": "upgradeToAndCall",
      "outputs": [],
      "stateMutability": "payable",
      "type": "function"
    }
  ],
  "numDeployments": 1,
  "solcInputHash": "1d7091032f1fc4ed7a52b6e45c783874",
  "bytecode": "0x60a06040523060601b6080523480156200001857600080fd5b50600054610100900460ff16620000365760005460ff161562000040565b62000040620000e5565b620000a85760405162461bcd60e51b815260206004820152602e60248201527f496e697469616c697a61626c653a20636f6e747261637420697320616c72656160448201526d191e481a5b9a5d1a585b1a5e995960921b606482015260840160405180910390fd5b600054610100900460ff16158015620000cb576000805461ffff19166101011790555b8015620000de576000805461ff00191690555b5062000112565b6000620000fd306200010360201b62000f021760201c565b15905090565b6001600160a01b03163b151590565b60805160601c611d2e6200014d600039600081816104c3015281816105030152818161068d015281816106cd01526107600152611d2e6000f3fe6080604052600436106100f35760003560e01c80635c975abb1161008a578063b9035d7e11610059578063b9035d7e14610295578063bce9e089146102c4578063c3779fac146102e4578063e41f67d01461030457600080fd5b80635c975abb1461021b578063697fa4c9146102335780637ab4339d146102605780638456cb591461028057600080fd5b80633f4ba83a116100c65780633f4ba83a146101b05780634f1ef286146101c557806352d1902d146101d857806355e74ad6146101fb57600080fd5b806306fdde03146100f8578063120aa877146101235780631b86d8121461016e5780633659cfe614610190575b600080fd5b34801561010457600080fd5b5061010d61033c565b60405161011a91906119bc565b60405180910390f35b34801561012f57600080fd5b5061015e61013e366004611891565b60fd60209081526000928352604080842090915290825290205460ff1681565b604051901515815260200161011a565b34801561017a57600080fd5b5061018e610189366004611769565b6103ca565b005b34801561019c57600080fd5b5061018e6101ab366004611769565b6104b8565b3480156101bc57600080fd5b5061018e610598565b61018e6101d3366004611783565b610682565b3480156101e457600080fd5b506101ed610753565b60405190815260200161011a565b34801561020757600080fd5b5061018e6102163660046118b3565b610806565b34801561022757600080fd5b5060975460ff1661015e565b34801561023f57600080fd5b506101ed61024e366004611879565b60fe6020526000908152604090205481565b34801561026c57600080fd5b5061018e61027b36600461181a565b6108f1565b34801561028c57600080fd5b5061018e6109f1565b3480156102a157600080fd5b5061015e6102b0366004611879565b600090815260fe6020526040902054151590565b3480156102d057600080fd5b5061018e6102df3660046118d4565b610ab3565b3480156102f057600080fd5b5061018e6102ff3660046118b3565b610dac565b34801561031057600080fd5b5060fc54610324906001600160a01b031681565b6040516001600160a01b03909116815260200161011a565b60fb805461034990611c39565b80601f016020809104026020016040519081016040528092919081815260200182805461037590611c39565b80156103c25780601f10610397576101008083540402835291602001916103c2565b820191906000526020600020905b8154815290600101906020018083116103a557829003601f168201915b505050505081565b600260c95414156103f65760405162461bcd60e51b81526004016103ed90611ba5565b60405180910390fd5b600260c95560fc54604051631c86b03760e31b81523360048201526001600160a01b039091169063e43581b89060240160206040518083038186803b15801561043e57600080fd5b505afa158015610452573d6000803e3d6000fd5b505050506040513d601f19601f8201168201806040525081019061047691906117e2565b8061048b575060fc546001600160a01b031633145b6104a75760405162461bcd60e51b81526004016103ed90611afd565b6104b081610f11565b50600160c955565b306001600160a01b037f00000000000000000000000000000000000000000000000000000000000000001614156105015760405162461bcd60e51b81526004016103ed906119ef565b7f00000000000000000000000000000000000000000000000000000000000000006001600160a01b031661054a600080516020611cb2833981519152546001600160a01b031690565b6001600160a01b0316146105705760405162461bcd60e51b81526004016103ed90611a3b565b61057981610fc6565b604080516000808252602082019092526105959183919061105d565b50565b60fc54604051631c86b03760e31b81523360048201526001600160a01b039091169063e43581b89060240160206040518083038186803b1580156105db57600080fd5b505afa1580156105ef573d6000803e3d6000fd5b505050506040513d601f19601f8201168201806040525081019061061391906117e2565b61062f5760405162461bcd60e51b81526004016103ed90611a87565b60975460ff166106785760405162461bcd60e51b815260206004820152601460248201527314185d5cd8589b194e881b9bdd081c185d5cd95960621b60448201526064016103ed565b6106806111d7565b565b306001600160a01b037f00000000000000000000000000000000000000000000000000000000000000001614156106cb5760405162461bcd60e51b81526004016103ed906119ef565b7f00000000000000000000000000000000000000000000000000000000000000006001600160a01b0316610714600080516020611cb2833981519152546001600160a01b031690565b6001600160a01b03161461073a5760405162461bcd60e51b81526004016103ed90611a3b565b61074382610fc6565b61074f8282600161105d565b5050565b6000306001600160a01b037f000000000000000000000000000000000000000000000000000000000000000016146107f35760405162461bcd60e51b815260206004820152603860248201527f555550535570677261646561626c653a206d757374206e6f742062652063616c60448201527f6c6564207468726f7567682064656c656761746563616c6c000000000000000060648201526084016103ed565b50600080516020611cb283398151915290565b600260c95414156108295760405162461bcd60e51b81526004016103ed90611ba5565b600260c95560fc54604051631c86b03760e31b81523360048201526001600160a01b039091169063e43581b89060240160206040518083038186803b15801561087157600080fd5b505afa158015610885573d6000803e3d6000fd5b505050506040513d601f19601f820116820180604052508101906108a991906117e2565b806108be575060fc546001600160a01b031633145b6108da5760405162461bcd60e51b81526004016103ed90611afd565b600091825260fe602052604090912055600160c955565b600054610100900460ff1661090c5760005460ff1615610910565b303b155b6109735760405162461bcd60e51b815260206004820152602e60248201527f496e697469616c697a61626c653a20636f6e747261637420697320616c72656160448201526d191e481a5b9a5d1a585b1a5e995960921b60648201526084016103ed565b600054610100900460ff16158015610995576000805461ffff19166101011790555b82516109a89060fb90602086019061165c565b506109b282610f11565b6109ba61126a565b6109c2611291565b6109ca61126a565b6109d261126a565b6109da6112c4565b80156109ec576000805461ff00191690555b505050565b60fc54604051631c86b03760e31b81523360048201526001600160a01b039091169063e43581b89060240160206040518083038186803b158015610a3457600080fd5b505afa158015610a48573d6000803e3d6000fd5b505050506040513d601f19601f82011682018060405250810190610a6c91906117e2565b610a885760405162461bcd60e51b81526004016103ed90611a87565b60975460ff1615610aab5760405162461bcd60e51b81526004016103ed90611ad3565b6106806112f3565b60975460ff1615610ad65760405162461bcd60e51b81526004016103ed90611ad3565b600083815260fe6020526040902054610b3c5760405162461bcd60e51b815260206004820152602260248201527f5377617944726f703a206576656e74206e6f7420616464656420666f7220647260448201526106f760f41b60648201526084016103ed565b600083815260fd602090815260408083206001600160a01b038616845290915290205460ff1615610bbe5760405162461bcd60e51b815260206004820152602660248201527f5377617944726f703a20726563697069656e7420616c72656164792070726f6360448201526565737365642160d01b60648201526084016103ed565b604080516020808201879052818301869052606085811b6bffffffffffffffffffffffff1916908301528251808303605401815260749092019092528051910120600090600085815260fe6020526040902054909150610c209083908361134b565b610c7c5760405162461bcd60e51b815260206004820152602760248201527f5377617944726f703a20726563697069656e74206e6f7420696e206d65726b6c6044820152666520747265652160c81b60648201526084016103ed565b600084815260fd602090815260408083206001600160a01b0387168085529252808320805460ff1916600117905551909186917f8b224b108d8f9c6d554b41182503c3f8b79dfcf17233a9366d50c386c28af8509190a360fc5460405163a140ae2360e01b8152600481018690526001600160a01b0385811660248301529091169063a140ae2390604401602060405180830381600087803b158015610d2157600080fd5b505af1158015610d35573d6000803e3d6000fd5b505050506040513d601f19601f82011682018060405250810190610d5991906117e2565b610da55760405162461bcd60e51b815260206004820152601d60248201527f5377617944726f703a20636f756c64206e6f74206d696e74205357415900000060448201526064016103ed565b5050505050565b600260c9541415610dcf5760405162461bcd60e51b81526004016103ed90611ba5565b600260c95560fc54604051631c86b03760e31b81523360048201526001600160a01b039091169063e43581b89060240160206040518083038186803b158015610e1757600080fd5b505afa158015610e2b573d6000803e3d6000fd5b505050506040513d601f19601f82011682018060405250810190610e4f91906117e2565b80610e64575060fc546001600160a01b031633145b610e805760405162461bcd60e51b81526004016103ed90611afd565b600082815260fe6020526040902054156108da5760405162461bcd60e51b815260206004820152603d60248201527f5377617944726f703a3a6164644576656e743a204d65726b6c6520526f6f742060448201527f616c72656164792070726573656e7420666f7220746865206576656e7400000060648201526084016103ed565b6001600160a01b03163b151590565b6001600160a01b038116610f755760405162461bcd60e51b815260206004820152602560248201527f5377617944726f703a2073776179416464722073686f756c64206265206e6f6e6044820152642d7a65726f60d81b60648201526084016103ed565b60fc80546001600160a01b038381166001600160a01b03198316811790935560405191169182917f42f883e00bd5614a45fcc3efaaec8a99869f5e223adb347925f8b5ed676e2f5d90600090a35050565b60fc54604051631c86b03760e31b81523360048201526001600160a01b039091169063e43581b89060240160206040518083038186803b15801561100957600080fd5b505afa15801561101d573d6000803e3d6000fd5b505050506040513d601f19601f8201168201806040525081019061104191906117e2565b6105955760405162461bcd60e51b81526004016103ed90611a87565b7f4910fdfa16fed3260ed0e7147f7cc6da11a60208b5b9406d12a635614ffd91435460ff1615611090576109ec83611362565b826001600160a01b03166352d1902d6040518163ffffffff1660e01b815260040160206040518083038186803b1580156110c957600080fd5b505afa9250505080156110f9575060408051601f3d908101601f191682019092526110f691810190611802565b60015b61115c5760405162461bcd60e51b815260206004820152602e60248201527f45524331393637557067726164653a206e657720696d706c656d656e7461746960448201526d6f6e206973206e6f74205555505360901b60648201526084016103ed565b600080516020611cb283398151915281146111cb5760405162461bcd60e51b815260206004820152602960248201527f45524331393637557067726164653a20756e737570706f727465642070726f786044820152681a58589b195555525160ba1b60648201526084016103ed565b506109ec8383836113fe565b60975460ff166112205760405162461bcd60e51b815260206004820152601460248201527314185d5cd8589b194e881b9bdd081c185d5cd95960621b60448201526064016103ed565b6097805460ff191690557f5db9ee0a495bf2e6ff9c91a7834c1ba4fdd244a5e8aa4e537bd38aeae4b073aa335b6040516001600160a01b03909116815260200160405180910390a1565b600054610100900460ff166106805760405162461bcd60e51b81526004016103ed90611b5a565b600054610100900460ff166112b85760405162461bcd60e51b81526004016103ed90611b5a565b6097805460ff19169055565b600054610100900460ff166112eb5760405162461bcd60e51b81526004016103ed90611b5a565b610680611429565b60975460ff16156113165760405162461bcd60e51b81526004016103ed90611ad3565b6097805460ff191660011790557f62e78cea01bee320cd4e420270b5ea74000d11b0c9f74754ebdbfc544b05a25861124d3390565b6000611358848484611457565b90505b9392505050565b6001600160a01b0381163b6113cf5760405162461bcd60e51b815260206004820152602d60248201527f455243313936373a206e657720696d706c656d656e746174696f6e206973206e60448201526c1bdd08184818dbdb9d1c9858dd609a1b60648201526084016103ed565b600080516020611cb283398151915280546001600160a01b0319166001600160a01b0392909216919091179055565b6114078361146d565b6000825111806114145750805b156109ec5761142383836114ad565b50505050565b600054610100900460ff166114505760405162461bcd60e51b81526004016103ed90611b5a565b600160c955565b60008261146485846115a1565b14949350505050565b61147681611362565b6040516001600160a01b038216907fbc7cd75a20ee27fd9adebab32041f755214dbc6bffa90cc0225b39da2e5c2d3b90600090a250565b60606001600160a01b0383163b6115155760405162461bcd60e51b815260206004820152602660248201527f416464726573733a2064656c65676174652063616c6c20746f206e6f6e2d636f6044820152651b9d1c9858dd60d21b60648201526084016103ed565b600080846001600160a01b03168460405161153091906119a0565b600060405180830381855af49150503d806000811461156b576040519150601f19603f3d011682016040523d82523d6000602084013e611570565b606091505b50915091506115988282604051806060016040528060278152602001611cd260279139611623565b95945050505050565b600081815b845181101561161b5760008582815181106115d157634e487b7160e01b600052603260045260246000fd5b602002602001015190508083116115f75760008381526020829052604090209250611608565b600081815260208490526040902092505b508061161381611c74565b9150506115a6565b509392505050565b6060831561163257508161135b565b8251156116425782518084602001fd5b8160405162461bcd60e51b81526004016103ed91906119bc565b82805461166890611c39565b90600052602060002090601f01602090048101928261168a57600085556116d0565b82601f106116a357805160ff19168380011785556116d0565b828001600101855582156116d0579182015b828111156116d05782518255916020019190600101906116b5565b506116dc9291506116e0565b5090565b5b808211156116dc57600081556001016116e1565b600067ffffffffffffffff83111561170f5761170f611c9b565b611722601f8401601f1916602001611bdc565b905082815283838301111561173657600080fd5b828260208301376000602084830101529392505050565b80356001600160a01b038116811461176457600080fd5b919050565b60006020828403121561177a578081fd5b61135b8261174d565b60008060408385031215611795578081fd5b61179e8361174d565b9150602083013567ffffffffffffffff8111156117b9578182fd5b8301601f810185136117c9578182fd5b6117d8858235602084016116f5565b9150509250929050565b6000602082840312156117f3578081fd5b8151801515811461135b578182fd5b600060208284031215611813578081fd5b5051919050565b6000806040838503121561182c578182fd5b823567ffffffffffffffff811115611842578283fd5b8301601f81018513611852578283fd5b611861858235602084016116f5565b9250506118706020840161174d565b90509250929050565b60006020828403121561188a578081fd5b5035919050565b600080604083850312156118a3578182fd5b823591506118706020840161174d565b600080604083850312156118c5578182fd5b50508035926020909101359150565b600080600080608085870312156118e9578182fd5b8435935060208086013593506119016040870161174d565b9250606086013567ffffffffffffffff8082111561191d578384fd5b818801915088601f830112611930578384fd5b81358181111561194257611942611c9b565b8060051b9150611953848301611bdc565b8181528481019084860184860187018d101561196d578788fd5b8795505b8386101561198f578035835260019590950194918601918601611971565b50989b979a50959850505050505050565b600082516119b2818460208701611c0d565b9190910192915050565b60208152600082518060208401526119db816040850160208701611c0d565b601f01601f19169190910160400192915050565b6020808252602c908201527f46756e6374696f6e206d7573742062652063616c6c6564207468726f7567682060408201526b19195b1959d85d1958d85b1b60a21b606082015260800190565b6020808252602c908201527f46756e6374696f6e206d7573742062652063616c6c6564207468726f7567682060408201526b6163746976652070726f787960a01b606082015260800190565b6020808252602c908201527f5377617944726f703a2073656e64657220646f6573206e6f742068617665204760408201526b6f7665726e6f7220526f6c6560a01b606082015260800190565b60208082526010908201526f14185d5cd8589b194e881c185d5cd95960821b604082015260600190565b6020808252603b908201527f5377617944726f703a2073656e646572206973206e6f742053776179206f722060408201527f646f6573206e6f74206861766520476f7665726e6f7220526f6c650000000000606082015260800190565b6020808252602b908201527f496e697469616c697a61626c653a20636f6e7472616374206973206e6f74206960408201526a6e697469616c697a696e6760a81b606082015260800190565b6020808252601f908201527f5265656e7472616e637947756172643a207265656e7472616e742063616c6c00604082015260600190565b604051601f8201601f1916810167ffffffffffffffff81118282101715611c0557611c05611c9b565b604052919050565b60005b83811015611c28578181015183820152602001611c10565b838111156114235750506000910152565b600181811c90821680611c4d57607f821691505b60208210811415611c6e57634e487b7160e01b600052602260045260246000fd5b50919050565b6000600019821415611c9457634e487b7160e01b81526011600452602481fd5b5060010190565b634e487b7160e01b600052604160045260246000fdfe360894a13ba1a3210667c828492db98dca3e2076cc3735a920a3ca505d382bbc416464726573733a206c6f772d6c6576656c2064656c65676174652063616c6c206661696c6564a264697066735822122098f4017bdef66bf53d3cd944237ce98eda6527706e25da3fdc670fd7e511c05364736f6c63430008040033",
  "devdoc": {
    "kind": "dev",
    "methods": {
      "constructor": {
        "custom:oz-upgrades-unsafe-allow": "constructor"
      },
      "paused()": {
        "details": "Returns true if the contract is paused, and false otherwise."
      },
      "proxiableUUID()": {
        "details": "Implementation of the ERC1822 {proxiableUUID} function. This returns the storage slot used by the implementation. It is used to validate that the this implementation remains valid after an upgrade. IMPORTANT: A proxy pointing at a proxiable contract should not be considered proxiable itself, because this risks bricking a proxy that upgrades to it, by delegating to itself until out of gas. Thus it is critical that this function revert if invoked through a proxy. This is guaranteed by the `notDelegated` modifier."
      },
      "upgradeTo(address)": {
        "details": "Upgrade the implementation of the proxy to `newImplementation`. Calls {_authorizeUpgrade}. Emits an {Upgraded} event."
      },
      "upgradeToAndCall(address,bytes)": {
        "details": "Upgrade the implementation of the proxy to `newImplementation`, and subsequently execute the function call encoded in `data`. Calls {_authorizeUpgrade}. Emits an {Upgraded} event."
      }
    },
    "version": 1
  },
  "userdoc": {
    "kind": "user",
    "methods": {},
    "version": 1
  },
  "storageLayout": {
    "storage": [
      {
        "astId": 967,
        "contract": "contracts/drop/SwayDrop.sol:SwayDrop",
        "label": "_initialized",
        "offset": 0,
        "slot": "0",
        "type": "t_bool"
      },
      {
        "astId": 970,
        "contract": "contracts/drop/SwayDrop.sol:SwayDrop",
        "label": "_initializing",
        "offset": 1,
        "slot": "0",
        "type": "t_bool"
      },
      {
        "astId": 949,
        "contract": "contracts/drop/SwayDrop.sol:SwayDrop",
        "label": "__gap",
        "offset": 0,
        "slot": "1",
        "type": "t_array(t_uint256)50_storage"
      },
      {
        "astId": 1169,
        "contract": "contracts/drop/SwayDrop.sol:SwayDrop",
        "label": "__gap",
        "offset": 0,
        "slot": "51",
        "type": "t_array(t_uint256)50_storage"
      },
      {
        "astId": 3065,
        "contract": "contracts/drop/SwayDrop.sol:SwayDrop",
        "label": "__gap",
        "offset": 0,
        "slot": "101",
        "type": "t_array(t_uint256)50_storage"
      },
      {
        "astId": 1191,
        "contract": "contracts/drop/SwayDrop.sol:SwayDrop",
        "label": "_paused",
        "offset": 0,
        "slot": "151",
        "type": "t_bool"
      },
      {
        "astId": 1280,
        "contract": "contracts/drop/SwayDrop.sol:SwayDrop",
        "label": "__gap",
        "offset": 0,
        "slot": "152",
        "type": "t_array(t_uint256)49_storage"
      },
      {
        "astId": 1295,
        "contract": "contracts/drop/SwayDrop.sol:SwayDrop",
        "label": "_status",
        "offset": 0,
        "slot": "201",
        "type": "t_uint256"
      },
      {
        "astId": 1339,
        "contract": "contracts/drop/SwayDrop.sol:SwayDrop",
        "label": "__gap",
        "offset": 0,
        "slot": "202",
        "type": "t_array(t_uint256)49_storage"
      },
      {
        "astId": 4949,
        "contract": "contracts/drop/SwayDrop.sol:SwayDrop",
        "label": "name",
        "offset": 0,
        "slot": "251",
        "type": "t_string_storage"
      },
      {
        "astId": 4951,
        "contract": "contracts/drop/SwayDrop.sol:SwayDrop",
        "label": "swayAddr",
        "offset": 0,
        "slot": "252",
        "type": "t_address"
      },
      {
        "astId": 4957,
        "contract": "contracts/drop/SwayDrop.sol:SwayDrop",
        "label": "claimed",
        "offset": 0,
        "slot": "253",
        "type": "t_mapping(t_uint256,t_mapping(t_address,t_bool))"
      },
      {
        "astId": 4961,
        "contract": "contracts/drop/SwayDrop.sol:SwayDrop",
        "label": "rootHash",
        "offset": 0,
        "slot": "254",
        "type": "t_mapping(t_uint256,t_bytes32)"
      },
      {
        "astId": 5322,
        "contract": "contracts/drop/SwayDrop.sol:SwayDrop",
        "label": "__gap",
        "offset": 0,
        "slot": "255",
        "type": "t_array(t_uint256)50_storage"
      }
    ],
    "types": {
      "t_address": {
        "encoding": "inplace",
        "label": "address",
        "numberOfBytes": "20"
      },
      "t_array(t_uint256)49_storage": {
        "base": "t_uint256",
        "encoding": "inplace",
        "label": "uint256[49]",
        "numberOfBytes": "1568"
      },
      "t_array(t_uint256)50_storage": {
        "base": "t_uint256",
        "encoding": "inplace",
        "label": "uint256[50]",
        "numberOfBytes": "1600"
      },
      "t_bool": {
        "encoding": "inplace",
        "label": "bool",
        "numberOfBytes": "1"
      },
      "t_bytes32": {
        "encoding": "inplace",
        "label": "bytes32",
        "numberOfBytes": "32"
      },
      "t_mapping(t_address,t_bool)": {
        "encoding": "mapping",
        "key": "t_address",
        "label": "mapping(address => bool)",
        "numberOfBytes": "32",
        "value": "t_bool"
      },
      "t_mapping(t_uint256,t_bytes32)": {
        "encoding": "mapping",
        "key": "t_uint256",
        "label": "mapping(uint256 => bytes32)",
        "numberOfBytes": "32",
        "value": "t_bytes32"
      },
      "t_mapping(t_uint256,t_mapping(t_address,t_bool))": {
        "encoding": "mapping",
        "key": "t_uint256",
        "label": "mapping(uint256 => mapping(address => bool))",
        "numberOfBytes": "32",
        "value": "t_mapping(t_address,t_bool)"
      },
      "t_string_storage": {
        "encoding": "bytes",
        "label": "string",
        "numberOfBytes": "32"
      },
      "t_uint256": {
        "encoding": "inplace",
        "label": "uint256",
        "numberOfBytes": "32"
      }
    }
  }
}