{
  "address": "0x5214A04E24eAf78010330Cd9C290FaacC35490a1",
  "abi": [
    {
      "inputs": [],
      "stateMutability": "nonpayable",
      "type": "constructor"
    },
    {
      "anonymous": false,
      "inputs": [
        {
          "indexed": false,
          "internalType": "address",
          "name": "previousAdmin",
          "type": "address"
        },
        {
          "indexed": false,
          "internalType": "address",
          "name": "newAdmin",
          "type": "address"
        }
      ],
      "name": "AdminChanged",
      "type": "event"
    },
    {
      "anonymous": false,
      "inputs": [
        {
          "indexed": true,
          "internalType": "address",
          "name": "owner",
          "type": "address"
        },
        {
          "indexed": true,
          "internalType": "address",
          "name": "approved",
          "type": "address"
        },
        {
          "indexed": true,
          "internalType": "uint256",
          "name": "tokenId",
          "type": "uint256"
        }
      ],
      "name": "Approval",
      "type": "event"
    },
    {
      "anonymous": false,
      "inputs": [
        {
          "indexed": true,
          "internalType": "address",
          "name": "owner",
          "type": "address"
        },
        {
          "indexed": true,
          "internalType": "address",
          "name": "operator",
          "type": "address"
        },
        {
          "indexed": false,
          "internalType": "bool",
          "name": "approved",
          "type": "bool"
        }
      ],
      "name": "ApprovalForAll",
      "type": "event"
    },
    {
      "anonymous": false,
      "inputs": [
        {
          "indexed": true,
          "internalType": "address",
          "name": "beacon",
          "type": "address"
        }
      ],
      "name": "BeaconUpgraded",
      "type": "event"
    },
    {
      "anonymous": false,
      "inputs": [
        {
          "indexed": true,
          "internalType": "uint256",
          "name": "eventId",
          "type": "uint256"
        },
        {
          "indexed": true,
          "internalType": "address",
          "name": "minter",
          "type": "address"
        },
        {
          "indexed": true,
          "internalType": "bytes32",
          "name": "role",
          "type": "bytes32"
        }
      ],
      "name": "EventAdded",
      "type": "event"
    },
    {
      "anonymous": false,
      "inputs": [
        {
          "indexed": true,
          "internalType": "uint256",
          "name": "eventId",
          "type": "uint256"
        },
        {
          "indexed": true,
          "internalType": "address",
          "name": "account",
          "type": "address"
        }
      ],
      "name": "EventMinterAdded",
      "type": "event"
    },
    {
      "anonymous": false,
      "inputs": [
        {
          "indexed": true,
          "internalType": "uint256",
          "name": "eventId",
          "type": "uint256"
        },
        {
          "indexed": true,
          "internalType": "address",
          "name": "account",
          "type": "address"
        }
      ],
      "name": "EventMinterRemoved",
      "type": "event"
    },
    {
      "anonymous": false,
      "inputs": [
        {
          "indexed": false,
          "internalType": "uint256",
          "name": "eventId",
          "type": "uint256"
        },
        {
          "indexed": false,
          "internalType": "uint256",
          "name": "tokenId",
          "type": "uint256"
        }
      ],
      "name": "EventToken",
      "type": "event"
    },
    {
      "anonymous": false,
      "inputs": [
        {
          "indexed": true,
          "internalType": "address",
          "name": "account",
          "type": "address"
        }
      ],
      "name": "GovernorAdded",
      "type": "event"
    },
    {
      "anonymous": false,
      "inputs": [
        {
          "indexed": true,
          "internalType": "address",
          "name": "account",
          "type": "address"
        }
      ],
      "name": "GovernorRemoved",
      "type": "event"
    },
    {
      "anonymous": false,
      "inputs": [
        {
          "indexed": false,
          "internalType": "address",
          "name": "account",
          "type": "address"
        }
      ],
      "name": "Paused",
      "type": "event"
    },
    {
      "anonymous": false,
      "inputs": [
        {
          "indexed": true,
          "internalType": "bytes32",
          "name": "role",
          "type": "bytes32"
        },
        {
          "indexed": true,
          "internalType": "bytes32",
          "name": "previousAdminRole",
          "type": "bytes32"
        },
        {
          "indexed": true,
          "internalType": "bytes32",
          "name": "newAdminRole",
          "type": "bytes32"
        }
      ],
      "name": "RoleAdminChanged",
      "type": "event"
    },
    {
      "anonymous": false,
      "inputs": [
        {
          "indexed": true,
          "internalType": "bytes32",
          "name": "role",
          "type": "bytes32"
        },
        {
          "indexed": true,
          "internalType": "address",
          "name": "account",
          "type": "address"
        },
        {
          "indexed": true,
          "internalType": "address",
          "name": "sender",
          "type": "address"
        }
      ],
      "name": "RoleGranted",
      "type": "event"
    },
    {
      "anonymous": false,
      "inputs": [
        {
          "indexed": true,
          "internalType": "bytes32",
          "name": "role",
          "type": "bytes32"
        },
        {
          "indexed": true,
          "internalType": "address",
          "name": "account",
          "type": "address"
        },
        {
          "indexed": true,
          "internalType": "address",
          "name": "sender",
          "type": "address"
        }
      ],
      "name": "RoleRevoked",
      "type": "event"
    },
    {
      "anonymous": false,
      "inputs": [
        {
          "indexed": true,
          "internalType": "address",
          "name": "from",
          "type": "address"
        },
        {
          "indexed": true,
          "internalType": "address",
          "name": "to",
          "type": "address"
        },
        {
          "indexed": true,
          "internalType": "uint256",
          "name": "tokenId",
          "type": "uint256"
        }
      ],
      "name": "Transfer",
      "type": "event"
    },
    {
      "anonymous": false,
      "inputs": [
        {
          "indexed": false,
          "internalType": "address",
          "name": "account",
          "type": "address"
        }
      ],
      "name": "Unpaused",
      "type": "event"
    },
    {
      "anonymous": false,
      "inputs": [
        {
          "indexed": true,
          "internalType": "address",
          "name": "implementation",
          "type": "address"
        }
      ],
      "name": "Upgraded",
      "type": "event"
    },
    {
      "inputs": [],
      "name": "DEFAULT_ADMIN_ROLE",
      "outputs": [
        {
          "internalType": "bytes32",
          "name": "",
          "type": "bytes32"
        }
      ],
      "stateMutability": "view",
      "type": "function"
    },
    {
      "inputs": [],
      "name": "GOVERNOR_ROLE",
      "outputs": [
        {
          "internalType": "bytes32",
          "name": "",
          "type": "bytes32"
        }
      ],
      "stateMutability": "view",
      "type": "function"
    },
    {
      "inputs": [
        {
          "internalType": "uint256",
          "name": "eventId",
          "type": "uint256"
        },
        {
          "internalType": "bytes32",
          "name": "rootHash",
          "type": "bytes32"
        },
        {
          "internalType": "contract ISwayDrop",
          "name": "drop",
          "type": "address"
        }
      ],
      "name": "addEventDrop",
      "outputs": [],
      "stateMutability": "nonpayable",
      "type": "function"
    },
    {
      "inputs": [
        {
          "internalType": "uint256",
          "name": "eventId",
          "type": "uint256"
        },
        {
          "internalType": "address",
          "name": "account",
          "type": "address"
        }
      ],
      "name": "addEventMinter",
      "outputs": [],
      "stateMutability": "nonpayable",
      "type": "function"
    },
    {
      "inputs": [
        {
          "internalType": "address",
          "name": "account",
          "type": "address"
        }
      ],
      "name": "addGovernor",
      "outputs": [],
      "stateMutability": "nonpayable",
      "type": "function"
    },
    {
      "inputs": [
        {
          "internalType": "address",
          "name": "to",
          "type": "address"
        },
        {
          "internalType": "uint256",
          "name": "tokenId",
          "type": "uint256"
        }
      ],
      "name": "approve",
      "outputs": [],
      "stateMutability": "nonpayable",
      "type": "function"
    },
    {
      "inputs": [
        {
          "internalType": "address",
          "name": "owner",
          "type": "address"
        }
      ],
      "name": "balanceOf",
      "outputs": [
        {
          "internalType": "uint256",
          "name": "",
          "type": "uint256"
        }
      ],
      "stateMutability": "view",
      "type": "function"
    },
    {
      "inputs": [
        {
          "internalType": "uint256",
          "name": "tokenId",
          "type": "uint256"
        }
      ],
      "name": "burn",
      "outputs": [],
      "stateMutability": "nonpayable",
      "type": "function"
    },
    {
      "inputs": [
        {
          "internalType": "address",
          "name": "minter",
          "type": "address"
        }
      ],
      "name": "createEvent",
      "outputs": [],
      "stateMutability": "nonpayable",
      "type": "function"
    },
    {
      "inputs": [
        {
          "internalType": "uint256",
          "name": "",
          "type": "uint256"
        }
      ],
      "name": "eventRoleMapping",
      "outputs": [
        {
          "internalType": "bytes32",
          "name": "",
          "type": "bytes32"
        }
      ],
      "stateMutability": "view",
      "type": "function"
    },
    {
      "inputs": [
        {
          "internalType": "uint256",
          "name": "tokenId",
          "type": "uint256"
        }
      ],
      "name": "getApproved",
      "outputs": [
        {
          "internalType": "address",
          "name": "",
          "type": "address"
        }
      ],
      "stateMutability": "view",
      "type": "function"
    },
    {
      "inputs": [
        {
          "internalType": "bytes32",
          "name": "role",
          "type": "bytes32"
        }
      ],
      "name": "getRoleAdmin",
      "outputs": [
        {
          "internalType": "bytes32",
          "name": "",
          "type": "bytes32"
        }
      ],
      "stateMutability": "view",
      "type": "function"
    },
    {
      "inputs": [
        {
          "internalType": "bytes32",
          "name": "role",
          "type": "bytes32"
        },
        {
          "internalType": "uint256",
          "name": "index",
          "type": "uint256"
        }
      ],
      "name": "getRoleMember",
      "outputs": [
        {
          "internalType": "address",
          "name": "",
          "type": "address"
        }
      ],
      "stateMutability": "view",
      "type": "function"
    },
    {
      "inputs": [
        {
          "internalType": "bytes32",
          "name": "role",
          "type": "bytes32"
        }
      ],
      "name": "getRoleMemberCount",
      "outputs": [
        {
          "internalType": "uint256",
          "name": "",
          "type": "uint256"
        }
      ],
      "stateMutability": "view",
      "type": "function"
    },
    {
      "inputs": [
        {
          "internalType": "bytes32",
          "name": "role",
          "type": "bytes32"
        },
        {
          "internalType": "address",
          "name": "account",
          "type": "address"
        }
      ],
      "name": "grantRole",
      "outputs": [],
      "stateMutability": "nonpayable",
      "type": "function"
    },
    {
      "inputs": [
        {
          "internalType": "bytes32",
          "name": "role",
          "type": "bytes32"
        },
        {
          "internalType": "address",
          "name": "account",
          "type": "address"
        }
      ],
      "name": "hasRole",
      "outputs": [
        {
          "internalType": "bool",
          "name": "",
          "type": "bool"
        }
      ],
      "stateMutability": "view",
      "type": "function"
    },
    {
      "inputs": [
        {
          "internalType": "string",
          "name": "__name",
          "type": "string"
        },
        {
          "internalType": "string",
          "name": "__symbol",
          "type": "string"
        },
        {
          "internalType": "string",
          "name": "__baseURI",
          "type": "string"
        },
        {
          "internalType": "string",
          "name": "__baseURIExtension",
          "type": "string"
        },
        {
          "internalType": "address",
          "name": "governor",
          "type": "address"
        }
      ],
      "name": "initialize",
      "outputs": [],
      "stateMutability": "nonpayable",
      "type": "function"
    },
    {
      "inputs": [
        {
          "internalType": "address",
          "name": "owner",
          "type": "address"
        },
        {
          "internalType": "address",
          "name": "operator",
          "type": "address"
        }
      ],
      "name": "isApprovedForAll",
      "outputs": [
        {
          "internalType": "bool",
          "name": "",
          "type": "bool"
        }
      ],
      "stateMutability": "view",
      "type": "function"
    },
    {
      "inputs": [
        {
          "internalType": "uint256",
          "name": "eventId",
          "type": "uint256"
        },
        {
          "internalType": "address",
          "name": "_addr",
          "type": "address"
        }
      ],
      "name": "isEventMinter",
      "outputs": [
        {
          "internalType": "bool",
          "name": "",
          "type": "bool"
        }
      ],
      "stateMutability": "view",
      "type": "function"
    },
    {
      "inputs": [
        {
          "internalType": "address",
          "name": "_addr",
          "type": "address"
        }
      ],
      "name": "isGovernor",
      "outputs": [
        {
          "internalType": "bool",
          "name": "",
          "type": "bool"
        }
      ],
      "stateMutability": "view",
      "type": "function"
    },
    {
      "inputs": [],
      "name": "lastEventId",
      "outputs": [
        {
          "internalType": "uint256",
          "name": "",
          "type": "uint256"
        }
      ],
      "stateMutability": "view",
      "type": "function"
    },
    {
      "inputs": [
        {
          "internalType": "uint256",
          "name": "eventId",
          "type": "uint256"
        },
        {
          "internalType": "address",
          "name": "to",
          "type": "address"
        }
      ],
      "name": "mintToken",
      "outputs": [
        {
          "internalType": "bool",
          "name": "",
          "type": "bool"
        }
      ],
      "stateMutability": "nonpayable",
      "type": "function"
    },
    {
      "inputs": [
        {
          "internalType": "uint256",
          "name": "eventId",
          "type": "uint256"
        },
        {
          "internalType": "uint256",
          "name": "tokenId",
          "type": "uint256"
        },
        {
          "internalType": "address",
          "name": "to",
          "type": "address"
        }
      ],
      "name": "mintToken",
      "outputs": [
        {
          "internalType": "bool",
          "name": "",
          "type": "bool"
        }
      ],
      "stateMutability": "nonpayable",
      "type": "function"
    },
    {
      "inputs": [],
      "name": "name",
      "outputs": [
        {
          "internalType": "string",
          "name": "",
          "type": "string"
        }
      ],
      "stateMutability": "view",
      "type": "function"
    },
    {
      "inputs": [
        {
          "internalType": "uint256",
          "name": "tokenId",
          "type": "uint256"
        }
      ],
      "name": "ownerOf",
      "outputs": [
        {
          "internalType": "address",
          "name": "",
          "type": "address"
        }
      ],
      "stateMutability": "view",
      "type": "function"
    },
    {
      "inputs": [],
      "name": "pause",
      "outputs": [],
      "stateMutability": "nonpayable",
      "type": "function"
    },
    {
      "inputs": [],
      "name": "paused",
      "outputs": [
        {
          "internalType": "bool",
          "name": "",
          "type": "bool"
        }
      ],
      "stateMutability": "view",
      "type": "function"
    },
    {
      "inputs": [],
      "name": "proxiableUUID",
      "outputs": [
        {
          "internalType": "bytes32",
          "name": "",
          "type": "bytes32"
        }
      ],
      "stateMutability": "view",
      "type": "function"
    },
    {
      "inputs": [
        {
          "internalType": "uint256",
          "name": "eventId",
          "type": "uint256"
        },
        {
          "internalType": "address",
          "name": "account",
          "type": "address"
        }
      ],
      "name": "removeEventMinter",
      "outputs": [],
      "stateMutability": "nonpayable",
      "type": "function"
    },
    {
      "inputs": [
        {
          "internalType": "address",
          "name": "account",
          "type": "address"
        }
      ],
      "name": "removeGovernor",
      "outputs": [],
      "stateMutability": "nonpayable",
      "type": "function"
    },
    {
      "inputs": [
        {
          "internalType": "bytes32",
          "name": "role",
          "type": "bytes32"
        },
        {
          "internalType": "address",
          "name": "account",
          "type": "address"
        }
      ],
      "name": "renounceRole",
      "outputs": [],
      "stateMutability": "nonpayable",
      "type": "function"
    },
    {
      "inputs": [
        {
          "internalType": "bytes32",
          "name": "role",
          "type": "bytes32"
        },
        {
          "internalType": "address",
          "name": "account",
          "type": "address"
        }
      ],
      "name": "revokeRole",
      "outputs": [],
      "stateMutability": "nonpayable",
      "type": "function"
    },
    {
      "inputs": [
        {
          "internalType": "address",
          "name": "from",
          "type": "address"
        },
        {
          "internalType": "address",
          "name": "to",
          "type": "address"
        },
        {
          "internalType": "uint256",
          "name": "tokenId",
          "type": "uint256"
        }
      ],
      "name": "safeTransferFrom",
      "outputs": [],
      "stateMutability": "nonpayable",
      "type": "function"
    },
    {
      "inputs": [
        {
          "internalType": "address",
          "name": "from",
          "type": "address"
        },
        {
          "internalType": "address",
          "name": "to",
          "type": "address"
        },
        {
          "internalType": "uint256",
          "name": "tokenId",
          "type": "uint256"
        },
        {
          "internalType": "bytes",
          "name": "_data",
          "type": "bytes"
        }
      ],
      "name": "safeTransferFrom",
      "outputs": [],
      "stateMutability": "nonpayable",
      "type": "function"
    },
    {
      "inputs": [
        {
          "internalType": "address",
          "name": "operator",
          "type": "address"
        },
        {
          "internalType": "bool",
          "name": "approved",
          "type": "bool"
        }
      ],
      "name": "setApprovalForAll",
      "outputs": [],
      "stateMutability": "nonpayable",
      "type": "function"
    },
    {
      "inputs": [
        {
          "internalType": "string",
          "name": "baseURI",
          "type": "string"
        }
      ],
      "name": "setBaseURI",
      "outputs": [],
      "stateMutability": "nonpayable",
      "type": "function"
    },
    {
      "inputs": [
        {
          "internalType": "string",
          "name": "baseURIExtension",
          "type": "string"
        }
      ],
      "name": "setBaseURIExtension",
      "outputs": [],
      "stateMutability": "nonpayable",
      "type": "function"
    },
    {
      "inputs": [
        {
          "internalType": "bytes4",
          "name": "interfaceId",
          "type": "bytes4"
        }
      ],
      "name": "supportsInterface",
      "outputs": [
        {
          "internalType": "bool",
          "name": "",
          "type": "bool"
        }
      ],
      "stateMutability": "view",
      "type": "function"
    },
    {
      "inputs": [],
      "name": "symbol",
      "outputs": [
        {
          "internalType": "string",
          "name": "",
          "type": "string"
        }
      ],
      "stateMutability": "view",
      "type": "function"
    },
    {
      "inputs": [
        {
          "internalType": "uint256",
          "name": "index",
          "type": "uint256"
        }
      ],
      "name": "tokenByIndex",
      "outputs": [
        {
          "internalType": "uint256",
          "name": "",
          "type": "uint256"
        }
      ],
      "stateMutability": "view",
      "type": "function"
    },
    {
      "inputs": [
        {
          "internalType": "address",
          "name": "owner",
          "type": "address"
        },
        {
          "internalType": "uint256",
          "name": "index",
          "type": "uint256"
        }
      ],
      "name": "tokenDetailsOfOwnerByIndex",
      "outputs": [
        {
          "internalType": "uint256",
          "name": "tokenId",
          "type": "uint256"
        },
        {
          "internalType": "uint256",
          "name": "eventId",
          "type": "uint256"
        }
      ],
      "stateMutability": "view",
      "type": "function"
    },
    {
      "inputs": [
        {
          "internalType": "uint256",
          "name": "",
          "type": "uint256"
        }
      ],
      "name": "tokenEvent",
      "outputs": [
        {
          "internalType": "uint256",
          "name": "",
          "type": "uint256"
        }
      ],
      "stateMutability": "view",
      "type": "function"
    },
    {
      "inputs": [
        {
          "internalType": "address",
          "name": "owner",
          "type": "address"
        },
        {
          "internalType": "uint256",
          "name": "index",
          "type": "uint256"
        }
      ],
      "name": "tokenOfOwnerByIndex",
      "outputs": [
        {
          "internalType": "uint256",
          "name": "",
          "type": "uint256"
        }
      ],
      "stateMutability": "view",
      "type": "function"
    },
    {
      "inputs": [
        {
          "internalType": "uint256",
          "name": "tokenId",
          "type": "uint256"
        }
      ],
      "name": "tokenURI",
      "outputs": [
        {
          "internalType": "string",
          "name": "",
          "type": "string"
        }
      ],
      "stateMutability": "view",
      "type": "function"
    },
    {
      "inputs": [],
      "name": "totalSupply",
      "outputs": [
        {
          "internalType": "uint256",
          "name": "",
          "type": "uint256"
        }
      ],
      "stateMutability": "view",
      "type": "function"
    },
    {
      "inputs": [
        {
          "internalType": "address",
          "name": "from",
          "type": "address"
        },
        {
          "internalType": "address",
          "name": "to",
          "type": "address"
        },
        {
          "internalType": "uint256",
          "name": "tokenId",
          "type": "uint256"
        }
      ],
      "name": "transferFrom",
      "outputs": [],
      "stateMutability": "nonpayable",
      "type": "function"
    },
    {
      "inputs": [],
      "name": "unpause",
      "outputs": [],
      "stateMutability": "nonpayable",
      "type": "function"
    },
    {
      "inputs": [
        {
          "internalType": "address",
          "name": "newImplementation",
          "type": "address"
        }
      ],
      "name": "upgradeTo",
      "outputs": [],
      "stateMutability": "nonpayable",
      "type": "function"
    },
    {
      "inputs": [
        {
          "internalType": "address",
          "name": "newImplementation",
          "type": "address"
        },
        {
          "internalType": "bytes",
          "name": "data",
          "type": "bytes"
        }
      ],
      "name": "upgradeToAndCall",
      "outputs": [],
      "stateMutability": "payable",
      "type": "function"
    }
  ],
  "numDeployments": 1,
  "solcInputHash": "1d7091032f1fc4ed7a52b6e45c783874",
  "bytecode": "0x60a06040523060601b6080523480156200001857600080fd5b50600054610100900460ff16620000365760005460ff161562000040565b62000040620000e5565b620000a85760405162461bcd60e51b815260206004820152602e60248201527f496e697469616c697a61626c653a20636f6e747261637420697320616c72656160448201526d191e481a5b9a5d1a585b1a5e995960921b606482015260840160405180910390fd5b600054610100900460ff16158015620000cb576000805461ffff19166101011790555b8015620000de576000805461ff00191690555b5062000112565b6000620000fd306200010360201b6200191f1760201c565b15905090565b6001600160a01b03163b151590565b60805160601c613fe76200014d60003960008181610e2501528181610e6501528181611091015281816110d101526112010152613fe76000f3fe6080604052600436106102ae5760003560e01c806355f804b311610175578063a217fddf116100dc578063ccc5749011610095578063e43581b81161006f578063e43581b814610877578063e5458e2014610897578063e985e9c5146108b7578063eecdac881461090057600080fd5b8063ccc5749014610815578063d547741f14610837578063d890c8e21461085757600080fd5b8063a217fddf14610752578063a22cb46514610767578063b2c50b1214610787578063b88d4fde146107b5578063c87b56dd146107d5578063ca15c873146107f557600080fd5b80638456cb591161012e5780638456cb59146106a85780639010d07c146106bd57806391d14854146106dd57806395d89b41146106fd5780639cd3cad614610712578063a140ae231461073257600080fd5b806355f804b3146105da5780635c975abb146105fa5780636352211e1461061357806367e971ce1461063357806370a0823114610668578063787b8d471461068857600080fd5b80632f2ff15d1161021957806342842e0e116101d257806342842e0e1461053257806342966c6814610552578063467de36c146105725780634f1ef286146105925780634f6ccce7146105a557806352d1902d146105c557600080fd5b80632f2ff15d1461047d5780632f745c591461049d57806336568abe146104bd5780633659cfe6146104dd5780633c4a25d0146104fd5780633f4ba83a1461051d57600080fd5b8063166c4b051161026b578063166c4b05146103b757806318160ddd146103d757806323b872dd146103ec578063248a9ca31461040c57806328db38b41461043d5780632e6400241461045d57600080fd5b806301ffc9a7146102b3578063054e9507146102e857806306fdde031461030d578063081812fc1461032f578063095ea7b314610367578063127a529814610389575b600080fd5b3480156102bf57600080fd5b506102d36102ce3660046137a5565b610920565b60405190151581526020015b60405180910390f35b3480156102f457600080fd5b506102ff6101c45481565b6040519081526020016102df565b34801561031957600080fd5b50610322610940565b6040516102df9190613ae5565b34801561033b57600080fd5b5061034f61034a366004613730565b6109d2565b6040516001600160a01b0390911681526020016102df565b34801561037357600080fd5b50610387610382366004613705565b610a6c565b005b34801561039557600080fd5b506102ff6103a4366004613730565b6101fa6020526000908152604090205481565b3480156103c357600080fd5b506103876103d2366004613760565b610b82565b3480156103e357600080fd5b5060fd546102ff565b3480156103f857600080fd5b506103876104073660046135dc565b610bb5565b34801561041857600080fd5b506102ff610427366004613730565b600090815261012d602052604090206001015490565b34801561044957600080fd5b506102d3610458366004613760565b610be7565b34801561046957600080fd5b50610387610478366004613810565b610c17565b34801561048957600080fd5b50610387610498366004613760565b610ce3565b3480156104a957600080fd5b506102ff6104b8366004613705565b610d0a565b3480156104c957600080fd5b506103876104d8366004613760565b610da0565b3480156104e957600080fd5b506103876104f8366004613588565b610e1a565b34801561050957600080fd5b50610387610518366004613588565b610efa565b34801561052957600080fd5b50610387610f28565b34801561053e57600080fd5b5061038761054d3660046135dc565b610fa1565b34801561055e57600080fd5b5061038761056d366004613730565b610fbc565b34801561057e57600080fd5b5061038761058d3660046137dd565b611029565b6103876105a03660046136b7565b611086565b3480156105b157600080fd5b506102ff6105c0366004613730565b611153565b3480156105d157600080fd5b506102ff6111f4565b3480156105e657600080fd5b506103876105f53660046137dd565b6112a7565b34801561060657600080fd5b506101915460ff166102d3565b34801561061f57600080fd5b5061034f61062e366004613730565b611304565b34801561063f57600080fd5b5061065361064e366004613705565b61137b565b604080519283526020830191909152016102df565b34801561067457600080fd5b506102ff610683366004613588565b6113a3565b34801561069457600080fd5b506103876106a3366004613588565b61142a565b3480156106b457600080fd5b50610387611458565b3480156106c957600080fd5b5061034f6106d8366004613784565b6114a9565b3480156106e957600080fd5b506102d36106f8366004613760565b6114c2565b34801561070957600080fd5b506103226114ee565b34801561071e57600080fd5b5061038761072d366004613760565b6114fd565b34801561073e57600080fd5b506102d361074d366004613760565b61152c565b34801561075e57600080fd5b506102ff600081565b34801561077357600080fd5b50610387610782366004613686565b6115b0565b34801561079357600080fd5b506102ff6107a2366004613730565b6101c36020526000908152604090205481565b3480156107c157600080fd5b506103876107d036600461361c565b6115bb565b3480156107e157600080fd5b506103226107f0366004613730565b6115f3565b34801561080157600080fd5b506102ff610810366004613730565b6116bf565b34801561082157600080fd5b506102ff600080516020613f6b83398151915281565b34801561084357600080fd5b50610387610852366004613760565b6116d7565b34801561086357600080fd5b506102d36108723660046138cd565b6116fe565b34801561088357600080fd5b506102d3610892366004613588565b611765565b3480156108a357600080fd5b506103876108b23660046138cd565b61177f565b3480156108c357600080fd5b506102d36108d23660046135a4565b6001600160a01b03918216600090815260ce6020908152604080832093909416825291909152205460ff1690565b34801561090c57600080fd5b5061038761091b366004613588565b6118f1565b600061092b8261192e565b8061093a575061093a82611953565b92915050565b606060c9805461094f90613e73565b80601f016020809104026020016040519081016040528092919081815260200182805461097b90613e73565b80156109c85780601f1061099d576101008083540402835291602001916109c8565b820191906000526020600020905b8154815290600101906020018083116109ab57829003601f168201915b5050505050905090565b600081815260cb60205260408120546001600160a01b0316610a505760405162461bcd60e51b815260206004820152602c60248201527f4552433732313a20617070726f76656420717565727920666f72206e6f6e657860448201526b34b9ba32b73a103a37b5b2b760a11b60648201526084015b60405180910390fd5b50600090815260cd60205260409020546001600160a01b031690565b6000610a7782611304565b9050806001600160a01b0316836001600160a01b03161415610ae55760405162461bcd60e51b815260206004820152602160248201527f4552433732313a20617070726f76616c20746f2063757272656e74206f776e656044820152603960f91b6064820152608401610a47565b336001600160a01b0382161480610b015750610b0181336108d2565b610b735760405162461bcd60e51b815260206004820152603860248201527f4552433732313a20617070726f76652063616c6c6572206973206e6f74206f7760448201527f6e6572206e6f7220617070726f76656420666f7220616c6c00000000000000006064820152608401610a47565b610b7d8383611978565b505050565b610b8b33611765565b610ba75760405162461bcd60e51b8152600401610a4790613d81565b610bb182826119e6565b5050565b610bc0335b82611a66565b610bdc5760405162461bcd60e51b8152600401610a4790613ce5565b610b7d838383611b59565b60008281526101c36020526040812054610c0190836114c2565b80610c105750610c1082611765565b9392505050565b600054610100900460ff16610c325760005460ff1615610c36565b303b155b610c525760405162461bcd60e51b8152600401610a4790613c97565b600054610100900460ff16158015610c74576000805461ffff19166101011790555b8351610c88906101f8906020870190613468565b508251610c9d906101f9906020860190613468565b50610ca782611d00565b610cb18686611da3565b610cb9611df1565b610cc1611df1565b610cc9611df1565b8015610cdb576000805461ff00191690555b505050505050565b600082815261012d6020526040902060010154610d008133611e18565b610b7d8383611e7c565b6000610d15836113a3565b8210610d775760405162461bcd60e51b815260206004820152602b60248201527f455243373231456e756d657261626c653a206f776e657220696e646578206f7560448201526a74206f6620626f756e647360a81b6064820152608401610a47565b506001600160a01b0391909116600090815260fb60209081526040808320938352929052205490565b6001600160a01b0381163314610e105760405162461bcd60e51b815260206004820152602f60248201527f416363657373436f6e74726f6c3a2063616e206f6e6c792072656e6f756e636560448201526e103937b632b9903337b91039b2b63360891b6064820152608401610a47565b610bb18282611e9f565b306001600160a01b037f0000000000000000000000000000000000000000000000000000000000000000161415610e635760405162461bcd60e51b8152600401610a4790613b9e565b7f00000000000000000000000000000000000000000000000000000000000000006001600160a01b0316610eac600080516020613f4b833981519152546001600160a01b031690565b6001600160a01b031614610ed25760405162461bcd60e51b8152600401610a4790613bea565b610edb81611ec2565b60408051600080825260208201909252610ef791839190611ee7565b50565b610f0333611765565b610f1f5760405162461bcd60e51b8152600401610a4790613d81565b610ef781612061565b610f3133611765565b610f4d5760405162461bcd60e51b8152600401610a4790613d81565b6101915460ff16610f975760405162461bcd60e51b815260206004820152601460248201527314185d5cd8589b194e881b9bdd081c185d5cd95960621b6044820152606401610a47565b610f9f6120b0565b565b610b7d838383604051806020016040528060008152506115bb565b610fc533610bba565b6110205760405162461bcd60e51b815260206004820152602660248201527f537761793a2063616c6c6572206973206e6f74206f776e6572206e6f722061706044820152651c1c9bdd995960d21b6064820152608401610a47565b610ef781612145565b61103233611765565b61104e5760405162461bcd60e51b8152600401610a4790613d81565b6101915460ff16156110725760405162461bcd60e51b8152600401610a4790613c6d565b8051610bb1906101f9906020840190613468565b306001600160a01b037f00000000000000000000000000000000000000000000000000000000000000001614156110cf5760405162461bcd60e51b8152600401610a4790613b9e565b7f00000000000000000000000000000000000000000000000000000000000000006001600160a01b0316611118600080516020613f4b833981519152546001600160a01b031690565b6001600160a01b03161461113e5760405162461bcd60e51b8152600401610a4790613bea565b61114782611ec2565b610bb182826001611ee7565b600061115e60fd5490565b82106111c15760405162461bcd60e51b815260206004820152602c60248201527f455243373231456e756d657261626c653a20676c6f62616c20696e646578206f60448201526b7574206f6620626f756e647360a01b6064820152608401610a47565b60fd82815481106111e257634e487b7160e01b600052603260045260246000fd5b90600052602060002001549050919050565b6000306001600160a01b037f000000000000000000000000000000000000000000000000000000000000000016146112945760405162461bcd60e51b815260206004820152603860248201527f555550535570677261646561626c653a206d757374206e6f742062652063616c60448201527f6c6564207468726f7567682064656c656761746563616c6c00000000000000006064820152608401610a47565b50600080516020613f4b83398151915290565b6112b033611765565b6112cc5760405162461bcd60e51b8152600401610a4790613d81565b6101915460ff16156112f05760405162461bcd60e51b8152600401610a4790613c6d565b8051610bb1906101f8906020840190613468565b600081815260cb60205260408120546001600160a01b03168061093a5760405162461bcd60e51b815260206004820152602960248201527f4552433732313a206f776e657220717565727920666f72206e6f6e657869737460448201526832b73a103a37b5b2b760b91b6064820152608401610a47565b6000806113888484610d0a565b60008181526101fa6020526040902054909590945092505050565b60006001600160a01b03821661140e5760405162461bcd60e51b815260206004820152602a60248201527f4552433732313a2062616c616e636520717565727920666f7220746865207a65604482015269726f206164647265737360b01b6064820152608401610a47565b506001600160a01b0316600090815260cc602052604090205490565b61143333611765565b61144f5760405162461bcd60e51b8152600401610a4790613d81565b610ef781612160565b61146133611765565b61147d5760405162461bcd60e51b8152600401610a4790613d81565b6101915460ff16156114a15760405162461bcd60e51b8152600401610a4790613c6d565b610f9f612225565b600082815261015f60205260408120610c10908361227f565b600091825261012d602090815260408084206001600160a01b0393909316845291905290205460ff1690565b606060ca805461094f90613e73565b61150633611765565b6115225760405162461bcd60e51b8152600401610a4790613d81565b610bb1828261228b565b600061153b6101915460ff1690565b156115585760405162461bcd60e51b8152600401610a4790613c6d565b826115638133610be7565b61157f5760405162461bcd60e51b8152600401610a4790613af8565b60016101f760008282546115939190613dce565b925050819055506115a8846101f7548561230b565b949350505050565b610bb133838361236d565b6115c53383611a66565b6115e15760405162461bcd60e51b8152600401610a4790613ce5565b6115ed8484848461243c565b50505050565b600081815260cb60205260409020546060906001600160a01b03166116685760405162461bcd60e51b815260206004820152602560248201527f537761793a2055524920717565727920666f72206e6f6e6578697374656e74206044820152643a37b5b2b760d91b6064820152608401610a47565b60008281526101fa602052604090205461168061246f565b6116898261247f565b6116928561247f565b6101f96040516020016116a8949392919061394d565b604051602081830303815290604052915050919050565b600081815261015f6020526040812061093a90612599565b600082815261012d60205260409020600101546116f48133611e18565b610b7d8383611e9f565b600061170d6101915460ff1690565b1561172a5760405162461bcd60e51b8152600401610a4790613c6d565b836117358133610be7565b6117515760405162461bcd60e51b8152600401610a4790613af8565b61175c85858561230b565b95945050505050565b600061093a600080516020613f6b833981519152836114c2565b61178833611765565b6117a45760405162461bcd60e51b8152600401610a4790613d81565b6001600160a01b03811661180d5760405162461bcd60e51b815260206004820152602a60248201527f5377617941646d696e3a2064726f7020616464726573732073686f756c64206e6044820152696f74206265207a65726f60b01b6064820152608401610a47565b8161185a5760405162461bcd60e51b815260206004820152601b60248201527f5377617941646d696e3a20726f6f7448617368206973207a65726f00000000006044820152606401610a47565b60008381526101c360205260409020546118865760405162461bcd60e51b8152600401610a4790613c36565b6040516330dde7eb60e21b815260048101849052602481018390526001600160a01b0382169063c3779fac90604401600060405180830381600087803b1580156118cf57600080fd5b505af11580156118e3573d6000803e3d6000fd5b50505050610b7d838261228b565b6118fa33611765565b6119165760405162461bcd60e51b8152600401610a4790613d81565b610ef7816125a3565b6001600160a01b03163b151590565b60006001600160e01b0319821663780e9d6360e01b148061093a575061093a826125f2565b60006001600160e01b03198216635a05180f60e01b148061093a575061093a82612642565b600081815260cd6020526040902080546001600160a01b0319166001600160a01b03841690811790915581906119ad82611304565b6001600160a01b03167f8c5be1e5ebec7d5bd14f71427d1e84f3dd0314c0f7b2291e5b200ac8c7c3b92560405160405180910390a45050565b60008281526101c36020526040902054611a125760405162461bcd60e51b8152600401610a4790613c36565b60008281526101c36020526040902054611a2c9082610da0565b6040516001600160a01b0382169083907fb6882c4d609d560f6d57e78e73dd96027f0d9852739b0b922537a6dd3c8e944c90600090a35050565b600081815260cb60205260408120546001600160a01b0316611adf5760405162461bcd60e51b815260206004820152602c60248201527f4552433732313a206f70657261746f7220717565727920666f72206e6f6e657860448201526b34b9ba32b73a103a37b5b2b760a11b6064820152608401610a47565b6000611aea83611304565b9050806001600160a01b0316846001600160a01b03161480611b255750836001600160a01b0316611b1a846109d2565b6001600160a01b0316145b806115a857506001600160a01b03808216600090815260ce602090815260408083209388168352929052205460ff166115a8565b826001600160a01b0316611b6c82611304565b6001600160a01b031614611bd05760405162461bcd60e51b815260206004820152602560248201527f4552433732313a207472616e736665722066726f6d20696e636f72726563742060448201526437bbb732b960d91b6064820152608401610a47565b6001600160a01b038216611c325760405162461bcd60e51b8152602060048201526024808201527f4552433732313a207472616e7366657220746f20746865207a65726f206164646044820152637265737360e01b6064820152608401610a47565b611c3d838383612667565b611c48600082611978565b6001600160a01b038316600090815260cc60205260408120805460019290611c71908490613e19565b90915550506001600160a01b038216600090815260cc60205260408120805460019290611c9f908490613dce565b9091555050600081815260cb602052604080822080546001600160a01b0319166001600160a01b0386811691821790925591518493918716917fddf252ad1be2c89b69c2b068fc378daa952ba7f163c4a11628f55a4df523b3ef91a4505050565b600054610100900460ff16611d1b5760005460ff1615611d1f565b303b155b611d3b5760405162461bcd60e51b8152600401610a4790613c97565b600054610100900460ff16158015611d5d576000805461ffff19166101011790555b611d65611df1565b611d6d611df1565b611d75611df1565b611d7d611df1565b611d856126d0565b611d8e82612704565b8015610bb1576000805461ff00191690555050565b600054610100900460ff16611dca5760405162461bcd60e51b8152600401610a4790613d36565b8151611ddd9060c9906020850190613468565b508051610b7d9060ca906020840190613468565b600054610100900460ff16610f9f5760405162461bcd60e51b8152600401610a4790613d36565b611e2282826114c2565b610bb157611e3a816001600160a01b031660146127da565b611e458360206127da565b604051602001611e56929190613a33565b60408051601f198184030181529082905262461bcd60e51b8252610a4791600401613ae5565b611e8682826129bc565b600082815261015f60205260409020610b7d9082612a43565b611ea98282612a58565b600082815261015f60205260409020610b7d9082612ac0565b611ecb33611765565b610ef75760405162461bcd60e51b8152600401610a4790613d81565b7f4910fdfa16fed3260ed0e7147f7cc6da11a60208b5b9406d12a635614ffd91435460ff1615611f1a57610b7d83612ad5565b826001600160a01b03166352d1902d6040518163ffffffff1660e01b815260040160206040518083038186803b158015611f5357600080fd5b505afa925050508015611f83575060408051601f3d908101601f19168201909252611f8091810190613748565b60015b611fe65760405162461bcd60e51b815260206004820152602e60248201527f45524331393637557067726164653a206e657720696d706c656d656e7461746960448201526d6f6e206973206e6f74205555505360901b6064820152608401610a47565b600080516020613f4b83398151915281146120555760405162461bcd60e51b815260206004820152602960248201527f45524331393637557067726164653a20756e737570706f727465642070726f786044820152681a58589b195555525160ba1b6064820152608401610a47565b50610b7d838383612b71565b612079600080516020613f6b83398151915282610ce3565b6040516001600160a01b038216907fdc5a48d79e2e147530ff63ecdbed5a5a66adb9d5cf339384d5d076da197c40b590600090a250565b6101915460ff166120fa5760405162461bcd60e51b815260206004820152601460248201527314185d5cd8589b194e881b9bdd081c185d5cd95960621b6044820152606401610a47565b610191805460ff191690557f5db9ee0a495bf2e6ff9c91a7834c1ba4fdd244a5e8aa4e537bd38aeae4b073aa335b6040516001600160a01b03909116815260200160405180910390a1565b61214e81612b96565b60009081526101fa6020526040812055565b60016101c460008282546121749190613dce565b9250508190555060006121896101c45461247f565b6040516020016121999190613931565b6040516020818303038152906040528051906020012090506121c981600080516020613f6b833981519152612c3d565b6101c4805460009081526101c360205260408082208490559154915183926001600160a01b0386169290917f613e137a89b79c7d1e214c39381dfac9f62e1f202a0e2e8c17d44d7d689cd8ea9190a4610bb16101c4548361228b565b6101915460ff16156122495760405162461bcd60e51b8152600401610a4790613c6d565b610191805460ff191660011790557f62e78cea01bee320cd4e420270b5ea74000d11b0c9f74754ebdbfc544b05a2586121283390565b6000610c108383612c89565b60008281526101c360205260409020546122b75760405162461bcd60e51b8152600401610a4790613c36565b60008281526101c360205260409020546122d19082610ce3565b6040516001600160a01b0382169083907fe1bd660d9f7c60e6fb12dd6479fdde12d21fc96385dc7b9b022c0b2f319e739190600090a35050565b60006123178284612cc1565b60008381526101fa602090815260409182902086905581518681529081018590527f4b3711cd7ece062b0828c1b6e08d814a72d4c003383a016c833cbb1b45956e34910160405180910390a15060019392505050565b816001600160a01b0316836001600160a01b031614156123cf5760405162461bcd60e51b815260206004820152601960248201527f4552433732313a20617070726f766520746f2063616c6c6572000000000000006044820152606401610a47565b6001600160a01b03838116600081815260ce6020908152604080832094871680845294825291829020805460ff191686151590811790915591519182527f17307eab39ab6107e8899845ad3d59bd9653f200f220920489ca2b5937696c31910160405180910390a3505050565b612447848484611b59565b61245384848484612e0f565b6115ed5760405162461bcd60e51b8152600401610a4790613b4c565b60606101f8805461094f90613e73565b6060816124a35750506040805180820190915260018152600360fc1b602082015290565b8160005b81156124cd57806124b781613eae565b91506124c69050600a83613de6565b91506124a7565b60008167ffffffffffffffff8111156124f657634e487b7160e01b600052604160045260246000fd5b6040519080825280601f01601f191660200182016040528015612520576020820181803683370190505b5090505b84156115a857612535600183613e19565b9150612542600a86613ec9565b61254d906030613dce565b60f81b81838151811061257057634e487b7160e01b600052603260045260246000fd5b60200101906001600160f81b031916908160001a905350612592600a86613de6565b9450612524565b600061093a825490565b6125bb600080516020613f6b83398151915282610da0565b6040516001600160a01b038216907f1ebe834e73d60a5fec822c1e1727d34bc79f2ad977ed504581cc1822fe20fb5b90600090a250565b60006001600160e01b031982166380ac58cd60e01b148061262357506001600160e01b03198216635b5e139f60e01b145b8061093a57506301ffc9a760e01b6001600160e01b031983161461093a565b60006001600160e01b03198216637965db0b60e01b148061093a575061093a8261192e565b612672838383612f1c565b6101915460ff1615610b7d5760405162461bcd60e51b815260206004820152602160248201527f537761793a20746f6b656e207472616e73666572207768696c652070617573656044820152601960fa1b6064820152608401610a47565b600054610100900460ff166126f75760405162461bcd60e51b8152600401610a4790613d36565b610191805460ff19169055565b600054610100900460ff1661271f5760005460ff1615612723565b303b155b61273f5760405162461bcd60e51b8152600401610a4790613c97565b600054610100900460ff16158015612761576000805461ffff19166101011790555b612779600080516020613f6b83398151915280612c3d565b612791600080516020613f6b83398151915283612fd4565b6040516001600160a01b038316907fdc5a48d79e2e147530ff63ecdbed5a5a66adb9d5cf339384d5d076da197c40b590600090a28015610bb1576000805461ff00191690555050565b606060006127e9836002613dfa565b6127f4906002613dce565b67ffffffffffffffff81111561281a57634e487b7160e01b600052604160045260246000fd5b6040519080825280601f01601f191660200182016040528015612844576020820181803683370190505b509050600360fc1b8160008151811061286d57634e487b7160e01b600052603260045260246000fd5b60200101906001600160f81b031916908160001a905350600f60fb1b816001815181106128aa57634e487b7160e01b600052603260045260246000fd5b60200101906001600160f81b031916908160001a90535060006128ce846002613dfa565b6128d9906001613dce565b90505b600181111561296d576f181899199a1a9b1b9c1cb0b131b232b360811b85600f166010811061291b57634e487b7160e01b600052603260045260246000fd5b1a60f81b82828151811061293f57634e487b7160e01b600052603260045260246000fd5b60200101906001600160f81b031916908160001a90535060049490941c9361296681613e5c565b90506128dc565b508315610c105760405162461bcd60e51b815260206004820181905260248201527f537472696e67733a20686578206c656e67746820696e73756666696369656e746044820152606401610a47565b6129c682826114c2565b610bb157600082815261012d602090815260408083206001600160a01b03851684529091529020805460ff191660011790556129ff3390565b6001600160a01b0316816001600160a01b0316837f2f8788117e7eff1d82e926ec794901d17c78024a50270940304540a733656f0d60405160405180910390a45050565b6000610c10836001600160a01b038416612fde565b612a6282826114c2565b15610bb157600082815261012d602090815260408083206001600160a01b0385168085529252808320805460ff1916905551339285917ff6391f5c32d9c69d2a47ea670b442974b53935d1edc7fd64eb21e047a839171b9190a45050565b6000610c10836001600160a01b03841661302d565b6001600160a01b0381163b612b425760405162461bcd60e51b815260206004820152602d60248201527f455243313936373a206e657720696d706c656d656e746174696f6e206973206e60448201526c1bdd08184818dbdb9d1c9858dd609a1b6064820152608401610a47565b600080516020613f4b83398151915280546001600160a01b0319166001600160a01b0392909216919091179055565b612b7a8361314a565b600082511180612b875750805b15610b7d576115ed838361318a565b6000612ba182611304565b9050612baf81600084612667565b612bba600083611978565b6001600160a01b038116600090815260cc60205260408120805460019290612be3908490613e19565b9091555050600082815260cb602052604080822080546001600160a01b0319169055518391906001600160a01b038416907fddf252ad1be2c89b69c2b068fc378daa952ba7f163c4a11628f55a4df523b3ef908390a45050565b600082815261012d6020526040808220600101805490849055905190918391839186917fbd79b86ffe0ab8e8776151514217cd7cacd52c909f66475c3af44e129f0b00ff9190a4505050565b6000826000018281548110612cae57634e487b7160e01b600052603260045260246000fd5b9060005260206000200154905092915050565b6001600160a01b038216612d175760405162461bcd60e51b815260206004820181905260248201527f4552433732313a206d696e7420746f20746865207a65726f20616464726573736044820152606401610a47565b600081815260cb60205260409020546001600160a01b031615612d7c5760405162461bcd60e51b815260206004820152601c60248201527f4552433732313a20746f6b656e20616c7265616479206d696e746564000000006044820152606401610a47565b612d8860008383612667565b6001600160a01b038216600090815260cc60205260408120805460019290612db1908490613dce565b9091555050600081815260cb602052604080822080546001600160a01b0319166001600160a01b03861690811790915590518392907fddf252ad1be2c89b69c2b068fc378daa952ba7f163c4a11628f55a4df523b3ef908290a45050565b60006001600160a01b0384163b15612f1157604051630a85bd0160e11b81526001600160a01b0385169063150b7a0290612e53903390899088908890600401613aa8565b602060405180830381600087803b158015612e6d57600080fd5b505af1925050508015612e9d575060408051601f3d908101601f19168201909252612e9a918101906137c1565b60015b612ef7573d808015612ecb576040519150601f19603f3d011682016040523d82523d6000602084013e612ed0565b606091505b508051612eef5760405162461bcd60e51b8152600401610a4790613b4c565b805181602001fd5b6001600160e01b031916630a85bd0160e11b1490506115a8565b506001949350505050565b6001600160a01b038316612f7757612f728160fd8054600083815260fe60205260408120829055600182018355919091527f9346ac6dd7de6b96975fec380d4d994c4c12e6a8897544f22915316cc6cca2800155565b612f9a565b816001600160a01b0316836001600160a01b031614612f9a57612f9a8382613275565b6001600160a01b038216612fb157610b7d81613312565b826001600160a01b0316826001600160a01b031614610b7d57610b7d82826133eb565b610bb18282611e7c565b60008181526001830160205260408120546130255750815460018181018455600084815260208082209093018490558454848252828601909352604090209190915561093a565b50600061093a565b60008181526001830160205260408120548015613140576000613051600183613e19565b855490915060009061306590600190613e19565b90508181146130e657600086600001828154811061309357634e487b7160e01b600052603260045260246000fd5b90600052602060002001549050808760000184815481106130c457634e487b7160e01b600052603260045260246000fd5b6000918252602080832090910192909255918252600188019052604090208390555b855486908061310557634e487b7160e01b600052603160045260246000fd5b60019003818190600052602060002001600090559055856001016000868152602001908152602001600020600090556001935050505061093a565b600091505061093a565b61315381612ad5565b6040516001600160a01b038216907fbc7cd75a20ee27fd9adebab32041f755214dbc6bffa90cc0225b39da2e5c2d3b90600090a250565b60606001600160a01b0383163b6131f25760405162461bcd60e51b815260206004820152602660248201527f416464726573733a2064656c65676174652063616c6c20746f206e6f6e2d636f6044820152651b9d1c9858dd60d21b6064820152608401610a47565b600080846001600160a01b03168460405161320d9190613931565b600060405180830381855af49150503d8060008114613248576040519150601f19603f3d011682016040523d82523d6000602084013e61324d565b606091505b509150915061175c8282604051806060016040528060278152602001613f8b6027913961342f565b60006001613282846113a3565b61328c9190613e19565b600083815260fc60205260409020549091508082146132df576001600160a01b038416600090815260fb60209081526040808320858452825280832054848452818420819055835260fc90915290208190555b50600091825260fc602090815260408084208490556001600160a01b03909416835260fb81528383209183525290812055565b60fd5460009061332490600190613e19565b600083815260fe602052604081205460fd805493945090928490811061335a57634e487b7160e01b600052603260045260246000fd5b906000526020600020015490508060fd838154811061338957634e487b7160e01b600052603260045260246000fd5b600091825260208083209091019290925582815260fe909152604080822084905585825281205560fd8054806133cf57634e487b7160e01b600052603160045260246000fd5b6001900381819060005260206000200160009055905550505050565b60006133f6836113a3565b6001600160a01b03909316600090815260fb60209081526040808320868452825280832085905593825260fc9052919091209190915550565b6060831561343e575081610c10565b82511561344e5782518084602001fd5b8160405162461bcd60e51b8152600401610a479190613ae5565b82805461347490613e73565b90600052602060002090601f01602090048101928261349657600085556134dc565b82601f106134af57805160ff19168380011785556134dc565b828001600101855582156134dc579182015b828111156134dc5782518255916020019190600101906134c1565b506134e89291506134ec565b5090565b5b808211156134e857600081556001016134ed565b600082601f830112613511578081fd5b813567ffffffffffffffff8082111561352c5761352c613f09565b604051601f8301601f19908116603f0116810190828211818310171561355457613554613f09565b8160405283815286602085880101111561356c578485fd5b8360208701602083013792830160200193909352509392505050565b600060208284031215613599578081fd5b8135610c1081613f1f565b600080604083850312156135b6578081fd5b82356135c181613f1f565b915060208301356135d181613f1f565b809150509250929050565b6000806000606084860312156135f0578081fd5b83356135fb81613f1f565b9250602084013561360b81613f1f565b929592945050506040919091013590565b60008060008060808587031215613631578081fd5b843561363c81613f1f565b9350602085013561364c81613f1f565b925060408501359150606085013567ffffffffffffffff81111561366e578182fd5b61367a87828801613501565b91505092959194509250565b60008060408385031215613698578182fd5b82356136a381613f1f565b9150602083013580151581146135d1578182fd5b600080604083850312156136c9578182fd5b82356136d481613f1f565b9150602083013567ffffffffffffffff8111156136ef578182fd5b6136fb85828601613501565b9150509250929050565b60008060408385031215613717578182fd5b823561372281613f1f565b946020939093013593505050565b600060208284031215613741578081fd5b5035919050565b600060208284031215613759578081fd5b5051919050565b60008060408385031215613772578182fd5b8235915060208301356135d181613f1f565b60008060408385031215613796578182fd5b50508035926020909101359150565b6000602082840312156137b6578081fd5b8135610c1081613f34565b6000602082840312156137d2578081fd5b8151610c1081613f34565b6000602082840312156137ee578081fd5b813567ffffffffffffffff811115613804578182fd5b6115a884828501613501565b600080600080600060a08688031215613827578283fd5b853567ffffffffffffffff8082111561383e578485fd5b61384a89838a01613501565b9650602088013591508082111561385f578485fd5b61386b89838a01613501565b95506040880135915080821115613880578485fd5b61388c89838a01613501565b945060608801359150808211156138a1578283fd5b506138ae88828901613501565b92505060808601356138bf81613f1f565b809150509295509295909350565b6000806000606084860312156138e1578081fd5b833592506020840135915060408401356138fa81613f1f565b809150509250925092565b6000815180845261391d816020860160208601613e30565b601f01601f19169290920160200192915050565b60008251613943818460208701613e30565b9190910192915050565b6000855160206139608285838b01613e30565b8651918401916139738184848b01613e30565b602f60f81b9201918252855160019061399181838601858b01613e30565b8654930192849080831c838216806139aa57607f821691505b8582108114156139c857634e487b7160e01b88526022600452602488fd5b8080156139dc57600181146139f157613a21565b60ff1984168887015282880186019450613a21565b60008b815260209020895b84811015613a175781548a82018901529087019088016139fc565b5050858389010194505b50929c9b505050505050505050505050565b7f416363657373436f6e74726f6c3a206163636f756e7420000000000000000000815260008351613a6b816017850160208801613e30565b7001034b99036b4b9b9b4b733903937b6329607d1b6017918401918201528351613a9c816028840160208801613e30565b01602801949350505050565b6001600160a01b0385811682528416602082015260408101839052608060608201819052600090613adb90830184613905565b9695505050505050565b602081526000610c106020830184613905565b60208082526034908201527f5377617941646d696e3a2073656e64657220646f6573206e6f74206861766520604082015273135a5b9d195c88149bdb19481a5b88115d995b9d60621b606082015260800190565b60208082526032908201527f4552433732313a207472616e7366657220746f206e6f6e20455243373231526560408201527131b2b4bb32b91034b6b83632b6b2b73a32b960711b606082015260800190565b6020808252602c908201527f46756e6374696f6e206d7573742062652063616c6c6564207468726f7567682060408201526b19195b1959d85d1958d85b1b60a21b606082015260800190565b6020808252602c908201527f46756e6374696f6e206d7573742062652063616c6c6564207468726f7567682060408201526b6163746976652070726f787960a01b606082015260800190565b6020808252601c908201527f5377617941646d696e3a206576656e744964206e6f7420666f756e6400000000604082015260600190565b60208082526010908201526f14185d5cd8589b194e881c185d5cd95960821b604082015260600190565b6020808252602e908201527f496e697469616c697a61626c653a20636f6e747261637420697320616c72656160408201526d191e481a5b9a5d1a585b1a5e995960921b606082015260800190565b60208082526031908201527f4552433732313a207472616e736665722063616c6c6572206973206e6f74206f6040820152701ddb995c881b9bdc88185c1c1c9bdd9959607a1b606082015260800190565b6020808252602b908201527f496e697469616c697a61626c653a20636f6e7472616374206973206e6f74206960408201526a6e697469616c697a696e6760a81b606082015260800190565b6020808252602d908201527f5377617941646d696e3a2073656e64657220646f6573206e6f7420686176652060408201526c476f7665726e6f7220526f6c6560981b606082015260800190565b60008219821115613de157613de1613edd565b500190565b600082613df557613df5613ef3565b500490565b6000816000190483118215151615613e1457613e14613edd565b500290565b600082821015613e2b57613e2b613edd565b500390565b60005b83811015613e4b578181015183820152602001613e33565b838111156115ed5750506000910152565b600081613e6b57613e6b613edd565b506000190190565b600181811c90821680613e8757607f821691505b60208210811415613ea857634e487b7160e01b600052602260045260246000fd5b50919050565b6000600019821415613ec257613ec2613edd565b5060010190565b600082613ed857613ed8613ef3565b500690565b634e487b7160e01b600052601160045260246000fd5b634e487b7160e01b600052601260045260246000fd5b634e487b7160e01b600052604160045260246000fd5b6001600160a01b0381168114610ef757600080fd5b6001600160e01b031981168114610ef757600080fdfe360894a13ba1a3210667c828492db98dca3e2076cc3735a920a3ca505d382bbc7935bd0ae54bc31f548c14dba4d37c5c64b3f8ca900cb468fb8abd54d5894f55416464726573733a206c6f772d6c6576656c2064656c65676174652063616c6c206661696c6564a2646970667358221220a8d9a3b41d0252d6283f2bcb2392d7479efd9ccf1173ac0a05df43a0bc7a5ccf64736f6c63430008040033",
  "devdoc": {
    "kind": "dev",
    "methods": {
      "approve(address,uint256)": {
        "details": "See {IERC721-approve}."
      },
      "balanceOf(address)": {
        "details": "See {IERC721-balanceOf}."
      },
      "constructor": {
        "custom:oz-upgrades-unsafe-allow": "constructor"
      },
      "getApproved(uint256)": {
        "details": "See {IERC721-getApproved}."
      },
      "getRoleAdmin(bytes32)": {
        "details": "Returns the admin role that controls `role`. See {grantRole} and {revokeRole}. To change a role's admin, use {_setRoleAdmin}."
      },
      "getRoleMember(bytes32,uint256)": {
        "details": "Returns one of the accounts that have `role`. `index` must be a value between 0 and {getRoleMemberCount}, non-inclusive. Role bearers are not sorted in any particular way, and their ordering may change at any point. WARNING: When using {getRoleMember} and {getRoleMemberCount}, make sure you perform all queries on the same block. See the following https://forum.openzeppelin.com/t/iterating-over-elements-on-enumerableset-in-openzeppelin-contracts/2296[forum post] for more information."
      },
      "getRoleMemberCount(bytes32)": {
        "details": "Returns the number of accounts that have `role`. Can be used together with {getRoleMember} to enumerate all bearers of a role."
      },
      "grantRole(bytes32,address)": {
        "details": "Grants `role` to `account`. If `account` had not been already granted `role`, emits a {RoleGranted} event. Requirements: - the caller must have ``role``'s admin role."
      },
      "hasRole(bytes32,address)": {
        "details": "Returns `true` if `account` has been granted `role`."
      },
      "isApprovedForAll(address,address)": {
        "details": "See {IERC721-isApprovedForAll}."
      },
      "mintToken(uint256,address)": {
        "details": "Function to mint tokens",
        "params": {
          "eventId": "EventId for the new token",
          "to": "The address that will receive the minted tokens."
        },
        "returns": {
          "_0": "A boolean that indicates if the operation was successful."
        }
      },
      "mintToken(uint256,uint256,address)": {
        "details": "Function to mint tokens with a specific id",
        "params": {
          "eventId": "EventId for the new token",
          "to": "The address that will receive the minted tokens.",
          "tokenId": "TokenId for the new token"
        },
        "returns": {
          "_0": "A boolean that indicates if the operation was successful."
        }
      },
      "name()": {
        "details": "See {IERC721Metadata-name}."
      },
      "ownerOf(uint256)": {
        "details": "See {IERC721-ownerOf}."
      },
      "pause()": {
        "details": "called by the governor to pause, triggers stopped state"
      },
      "paused()": {
        "details": "Returns true if the contract is paused, and false otherwise."
      },
      "proxiableUUID()": {
        "details": "Implementation of the ERC1822 {proxiableUUID} function. This returns the storage slot used by the implementation. It is used to validate that the this implementation remains valid after an upgrade. IMPORTANT: A proxy pointing at a proxiable contract should not be considered proxiable itself, because this risks bricking a proxy that upgrades to it, by delegating to itself until out of gas. Thus it is critical that this function revert if invoked through a proxy. This is guaranteed by the `notDelegated` modifier."
      },
      "renounceRole(bytes32,address)": {
        "details": "Revokes `role` from the calling account. Roles are often managed via {grantRole} and {revokeRole}: this function's purpose is to provide a mechanism for accounts to lose their privileges if they are compromised (such as when a trusted device is misplaced). If the calling account had been revoked `role`, emits a {RoleRevoked} event. Requirements: - the caller must be `account`."
      },
      "revokeRole(bytes32,address)": {
        "details": "Revokes `role` from `account`. If `account` had been granted `role`, emits a {RoleRevoked} event. Requirements: - the caller must have ``role``'s admin role."
      },
      "safeTransferFrom(address,address,uint256)": {
        "details": "See {IERC721-safeTransferFrom}."
      },
      "safeTransferFrom(address,address,uint256,bytes)": {
        "details": "See {IERC721-safeTransferFrom}."
      },
      "setApprovalForAll(address,bool)": {
        "details": "See {IERC721-setApprovalForAll}."
      },
      "symbol()": {
        "details": "See {IERC721Metadata-symbol}."
      },
      "tokenByIndex(uint256)": {
        "details": "See {IERC721Enumerable-tokenByIndex}."
      },
      "tokenDetailsOfOwnerByIndex(address,uint256)": {
        "details": "Gets the token ID at a given index of the tokens list of the requested owner",
        "params": {
          "index": "uint256 representing the index to be accessed of the requested tokens list",
          "owner": "address owning the tokens list to be accessed"
        }
      },
      "tokenOfOwnerByIndex(address,uint256)": {
        "details": "See {IERC721Enumerable-tokenOfOwnerByIndex}."
      },
      "tokenURI(uint256)": {
        "details": "Gets the token uri",
        "returns": {
          "_0": "string representing the token uri"
        }
      },
      "totalSupply()": {
        "details": "See {IERC721Enumerable-totalSupply}."
      },
      "transferFrom(address,address,uint256)": {
        "details": "See {IERC721-transferFrom}."
      },
      "unpause()": {
        "details": "called by the governor to unpause, returns to normal state"
      },
      "upgradeTo(address)": {
        "details": "Upgrade the implementation of the proxy to `newImplementation`. Calls {_authorizeUpgrade}. Emits an {Upgraded} event."
      },
      "upgradeToAndCall(address,bytes)": {
        "details": "Upgrade the implementation of the proxy to `newImplementation`, and subsequently execute the function call encoded in `data`. Calls {_authorizeUpgrade}. Emits an {Upgraded} event."
      }
    },
    "version": 1
  },
  "userdoc": {
    "kind": "user",
    "methods": {},
    "version": 1
  },
  "storageLayout": {
    "storage": [
      {
        "astId": 967,
        "contract": "contracts/Sway.sol:Sway",
        "label": "_initialized",
        "offset": 0,
        "slot": "0",
        "type": "t_bool"
      },
      {
        "astId": 970,
        "contract": "contracts/Sway.sol:Sway",
        "label": "_initializing",
        "offset": 1,
        "slot": "0",
        "type": "t_bool"
      },
      {
        "astId": 949,
        "contract": "contracts/Sway.sol:Sway",
        "label": "__gap",
        "offset": 0,
        "slot": "1",
        "type": "t_array(t_uint256)50_storage"
      },
      {
        "astId": 1169,
        "contract": "contracts/Sway.sol:Sway",
        "label": "__gap",
        "offset": 0,
        "slot": "51",
        "type": "t_array(t_uint256)50_storage"
      },
      {
        "astId": 3065,
        "contract": "contracts/Sway.sol:Sway",
        "label": "__gap",
        "offset": 0,
        "slot": "101",
        "type": "t_array(t_uint256)50_storage"
      },
      {
        "astId": 3465,
        "contract": "contracts/Sway.sol:Sway",
        "label": "__gap",
        "offset": 0,
        "slot": "151",
        "type": "t_array(t_uint256)50_storage"
      },
      {
        "astId": 1369,
        "contract": "contracts/Sway.sol:Sway",
        "label": "_name",
        "offset": 0,
        "slot": "201",
        "type": "t_string_storage"
      },
      {
        "astId": 1371,
        "contract": "contracts/Sway.sol:Sway",
        "label": "_symbol",
        "offset": 0,
        "slot": "202",
        "type": "t_string_storage"
      },
      {
        "astId": 1375,
        "contract": "contracts/Sway.sol:Sway",
        "label": "_owners",
        "offset": 0,
        "slot": "203",
        "type": "t_mapping(t_uint256,t_address)"
      },
      {
        "astId": 1379,
        "contract": "contracts/Sway.sol:Sway",
        "label": "_balances",
        "offset": 0,
        "slot": "204",
        "type": "t_mapping(t_address,t_uint256)"
      },
      {
        "astId": 1383,
        "contract": "contracts/Sway.sol:Sway",
        "label": "_tokenApprovals",
        "offset": 0,
        "slot": "205",
        "type": "t_mapping(t_uint256,t_address)"
      },
      {
        "astId": 1389,
        "contract": "contracts/Sway.sol:Sway",
        "label": "_operatorApprovals",
        "offset": 0,
        "slot": "206",
        "type": "t_mapping(t_address,t_mapping(t_address,t_bool))"
      },
      {
        "astId": 2230,
        "contract": "contracts/Sway.sol:Sway",
        "label": "__gap",
        "offset": 0,
        "slot": "207",
        "type": "t_array(t_uint256)44_storage"
      },
      {
        "astId": 2395,
        "contract": "contracts/Sway.sol:Sway",
        "label": "_ownedTokens",
        "offset": 0,
        "slot": "251",
        "type": "t_mapping(t_address,t_mapping(t_uint256,t_uint256))"
      },
      {
        "astId": 2399,
        "contract": "contracts/Sway.sol:Sway",
        "label": "_ownedTokensIndex",
        "offset": 0,
        "slot": "252",
        "type": "t_mapping(t_uint256,t_uint256)"
      },
      {
        "astId": 2402,
        "contract": "contracts/Sway.sol:Sway",
        "label": "_allTokens",
        "offset": 0,
        "slot": "253",
        "type": "t_array(t_uint256)dyn_storage"
      },
      {
        "astId": 2406,
        "contract": "contracts/Sway.sol:Sway",
        "label": "_allTokensIndex",
        "offset": 0,
        "slot": "254",
        "type": "t_mapping(t_uint256,t_uint256)"
      },
      {
        "astId": 2722,
        "contract": "contracts/Sway.sol:Sway",
        "label": "__gap",
        "offset": 0,
        "slot": "255",
        "type": "t_array(t_uint256)46_storage"
      },
      {
        "astId": 184,
        "contract": "contracts/Sway.sol:Sway",
        "label": "_roles",
        "offset": 0,
        "slot": "301",
        "type": "t_mapping(t_bytes32,t_struct(RoleData)179_storage)"
      },
      {
        "astId": 472,
        "contract": "contracts/Sway.sol:Sway",
        "label": "__gap",
        "offset": 0,
        "slot": "302",
        "type": "t_array(t_uint256)49_storage"
      },
      {
        "astId": 33,
        "contract": "contracts/Sway.sol:Sway",
        "label": "_roleMembers",
        "offset": 0,
        "slot": "351",
        "type": "t_mapping(t_bytes32,t_struct(AddressSet)3790_storage)"
      },
      {
        "astId": 143,
        "contract": "contracts/Sway.sol:Sway",
        "label": "__gap",
        "offset": 0,
        "slot": "352",
        "type": "t_array(t_uint256)49_storage"
      },
      {
        "astId": 1191,
        "contract": "contracts/Sway.sol:Sway",
        "label": "_paused",
        "offset": 0,
        "slot": "401",
        "type": "t_bool"
      },
      {
        "astId": 1280,
        "contract": "contracts/Sway.sol:Sway",
        "label": "__gap",
        "offset": 0,
        "slot": "402",
        "type": "t_array(t_uint256)49_storage"
      },
      {
        "astId": 4482,
        "contract": "contracts/Sway.sol:Sway",
        "label": "eventRoleMapping",
        "offset": 0,
        "slot": "451",
        "type": "t_mapping(t_uint256,t_bytes32)"
      },
      {
        "astId": 4484,
        "contract": "contracts/Sway.sol:Sway",
        "label": "lastEventId",
        "offset": 0,
        "slot": "452",
        "type": "t_uint256"
      },
      {
        "astId": 4926,
        "contract": "contracts/Sway.sol:Sway",
        "label": "__gap",
        "offset": 0,
        "slot": "453",
        "type": "t_array(t_uint256)50_storage"
      },
      {
        "astId": 4100,
        "contract": "contracts/Sway.sol:Sway",
        "label": "lastId",
        "offset": 0,
        "slot": "503",
        "type": "t_uint256"
      },
      {
        "astId": 4102,
        "contract": "contracts/Sway.sol:Sway",
        "label": "_baseURIextendend",
        "offset": 0,
        "slot": "504",
        "type": "t_string_storage"
      },
      {
        "astId": 4104,
        "contract": "contracts/Sway.sol:Sway",
        "label": "_baseURIExtension",
        "offset": 0,
        "slot": "505",
        "type": "t_string_storage"
      },
      {
        "astId": 4108,
        "contract": "contracts/Sway.sol:Sway",
        "label": "tokenEvent",
        "offset": 0,
        "slot": "506",
        "type": "t_mapping(t_uint256,t_uint256)"
      },
      {
        "astId": 4453,
        "contract": "contracts/Sway.sol:Sway",
        "label": "__gap",
        "offset": 0,
        "slot": "507",
        "type": "t_array(t_uint256)50_storage"
      }
    ],
    "types": {
      "t_address": {
        "encoding": "inplace",
        "label": "address",
        "numberOfBytes": "20"
      },
      "t_array(t_bytes32)dyn_storage": {
        "base": "t_bytes32",
        "encoding": "dynamic_array",
        "label": "bytes32[]",
        "numberOfBytes": "32"
      },
      "t_array(t_uint256)44_storage": {
        "base": "t_uint256",
        "encoding": "inplace",
        "label": "uint256[44]",
        "numberOfBytes": "1408"
      },
      "t_array(t_uint256)46_storage": {
        "base": "t_uint256",
        "encoding": "inplace",
        "label": "uint256[46]",
        "numberOfBytes": "1472"
      },
      "t_array(t_uint256)49_storage": {
        "base": "t_uint256",
        "encoding": "inplace",
        "label": "uint256[49]",
        "numberOfBytes": "1568"
      },
      "t_array(t_uint256)50_storage": {
        "base": "t_uint256",
        "encoding": "inplace",
        "label": "uint256[50]",
        "numberOfBytes": "1600"
      },
      "t_array(t_uint256)dyn_storage": {
        "base": "t_uint256",
        "encoding": "dynamic_array",
        "label": "uint256[]",
        "numberOfBytes": "32"
      },
      "t_bool": {
        "encoding": "inplace",
        "label": "bool",
        "numberOfBytes": "1"
      },
      "t_bytes32": {
        "encoding": "inplace",
        "label": "bytes32",
        "numberOfBytes": "32"
      },
      "t_mapping(t_address,t_bool)": {
        "encoding": "mapping",
        "key": "t_address",
        "label": "mapping(address => bool)",
        "numberOfBytes": "32",
        "value": "t_bool"
      },
      "t_mapping(t_address,t_mapping(t_address,t_bool))": {
        "encoding": "mapping",
        "key": "t_address",
        "label": "mapping(address => mapping(address => bool))",
        "numberOfBytes": "32",
        "value": "t_mapping(t_address,t_bool)"
      },
      "t_mapping(t_address,t_mapping(t_uint256,t_uint256))": {
        "encoding": "mapping",
        "key": "t_address",
        "label": "mapping(address => mapping(uint256 => uint256))",
        "numberOfBytes": "32",
        "value": "t_mapping(t_uint256,t_uint256)"
      },
      "t_mapping(t_address,t_uint256)": {
        "encoding": "mapping",
        "key": "t_address",
        "label": "mapping(address => uint256)",
        "numberOfBytes": "32",
        "value": "t_uint256"
      },
      "t_mapping(t_bytes32,t_struct(AddressSet)3790_storage)": {
        "encoding": "mapping",
        "key": "t_bytes32",
        "label": "mapping(bytes32 => struct EnumerableSetUpgradeable.AddressSet)",
        "numberOfBytes": "32",
        "value": "t_struct(AddressSet)3790_storage"
      },
      "t_mapping(t_bytes32,t_struct(RoleData)179_storage)": {
        "encoding": "mapping",
        "key": "t_bytes32",
        "label": "mapping(bytes32 => struct AccessControlUpgradeable.RoleData)",
        "numberOfBytes": "32",
        "value": "t_struct(RoleData)179_storage"
      },
      "t_mapping(t_bytes32,t_uint256)": {
        "encoding": "mapping",
        "key": "t_bytes32",
        "label": "mapping(bytes32 => uint256)",
        "numberOfBytes": "32",
        "value": "t_uint256"
      },
      "t_mapping(t_uint256,t_address)": {
        "encoding": "mapping",
        "key": "t_uint256",
        "label": "mapping(uint256 => address)",
        "numberOfBytes": "32",
        "value": "t_address"
      },
      "t_mapping(t_uint256,t_bytes32)": {
        "encoding": "mapping",
        "key": "t_uint256",
        "label": "mapping(uint256 => bytes32)",
        "numberOfBytes": "32",
        "value": "t_bytes32"
      },
      "t_mapping(t_uint256,t_uint256)": {
        "encoding": "mapping",
        "key": "t_uint256",
        "label": "mapping(uint256 => uint256)",
        "numberOfBytes": "32",
        "value": "t_uint256"
      },
      "t_string_storage": {
        "encoding": "bytes",
        "label": "string",
        "numberOfBytes": "32"
      },
      "t_struct(AddressSet)3790_storage": {
        "encoding": "inplace",
        "label": "struct EnumerableSetUpgradeable.AddressSet",
        "members": [
          {
            "astId": 3789,
            "contract": "contracts/Sway.sol:Sway",
            "label": "_inner",
            "offset": 0,
            "slot": "0",
            "type": "t_struct(Set)3489_storage"
          }
        ],
        "numberOfBytes": "64"
      },
      "t_struct(RoleData)179_storage": {
        "encoding": "inplace",
        "label": "struct AccessControlUpgradeable.RoleData",
        "members": [
          {
            "astId": 176,
            "contract": "contracts/Sway.sol:Sway",
            "label": "members",
            "offset": 0,
            "slot": "0",
            "type": "t_mapping(t_address,t_bool)"
          },
          {
            "astId": 178,
            "contract": "contracts/Sway.sol:Sway",
            "label": "adminRole",
            "offset": 0,
            "slot": "1",
            "type": "t_bytes32"
          }
        ],
        "numberOfBytes": "64"
      },
      "t_struct(Set)3489_storage": {
        "encoding": "inplace",
        "label": "struct EnumerableSetUpgradeable.Set",
        "members": [
          {
            "astId": 3484,
            "contract": "contracts/Sway.sol:Sway",
            "label": "_values",
            "offset": 0,
            "slot": "0",
            "type": "t_array(t_bytes32)dyn_storage"
          },
          {
            "astId": 3488,
            "contract": "contracts/Sway.sol:Sway",
            "label": "_indexes",
            "offset": 0,
            "slot": "1",
            "type": "t_mapping(t_bytes32,t_uint256)"
          }
        ],
        "numberOfBytes": "64"
      },
      "t_uint256": {
        "encoding": "inplace",
        "label": "uint256",
        "numberOfBytes": "32"
      }
    }
  }
}